:020000040800F2
:10000000203E002099010008693A0008192C0008D8
:1000100001350008F10B0008C94500080000000088
:1000200000000000000000000000000001010008C6
:10003000770C000800000000450100088D3F000813
:10004000B3010008B3010008B3010008B3010008C0
:10005000B3010008B3010008B3010008B3010008B0
:10006000B3010008B3010008B3010008B3010008A0
:10007000B3010008B3010008B3010008B301000890
:10008000350C0008410C0008B3010008B30100085A
:10009000B3010008B3010008B3010008B301000870
:1000A000B3010008B3010008B3010008B301000860
:1000B000B30100080D400008B3010008B3010008B7
:1000C000B3010008B3010008B3010008B301000840
:1000D000B3010008A5450008B1450008BD4500086A
:1000E000B3010008B3010008B3010008DFF80CD029
:1000F00000F0EEFC00480047A97B0008203E0020ED
:10010000224B19680868B0E8F00F80F30988BFF344
:100110006F8F4FF0000080F311884EF00D0E704786
:100120000000000006480068006880F3088862B696
:1001300061B6BFF34F8FBFF36F8F00DF00BF00BF0B
:1001400008ED00E0EFF30980BFF36F8F0F4B1A68E3
:1001500020E9F00F106008B54FF0500080F31188CF
:10016000BFF34F8FBFF36F8F0AF002F84FF000001C
:1001700080F31188BDE8084019680868B0E8F00FFE
:1001800080F30988BFF36F8F704700BF9400002091
:10019000EFF3058070470000064880470648004797
:1001A000FEE7FEE7FEE7FEE7FEE7FEE7FEE7FEE727
:1001B000FEE7FEE709400008ED0000082DE9F05FCA
:1001C0000546002092469B468846064681464024C6
:1001D0001BE0284641464746224600F020F8534699
:1001E0005A46C01A914110D311461846224600F0D3
:1001F0005FFB2D1A67EB01084F46224601200021C4
:1002000000F056FB17EB00094E41201EA4F101043B
:10021000DFDC484631462A464346BDE8F09F202AA7
:1002200004DB203A21FA02F00021704721FA02F3A0
:10023000D040C2F12002914008431946704740EA7D
:1002400001039B0703D009E008C9121F08C0042A54
:10025000FAD203E011F8013B00F8013B521EF9D23B
:100260007047D2B201E000F8012B491EFBD2704763
:100270000022F6E710B513460A4604461946FFF772
:10028000F0FF204610BD421C10F8011B0029FBD1D5
:10029000801A7047034611F8012B00F8012B002A41
:1002A000F9D118467047F0B480EA0102D40F420039
:1002B000B2EB410F02D20246084611464A0042D034
:1002C000C30DDDB2C1F3C752AD1A202D35DAC1F32B
:1002D000160141F4000204B15242C5F1200602FAAF
:1002E00006F12A411044B3EBD05F23D0C4B1012DF5
:1002F000A0EBC35009DCF0BC4FF0004202EAC3524D
:10030000DBB200F5000000F0FDBA400000F18070A3
:1003100000EBC350A0F1807040EAD170490009E0C1
:10032000490841EAC071A0EBC35000F50000400845
:1003300000EBC350F0BC00F0DCBA6142012202EBDA
:100340004101001BF6E7F0BC704781F00041AAE7CD
:1003500080F00040A7E780EA010210B502F00043F8
:10036000400022D04A001FD0010E01EB1261C0F301
:100370005600C2F3560240F4000042F40002A0FB13
:10038000022000047F39140400D0401C50EA1240BF
:1003900001D44000491EC2B20C0604EBD010401C30
:1003A0004008802A02D003E0002010BD20F00100A8
:1003B000002900DA0020184310BD30B480EA0102A1
:1003C00002F0004530F0004221F0004013D090B11F
:1003D000C30DD40DC2F31601C0F31600E41A41F4A4
:1003E000000140F400027D34914201D3641C00E01E
:1003F0004900002C02DA30BC002070474FF40000A6
:100400000023914201D3891A034340084FEA410176
:10041000F7D151B1914202D14FF0004105E002D233
:100420004FF0010101E06FF0010103EBC4502844DB
:1004300030BC00F05EBA420005D0C0F3C752524251
:10044000914201DC0020704700EBC15070472DE95C
:10045000FE4F804681EA0300C00F0C46009021F059
:10046000004123F00045B8EB0200A94105D2404607
:10047000214690461C460B46024623F0004010439E
:1004800047D0270DC7F30A00C3F30A510290401A60
:10049000019040286BDAC3F3130040F4801B0098EE
:1004A000924620B10023D2EB030A63EB0B0B0198B9
:1004B0005946C0F14002504600F0FAF906460D4692
:1004C00050465946019A00F002FA10EB08006141CB
:1004D000002487EA115284EAE7731A4340D0009A55
:1004E00062B3019A012A4FEA075215DC001B61EB47
:1004F00002014FF0004202EA0752CDE90042001C1F
:1005000041F5801132462B4600F039FA03B0BDE8C0
:10051000F08F40462146F9E7001B61EB0201001C09
:1005200041F5801300185B412018A2F5001747EB36
:10053000030140EAD570B6196D4111E06D084FEA2C
:10054000360645EAC0754FEA0752001B61EB02010F
:10055000001C41F5801149084FEA30000019514153
:1005600032462B4603B0BDE8F04F00F0F9B90098D1
:10057000012240000023D0EB020263EBE0730098FD
:1005800021464FEAE074B8EB000061EB0401E9E7B3
:1005900083F000435BE781F0004158E72DE9FE4F0F
:1005A00081EA030404F0004421F0004100944FF07C
:1005B000000B23F0004350EA01045ED052EA03042A
:1005C0005BD0C3F30A54C1F30A552C44A4F2F334AC
:1005D0000194A0FB0254C1F3130141F48011C3F351
:1005E000130343F4801301FB024400FB034E840A0F
:1005F000970A44EA815447EA8357A4FB07680295A7
:100600008D0A05FB07854FEA932C04FB0C54270544
:10061000029D4FEA065847EA1637B5EB08056EEB20
:10062000070C870E920E47EA811742EA8312A7FB56
:100630000201B6EB0B0164EB00042B0D43EA0C3313
:100640005E1844EB1C50DA465146E7FB0201C5F345
:1006500013044FEA0B3343EA14534FEA0432019C6C
:1006600043EA0603A4F10C040294009CCDE900B413
:1006700000F085F903B0BDE8F08F00200146F9E7EE
:100680002DE9F04D81EA030404F0004B21F0004510
:1006900014464FF0000A23F0004150EA050220D032
:1006A00054EA01021DD0C5F30A570246C5F31303ED
:1006B000C1F31300C1F30A5640F4801543F48013CC
:1006C000A7EB0608101BD64608F2FD3873EB0500B1
:1006D00002D308F1010801E092185B41B8F1000F64
:1006E00003DA00200146BDE8F08D00204FF48011B0
:1006F000064684460EE0171B73EB050705D3121B55
:1007000063EB050306434CEA010C49084FEA30004D
:1007100092185B4150EA0107EDD152EA030012D072
:1007200082EA040083EA0501084305D0101BAB41AF
:1007300006D20122002306E000224FF0004302E02F
:100740006FF0010253101AEB06004CEB085110EB4E
:100750000A0041EB0B01BDE8F04D00F001B9C10FFB
:1007600080EAE0700844CA079623002100F0CAB866
:100770000EB5C10F80EAE0700844CA07002140F2BC
:1007800033438DE80E000A460B4600F0F8F803B03C
:1007900000BD00F0004220F00040C10DC0F3160083
:1007A00040F400007F2901DA00207047962903DC1D
:1007B000C1F19601C84001E096398840002AF4D082
:1007C0004042704700F0004230F000400AD0C10DB6
:1007D00001F56071C0F3160042EA0151C2084007FA
:1007E00011437047002001467047000030B5041ED9
:1007F00071F1000404DB4FF00044404264EB01015E
:10080000141E73F1000405DB1C464FF000435242F6
:1008100063EB04038B4208BF824230BD30B5041E37
:1008200071F1000404DB4FF00044404264EB01012D
:10083000141E73F1000405DB1C464FF000435242C6
:1008400063EB0403994208BF904230BD01F00043BE
:1008500030B421F0004150EA010206D00A0DA2F5A1
:100860006072C1F31301002A02DC30BC0020704723
:10087000440F44EAC104C100E01830BC00EBC25090
:1008800000F037B830B50B46014600202022012485
:1008900009E021FA02F59D4205D303FA02F5491B4E
:1008A00004FA02F52844151EA2F10102F1DC30BD64
:1008B000202A04DB203A00FA02F100207047914020
:1008C000C2F1200320FA03F3194390407047202A15
:1008D00006DBCB17203A41FA02F043EAE07306E068
:1008E00041FA02F3D040C2F1200291400843194678
:1008F00070470029A8BF7047401C490008BF20F07E
:100900000100704710B4B0FA80FC00FA0CF050EA15
:10091000010404BF10BC704749B1CCF1200421FA96
:1009200004F411FA0CF118BF012121430843A3EB91
:100930000C01CB1D4FEA00614FEA102042BF00209E
:1009400010BC704700EBC35010440029A4BF10BC7A
:100950007047401C490008BF20F0010010BC7047E0
:1009600010B5141E73F1000408DA401C41F10001B7
:1009700092185B411A4301D120F0010010BD2DE90E
:10098000F04D92469B4611B1B1FA81F202E0B0FA05
:1009900080F220329046FFF78BFF04460F4640EA74
:1009A0000A0041EA0B0153465A46084313D0114648
:1009B00053EA010019D0C8F140025046FFF72FFC5E
:1009C00005460E46504659464246FFF771FF08431A
:1009D00005D0012004E020463946BDE8F08D002016
:1009E000054346EAE0762C4337430A986305E40A58
:1009F000A0EB08000022FD0A44EA47540A3002D561
:100A000000200146E9E7010510196941DDE90845C3
:100A100000196941BDE8F04DA2E72DE9FE4FC3F38F
:100A20000A5701F000450024C1F30A56C3F313032B
:100A3000C1F3130143F4801312EB020AA64641F4FA
:100A40008011009543EB030CA7F1010B16E0B0EB0E
:100A50000A0061EB0C01071E71F1000707DA4FF085
:100A60000008D0EB080085F0004568EB0101171A7B
:100A700073EB0107EBD3761E001849415E45F6DAA9
:100A800050EA010209D0CDE900E5002213460296A2
:100A9000FFF775FF03B0BDE8F08F20460099F9E736
:100AA000C1F30A52C1F3130140F2FF3341F4801144
:100AB0009A4202DA00200146704740F233439A42DC
:100AC000A2F2334202DC5242FFF7A9BBFFF7F0BEAD
:100AD000064C074D06E0E06840F0010394E807008B
:100AE00098471034AC42F6D3FFF704FBE8BA00088D
:100AF00008BB000870B521F0004303430CD0C1F3DC
:100B00000A550024D5EB040564EB0403D617AD1A8F
:100B1000B34102DB0020014670BD201841EB0251B9
:100B200070BD70B58C1810F8015B15F0070301D18A
:100B300010F8013B2A1106D110F8012B03E010F840
:100B4000016B01F8016B5B1EF9D12B0705D4002363
:100B5000521E0DD401F8013BFAE710F8013BCB1A05
:100B6000921C03E013F8015B01F8015B521EF9D5FA
:100B7000A142D8D3002070BD086000204861C1E9BF
:100B8000022303B19960D06848B110690861106907
:100B9000416111611079401C107108717047096141
:100BA000D16001201161F7E708600020C86008618A
:100BB000704700000949084888611C31084888616D
:100BC0001C3108488861703107488861A1F58C7133
:100BD0000648886170470000B93E0008C433002011
:100BE000C53D000875660008F50B0008553E000875
:100BF000FEE7000010B508A32D226421074808F085
:100C000045F9064808F068F905A005F03BFDBDE888
:100C10001040002009F0D6B94F4E0000882F002068
:100C200043617220697320726561647921212121F9
:100C30000A000000014800F07FBA000054060020BE
:100C4000014800F079BA00009806002030B590F80D
:100C500040500124AC40C56B6C600468636043681D
:100C6000102B036803D099600068C26030BD9A60A1
:100C70000068C16030BD70472DE9FF4F81B000248E
:100C80000E98144F92468B46264625464FFA83F916
:100C90004FFA80F8641CE4B273B24A462146B87831
:100CA00002F0ECF986B26BB242462146B87802F007
:100CB000E5F985B23346524659460095019800F051
:100CC0000BF8019808F008F9B8788442E2D305B02F
:100CD000BDE8F08F100100202DE9F843154C814646
:100CE0008846E0781E4680F0010117464846089D78
:100CF00008F0FBF833463A4641464846009507F06F
:100D0000E0FEE178484608F0F0F8AD1EA8B2009089
:100D100008F10100B61E7F1C81B2B3B2BAB24846D8
:100D200007F06DFEE07880F001014846BDE8F84329
:100D300008F0DBB8100100202DE9FF4F83B0834697
:100D4000984689460026109D1868FFF79CFA00EB2C
:100D500040014FF0040A0AEB4100C7B24B4808F0CB
:100D6000E3F84B49494808F0C8F8D8F80C000C21C2
:100D7000484CC368AB4206D1454504D0E171002020
:100D80002072607220702A7998F80400101A627A32
:100D900050EA020C4FF0010201D0AB4202D12172A5
:100DA00062721AE000280CDD237A00EB400003EBAE
:100DB000800040B2207230280FDD22703020207277
:100DC0000BE00AD5237A00EB400003EB800040B231
:100DD00020720C2801DA22702172D9E903025061D5
:100DE000D9E903020261294807F000FE761CF6B239
:100DF000E178264808F079F840200022009080230E
:100E00001146224807F0FBFDE07880F001011F4801
:100E100008F06BF82A464146304600F03DF8009550
:100E2000434649465846059A00F072F80221174891
:100E300008F05BF8E07994F9082043B23146607815
:100E400002F01CF9E0712868FFF71DFA00EB400181
:100E50000AEB410042B27BB23146607802F00EF9F3
:100E60000C21CDE9001AC7B2E0793B46401E82B2A0
:100E70000BF10101054807F014FF044808F02CF8B5
:100E800060788642AFD307B0BDE8F08F882F00208E
:100E900082AD0008100100202DE9F84380469068DB
:100EA000402711790079491EB7FBF0F0164C4843F2
:100EB000164660713B4602227A21144807F0EEFF85
:100EC00000250AE0B7FBF0F06843801C82B20623DD
:100ED00077210E4807F071FE6D1CB0680079A842BA
:100EE000F0D82079414643B2607942B2607802F08E
:100EF000C5F8C2B22271042000900823762103486D
:100F000007F07DFDBDE8F88310010020882F002048
:100F10002DE9F0470D46CE68D96881460898C96822
:100F20002A4C9046814203D1984201D00921A171F7
:100F3000027926481B7900270178A2EB030C287957
:100F4000BCF1000F01DD012905D0BCF1000F20D557
:100F500001290FD01DE0011F27708C4507DDC0F16E
:100F60000400A17900EB400001EB800010E0A079C3
:100F70000C380DE09A1A011F27708A4206DDA1790C
:100F800000EB400001EB8000303801E0A0790C302C
:100F9000A07101270EE000BF94F9061007FB0810AE
:100FA000092805D982B249460948336807F06EFF1F
:100FB00076697F1C2879B842EED249462B68BDE895
:100FC000F0470922024807F061BF0000100100202D
:100FD000882F002010B502F005FA02F037FA002140
:100FE000084801F0F3F80421064801F0EFF8002169
:100FF000054801F0EBF8BDE810400421024801F07B
:10100000E5B80000F8040020B004002072B6FEE746
:1010100010B50068406A00B2FFF7A1FB0349FFF773
:101020009AF9BDE810400249FFF7C7B90000B44380
:101030000000524710B50168486A002200B24A62B7
:1010400041F270714843FFF78AFBBDE81040014947
:10105000FFF7B3B90000524710B590F821100022F5
:10106000022905D00421816380F82020012010BDD1
:1010700001680B6823F00E030B6001680B6823F016
:1010800001030B6090F84030C46B012101FA03F3B7
:10109000636080F8211080F82020104610BD000009
:1010A00010B590F821100024022903D00421816397
:1010B00001243DE001680A6822F00E020A6001681E
:1010C0000A6822F001020A601A4A0168914201D1BD
:1010D000012121E0174A1432914201D110211BE075
:1010E000144A2832914201D1891515E0114A3C3247
:1010F000914201D189140FE00E4A5032914202D13F
:101100004FF4803108E00B4A6432914202D14FF42F
:10111000801101E04FF08071064A083A51600121C8
:1011200080F82110002180F82010416B01B1884720
:10113000204610BD080002402DE9F05FC16B0C682D
:1011400001680B68D0F840C0042202FA0CF2494D45
:10115000DFF824A1494E4A4FDFF828B1DFF828E133
:1011600022422CD05A072AD50A68920603D40A686C
:1011700022F004020A600168A94201D1042219E0A8
:10118000514501D1402215E0B14202D14FF48062B5
:1011900010E0B94202D14FF480420BE0594502D130
:1011A0004FF4802206E0714502D14FF4800201E045
:1011B0004FF080622F4908394A60C16A3BE04FF026
:1011C000020808FA0CF818EA040F4FF000094FF073
:1011D000010235D05FEA837832D50B689B0605D4CF
:1011E0000B6823F00A030B6080F821200168A942F4
:1011F00001D1022219E0514501D1202215E0B1426E
:1012000002D14FF4007210E0B94202D14FF4005203
:101210000BE0594502D14FF4003206E0714502D18E
:101220004FF4001201E04FF00072124908394A6091
:1012300080F82090816A00291AD0BDE8F05F084745
:10124000082505FA0CF5254212D01B0710D50B68AE
:1012500023F00E030B6090F84010C36B02FA01F10B
:101260005960826380F8212080F82090016BE2E7CA
:10127000BDE8F09F080002401C0002403000024020
:1012800044000240580002406C00024030B528B3D0
:1012900008C8134914221944B1FBF2F18900C16353
:1012A00010498163022141771A6843F6F0718A433D
:1012B000D0E900142143D0E902452C4321430469BD
:1012C000214344692143846921431143196000216A
:1012D0004163012242770177084630BD012030BDCD
:1012E000F8FFFDBF0000024070B5044690F82000F2
:1012F000002501280CD0012084F8200094F82160FA
:101300000020012E06D084F820000225284670BD5A
:10131000022070BD022684F82160A0632068066860
:1013200026F0010606602046FFF790FCE06A0028E0
:101330002068016802D041F00E0106E021F00401AE
:1013400001602068016841F00A01016020680168BD
:1013500041F001010160D9E72DE9F84FDFF8B891BC
:101360000024A9F1040B23460F2709F1040AABF16D
:10137000040EC9E00125A5402A40AA427DD1674E4E
:10138000D1F804C0ACEB0608B44532D014DCBCF193
:10139000030F3AD009DCBCF1000F2AD0BCF1010FD9
:1013A0001CD0BCF1020F31D11DE0BCF1110F17D0E0
:1013B000BCF1120F2AD119E0B8F5881F19D006DC4C
:1013C000B8F5803F15D0B8F5801F1FD111E0B8F5F2
:1013D000001F0ED0B8F5041F18D10AE0CB6815E045
:1013E000CB681B1D12E0CB6808330FE0CB680C33D1
:1013F0000CE08B682BB1012B4FF0080303D0456143
:1014000004E0042302E0056100E00023FF2A01D884
:10141000064601E000F104064FEA840501D9A5F172
:101420002005D6F8008007FA05FC28EA0C0803FA24
:1014300005F548EA0508C6F800804D68ED0062D55C
:10144000374DAE6946F00106AE61AD6924F0030682
:1014500005F001050095334D06EB050CDCF808504E
:10146000A607360F07FA06F825EA0805DFF8B88060
:10147000404503D14FF0000817E044E0DFF8AC80AE
:10148000404502D14FF001080FE0DFF8A48040454D
:1014900002D14FF0020808E0DFF89880404502D101
:1014A0004FF0030801E04FF0040808FA06F848EA94
:1014B0000508CCF808804D68D9F80060ED024D466B
:1014C00001D5164300E096432E604D68DAF80060BF
:1014D000AD02554601D5164300E096432E604D6897
:1014E000DBF80060AD035D4601D5164300E096438E
:1014F0002E604D68DEF80060ED03754601D5164399
:1015000000E096432E60641C0D682A46E5407FF497
:1015100031AFBDE8F88F0000080401400000111051
:10152000001002400000014000080140000C014092
:1015300000100140001401408068084000D00120E4
:1015400070470AB1016170470904FBE701488068F0
:10155000704700002400002070B5040025D094F8E6
:101560003D00002520B984F83C50204600F04EF99B
:10157000242084F83D002068016821F00101016009
:101580002068016841F4004101602068016821F48D
:101590000041016000F0F2FA4D4A6168914201D8C1
:1015A0004C4900E04C49884201D2012070BD4B49B2
:1015B0002368B0FBF1F15E6826F03F060E435E60E3
:1015C0006368934206D94FF4967359434FF47A7384
:1015D000B1FBF3F12368491C1E6A26F03F06314334
:1015E00019626168914210D84900401EB0FBF1F2C7
:1015F000521CC2F30B02042A01D2042022E0B0FBE9
:10160000F1F0401CC0F30B001CE0A268F2B301EB48
:10161000C10303EB0116431EB3FBF6F35B1C43F45B
:1016200080431B0549D092B301EBC10202EB0111CB
:10163000401EB0FBF1F0401CC0F30B0040F48040B2
:1016400040F400402168CA694CF6FF739A43104386
:10165000C861D4E9071001432068026822F0C00283
:1016600011430160D4E9030101432068826848F214
:10167000FF339A4311438160D4E90501084321688F
:10168000CA6822F0FF021043C86001E00EE016E0D5
:101690002068016841F0010101602564202084F880
:1016A0003D00256384F83E50002070BD01EB4106EB
:1016B000431EB3FBF6F35B1CB3E70120C2E701EB6B
:1016C0004101401EB0FBF1F0401CC0F30B00B7E736
:1016D000A086010080841E0000093D0040420F00EA
:1016E0002DE9F84F1F4690468A460446DDF82890BB
:1016F000FFF72CFF054694F83D0020287FD11923E1
:10170000012240492046009501F096FB002876D141
:1017100094F83C00012872D0012084F83C00206835
:101720000168C90703D1016841F001010160206827
:10173000016821F400610160212084F83D0010203F
:1017400084F83E0000262664C4F824806785608DF6
:1017500020852D48E0622B464A465146204601F03E
:101760008BFA90B9206841698069009036E02A467A
:101770004946204601F006FC50B1206C042804D1F3
:101780002068016841F4007101600120BDE8F88F14
:10179000606A216800780861606A401C6062618D3F
:1017A000491E6185218D491E89B2218522685369B0
:1017B000DB435B070BD451B100781061606A401CB9
:1017C0006062608D401E6085208D401E20852A4607
:1017D0004946204601F004FB0028CED1208D002888
:1017E000C5D154F83D0B016841F40071016020201F
:1017F00004F81E09E67766770020C7E7FFE70220B6
:10180000C4E70000020010000000FFFF10B586B022
:1018100000210091019102910391006813498842CF
:1018200022D1134CA06940F00800A061A06969466C
:1018300000F0080004904FF44070009012200190D6
:10184000032003900B48FFF787FD0B48416841F0E8
:10185000E06141F002014160E06940F40010E061A4
:10186000E06900F40010049006B010BD0054004080
:1018700000100240000C0140000001400248816855
:10188000027811448160704724000020074810B599
:10189000016841F010010160032000F0A7F80F205B
:1018A00000F006F800F050F8002010BD00200240C3
:1018B00030B505461F4887B0C16941F00201C161DA
:1018C000C06906A900F00200009001A800F036F9F6
:1018D0000498B0B100F052F940001749174AB0FB24
:1018E000F1F11748491E0260416040F2E7320021E1
:1018F000C0E903218160816100F076FB040003D020
:1019000015E000F03BF9E8E70D4800F09BFB040010
:101910000DD11D2000F03CF8102D07D200222946E1
:101920001D2000F043F80748056000E0012407B0DF
:10193000204630BD0010024040420F00000400402D
:10194000DC060020280000200F4808B5816941F01E
:1019500001018161816901F001010091C16941F0DA
:101960008051C161C069002200F0805000900F21B9
:10197000901E00F01BF80548416821F0E06141F03D
:101980000071416008BD00000010024000000140ED
:10199000002809DB00F01F0201219140400980006E
:1019A00000F1E020C0F8001170470000F0B40E4BC9
:1019B0001B680C46C3F30223C3F10705042D00D9AD
:1019C0000425191D072901D2002300E0DB1E012692
:1019D00006FA05F1491E214099409E40761E1640A8
:1019E0003143F0BC04F086BE0CED00E0064900F087
:1019F000070208684FF6FF03184040EA0220034A36
:101A000010430860704700000CED00E00000FA058C
:101A10002DE9F0470F46050061D0434E306800F0D5
:101A20000700B84209D2306820F007003843306020
:101A3000306800F00700B84251D128683B4C81075C
:101A400012D5400703D5606840F4E06060602878F4
:101A5000000703D5606840F4605060606068A96862
:101A600020F0F000084360602878C00728D068683C
:101A7000012810D02168022810D0890700292EDA09
:101A8000616821F0030101436160FFF75FFD80465B
:101A900041F288390DE021688903EFE78901EDE71C
:101AA000FFF754FDA0EB0801494502D90320BDE82A
:101AB000F0876068696800F00C00B0EB810FEFD12F
:101AC000306800F00700B8420BD9306820F00700FA
:101AD00038433060306800F00700B84201D0012080
:101AE000E5E72878400705D56068E96820F4E060FC
:101AF000084360602878000706D56068296920F4EB
:101B0000605040EAC100606000F058F86168084A1F
:101B1000C1F30311515CC8400649086006480068DB
:101B2000FFF7C6FE0020C2E700200240001002407E
:101B30006AAD000830000020280000200F2202605B
:101B40000C4A536803F003034360536803F0F00347
:101B50008360536803F4E063C36052684FF4E0634A
:101B600003EAD20202610448006800F0070008603E
:101B70007047000000100240002002400448054960
:101B800000684968044AC1F30221515CC8407047AB
:101B900030000020001002407AAD000804480549DA
:101BA00000684968044AC1F3C221515CC8407047CB
:101BB00030000020001002407AAD00080E4A516843
:101BC0000E4801F00C03042B11D0082B0FD10C4848
:101BD000C1F38343C903C05C0AD55168084AC1F305
:101BE0004041921E515C054A5043B0FBF1F07047F2
:101BF00004494843704700000010024000127A0078
:101C00005AAD000800093D002DE9F84F040070D0DE
:101C10002078C04DC00749D06868C0F38100012812
:101C200007D06868C0F38100022809D16868C00342
:101C300006D52868800339D560680028E7D035E0EC
:101C40006068B0F5803F0BD010B1B0F5A02F11D077
:101C5000286820F480302860286820F4802002E082
:101C6000286840F480302860606890B1FFF76EFC0F
:101C700006460AE0286840F480202860F0E700BFAC
:101C8000FFF764FC801B642873D828688003F7D5AD
:101C90000CE0FFF75BFC064605E000BFFFF756FCD3
:101CA000801B6428F0D828688003F7D420789A4EE7
:101CB00080074FF001094FF0000839D5686810F02F
:101CC0000C0F07D06868C0F38100022809D168684A
:101CD000C00306D42868800714D52069012808D1DC
:101CE00010E02069B0B1C6F80090FFF72FFC07465E
:101CF00005E00AE1FFF72AFCC01B0228C4D82868C7
:101D00008007F7D52868616920F0F80040EAC10033
:101D100028600DE0C6F80080FFF718FC074604E0D5
:101D2000FFF714FCC01B022823D828688007F7D4CB
:101D3000207800072CD57948A169D9B1C0F8009066
:101D4000FFF704FC074604E0FFF700FCC01B022875
:101D50000FD8686A8007F7D571484FF4FA510068C8
:101D6000B0FBF1F0009000BF0098411E0091FAD244
:101D70000EE080E0C0F80080FFF7E8FB074604E0D3
:101D8000FFF7E4FBC01B022875D8686A8007F7D408
:101D90002078400760D5E8690027C00008D4E869CA
:101DA00040F08050E861E869012700F08050009021
:101DB0005C480168C90513D40168834641F4807109
:101DC0000160FFF7C3FB824606E000BFFFF7BEFBE2
:101DD000A0EB0A0064284ED8DBF80000C005F5D55A
:101DE000E06801280AD008B1052813D0286A20F03D
:101DF00001002862286A20F0040002E0286A40F00E
:101E000001002862E06841F2883B98B1FFF79EFB31
:101E100082460BE0286A40F004002862EEE700BF2B
:101E2000FFF794FBA0EB0A0159455AD8286A8007AE
:101E3000F6D50CE0FFF78AFB824605E0FFF786FB4C
:101E4000A0EB0A0159454CD8286A8007F6D41FB187
:101E5000E86920F08050E861E06988B36968C1F3FF
:101E60008101022944D00228C6F8608004D0FFF71F
:101E70006DFB044638E034E0FFF768FB074604E0FA
:101E8000FFF764FBC01B02282BD828688001F7D419
:101E9000206AB0F5803F05D16868A16820F4003061
:101EA00008436860D4E908010843696821F47411A3
:101EB00008436860C6F86090FFF748FB044606E0F8
:101EC00025E000BFFFF742FB001B022809D8286865
:101ED0008001F7D51BE000BFFFF738FB001B02288D
:101EE00002D90320BDE8F88F28688001F4D40EE001
:101EF0000128F7D06868226A00F48031914204D149
:101F0000616A00F47010884201D00120EAE70020E5
:101F1000E8E7000000100240000042428004424214
:101F200030000020007000407047704710B590F8F6
:101F30003C20012A22D0012280F83C20CA688C680B
:101F400022F4407222434C6822F4806222430C68DF
:101F500022F4006222430C6922F4805222434C692D
:101F600022F400522243C969002322F480420A432A
:101F700001684A6480F83C30002010BD022010BD8A
:101F800070B590F83C20012A26D0012480F83C400E
:101F9000022280F83D2003685A689D6822F070068E
:101FA0000A6832435A600D4B02689A4208D0B2F177
:101FB000804F05D00A4B9A4202D00A4B9A4204D174
:101FC000496825F080031943916080F83D40002165
:101FD00080F83C10084670BD022070BD002C014006
:101FE000000400400008004010B5040003D094F83D
:101FF0003D0010B107E0012010BD002084F83C0036
:10200000204600F01EF8022084F83D00211D2068C3
:1020100002F002F8012084F8460084F83E0084F8BB
:102020003F0084F8400084F8410084F8420084F8BE
:10203000430084F8440084F8450084F83D00002003
:1020400010BD704790F83D10012901D00120704764
:10205000022180F83D100168CA6842F00102CA609E
:1020600000680B49884208D0B0F1804F05D009497B
:10207000884202D00849884204D1816801F00701F2
:10208000062903D0016841F001010160002070477A
:10209000002C014000040040000800402DE9F04100
:1020A0000D46040003D094F83D0018B108E001206B
:1020B000BDE8F081002084F83C00204600F040F8A4
:1020C000022084F83D002068816844F207029143B1
:1020D0008160211D206801F09FFF2268906891694E
:1020E000166A2B68AF69034340F20330814341EA2B
:1020F0000721A868EF6908434FF6FC418843E96867
:1021000040EA0720014328692F6A000140EA0730AE
:10211000084369686D6926F0220646EA05152943D9
:1021200093602268906154F8460B0162012004F824
:102130001F09E0752076E0762077A0750020B7E7CC
:1021400000B585B0002100910191029103910168D1
:102150001A48B1F1804F1BD0194A914216D1C1697A
:1021600041F00401C161C16901F004010491816978
:1021700041F0080181618069694600F0080004901F
:10218000C02000900F4800BFFFF7E6F805B000BD83
:10219000C16941F00101C161C16901F0010104910E
:1021A000816941F0040181618069694600F00400A1
:1021B0000490032000900448E6E70000001002406D
:1021C00000080040000C01400008014070B590F884
:1021D0003E60044690F83F5090F8423090F843201B
:1021E000022021B104290ED0012E1BD114E0012EB2
:1021F00018D1012B16D184F83E0084F84200012248
:102200000021206820E0012D0CD1012A0AD184F898
:102210003F0084F8430014E0012D03D1012B01D1CC
:10222000012A01D0012070BD84F83E0084F83F00EF
:1022300084F8420084F8430001220021206801F064
:1022400021FF01220421206801F01CFF20680168A1
:1022500041F001010160002070BD704770B5044677
:10226000006801694FF00005C943890715D4C168AA
:10227000C943890711D4E91E016101202077206834
:1022800080698007204602D0FFF7E7FF04E000F0F6
:10229000BFF8204600F064F9257720680169C9433A
:1022A000490717D4C168C943490713D46FF0040123
:1022B0000161022020772068806910F4407F204669
:1022C00002D0FFF7CAFF04E000F0A2F8204600F0B9
:1022D00047F9257720680169C943090716D4C16801
:1022E000C943090712D46FF0080101610420207767
:1022F0002068C0698007204602D0FFF7AEFF04E0E7
:1023000000F086F8204600F02BF925772068016957
:10231000C943C90617D4C168C943C90613D46FF0AD
:1023200010010161082020772068C06910F4407F07
:10233000204602D0FFF791FF04E000F069F8204644
:1023400000F00EF9257720680169C943C90708D153
:10235000C168C943C90704D1891E0161204600F044
:102360004FF920680169C943090609D4C168C94306
:10237000090605D46FF0800101612046FFF7D4FD06
:1023800020680169C943490609D4C168C94349069F
:1023900005D46FF040010161204600F03BF9206850
:1023A0000169C94389060BD4C168C943890607D4AA
:1023B0006FF0200101612046BDE87040FFF7B5BD18
:1023C00070BD000000B585B000210091019102911F
:1023D000039100680B49884212D10B48816941F092
:1023E000040181618069694600F0040004904FF4A3
:1023F000106000900220019003900448FEF7ACFFAB
:1024000005B000BD002C0140001002400008014052
:10241000704770B5044690F83C0000260D46012830
:102420000FD0012084F83C006AB1042A1DD0082A8C
:102430002FD00C2A3FD00126002084F83C003046E3
:1024400070BD022070BD206801F02AFE20688169FD
:1024500041F0080181612068816921F004018161F6
:10246000206881692A69114311E0206801F040FE6B
:102470002068816941F4006181612068816921F4EB
:1024800080618161206881692A6941EA0221816154
:10249000D2E7206801F058FE2068C16941F00801C8
:1024A000C1612068C16921F00401C1612068C1696E
:1024B0002A69114311E0206801F072FE2068C169A9
:1024C00041F40061C1612068C16921F48061C1618A
:1024D0002068C1692A6941EA0221C161ACE710B5EF
:1024E000040003D094F83D0010B107E0012010BDB6
:1024F000002084F83C00204600F01EF8022084F8FA
:102500003D00211D206801F087FD012084F8460070
:1025100084F83E0084F83F0084F8400084F84100CD
:1025200084F8420084F8430084F8440084F84500AD
:1025300084F83D00002010BD08B5006806498842B7
:1025400008D10648816941F400618161806900F425
:102550000060009008BD0000002C01400010024007
:102560007047000010B50446022249B104290ED07C
:10257000082913D094F84100012816D0012010BD7D
:1025800094F83E000128F9D184F83E200FE094F839
:102590003F000128F2D184F83F2008E094F8400081
:1025A0000128EBD184F8402001E084F84120012289
:1025B000206801F067FD0F492068884203D1426C12
:1025C00042F4004242642068884208D0B0F1804F53
:1025D00005D00949884202D00849884204D181685F
:1025E00001F00701062903D0016841F001010160F3
:1025F000002010BD002C01400004004000080040F5
:1026000000680349884201D1FFF738B970470000DC
:1026100000040040704738B5044690F84200202876
:1026200001D0022038BD61B15AB1012020630020E1
:102630006063204601F06EFF0028F3D1216B012971
:1026400001D0012038BD21680A68496800912168DD
:102650000C3151E8002F42F0100241E80023002B1A
:10266000F5D138BD2DE9F0410C4600681D4988427E
:1026700035D01D4DA84232D11C4A1078A52822D150
:10268000161916F8010C5A281DD100210120A31E8D
:1026900004E0175C401C3944C9B2C0B29842F8DB70
:1026A00016F8020C88420ED11049224601F11E0094
:1026B000FDF7C5FD28684006FCD50C49224601F10E
:1026C000840000F04BFA09491E2201F18400FFF753
:1026D000A2FF07480068016821F004010160BDE81D
:1026E000F081000000380140004400404005002017
:1026F0005406002070470000F8B5016804460868D9
:10270000CA684B6910F00F0F4FF000055AD003F064
:10271000010602F49077374365D0C10705D0D10593
:1027200003D5616C41F001016164410705D5D9070A
:1027300003D0616C41F002016164810705D5D907BE
:1027400003D0616C41F004016164010707D502F018
:102750002001314303D0616C41F008016164616C78
:1027600000293BD0800604D5900602D5204601F012
:1027700013FE20684069616CC0F3801001F008010D
:10278000014320462BD001F0D2FD2068406940066D
:1027900021D52068143050E8001F21F0400140E8A6
:1027A0000012002AF5D1E06BA8B16D494163E06BDE
:1027B000FEF776FC002811D0E06B416B01B0BDE85C
:1027C000F040084783060ED593060CD52046BDE899
:1027D000F84001F0E1BD2046FFF78CFFF8BDFFF7A0
:1027E00089FF6564F8BD266B2023012E7CD1C606C7
:1027F0007AD5D60678D508684868009048694FF0C1
:102800000206400640D5E16B086840680004000CF1
:10281000E8D0A28D8242E5D9E085886920282DD0B4
:1028200020680C3050E8001F21F4807140E800124D
:10283000002AF5D12168143151E8000F20F0010081
:1028400041E80002002AF5D12068143050E8001F4A
:1028500021F0400140E80012002AF5D184F842300E
:10286000256320680C3050E8001F21F0100140E87B
:102870000012002AF5D1E06BFEF7EEFB6663A08D37
:10288000E18D401A81B22AE0A08DE18D401A81B21B
:10289000E08D0028A6D00029A4D022680C3252E88E
:1028A000000F20F4907042E80007002FF5D1206857
:1028B000143050E8002F22F0010240E80027002FDA
:1028C000F5D184F84230256320680C3050E8002FA1
:1028D00022F0100240E80023002BF5D16663204669
:1028E000FFF7C0FEF8BDFFE705062BD5150629D575
:1028F00094F841002128F5D1A068B0F5805F01D19E
:102900002069B0B1206A411C2162216800784860CA
:10291000E08C401E0004000CE084E3D12068C16814
:1029200021F08001C1602068C16841F04001C160B0
:10293000D8E7206A0088C0F308004860206A801C3D
:102940002062E5E74006CDD55006CBD5CA682046C3
:1029500022F04002CA6084F8413000F03BF9C1E740
:10296000E541000870B5040004D094F8410000254A
:1029700010B106E0012070BD84F84050204600F000
:1029800023F8242084F841002068C16821F4005114
:10299000C160204601F062FD2068016921F4904188
:1029A00001612068416921F02A0141612068C16804
:1029B00041F40051C1606564202084F8410084F82E
:1029C00042006563002070BDF0B585B0002400941E
:1029D000019402940394064603685848DFF858C1EE
:1029E00002210322564D0715634525D1836943F41F
:1029F00080438361836903F480430493836943F0D4
:102A0000040383618069039200F0040004900802CB
:102A1000CDE9000169462846FEF79EFCCDE9007429
:102A2000694628460294FEF797FC002205212520DE
:102A3000FEF7BCFF252051E0DFF808C1634551D106
:102A4000C36943F40033C361C36903F400330493DF
:102A5000836943F0040383618069039200F00400FA
:102A600004900420CDE9000169462846FEF774FC75
:102A70000820CDE90004694628460294FEF76CFC64
:102A8000324D31488027C5E90004C5E902472C6171
:102A90006C61AC612846EC61FEF7F8FB08B1FEF70B
:102AA000B5FAF5636E62294D27484435143001C5E7
:102AB000102091C5254845F8104944306C61AC613F
:102AC000EC61FEF7E3FB08B1FEF7A0FAB563002264
:102AD000052126206E62FEF769FF2620FEF758FFCB
:102AE00005B0F0BD1A4DAB42FAD1C36943F480235F
:102AF000C361C36903F480230493836943F008032B
:102B000083618069CDE9007100F00800CDE9032000
:102B1000104D69462846FEF71FFCE814CDE9000475
:102B2000694628460294FEF717FC0022052127205B
:102B3000FEF73CFF2720D1E700380140001002409B
:102B400000080140004400406C0002405406002090
:102B500000480040000C01407047704770B50446C3
:102B600090F84100202801D0022070BD49B342B343
:102B70002162A284E28400206064212384F8413031
:102B8000A56B114BAB62A56B104BEB62A56B104BA9
:102B90002B63A36B5863256813462A1DA06BFEF7B1
:102BA000A3FB21686FF0400008602068143050E8F3
:102BB000001F41F0800140E80012002AF5D10020FA
:102BC00070BD012070BD0000E342000825430008ED
:102BD000F54100087047704770B5044600F020FFCB
:102BE0002088A18840BA49BA00B20DB2FDF7C0FDF5
:102BF00006460C462846FDF7BBFD3246234604F048
:102C000065FBBDE87040024A024BFDF7C7BC0000FF
:102C1000775AF01ADCA54C40FEE7000010B5094CCD
:102C2000002210212046FEF78CFC012208212046BC
:102C3000FEF787FC20460122BDE810401021FEF778
:102C400080BC0000000C014001684A69D243520573
:102C50000FD46FF480624A61002140F8301F2022B7
:102C600042738173026942F0040202610173012020
:102C70007047002070470000F8B50446C06A1E4641
:102C80000D461746082807D0012805D010F5803FCB
:102C900002D0206B122804D12068016841F48071B1
:102CA0000160134600224FF001112046009600F00B
:102CB000C3F840B120680068C00502D54FF4007029
:102CC00020640320F8BD2069B0F5804F0ED00620A7
:102CD000216800EAD51040F0F000086133463A461A
:102CE0000B49204600F0F0F878B902E005F0FE004C
:102CF00000E0E8B221680861054933463A46891F79
:102D0000204600F0E1F80028DCD00120F8BD0000EA
:102D1000080001002DE9F041124E0746002401226F
:102D200010213046FEF70DFC00256006040E01223E
:102D300008213046FEF705FC10213046FEF7FCFB6B
:102D400008B1641CE4B2002208213046FEF7F9FB0A
:102D50006D1C082DE9DB384600F05AF92046BDE825
:102D6000F0810000000C014070B50F4E05460024B4
:102D7000280601D5012200E0002210213046FEF78E
:102D8000E0FB012208213046FEF7DBFB0022082190
:102D90003046FEF7D6FB6806050E641C082CE7DB00
:102DA000BDE8704000F01AB9000C014010B50B4CA2
:102DB000012210212046FEF7C4FB012208212046F3
:102DC000FEF7BFFB002210212046FEF7BAFB20468B
:102DD0000022BDE810400821FEF7B3BB000C014003
:102DE00070B516460D4604461EE02046FFF72CFF40
:102DF00008B1012070BD681C16D0FEF7A7FB801B30
:102E0000A84200D885B920684069C04340070BD567
:102E1000002044F8300F20216173A073216941F034
:102E2000200121612073E4E720684069C043400726
:102E3000DBD4002070BD00002DE9F047984617460E
:102E40000D460446C1F30746DDF820902AE000BF96
:102E5000B8F1FF3F26D0FEF779FBA0EB0901414511
:102E600002D8B8F1000F1DD12068012E16D080695C
:102E700025EA00000004000C12D00020B84211D155
:102E8000002044F8300F20216173A073216941F0C4
:102E90002001216120730120BDE8F0874069E7E748
:102EA0000120EBE72068012E0AD0806925EA0000A6
:102EB0000004000C06D00020B842C9D00020EBE787
:102EC0004069F3E70120F7E72DE9F04798461646F9
:102ED0000D4604464FF000094FF0200AC1F30747A2
:102EE00023E020684069C043400515D4206801688C
:102EF00041F40071016021686FF480604861C4F89A
:102F0000309084F83DA084F83E90216C41F004019B
:102F1000216484F83C9021E0701C06D0FEF716FB7B
:102F2000A0EB0800B04203D816B1012F1FD021E05A
:102F30002068012F15D0806925EA00000004000CEC
:102F400018D000BF44F8309F84F80DA084F80E908C
:102F5000216941F02001216184F80C900120BDE835
:102F6000F087406925EA00000004000CEAD12068DF
:102F7000406901E02068806925EA00000004000C37
:102F8000AFD1ECE770B516460D4604461EE020466C
:102F9000FFF75AFE08B1012070BD681C16D0FEF77D
:102FA000D5FA801BA84200D885B920684069C04383
:102FB00000060BD5002044F8300F20216173A07368
:102FC000216941F0200121612073E4E72068406914
:102FD000C0430006DBD4002070BD000070B50B4D6F
:102FE000012210212846FEF7ACFA012208212846CA
:102FF000FEF7A7FA10212846FEF79EFA04460022A3
:1030000008212846FEF79DFA204670BD000C0140BD
:1030100010B50B4C012810D0002210212046FEF7DD
:1030200090FA012208212046FEF78BFA2046002262
:10303000BDE810400821FEF784BA0122EDE7000048
:10304000000C014008B505208DF800009DF8000037
:10305000002803D09DF80000401EF5E708BD10B51C
:103060007021002000F080FF2021012000F07CFF73
:103070000021BDE81040022000F076BFD21A4A437A
:1030800092FBF0F0184440B2704700000D4808B5BC
:10309000416941F0010141614069002200F00100F5
:1030A000009005211020FEF781FC1020FEF770FC37
:1030B000002205211120FEF779FCBDE8084011200F
:1030C000FEF766BC001002407CB539480090002332
:1030D00001220A2137A007F0C1FD394C002210213E
:1030E0002060012007F0DFF80121A06000220846DF
:1030F00007F0D9F8E06000220821012007F0D3F89A
:10310000206100220221012007F0CDF86061002239
:103110000821012007F0C7F8A061032007F0BFF8DD
:1031200001466060606907F0A9F86168A06907F06E
:10313000A5F800251826CDE900652B46802221A19F
:10314000234807F0E1FB04F11C00CDE900600023F7
:10315000802220A1224807F0D7FB04F12000CDE90E
:103160000060002380221FA1214807F0CDFB192019
:10317000CDE90005002380221EA1224807F0C4FBF0
:1031800000F0C0F900F02CFA1A20CDE90005002368
:103190004FF480721CA11F4807F0B6FB07F01AFC21
:1031A0000246009500230121206807F0A1FD7CBDA7
:1031B000757C00086D6F746F725F74696D65720065
:1031C000000000206B65795F7461736B0000000084
:1031D000217A0008686D635F7461736B0000000002
:1031E000718700086469735F7461736B000000008D
:1031F000D77B00086C6F6769635F636F6E74726F73
:103200006C000000D97A00087069645F636F6E74A7
:10321000726F6C009D7D00082DE9F04786B0002498
:1032200030480094019402940394816941F01001A4
:103230008161816901F010010491816941F02001EF
:103240008161816901F020010491816941F00401EB
:103250008161816901F004010491816941F00801F3
:1032600081618069012200F00800DFF87C8055034D
:10327000049029464046FEF764F9DFF8709000227A
:10328000C0214846FEF75DF9DFF864A04FF2180749
:10329000002239465046FEF754F9009502260125D2
:1032A0000396CDE9015469464046FEF755F8C02023
:1032B000CDE90005CDE9024669464846FEF74CF8DF
:1032C00003208DE8310069465046FEF745F8009727
:1032D0000396CDE9015469465046FEF73DF806B025
:1032E000BDE8F087001002400010014000080140D6
:1032F000000C01400D4810B50B4901600C494160BC
:1033000000214FF480428160C0E903124161816174
:10331000C1610162FEF720F9002803D0BDE810402A
:10332000FDF774BE10BD00000054004014040020DE
:10333000801A060010B592B000240F941C21684634
:103340001094FCF795FF202107A8FCF791FF244873
:103350002249C0E9001441F61F41C0E9024104615D
:1033600044618461FFF7BBF808B1FDF74FFE0F948D
:103370000FA91B481094FEF703FE08B1FDF746FEA7
:103380006020CDE900040294039404940594002283
:10339000694613480694FFF73CF808B1FDF736FE7E
:1033A0000C2269460E48FFF734F808B1FDF72EFEEF
:1033B0000794089409944FF400500A94CDE90B4007
:1033C00007A907480E94FEF7B1FD08B1FDF71EFEF0
:1033D0000348FEF7F7FF12B010BD0000002C0140BB
:1033E0006804002010B58CB024216846FCF740FF2B
:1033F0000024154809944FF080410A94C0E9001454
:103400004FF6FF71C0E90241046184610120CDE9FA
:103410000004CDE90204CDE90404CDE906040890D6
:1034200069460948FEF73AFE08B1FDF7EFFD099439
:1034300009A905480A94FEF7A3FD002801D0FDF76D
:10344000E5FD0CB010BD0000B004002010B58CB03C
:1034500024216846FCF70CFF002415480994134901
:103460000A94C0E900144FF6FF71C0E902410461FB
:1034700084610120CDE90004CDE90204CDE9040412
:10348000CDE90604089069460948FEF707FE08B131
:10349000FDF7BCFD099409A905480A94FEF770FDE3
:1034A000002801D0FDF7B2FD0CB010BD00080040AF
:1034B000F8040020114810B50F4901604FF4E131C4
:1034C0004160002181600C22C160C0E90412816169
:1034D000C161FFF747FA08B1FDF798FD07491E22C1
:1034E00084390648FFF797F804489030006801686F
:1034F00021F00401016010BD00440040C40500201B
:10350000FEE7000008B5094805F056FA00F082F819
:10351000074800900346A0F1B4010C220020FDF7FB
:103520000BFCBDE80840FDF745BB0000882F0020DC
:10353000D03000201CB5284C2648284E4FF0FF37CD
:10354000002520623A4601A9306807F0FDF89DF891
:103550000400012804D002282ED003280ED120E038
:10356000236AD968C1B1E572C86800900C220020B6
:10357000FDF7E2FB206AC068C0682062E07A01289B
:10358000E0D1606A8047E572236A00930C22002034
:103590009968FDF7D1FB1AE00120E072986960623A
:1035A000F0E7236A0C221869009000209968FDF763
:1035B000C3FB206A006909E0236A0C225869009065
:1035C00000209968FDF7B8FB206A40692062E57227
:1035D000B8E70000D0300020100100200C000020CF
:1035E0001CB507491820CDE9000100234FF4807273
:1035F00004A1074807F088F9012800D000201CBD6D
:10360000380100204D656E755F5461736B000000DA
:1036100035350008A649A74800B501F1B402C0E954
:10362000061200208860A4A0FDF7BEFAA04BA04AB5
:10363000143302F1B401A3A0FDF79EFA9C4B9C4AFF
:10364000283302F1D001A3A0FDF796FA984B984ACF
:103650003C3302F1EC01A1A0FDF78EFA944B944AA1
:10366000503302F584719FA0FDF786FA904B904A83
:10367000643302F592719EA0FDF77EFA8C4B8C4A62
:10368000643302F5A0719CA0FDF776FA884B884A56
:10369000643302F5AE719AA0FDF76EFA84499AA0E0
:1036A0001431FDF781FA824B9BA07833A3F16402B9
:1036B00002F5B271FDF760FA7D4B9AA08C33A3F14D
:1036C000780202F5C071FDF757FA794B97A0A03345
:1036D000A3F18C0202F5CE71FDF74EFA744B96A061
:1036E00003F1140202F5DC71FDF746FA704995A06A
:1036F0007831FDF759FA6E4A0023783202F54C71A1
:1037000093A0FDF739FA6A4A0023783202F5537123
:1037100092A0FDF731FA664A0023783202F55A7119
:1037200090A0FDF729FA624B83A0143303F16402E1
:1037300002F56171FDF720FA5D498CA08C31FDF72F
:1037400033FA5B4A00238C3202F5637189A0FDF7DE
:1037500013FA574A00238C3202F56A7188A0FDF7EC
:103760000BFA534A00238C3202F5717188A0FDF7E1
:1037700003FA4F4B70A0143303F1780202F578710D
:10378000FDF7FAF94A4984A02831FDF70DFA484AB5
:103790000023283202F5E07181A0FDF7EDF9444ADB
:1037A0000023283202F5EE717DA0FDF7E5F9404ACD
:1037B0000023283202F5FC7179A0FDF7DDF93C4BBE
:1037C0005DA003F1280202F50571FDF7D5F938492E
:1037D00077A03C31FDF7E8F9354A00233C3202F589
:1037E00007716FA0FDF7C8F9314A00233C3202F59A
:1037F0000E716BA0FDF7C0F92D4A00233C3202F593
:10380000157167A0FDF7B8F9294B4BA003F13C02F5
:1038100002F51C71FDF7B0F9254967A05031FDF79D
:10382000C3F9234A0023503202F51E7165A0FDF74B
:10383000A3F91F4A0023503202F5257165A0FDF758
:103840009BF91B4A0023503202F52C7165A0FDF74D
:1038500093F9174B38A003F1500202F53371FDF7CD
:103860008BF9134963A06431FDF79EF9104A0023D8
:10387000643202F5357161A0FDF77EF90C4A002330
:10388000643202F53C7160A0FDF776F9084A002326
:10389000643202F543715FA0FDF76EF9044B26A078
:1038A00003F1640202F54A715DF804EBFDF764B9B7
:1038B0001C300020100100205B4D61696E50616773
:1038C000655D0000202D4170706C69636174696FE3
:1038D0006E000000202D46696C657300202D496D37
:1038E00061676500202D526573657420416C6C0022
:1038F000202D41626F757400202D74657374310042
:10390000202D7465737432005B4170706C69636163
:1039100074696F6E5D000000202D53797374656DBE
:1039200000000000202D47616D657300202D416C63
:103930007469756D00000000202D52657475726EFB
:10394000000000005B53797374656D5D000000003A
:10395000202D4D505536303530000000202D53704D
:1039600065656400202D4D6F646500005B47616DE7
:1039700065735D00202D44696E6F2047616D6500A1
:10398000202D416972506C616E652047616D650044
:10399000202D4D79436172005B46696C65735D0053
:1039A000202D4E65772050726F6A656374000000A9
:1039B0005B496D6167655D005B52657365742041AD
:1039C0006C6C5D00202D5265736574204E616D65D1
:1039D00000000000202D52657365742054696D65E8
:1039E00000000000202D52657365742053657474C7
:1039F000696E67005B41626F75745D00202D4769D9
:103A00007468756200000000202D42696C6962696B
:103A10006C690000202D526561644D450000000076
:103A200070B50546FFF7C2F93C20FFF79DF903206A
:103A3000FFF79AF9FFF7BAF93D20FFF795F900244F
:103A400001E0052C0BD00020FFF764F92855641C19
:103A5000E4B2062CF5D3BDE87040FFF7DFB80120D3
:103A6000FFF758F96871F2E7FEE72DE9F0470446E1
:103A7000C169C068FCF769FC256906462946FCF760
:103A800064FC814601212846FCF7D5FC3146FCF751
:103A90005FFC6169FCF707FC0146A068FCF75BFC72
:103AA000804631466068FCF756FC07464946206868
:103AB000FCF751FCA169FCF7F6FB3946FCF7F3FB78
:103AC0004146FCF7F0FB2661C4E90550BDE8F087EC
:103AD00010B50F4C002240212046FDF732FDFFF7C4
:103AE000B1FA012280212046FDF72BFDFFF7AAFA4B
:103AF000012240212046FDF724FDFFF7A3FA002212
:103B000040212046FDF71DFDBDE81040FFF79ABAA1
:103B10000008014070B5154E0825002401228021BF
:103B20003046FDF70EFD16E06006040E002240212F
:103B30003046FDF706FDFFF785FA012240213046A9
:103B4000FDF7FFFCFFF77EFA80213046FDF7F4FC1D
:103B500008B144F001046D1EEDB2E5D2002240210F
:103B60003046FDF7EEFC204670BD00000008014025
:103B700070B505460824134E18E000BFFDF7E1FCC0
:103B8000FFF760FA280601D5012200E0002280211B
:103B90003046FDF7D6FC6806050EFFF753FA012202
:103BA00040213046FDF7CDFCFFF74CFA641EE4B22D
:103BB0004FF000024FF040013046DFD2BDE87040C8
:103BC000FDF7BFBC0008014010B5154C0122802153
:103BD0002046FDF7B6FC012240212046FDF7B1FC4E
:103BE000FFF730FA80212046FDF7A6FC00280CD014
:103BF000002280212046FDF7A4FCFFF723FA802154
:103C00002046FDF799FC08B1002010BD002280215C
:103C10002046FDF796FCFFF715FA012010BD0000C5
:103C20000008014010B50F4C002240212046FDF74E
:103C300088FCFFF707FA002280212046FDF781FC6F
:103C4000FFF700FA012240212046FDF77AFCFFF73A
:103C5000F9F9012280212046FDF773FCBDE81040F0
:103C6000FFF7F0B90008014010B5164C00224021C2
:103C70002046FDF766FCFFF7E5F90122802120468A
:103C8000FDF75FFCFFF7DEF9012240212046FDF73A
:103C900058FCFFF7D7F980212046FDF74DFC00289E
:103CA0004FF000024FF04001204605D0FDF749FCDF
:103CB000FFF7C8F9002010BDFDF743FCFFF7C2F97C
:103CC000012010BD000801402DE9F041984615463D
:103CD0000F4606460024FFF777FF002846D03046FF
:103CE000FFF746FFFFF7C0FF90B33846FFF740FFEE
:103CF000FFF7BAFFFFF768FF761CF0B2FFF738FF57
:103D0000FFF7B2FF6E1E1A4F2BE0B44221D0FFF72F
:103D100001FF08F80400002240213846FDF711FC9D
:103D2000FFF790F9002280213846FDF70AFCFFF7E3
:103D300089F9012240213846FDF703FCFFF782F99B
:103D4000002240213846FDF7FCFBFFF77BF906E037
:103D500009E0FFF7DFFE08F80400FFF7B9FE641C76
:103D6000E4B2AC42D1D3FFF75DFF0020BDE8F081A3
:103D70000008014007B502AB012200F001F80EBDBA
:103D80002DE9F0411E461546884607460024FFF7F8
:103D90001BFF3846FFF7ECFEFFF766FF4046FFF7D4
:103DA000E7FEFFF761FF06E0305DFFF7E1FEFFF79A
:103DB0005BFF641CE4B2AC42F6D3FFF733FF002094
:103DC000BDE8F0811CB5202778230C2204211C4873
:103DD0000097FCF751FF1B4C4FF0030904F10A0850
:103DE0000626607888F8000045467F230C220021D3
:103DF00013480097FCF770FF11482A7812A10C387D
:103E000002F050FC0E4B19220C3B08210C4805F027
:103E10003DF8CDE9006960784D4600EB40031E2275
:103E20000821074804F03DFFCDE900655A231E2212
:103E30000821034804F0A8FF014805F04DF8D0E739
:103E4000882F0020100100205370656564203D20FC
:103E50002564000008B5202000900CA410A57D2347
:103E60000C2202211348FCF707FF234619220821E0
:103E7000104805F00BF82B46252208210D4805F0C7
:103E800005F80C4805F028F8EFE700006874747036
:103E9000733A2F2F6769746875622E636F6D2F00F8
:103EA0004A46656E672D5A2F4D595F4755492E6713
:103EB00069740000882F002090B03E200090642399
:103EC000022201211A48FCF7D7FE1A4CE068FCF7E1
:103ED00079FC02460B4618A101A802F0E3FB206919
:103EE000FCF770FC02460B4617A106A802F0DAFBAD
:103EF0006069FCF767FC02460B4617A10BA802F0AD
:103F0000D1FB01AB0E220C21094804F0BFFF06AB28
:103F100024220C21064804F0B9FF0BAB3A220C21F5
:103F2000034804F0B3FF024804F0D6FFCEE70000D8
:103F3000882F0020100100205069746368203D2004
:103F4000252E326600000000526F6C6C20203D2050
:103F5000252E3266000000005961772020203D2088
:103F6000252E32660000000070B50D460446FEF7AF
:103F70001DFF3C20FEF7F8FE2046FEF7F5FE284622
:103F8000FEF7F2FEBDE87040FEF748BE10B55020C7
:103F900080F31188BFF34F8FBFF36F8F06F020FDC2
:103FA00018B104494FF080500860002080F3118858
:103FB00010BD000004ED00E010B590B02821684667
:103FC000FCF756F914210AA8FCF752F902200090D8
:103FD0000120049010200024059007946846FDF706
:103FE00013FE08B172B6FEE70F20CDE90A040C9467
:103FF0000D9400210AA80E94FDF70AFD002801D0B7
:1040000072B6FEE710B010BD704700000148FEF721
:1040100025B90000DC060020F0B50268164B174CED
:10402000174D4FF08047984205D0B84203D0A042C8
:1040300001D0A84203D122F070064A683243984268
:1040400005D0B84203D0A04201D0A84203D122F447
:104050004074CA6822434C6922F080022243026005
:104060008A68C2620A688262984201D10969016362
:1040700001214161F0BD0000002C0140000400401E
:104080000008004010B501F01F030121046A9940A7
:104090008C430462016A9A401143016210BD000022
:1040A00030B5036A026A22F0010202624268846942
:1040B00024F073050C682C4323F002058B682B4316
:1040C0000A4DA8420BD123F00805CB6822F44072B8
:1040D0002B434D6923F0040315438A692A43426048
:1040E000846149684163036230BD0000002C0140D7
:1040F00030B5026A036A23F01003036243688469DF
:104100000D6824F4E64444EA05248D6822F0200278
:1041100042EA05120B4DA8420ED1CD6822F0800272
:1041200042EA05124D6923F4406343EA85038D6931
:1041300022F0400243EA8503436084614968816359
:10414000026230BD002C014030B5036A026A22F4DD
:10415000807202624268C46923F4007324F073051C
:104160000C682C438D6843EA05230C4DA8420ED100
:10417000CD6823F4006343EA05234D6922F44052DD
:1041800042EA05128D6923F4806342EA0512426017
:10419000C4614968C163036230BD0000002C014066
:1041A00030B5046A026A22F4805202624268C3692E
:1041B0000D6823F4E64343EA05238D6824F4005494
:1041C00044EA0534064DA84204D14D6922F48042E8
:1041D00042EA85124260C36149680164046230BDED
:1041E000002C014010B5406A0021C185C184FEF752
:1041F00081FA10BD70B5446A2068406994F8411096
:10420000C0F3C0100025212904D118B1E58420464F
:1042100000F0B4F82068406994F84210C0F38010B0
:10422000222904D118B1E585204600F080F8606CA1
:1042300040F0100060642046FEF75CFA70BD10B5D7
:104240000146406A096809684FF0000289062ED4C9
:10425000C28501680C3151E8003F23F4807341E8C6
:104260000034002CF5D10168143151E8003F23F0EF
:10427000010341E80034002CF5D10168143151E804
:10428000003F23F0400341E80034002CF5D1202109
:1042900080F84210016B012909D101680C3151E805
:1042A000003F23F0100341E80034002CF5D14263B5
:1042B000016B012902D0FEF74FFC10BD818DFEF786
:1042C000D1F910BD10B5406A01214163016B01298C
:1042D00002D0FEF742FC10BD818D4908FEF7C2F9FD
:1042E00010BD10B50146406A09680968890616D4F0
:1042F0000021C1840168143151E8002F22F08002AE
:1043000041E80023002BF5D101680C3151E8002F62
:1043100042F0400241E80023002BF5D110BDFEF72A
:1043200059FC10BD10B5406AFEF755FC10BD016880
:104330000C3151E8002F22F4907241E80023002B49
:10434000F5D10168143151E8002F22F0010241E853
:104350000023002BF5D1016B012909D101680C3133
:1043600051E8002F22F0100241E80023002BF5D184
:10437000202180F8421000210163704701680C3150
:1043800051E8002F22F0C00241E80023002BF5D1B4
:10439000202180F84110704708B590F8421022297A
:1043A00001D0022008BD82684FF480539A4201D1A7
:1043B000016921B1816A9A421BD04AB10AE00268C0
:1043C000816A5268C2F308020A80816A891C08E087
:1043D000026972B10268526802F07F020A70816A53
:1043E000491C8162C18D491E0904090CC18503D095
:1043F0001BE002685268F1E70168CA6822F02002F7
:10440000CA600168CA6822F48072CA6001684A6999
:1044100022F001024A61202180F84210002141630C
:10442000026B012A03D0FEF797FB002008BD016351
:1044300001680C3151E8002F22F0100241E80023FE
:10444000002BF5D101680A68D20602D50A684968CE
:104450000091818DFEF706F9E7E7000070B504468C
:1044600000680169E26821F440511143016121694A
:10447000A0680843616908432168CA6841F20C6377
:104480009A430243CA6020684169A26921F44071DD
:10449000114341611E492068884202D1FDF77EFB2D
:1044A00001E0FDF76BFB00EBC00101EB001260685F
:1044B00064218000B2FBF0F3B3FBF1F36FF0180658
:1044C0007343B2FBF0F5B2FBF0F605EB8305322344
:1044D00003EB0515B5FBF1F5B6FBF1F605F0F005BC
:1044E00005EB0615B2FBF0F6B2FBF0F0B0FBF1F015
:1044F0006FF01802504306EB800003EB0010B0FB96
:10450000F1F0216800F00F002844886070BD0000C1
:104510000038014038B58162044682850020134688
:104520006064222284F84220E56B1B4AAA62E56B94
:104530001A4AEA62E56B1A4A2A63E26B50630A463A
:104540002168E06B091DFCF7CFFE20680168406818
:104550000090206948B120680C3050E8001F41F4F9
:10456000807140E80012002AF5D12068143050E82C
:10457000001F41F0010140E80012002AF5D1206837
:10458000143050E8001F41F0400140E80012002ABA
:10459000F5D1002038BD00003F420008C5420008A8
:1045A000F54100080148FEF7A7B800007C0500208F
:1045B0000148FEF7A1B80000C40500200148FEF73D
:1045C0009BB800000C060020FEE700007CB5044606
:1045D000002094F8DA200D46012A03D0022A01D0E7
:1045E000032A14D101AB6A460121204600F091F95B
:1045F000009A4FF47F018A4202D8019A8A4206D972
:10460000002804D125B10F49204601F0F9FC7CBDFA
:104610000422FF21204600F081FE05460022702181
:10462000204600F07BFE05430022FF21204600F0DB
:1046300075FE054300228021204600F06FFE2843CE
:104640007CBD00003D020020F8B506460024012292
:104650000B21304600F062FE074600220B21304657
:1046600000F05CFE40EA07056A461321304600F080
:1046700030FB641C9DF800102843E4B2490704D0C5
:10468000032C04D20028E2D0F8BD032CFCD36FF039
:104690000B00F8BDF0B591B004460022882100F06F
:1046A0003DFE002584F8F0504FF47A70A4F85201D2
:1046B0004FF4C870A4F854015748C4F8580157483B
:1046C0002562C4F8D4006946204600F0A9F8060027
:1046D00009D18DF800508DF801504022694604F14F
:1046E0001000FBF7ACFD6420A4F834014FF46170B6
:1046F000A4F836014FF4FA70A4F838014FF42060A2
:10470000A4F83C01012784F850713A4680212046E4
:1047100000F004FE06430122FF21204600F0FEFDCA
:10472000064300221146204600F0F8FD064310AA79
:104730009121204600F0CDFA06439DF8400084F810
:104740003A0101220021204600F0E8FD0643002244
:10475000FF21204600F0E2FD064300228021204692
:1047600000F0DCFD30430026002852D1B1B2012216
:10477000204600F0B1FB761C062EF5DB002848D160
:1047800000220221204600F0A7FB002841D1002290
:104790000321204600F0A0FB00283AD1002204218A
:1047A000204600F099FB002833D100220521204645
:1047B00000F092FB00282CD14FF4901200212046EB
:1047C00000F0CBFB002824D14FF480420121204689
:1047D00000F0C3FB00281CD14FF40C12022120462C
:1047E00000F0BBFB002814D100220321204600F07A
:1047F000B4FB00280DD1FF2084F8300102460121CE
:10480000204600F08BFD84F83271002801D184F835
:10481000155111B0F0BD0000856B0100A4700900B6
:1048200070B506460C46007C01F8080B304600F0D7
:1048300044F8002833D1207304F11001304600F011
:10484000E4F900282BD104F11401304600F0E2F81D
:10485000002824D1002501E0002820D104EB8502A6
:10486000A9B23046243200F07AF8002817D1621934
:10487000A9B23046183200F066F86D1C062DEBDB4D
:1048800000280CD104F13C01304600F0A3F90028C7
:1048900005D1211D3046BDE8704000F0B9B870BDAB
:1048A00010B50C460A46092100F013FA002803D17E
:1048B000217801F00101217010BD3EB50C4605467E
:1048C00002AAF82100F024FA00280ED16A46042139
:1048D000284600F007FA002807D1BDF8081029B1D2
:1048E000009AB2FBF1F12160A9613EBD2168FBE7AE
:1048F00038B50C466A46132100F0EBF99DF800101C
:1049000001F0070211F0180F226001D06FF00500CE
:1049100038BDF8B515461C4606466A460E2100F01D
:10492000F7F9BDF800100905C9082960002809D168
:104930006A460C21304600F0EBF9BDF8001009057D
:10494000C9082160F8BD03460020062902D3001FD4
:10495000002102E0194491F8281011707047F8B551
:1049600004460020154606292DD2DFE801F0030594
:10497000191B1D1D646B24E06A464421204600F08B
:10498000C7F9002803D1BDF800104FEA412606D12F
:10499000E6B12E604FF00101A66384F82910F8BD3E
:1049A000E46B0EE0246C0CE06A464FF06401204694
:1049B00000F0AEF9002803D1BDF800104FEA412401
:1049C000EDD12C60F8BD6FF00300F8BDA16B29603C
:1049D0004FF00001E1E77CB50C4690F8DA100025B5
:1049E000012604290AD06A46142100F072F9002831
:1049F0000BD19DF80010C90706D007E001A9FFF709
:104A000077FF0199042901D025707CBD26707CBDFB
:104A100001F034B901F094B9F0B58DB00C460546FB
:104A20000C2302AA142100F083F906007ED1002194
:104A3000A17521609DF813009DF81220616000EBC4
:104A400002209DF80F209DF80E304FF47A7E02EB85
:104A500003221204D209E2609DF811309DF8106023
:104A600080B203EB06231B04DB0923619DF80B30A6
:104A70009DF80A6003EB06239BB2A382B5F852614E
:104A80009DF8087095F831C176451FD0464306F56C
:104A9000FA7696FBFEF02E8C95F81CE080B2B6B24A
:104AA000BEF1000F12D05E43B2EB262F08D1BCF14D
:104AB000000F02D042F2B82008E048F6E0200DE0F6
:104AC0005043A2EB2626B0FBF6F080B2BCF1000FFB
:104AD00004D0810821818001E07501E02081E17529
:104AE0000CA8CDE900403946284601F043F90600FC
:104AF00024D19DF8307005F1500127761C220D4617
:104B000005A8FBF79CFB2089ADF81C00E07D8DF823
:104B10002B006089ADF81E0060680690E068089080
:104B200020690990A08AADF8280000E006E08DF821
:104B30002C701C2205A92846FBF781FB0DB03046DE
:104B4000F0BD38B5054600200C468DF800006A46D9
:104B50000121284600F0BDF800282AD123469DF8FF
:104B600000200021284603F085FE002821D1A31C47
:104B70009DF800200121284603F07CFE002818D172
:104B8000631C9DF800200221284603F073FE0028D4
:104B90000FD1E31C9DF800200321284603F06AFE94
:104BA000002806D1231D9DF800200421284603F08B
:104BB00061FE38BD10B5054C206800F059F8D4E905
:104BC0000001FFF729FF6068008910BD0404002080
:104BD00001F0E8B938B50C4605466A46012100F0F7
:104BE00078F800280BD19DF8001085F830110906DF
:104BF00001D5012100E00021217085F84C1038BD5D
:104C000002460020127F0A70704738B50D460446F0
:104C10006A46202100F07CF8002807D1BDF800107A
:104C200029B1C900296021620121217738BD216A9B
:104C300029600021F9E7000010B50C4C52212068D2
:104C400080F85C1100F07EF80121206800F0AFF9D7
:104C50000121206800F07AF80A21206800F024F988
:104C60002068BDE81040FFF715BD000004040020D7
:104C700070B5047C054614B900F014FA10B9284642
:104C800001F010FA50EA040102D1032185F8321133
:104C900070BD70B50C460546002100F057F800289D
:104CA00010D12846FFF7E4FF00280BD12146284603
:104CB000FFF7B2FE002805D12846BDE8704000216C
:104CC000FFF7C2BC70BD10B5052005F055F90020F6
:104CD00010BD10B5134690F85C010122FEF7F4FFF9
:104CE00040B210BD38B5144690F85C016B46042202
:104CF000FEF7EAFF9DF8030020709DF80200607047
:104D00009DF80100A0709DF80000E070002038BD03
:104D100038B5144690F85C016B460222FEF7D4FFCA
:104D20009DF8010020709DF800006070002038BDE3
:104D300010B5DCB2134690F85C012246FEF7C4FFC2
:104D400040B210BD4A088A2100F0E8BA02460020AD
:104D500003290BD003DC49B1012904D106E0142951
:104D600004D0152902D06FF0070070471174704706
:104D700070B51C46049E054611B16FF0090070BD68
:104D8000142A08D0152A0FD0052C6FD2DFE804F0C2
:104D900066686A6C6F002EB10122BDE87040842104
:104DA00000F0BCBA1022F8E70122FF2100F0B6FAA9
:104DB000044600221146284600F0B0FA04430022BF
:104DC000FF21284600F0AAFA044301228021284648
:104DD00000F0A4FA044302228521284600F09EFA3E
:104DE00004430422FF21284600F098FA04430022DD
:104DF000CD21284600F092FA04431122CC21284606
:104E000000F08CFA04430722FF21284600F086FABE
:104E100004430022BE21284600F080FA0443062203
:104E2000FF21284600F07AFA04430922CC212846C3
:104E300000F074FA04430022FF21284600F06EFAC5
:104E400004430122FF21284600F068FA04430022AF
:104E50001146284600F062FA204370BD002207E0A8
:104E6000012205E0022203E0032201E017E0042210
:104E70000A21284600F052FA0028EED196B11023FC
:104E8000EF228421284600F031FA0028E5D185F888
:104E9000DA402846BDE870400021FFF7D5BB6FF02F
:104EA0000A0070BD0023EBE738B50C4605466A469C
:104EB000F821FFF72DFF00280DD1BDF8000010B13B
:104EC00004FB00F200E022460421284600F02DFAFF
:104ED000002800D1AC6138BD2DE9F0410446002026
:104EE0000D461646071F034601460246062D02D30D
:104EF0003846BDE8F08156B104EB85014B6B0121CA
:104F0000062DF5D2DFE805F005080F12151801226D
:104F1000F6E784F8281017E0C3F34F224421204617
:104F200000F017FA0EE084F82A100DE084F82B1038
:104F30000AE05300FE2201E01301EF226021204627
:104F400000F0D4F90028D4D1611926B15FF0010234
:104F500081F82820CDE70022FAE770B51446002238
:104F6000431800EB810593F82830DBB1C4F34F23DD
:104F7000062914D2DFE801F00305080A0C0C44638B
:104F800010E01A46442105E0C4630BE0046409E024
:104F90001A46642100F0DDF9020003D003E06FF04F
:104FA000030200E06C63104670BD01F0AEBA70B54C
:104FB0000446022591B1022902D06FF0070070BDAE
:104FC0000022802100F0AAF90028F8D1204600F044
:104FD000D3F80028F3D184F8335170BD002280212A
:104FE00000F09CF90028F8D184F83251002184F8AF
:104FF000331170BD2DE9F8430746002090460E4658
:105000008DF800006A4601213846FFF762FE050070
:105010009DF8000004462ED1291FB8F1010F06D0DB
:10502000052E2CD2DFE806F0191C1F222500052EC4
:1050300025D2DFE806F00306090C0F0044F0100447
:1050400019E044F0280416E044F0040413E044F0AE
:10505000400410E044F080040DE004F0EF040AE0A6
:1050600004F0D70407E004F0FB0404E004F0BF04FC
:1050700001E004F07F04844210D015B10EE00D462B
:105080000CE022460121384600F048F9050005D120
:1050900087F8304138467969FFF787FF2846BDE831
:1050A000F8830000F8B501250646047C2A468021D5
:1050B00000F034F90122FF21304600F02FF90022E0
:1050C0001146304600F02AF996F83A2191213046EF
:1050D00000F024F901220021304600F01FF90022DF
:1050E000FF21304600F01AF900228021304600F0FE
:1050F00015F93CB10425012C26D0032C2FD06FF0DC
:105100000700F8BD01220021304600F007F98DF8B4
:1051100000500028F5D100244FF4FA6705E024B1CF
:105120006A4600213046FFF7D4FD9DF80020641C3C
:1051300025EA0201014304D0BC42E2D36FF006002D
:10514000F8BDBC42EBD3F9E718B901213046FFF7AF
:105150003DFA022209E000BF86F83251F8BD18B9C5
:1051600001213046FFF732FA04220021304600F0D8
:10517000D5F80028F0D0F8BD30B597B004464021EE
:1051800001A8FBF775F800258DF84450ADF8505094
:105190008DF8545001212046169500F0DBFA94F862
:1051A000142194F81311012A06D802D1202903D81A
:1051B00008E03AB90C2905D915AA16A9204600F02D
:1051C000E6FF02E0204601F001FA474900287DD1C0
:1051D00094F8500108B9D4F84C11204600F010FFA3
:1051E00000287ED100220423114620460095FFF7B7
:1051F000BFFD002875D10122FF21204600F08EF866
:10520000054614AA84212046FFF782FD05430022AB
:10521000FF21204600F082F8284362D1BDF85000FB
:1052200001A90001C4F8D4002046FFF7F9FA0028CC
:1052300057D111A92046FFF733FB002851D19DF823
:10524000440084F83101402201A904F11000FAF76A
:10525000F6FF11AA01212046FFF73BFD002840D1AF
:105260009DF8440084F83001002211462046FFF7E3
:10527000C1FE002835D1002202212046FFF7BAFEE8
:1052800000282ED1032084F8320112AA00212046E2
:10529000FFF79EFC002824D19DF8480084F8E80020
:1052A00012AA01212046FFF793FC002819D19DF88E
:1052B000480084F8E00013AA0321204602F02BFBEB
:1052C00000280ED1139813AA042100E009E0C4F8C5
:1052D000E400204602F01FFB002802D11399C4F815
:1052E000DC1017B030BD00004A010020F8B51D46A3
:1052F000164604460F4690F85C016B460122FEF705
:10530000E3FC9DF80020394632402A438DF8002006
:1053100094F85C01FEF72EFD40B2F8BD10B590F890
:105320005C01FEF727FD40B210BD08B5130E8DF8E5
:105330000030130C8DF80130130A8DF802308DF80F
:10534000032090F85C016B460422FEF719FD40B281
:1053500008BD08B5130A8DF800308DF8012090F8CB
:105360005C016B460222FEF70BFD40B208BD10B592
:10537000DCB2134690F85C012246FEF701FD40B214
:1053800010BD00002DE9F047B0F854C1D0F8580125
:10539000DDE90A860CFB00F58035DDE908972C0A6B
:1053A0004FF0000A04FB0CF4554652B1880200EBA2
:1053B0005200B0FBF2F000EB4000404300F500402B
:1053C000050C07F50040000C0622C01CB0FBF2F0F3
:1053D00003FB09F303F50043190C4943C0EBC0007C
:1053E000B0F5803F01D31C4808E0FF1CB7FBF2F08A
:1053F000C0EBC00000F50040000C4043084400EB47
:105400005800B0FBF8F08003FE227F30B0FBF2F0D2
:1054100068434FF47A7100F5FA70B0FBF1F00001C7
:1054200000F5FA70B0FBF1F7402004F12001B1FB68
:10543000F0F000F0CFFD054627B104EB5700B0FBBC
:10544000F7F000E0002000F0C5FD3560854200D98E
:1054500030605046BDE8F0870000F0FF01EBC1016D
:1054600040F277600902A1FB000170472DE9FF4F70
:1054700087B00446006A0690884608694FF47A713E
:105480004843000C0390D8F80C000590DFF8F8B101
:105490004FF4481604AA4146204600F05EFD06AAD5
:1054A0004146204600F067FD81464FF47A7104982A
:1054B000069D484300F50040070C4D43B54200D916
:1054C00035465FEA090074D1D4F8DC00019094F805
:1054D000E06001463246204600F0DCF88246D4F80F
:1054E000E4000090014694F8E820204600F0D2F84D
:1054F00001460320082E00D1022051444143C90235
:105500004FF47A7001F5FA71B1FBF0F140F2776275
:10551000514301F5FA71B1FBF0FA04988030010AA9
:1055200001FB0AF08030060A080204900FB14EB168
:1055300009E00999C1F800B0C4F840B10A98002107
:1055400001609CE001264FF44870029003984F4997
:105550000004B0FBF7F0884200D908464FF41671FA
:1055600000FB01F906EB4600800000F033FD40002F
:105570000390B8F8081046486A424143380400EBEB
:1055800042024FF47A7002F5FA72B2FBF0F2431065
:1055900003EB0743B3FBF0F01202B2FBF0F000287C
:1055A00000DA404298F8182000021AB14FF4803512
:1055B0000FE065E041F25C22B1FBF2F1C0F5803012
:1055C000484300F50040000C00F58030400840439F
:1055D000850B4FF4487105FB01F000F50040010C0C
:1055E00009F50040000C49434043084400F0F2FC38
:1055F000000464213230B0FBF1F10398B1FBF0F00C
:1056000040F6B531484341F2883108444900B0FBC7
:10561000F1F74FF47040874200D90746DDE90010EA
:1056200008444FF47A7800F5FA70B0FBF8F04FF4C4
:10563000C81101EB5001B1FBF0F000F0CBFC00020F
:1056400000F5FA70B0FBF8F07F434043384400F0B7
:10565000C1FC414648430EB1584500D95846099906
:105660000860C4F840010A98029B03908DE8080680
:10567000DDE904122B462046FFF784FE81464846AA
:105680000BB0BDE8F08F0000AE878F026666660043
:105690009A99060000B50B461146FFF7DFFE4FF45E
:1056A0007A7100F5FA70B0FBF1F04B4303EB500157
:1056B000B1FBF0F000BD00B50B461146FFF7CEFE82
:1056C0004FF47A7100F5FA70B0FBF1F0434303F543
:1056D000FA73B3FBF1F000BD0146C0B2090A88407D
:1056E000401C70474000801CC0B27047F8B50646A9
:1056F00000228321FFF712FE040011D100254FF490
:10570000FA676A4683213046FFF7E3FA04469DF8BC
:10571000000020430BD0BD4202D300BF6FF006044F
:10572000012283213046FFF7F9FD2043F8BD6D1CAF
:10573000BD42E6D3F2E70022114648B1401E02E026
:105740004008491C89B2020AFAD161F31F2082B2D3
:10575000104670472DE9F04F95B0002504460E9590
:105760004FF4C8500F95CDE90450129594F8F060AD
:105770000F46AB46AA46072E7ED001228021204646
:10578000FFF7CCFD80460122FF212046FFF7C6FD32
:1057900040EA0805002211462046FFF7BFFD40EA17
:1057A00005080622FF212046FFF7B8FD40EA08055C
:1057B00002AA83212046FFF78CFA40EA05089DF8EB
:1057C0000800832140F004022046FFF7A7FD40EACD
:1057D00008050722FF212046FFF7A0FD40EA050843
:1057E000012281212046FFF799FD40EA0805204665
:1057F000FFF769FA40EA0508012280212046FFF7F9
:105800008DFD40EA0805F80755D0F00753D16B220B
:1058100094212046FFF782FD40EA05082046FFF765
:1058200065FF40EA080501AA90212046FFF75AFAD1
:1058300040EA050801982422C0F30621C0F3C03BCA
:10584000129194212046FFF769FD40EA08052046A1
:10585000FFF74CFF40EA050801AA90212046FFF718
:1058600041FA40EA08050198010E8DF82C10010C50
:105870008DF82D10010A00E0FCE18DF82E108DF856
:105880002F00252294212046FFF748FD40EA050815
:105890002046FFF72BFF40EA080901AA9021204685
:1058A000FFF720FA40EA09050198010E8DF8301043
:1058B000000C8DF83100B8077ED5B0077CD40222E9
:1058C00094212046FFF72AFD40EA05082046FFF70D
:1058D0000DFF40EA080513AA90212046FFF7F9F9C9
:1058E00040EA05087B2294212046FFF717FD40EA95
:1058F00008052046FFF7FAFE40EA050810AA9021A5
:105900002046FFF7E6F940EA080577229421204671
:10591000FFF704FD40EA05082046FFF7E7FE40EAEE
:10592000080501AA90212046FFF7DCF940EA0508A6
:1059300001987822410E8DF81810C0F386418DF839
:105940001910C0F3C6218DF81A10C0F30611000714
:10595000400E8DF81B108DF8080094212046FFF7AB
:10596000DDFC40EA08052046FFF7C0FE40EA0508D6
:1059700001AA90212046FFF7B5F940EA08059DF8F5
:105980000810019801EB50718DF81C10C0F386517E
:105990008DF81D10C0F3C6318DF81E10C0F306211E
:1059A0008DF81F10C0F34601C007400E8DF820107F
:1059B0008DF80800792200E055E094212046FFF799
:1059C000ADFC40EA05082046FFF790FE40EA0805D6
:1059D00001AA90212046FFF785F940EA05089DF8C5
:1059E000081001987A2201EB90618DF82110C0F324
:1059F000C6418DF82210C0F306318DF82310C0F394
:105A00004611C006400E8DF824108DF80800942130
:105A10002046FFF783FC40EA08052046FFF766FEB4
:105A200040EA050801AA90212046FFF75BF940EA09
:105A300008059DF80810019801EB90718DF825106C
:105A4000C0F3C6518DF82610C0F306418DF827101B
:105A5000C0F346218DF82810C0F386008DF8290088
:105A600000208DF82A0078077ED570077CD47B2231
:105A700094212046FFF752FC40EA05082046FFF734
:105A800035FE40EA08050EAA90212046FFF72AF9C4
:105A900040EA05087C2294212046FFF73FFC40EABB
:105AA00008092046FFF722FE40EA09050FAA9021C7
:105AB0002046FFF717F940EA050873229421204693
:105AC000FFF72CFC40EA08052046FFF70FFE40EAEE
:105AD000050801AA90212046FFF704F940EA0805CD
