:020000040800F2
:1000000070250020990100089B2200082B1C000885
:100010009922000889030008392700080000000021
:1000200000000000000000000000000001010008C6
:100030008B0300080000000045010008AD22000805
:10004000B3010008B3010008B3010008B3010008C0
:10005000B3010008B3010008B3010008B3010008B0
:10006000B3010008B3010008B3010008B3010008A0
:10007000B3010008B3010008B3010008B301000890
:10008000B3010008B3010008B3010008B301000880
:10009000B3010008B3010008B3010008B301000870
:1000A000B3010008B3010008B3010008B301000860
:1000B000B30100082D230008B3010008B3010008B4
:1000C000B3010008B3010008B3010008B301000840
:1000D000B301000815270008212700082D27000874
:1000E000B3010008B3010008B3010008DFF80CD029
:1000F00000F038F9004800479127000870250020DB
:10010000224B19680868B0E8F00F80F30988BFF344
:100110006F8F4FF0000080F311884EF00D0E704786
:100120000000000006480068006880F3088862B696
:1001300061B6BFF34F8FBFF36F8F00DF00BF00BF0B
:1001400008ED00E0EFF30980BFF36F8F0F4B1A68E3
:1001500020E9F00F106008B54FF0500080F31188CF
:10016000BFF34F8FBFF36F8F04F06EFE4FF00000B0
:1001700080F31188BDE8084019680868B0E8F00FFE
:1001800080F30988BFF36F8F704700BF2000002005
:10019000EFF3058070470000064880470648004797
:1001A000FEE7FEE7FEE7FEE7FEE7FEE7FEE7FEE727
:1001B000FEE7FEE729230008ED00000840EA0103FE
:1001C0009B0703D009E008C9121F08C0042AFAD20D
:1001D00003E011F8013B00F8013B521EF9D27047D1
:1001E000D2B201E000F8012B491EFBD27047002279
:1001F000F6E710B513460A4604461946FFF7F0FF26
:10020000204610BD80EA010210B502F00043400014
:1002100022D04A001FD0010E01EB1261C0F356003C
:10022000C2F3560240F4000042F40002A0FB022098
:1002300000047F39140400D0401C50EA124001D45D
:100240004000491EC2B20C0604EBD010401C40080E
:10025000802A02D003E0002010BD20F00100002918
:1002600000DA0020184310BD30B480EA010202F029
:10027000004530F0004221F0004013D090B1C30D92
:10028000D40DC2F31601C0F31600E41A41F40001C4
:1002900040F400027D34914201D3641C00E0490027
:1002A000002C02DA30BC002070474FF4000000231D
:1002B000914201D3891A034340084FEA4101F7D123
:1002C00051B1914202D14FF0004105E002D24FF00E
:1002D000010101E06FF0010103EBC450284430BC80
:1002E00000F009B8C10F80EAE0700844CA079623FD
:1002F000002100F009B80029A8BF7047401C490040
:1003000008BF20F00100704710B4B0FA80FC00FA7A
:100310000CF050EA010404BF10BC704749B1CCF1A5
:10032000200421FA04F411FA0CF118BF0121214331
:100330000843A3EB0C01CB1D4FEA00614FEA1020EC
:1003400042BF002010BC704700EBC350104400298E
:10035000A4BF10BC7047401C490008BF20F001003A
:1003600010BC7047064C074D06E0E06840F0010302
:1003700094E8070098471034AC42F6D3FFF7BAFE72
:10038000645A0008845A0008FEE7704710B501F06F
:10039000BFFE01F0F1FE0021084800F0F1FF04214A
:1003A000064800F0EDFF0021054800F0E9FFBDE838
:1003B00010400421024800F0E3BF000018020020B2
:1003C000D001002072B6FEE710B50068406A00B2A6
:1003D000FFF788FF0349FFF715FFBDE8104002490A
:1003E000FFF742BF0000B4430000524710B5016858
:1003F000486A002200B24A6241F270714843FFF736
:1004000071FFBDE810400149FFF72EBF00005247C1
:1004100010B590F821100022022905D00421816333
:1004200080F82020012010BD01680B6823F00E0326
:100430000B6001680B6823F001030B6090F84030FB
:10044000C46B012101FA03F3636080F8211080F886
:100450002020104610BD000010B590F82110002497
:10046000022903D00421816301243DE001680A6868
:1004700022F00E020A6001680A6822F001020A6096
:100480001A4A0168914201D1012121E0174A143230
:10049000914201D110211BE0144A2832914201D12E
:1004A000891515E0114A3C32914201D189140FE0BF
:1004B0000E4A5032914202D14FF4803108E00B4A8B
:1004C0006432914202D14FF4801101E04FF080710B
:1004D000064A083A5160012180F82110002180F875
:1004E0002010416B01B18847204610BD0800024032
:1004F00070B5044600F004F90546601C02D00448BB
:100500000078044400F0FCF8401BA042FAD370BD10
:10051000100000202DE9F84FDFF8B8910024A9F170
:10052000040B23460F2709F1040AABF1040EC9E0BE
:100530000125A5402A40AA427DD1674ED1F804C0CA
:10054000ACEB0608B44532D014DCBCF1030F3AD052
:1005500009DCBCF1000F2AD0BCF1010F1CD0BCF1AA
:10056000020F31D11DE0BCF1110F17D0BCF1120FF9
:100570002AD119E0B8F5881F19D006DCB8F5803FFC
:1005800015D0B8F5801F1FD111E0B8F5001F0ED0AF
:10059000B8F5041F18D10AE0CB6815E0CB681B1D25
:1005A00012E0CB6808330FE0CB680C330CE08B68AB
:1005B0002BB1012B4FF0080303D0456104E0042365
:1005C00002E0056100E00023FF2A01D8064601E0B1
:1005D00000F104064FEA840501D9A5F12005D6F8FB
:1005E000008007FA05FC28EA0C0803FA05F548EA3A
:1005F0000508C6F800804D68ED0062D5374DAE693C
:1006000046F00106AE61AD6924F0030605F0010570
:100610000095334D06EB050CDCF80850A607360FA5
:1006200007FA06F825EA0805DFF8B880404503D147
:100630004FF0000817E044E0DFF8AC80404502D1FD
:100640004FF001080FE0DFF8A480404502D14FF0E1
:10065000020808E0DFF89880404502D14FF0030817
:1006600001E04FF0040808FA06F848EA0508CCF85B
:1006700008804D68D9F80060ED024D4601D516435B
:1006800000E096432E604D68DAF80060AD025546F2
:1006900001D5164300E096432E604D68DBF80060FC
:1006A000AD035D4601D5164300E096432E604D68CC
:1006B000DEF80060ED03754601D5164300E0964371
:1006C0002E60641C0D682A46E5407FF431AFBDE81A
:1006D000F88F0000080401400000111000100240D3
:1006E0000000014000080140000C014000100140E2
:1006F000001401400AB1016170470904FBE70000E2
:1007000001488068704700001000002070B50400A8
:1007100025D094F83D00002520B984F83C502046AF
:1007200000F04EF9242084F83D002068016821F093
:10073000010101602068016841F400410160206806
:10074000016821F40041016000F0F2FA4D4A61684D
:10075000914201D84C4900E04C49884201D2012025
:1007600070BD4B492368B0FBF1F15E6826F03F068F
:100770000E435E606368934206D94FF49673594303
:100780004FF47A73B1FBF3F12368491C1E6A26F01B
:100790003F06314319626168914210D84900401EFA
:1007A000B0FBF1F2521CC2F30B02042A01D2042066
:1007B00022E0B0FBF1F0401CC0F30B001CE0A2688B
:1007C000F2B301EBC10303EB0116431EB3FBF6F3D7
:1007D0005B1C43F480431B0549D092B301EBC1027B
:1007E00002EB0111401EB0FBF1F0401CC0F30B0006
:1007F00040F4804040F400402168CA694CF6FF7321
:100800009A431043C861D4E9071001432068026885
:1008100022F0C00211430160D4E9030101432068C2
:10082000826848F2FF339A4311438160D4E905019D
:1008300008432168CA6822F0FF021043C86001E043
:100840000EE016E02068016841F0010101602564B6
:10085000202084F83D00256384F83E50002070BDC0
:1008600001EB4106431EB3FBF6F35B1CB3E701202B
:10087000C2E701EB4101401EB0FBF1F0401CC0F3A8
:100880000B00B7E7A086010080841E0000093D0030
:1008900040420F002DE9F84F1F4690468A46044615
:1008A000DDF82890FFF72CFF054694F83D0020283E
:1008B0007FD11923012240492046009501F048FAD2
:1008C000002876D194F83C00012872D0012084F8E9
:1008D0003C0020680168C90703D1016841F00101AB
:1008E00001602068016821F400610160212084F822
:1008F0003D00102084F83E0000262664C4F82480C1
:100900006785608D20852D48E0622B464A4651461A
:10091000204601F0A3F990B92068416980690090F0
:1009200036E02A464946204601F0B8FA50B1206C1C
:10093000042804D12068016841F40071016001209D
:10094000BDE8F88F606A216800780861606A401C21
:100950006062618D491E6185218D491E89B22185A4
:1009600022685369DB435B070BD451B100781061F7
:10097000606A401C6062608D401E6085208D401E54
:1009800020852A464946204601F0B6F90028CED1F6
:10099000208D0028C5D154F83D0B016841F4007149
:1009A0000160202004F81E09E67766770020C7E77B
:1009B000FFE70220C4E70000020010000000FFFF74
:1009C00010B586B000210091019102910391006859
:1009D0001349884222D1134CA06940F00800A0615D
:1009E000A069694600F0080004904FF44070009040
:1009F00012200190032003900B48FFF78BFD0B485A
:100A0000416841F0E06141F002014160E06940F479
:100A10000010E061E06900F40010049006B010BD21
:100A20000054004000100240000C01400000014052
:100A300002488168027811448160704710000020EC
:100A4000074810B5016841F010010160032000F073
:100A5000A7F80F2000F006F800F050F8002010BDB5
:100A60000020024030B505461F4887B0C16941F0FB
:100A70000201C161C06906A900F00200009001A84E
:100A800000F036F90498B0B100F052F9400017496F
:100A9000174AB0FBF1F11748491E0260416040F26D
:100AA000E7320021C0E903218160816100F076FB1B
:100AB000040003D015E000F03BF9E8E70D4800F032
:100AC0009BFB04000DD11D2000F03CF8102D07D237
:100AD000002229461D2000F043F80748056000E089
:100AE000012407B0204630BD0010024040420F00F4
:100AF0000004004038030020140000200F4808B50F
:100B0000816941F001018161816901F00101009178
:100B1000C16941F08051C161C069002200F080507C
:100B200000900F21901E00F01BF80548416821F04D
:100B3000E06141F00071416008BD0000001002401A
:100B400000000140002809DB00F01F020121914054
:100B50004009800000F1E020C0F80011704700005B
:100B6000F0B40E4B1B680C46C3F30223C3F1070518
:100B7000042D00D90425191D072901D2002300E006
:100B8000DB1E012606FA05F1491E214099409E40D0
:100B9000761E16403143F0BC01F0CFBD0CED00E0F5
:100BA000064900F0070208684FF6FF03184040EAC4
:100BB0000220034A10430860704700000CED00E07B
:100BC0000000FA052DE9F0470F46050061D0434EBD
:100BD000306800F00700B84209D2306820F0070002
:100BE00038433060306800F00700B84251D12868BF
:100BF0003B4C810712D5400703D5606840F4E060A4
:100C000060602878000703D5606840F46050606039
:100C10006068A96820F0F000084360602878C00789
:100C200028D06868012810D02168022810D08907D0
:100C300000292EDA616821F0030101436160FFF7AA
:100C40005FFD804641F288390DE021688903EFE7B6
:100C50008901EDE7FFF754FDA0EB0801494502D9F2
:100C60000320BDE8F0876068696800F00C00B0EB15
:100C7000810FEFD1306800F00700B8420BD930681F
:100C800020F0070038433060306800F00700B842B9
:100C900001D00120E5E72878400705D56068E968BC
:100CA00020F4E060084360602878000706D560689B
:100CB000296920F4605040EAC100606000F058F8F3
:100CC0006168084AC1F30311515CC84006490860D5
:100CD00006480068FFF7C6FE0020C2E70020024079
:100CE00000100240DA5800081C0000201400002008
:100CF0000F2202600C4A536803F0030343605368F9
:100D000003F0F0038360536803F4E063C360526848
:100D10004FF4E06303EAD20202610448006800F085
:100D200007000860704700000010024000200240E9
:100D30000448054900684968044AC1F30221515C2E
:100D4000C84070471C00002000100240EA5800080C
:100D50000448054900684968044AC1F3C221515C4E
:100D6000C84070471C00002000100240EA580008EC
:100D70000E4A51680E4801F00C03042B11D0082BC9
:100D80000FD10C48C1F38343C903C05C0AD5516835
:100D9000084AC1F34041921E515C054A5043B0FBE2
:100DA000F1F07047044948437047000000100240CA
:100DB00000127A00CA58000800093D002DE9F84FDA
:100DC000040070D02078C04DC00749D06868C0F3D7
:100DD0008100012807D06868C0F38100022809D18A
:100DE0006868C00306D52868800339D56068002884
:100DF000E7D035E06068B0F5803F0BD010B1B0F5BA
:100E0000A02F11D0286820F480302860286820F4B2
:100E1000802002E0286840F480302860606890B14B
:100E2000FFF76EFC06460AE0286840F48020286040
:100E3000F0E700BFFFF764FC801B642873D82868C4
:100E40008003F7D50CE0FFF75BFC064605E000BF2A
:100E5000FFF756FC801B6428F0D828688003F7D47D
:100E600020789A4E80074FF001094FF0000839D5DD
:100E7000686810F00C0F07D06868C0F38100022882
:100E800009D16868C00306D42868800714D5206992
:100E9000012808D110E02069B0B1C6F80090FFF732
:100EA0002FFC074605E00AE1FFF72AFCC01B0228D9
:100EB000C4D828688007F7D52868616920F0F80051
:100EC00040EAC10028600DE0C6F80080FFF718FC7A
:100ED000074604E0FFF714FCC01B022823D828684B
:100EE0008007F7D4207800072CD57948A169D9B1BB
:100EF000C0F80090FFF704FC074604E0FFF700FC91
:100F0000C01B02280FD8686A8007F7D571484FF4D4
:100F1000FA510068B0FBF1F0009000BF0098411E4C
:100F20000091FAD20EE080E0C0F80080FFF7E8FB05
:100F3000074604E0FFF7E4FBC01B022875D8686A87
:100F40008007F7D42078400760D5E8690027C00003
:100F500008D4E86940F08050E861E869012700F0B2
:100F6000805000905C480168C90513D4016883462D
:100F700041F480710160FFF7C3FB824606E000BFC9
:100F8000FFF7BEFBA0EB0A0064284ED8DBF8000098
:100F9000C005F5D5E06801280AD008B1052813D0AE
:100FA000286A20F001002862286A20F0040002E08C
:100FB000286A40F001002862E06841F2883B98B15D
:100FC000FFF79EFB82460BE0286A40F0040028628F
:100FD000EEE700BFFFF794FBA0EB0A0159455AD892
:100FE000286A8007F6D50CE0FFF78AFB824605E009
:100FF000FFF786FBA0EB0A0159454CD8286A800709
:10100000F6D41FB1E86920F08050E861E06988B348
:101010006968C1F38101022944D00228C6F86080C2
:1010200004D0FFF76DFB044638E034E0FFF768FBBF
:10103000074604E0FFF764FBC01B02282BD8286892
:101040008001F7D4206AB0F5803F05D16868A168B7
:1010500020F4003008436860D4E908010843696857
:1010600021F4741108436860C6F86090FFF748FBEC
:10107000044606E025E000BFFFF742FB001B022804
:1010800009D828688001F7D51BE000BFFFF738FBBF
:10109000001B022802D90320BDE8F88F28688001D0
:1010A000F4D40EE00128F7D06868226A00F4803199
:1010B000914204D1616A00F47010884201D001208D
:1010C000EAE70020E8E7000000100240000042428A
:1010D000800442421C0000200070004070477047AE
:1010E00010B590F83C20012A22D0012280F83C2043
:1010F000CA688C6822F4407222434C6822F48062F1
:1011000022430C6822F4006222430C6922F48052CC
:1011100022434C6922F400522243C969002322F47D
:1011200080420A4301684A6480F83C30002010BDC8
:10113000022010BD70B590F83C20012A26D0012471
:1011400080F83C40022280F83D2003685A689D6880
:1011500022F070060A6832435A600D4B02689A42C8
:1011600008D0B2F1804F05D00A4B9A4202D00A4B08
:101170009A4204D1496825F080031943916080F8B0
:101180003D40002180F83C10084670BD022070BD33
:10119000002C0140000400400008004010B504008D
:1011A00003D094F83D0010B107E0012010BD0020ED
:1011B00084F83C00204600F01EF8022084F83D0030
:1011C000211D206801F0B8F8012084F8460084F859
:1011D0003E0084F83F0084F8400084F8410084F821
:1011E000420084F8430084F8440084F8450084F801
:1011F0003D00002010BD704790F83D10012901D03E
:1012000001207047022180F83D100168CA6842F051
:101210000102CA6000680B49884208D0B0F1804FD3
:1012200005D00949884202D00849884204D1816822
:1012300001F00701062903D0016841F001010160B6
:1012400000207047002C01400004004000080040CE
:101250002DE9F0410D46040003D094F83D0018B18B
:1012600008E00120BDE8F081002084F83C00204621
:1012700000F040F8022084F83D002068816844F2C4
:10128000070291438160211D206801F055F8226812
:1012900090689169166A2B68AF69034340F2033086
:1012A000814341EA0721A868EF6908434FF6FC41F2
:1012B0008843E96840EA0720014328692F6A000152
:1012C00040EA0730084369686D6926F0220646EA5D
:1012D0000515294393602268906154F8460B01621A
:1012E000012004F81F09E0752076E0762077A075CC
:1012F0000020B7E700B585B000210091019102916F
:10130000039101681A48B1F1804F1BD0194A9142EC
:1013100016D1C16941F00401C161C16901F0040144
:101320000491816941F0080181618069694600F09A
:1013300008000490C02000900F4800BFFFF7EAF8B3
:1013400005B000BDC16941F00101C161C16901F091
:1013500001010491816941F004018161806969465C
:1013600000F004000490032000900448E6E7000029
:101370000010024000080040000C0140000801403D
:1013800070B590F83E60044690F83F5090F84230B7
:1013900090F84320022021B104290ED0012E1BD148
:1013A00014E0012E18D1012B16D184F83E0084F8E8
:1013B000420001220021206820E0012D0CD1012AE9
:1013C0000AD184F83F0084F8430014E0012D03D1D2
:1013D000012B01D1012A01D0012070BD84F83E000B
:1013E00084F83F0084F8420084F843000122002181
:1013F000206800F0D7FF01220421206800F0D2FF0E
:101400002068016841F001010160002070BD704753
:1014100070B50446006801694FF00005C9438907AB
:1014200015D4C168C943890711D4E91E016101209F
:101430002077206880698007204602D0FFF7E7FF09
:1014400004E000F0BFF8204600F064F9257720683A
:101450000169C943490717D4C168C943490713D46F
:101460006FF004010161022020772068806910F488
:10147000407F204602D0FFF7CAFF04E000F0A2F848
:10148000204600F047F9257720680169C94309071C
:1014900016D4C168C943090712D46FF0080101616D
:1014A000042020772068C0698007204602D0FFF71B
:1014B000AEFF04E000F086F8204600F02BF9257717
:1014C00020680169C943C90617D4C168C943C90660
:1014D00013D46FF010010161082020772068C069E3
:1014E00010F4407F204602D0FFF791FF04E000F0A7
:1014F00069F8204600F00EF9257720680169C94394
:10150000C90708D1C168C943C90704D1891E01614F
:10151000204600F04FF920680169C943090609D443
:10152000C168C943090605D46FF0800101612046F6
:10153000FFF7D4FD20680169C943490609D4C16891
:10154000C943490605D46FF040010161204600F00F
:101550003BF920680169C94389060BD4C168C943B6
:10156000890607D46FF0200101612046BDE8704074
:10157000FFF7B5BD70BD000000B585B0002100913A
:1015800001910291039100680B49884212D10B48E6
:10159000816941F0040181618069694600F00400BD
:1015A00004904FF4106000900220019003900448D2
:1015B000FEF7B0FF05B000BD002C01400010024056
:1015C00000080140704770B5044690F83C000026C2
:1015D0000D4601280FD0012084F83C006AB1042A8E
:1015E0001DD0082A2FD00C2A3FD00126002084F8D5
:1015F0003C00304670BD022070BD206800F0E0FE67
:101600002068816941F0080181612068816921F0C9
:1016100004018161206881692A69114311E0206811
:1016200000F0F6FE2068816941F400618161206864
:10163000816921F480618161206881692A6941EAB8
:1016400002218161D2E7206800F00EFF2068C169A5
:1016500041F00801C1612068C16921F00401C16144
:101660002068C1692A69114311E0206800F028FF51
:101670002068C16941F40061C1612068C16921F439
:101680008061C1612068C1692A6941EA0221C161A2
:10169000ACE710B5040003D094F83D0010B107E0AA
:1016A000012010BD002084F83C00204600F01EF808
:1016B000022084F83D00211D206800F03DFE01203D
:1016C00084F8460084F83E0084F83F0084F8400027
:1016D00084F8410084F8420084F8430084F8440010
:1016E00084F8450084F83D00002010BD08B500686E
:1016F0000649884208D10648816941F40061816148
:10170000806900F40060009008BD0000002C0140DA
:10171000001002407047000010B50446022249B193
:1017200004290ED0082913D094F84100012816D0BE
:10173000012010BD94F83E000128F9D184F83E2024
:101740000FE094F83F000128F2D184F83F2008E030
:1017500094F840000128EBD184F8402001E084F89F
:1017600041200122206800F01DFE0F4920688842B8
:1017700003D1426C42F4004242642068884208D09F
:10178000B0F1804F05D00949884202D0084988420B
:1017900004D1816801F00701062903D0016841F0F6
:1017A00001010160002010BD002C01400004004038
:1017B0000008004000680349884201D1FFF738B9AA
:1017C00070470000000400407047704770470000F9
:1017D000F8B5016804460868CA684B6910F00F0F35
:1017E0004FF000055AD003F0010602F4907737431A
:1017F00065D0C10705D0D10503D5616C41F0010169
:101800006164410705D5D90703D0616C41F002013D
:101810006164810705D5D90703D0616C41F00401EB
:101820006164010707D502F02001314303D0616CE8
:1018300041F008016164616C00293BD0800604D549
:10184000900602D5204600F08CFE20684069616C4D
:10185000C0F3801001F00801014320462BD000F0B6
:1018600059FE20684069400621D52068143050E8B0
:10187000001F21F0400140E80012002AF5D1E06B82
:10188000A8B16D494163E06BFEF7E6FD002811D079
:10189000E06B416B01B0BDE8F040084783060ED510
:1018A00093060CD52046BDE8F84000F05ABE20460D
:1018B000FFF78CFFF8BDFFF789FF6564F8BD266B65
:1018C0002023012E7CD1C6067AD5D60678D50868A5
:1018D0004868009048694FF00206400640D5E16B29
:1018E000086840680004000CE8D0A28D8242E5D967
:1018F000E085886920282DD020680C3050E8001F32
:1019000021F4807140E80012002AF5D121681431D9
:1019100051E8000F20F0010041E80002002AF5D153
:101920002068143050E8001F21F0400140E8001208
:10193000002AF5D184F84230256320680C3050E845
:10194000001F21F0100140E80012002AF5D1E06BE1
:10195000FEF75EFD6663A08DE18D401A81B22AE03C
:10196000A08DE18D401A81B2E08D0028A6D000291B
:10197000A4D022680C3252E8000F20F4907042E8A4
:101980000007002FF5D12068143050E8002F22F016
:10199000010240E80027002FF5D184F8423025638A
:1019A00020680C3050E8002F22F0100240E800239D
:1019B000002BF5D166632046FFF707FFF8BDFFE770
:1019C00005062BD5150629D594F841002128F5D117
:1019D000A068B0F5805F01D12069B0B1206A411CD8
:1019E0002162216800784860E08C401E0004000CF1
:1019F000E084E3D12068C16821F08001C1602068E3
:101A0000C16841F04001C160D8E7206A0088C0F396
:101A100008004860206A801C2062E5E74006CDD5BA
:101A20005006CBD5CA68204622F04002CA6084F82E
:101A3000413000F0F9F8C1E70525000870B5040051
:101A400004D094F84100002510B106E0012070BDDB
:101A500084F84050204600F023F8242084F8410008
:101A60002068C16821F40051C160204600F0DAFD11
:101A70002068016921F4904101612068416921F0E9
:101A80002A0141612068C16841F40051C160656468
:101A9000202084F8410084F842006563002070BD76
:101AA000F0B585B000240094019402940394036877
:101AB000424F022042490322424D4602BB4225D1F9
:101AC0008B6943F480438B618B6903F480430493F7
:101AD0008B6943F004038B618969039201F004016F
:101AE00004910102CDE9001069462846FEF712FD77
:101AF000CDE90064694628460294FEF70BFD0022FA
:101B000005212520FFF72CF8252028E02E4FBB4289
:101B100029D1CB6943F40033CB61CB6903F40033A3
:101B200004938B6943F004038B618969039201F08C
:101B3000040104910421CDE9001069462846FEF70E
:101B4000E9FC0820CDE90004694628460294FEF726
:101B5000E1FC002205212620FFF702F82620FEF7EF
:101B6000F1FF05B0F0BD194DAB42FAD1CB6943F49A
:101B70008023CB61CB6903F4802304938B6943F00A
:101B800008038B618969124D01F00801CDE9032139
:101B9000CDE9006069462846FEF7BCFCE814CDE9B3
:101BA0000004694628460294FEF7B4FC0022052191
:101BB0002720FEF7D5FF2720D1E70000003801409D
:101BC000001002400008014000440040004800406E
:101BD000000C014090F84230202B01D002207047C9
:101BE00021B11AB10023036300F078BD01207047D2
:101BF00010B50068084988420DD0084988420AD1CA
:101C00000121074800F0BCFEBDE810400122044954
:101C10000448FFF7DFBF10BD00380140004400401A
:101C20000C000020A80200207047FEE701684A6906
:101C3000D24352050FD46FF480624A61002140F80C
:101C4000301F202242738173026942F00402026154
:101C5000017301207047002070470000F8B504466A
:101C6000C06A1E460D461746082807D0012805D031
:101C700010F5803F02D0206B122804D12068016843
:101C800041F480710160134600224FF0011120469B
:101C9000009600F05DF840B120680068C00502D5EC
:101CA0004FF4007020640320F8BD2069B0F5804F28
:101CB0000ED00620216800EAD51040F0F00008613F
:101CC00033463A460B49204600F08AF878B902E0DC
:101CD00005F0FE0000E0E8B22168086105493346DE
:101CE0003A46891F204600F07BF80028DCD001200E
:101CF000F8BD00000800010070B516460D46044608
:101D00001EE02046FFF792FF08B1012070BD681C5D
:101D100016D0FEF7F5FC801BA84200D885B92068D4
:101D20004069C04340070BD5002044F8300F202104
:101D30006173A073216941F0200121612073E4E700
:101D400020684069C0434007DBD4002070BD00001C
:101D50002DE9F047984617460D460446C1F307465D
:101D6000DDF820902AE000BFB8F1FF3F26D0FEF753
:101D7000C7FCA0EB0901414502D8B8F1000F1DD105
:101D80002068012E16D0806925EA00000004000CAE
:101D900012D00020B84211D1002044F8300F202189
:101DA0006173A073216941F020012161207301203A
:101DB000BDE8F0874069E7E70120EBE72068012EE6
:101DC0000AD0806925EA00000004000C06D000203B
:101DD000B842C9D00020EBE74069F3E70120F7E7FC
:101DE0002DE9F047984616460D4604464FF0000987
:101DF0004FF0200AC1F3074723E020684069C04341
:101E0000400515D42068016841F400710160216823
:101E10006FF480604861C4F8309084F83DA084F885
:101E20003E90216C41F00401216484F83C9021E053
:101E3000701C06D0FEF764FCA0EB0800B04203D88B
:101E400016B1012F1FD021E02068012F15D0806925
:101E500025EA00000004000C18D000BF44F8309FB1
:101E600084F80DA084F80E90216941F020012161D1
:101E700084F80C900120BDE8F087406925EA000055
:101E80000004000CEAD12068406901E02068806904
:101E900025EA00000004000CAFD1ECE770B516464F
:101EA0000D4604461EE02046FFF7C0FE08B10120A3
:101EB00070BD681C16D0FEF723FC801BA84200D81A
:101EC00085B920684069C04300060BD5002044F85E
:101ED000300F20216173A073216941F0200121613D
:101EE0002073E4E720684069C0430006DBD400208B
:101EF00070BD00001CB510480090002301220A218B
:101F00000EA003F051FC104C002210212060012093
:101F100003F020F860600D4A00210D4800F0DEFC5F
:101F20000021A0601820CDE900010B46C82209A1BC
:101F30000B4803F08FFA1CBDE52700086D6F746F26
:101F4000725F74696D65720000000020A45800087B
:101F50009D2200086C63645F746573740000000068
:101F6000792700082DE9F04385B000242948009422
:101F7000019402940394816941F0100181618169A7
:101F800001F010010491816941F0200181618169B2
:101F900001F020010491816941F0040181618169AE
:101FA00001F004010491816941F0080181618069B7
:101FB000012200F00800DFF86080550304902946F4
:101FC0004046FEF797FBDFF854904FF218070022C7
:101FD00039464846FEF78EFB0095022601250396FA
:101FE000CDE9015469464046FEF794FA0320CDE955
:101FF0000004694648460294FEF78CFA009703965F
:10200000CDE9015469464846FEF784FA05B0BDE8BB
:10201000F08300000010024000100140000C01405D
:102020000D4810B50B4901600C49416000214FF487
:1020300080428160C0E9031241618161C161016236
:10204000FEF764FB002803D0BDE81040FEF7BAB9E4
:1020500010BD00000054004034010020A0860100A3
:1020600010B592B000240F941C2168461094FEF71E
:10207000BEF8202107A8FEF7BAF824482249C0E993
:10208000001441F61F41C0E90241046144618461CA
:10209000FFF7FFFA08B1FEF795F90F940FA91B4857
:1020A0001094FFF747F808B1FEF78CF96020CDE9EE
:1020B0000004029403940494059400226946134892
:1020C0000694FFF780FA08B1FEF77CF90C22694606
:1020D0000E48FFF778FA08B1FEF774F907940894F0
:1020E00009944FF400500A94CDE90B4007A9074822
:1020F0000E94FEF7F5FF08B1FEF764F90348FFF709
:102100003BFA12B010BD0000002C014088010020F5
:1021100010B58CB024216846FEF769F800241548F4
:1021200009944FF080410A94C0E900144FF6FF7102
:10213000C0E90241046184610220CDE9000401206C
:10214000CDE902040494CDE90540079469460948A5
:102150000894FFF77DF808B1FEF734F9099409A94E
:1021600004480A94FEF7E6FF002801D0FEF72AF99A
:102170000CB010BDD001002010B58CB024216846F1
:10218000FEF735F800241648099414490A94C0E96A
:1021900000144FF6FF71C0E902410461846102201E
:1021A000CDE900040120CDE902040494CDE9054005
:1021B000079469460A480894FFF74AF808B1FEF701
:1021C00001F9099409A906480A94FEF7B3FF00280B
:1021D00001D0FEF7F7F80CB010BD00000008004079
:1021E000180200200C4810B50A4901604FF4E13193
:1021F0004160002181600C22C160C0E9041281614C
:10220000C161FFF71BFC002803D0BDE81040FEF7BA
:10221000D9B810BD00380140600200200E4810B54A
:102220000C4901604FF4E1314160002181600C22D2
:10223000C160C0E904128161C161FFF7FFFB08B111
:10224000FEF7C0F8BDE81040012204490248FFF73C
:10225000C1BC000000440040A80200200C00002087
:102260000C4810B50A4901604FF4E131416000218A
:1022700081600C22C160C0E904128161C161FFF775
:10228000DDFB002803D0BDE81040FEF79BB810BD71
:1022900000480040F0020020FEE7FEE7002002F0C8
:1022A000FDFC012000F0C4FAFBE7000010B550204F
:1022B00080F31188BFF34F8FBFF36F8F03F036F9B0
:1022C00018B104494FF080500860002080F3118855
:1022D00010BD000004ED00E010B590B02821684664
:1022E000FDF785FF14210AA8FDF781FF0220009069
:1022F0000120049010200024059007946846FEF702
:102300005DFD08B172B6FEE70F20CDE90A040C941A
:102310000D9400210AA80E94FEF754FC002801D069
:1023200072B6FEE710B010BD704700000148FFF71D
:102330006FB8000038030020F0B50268164B174C48
:10234000174D4FF08047984205D0B84203D0A042C5
:1023500001D0A84203D122F070064A683243984265
:1023600005D0B84203D0A04201D0A84203D122F444
:102370004074CA6822434C6922F080022243026002
:102380008A68C2620A688262984201D1096901635F
:1023900001214161F0BD0000002C0140000400401B
:1023A0000008004010B501F01F030121046A9940A4
:1023B0008C430462016A9A401143016210BD00001F
:1023C00030B5036A026A22F001020262426884693F
:1023D00024F073050C682C4323F002058B682B4313
:1023E0000A4DA8420BD123F00805CB6822F44072B5
:1023F0002B434D6923F0040315438A692A43426045
:10240000846149684163036230BD0000002C0140D3
:1024100030B5026A036A23F01003036243688469DB
:102420000D6824F4E64444EA05248D6822F0200275
:1024300042EA05120B4DA8420ED1CD6822F080026F
:1024400042EA05124D6923F4406343EA85038D692E
:1024500022F0400243EA8503436084614968816356
:10246000026230BD002C014030B5036A026A22F4DA
:10247000807202624268C46923F4007324F0730519
:102480000C682C438D6843EA05230C4DA8420ED1FD
:10249000CD6823F4006343EA05234D6922F44052DA
:1024A00042EA05128D6923F4806342EA0512426014
:1024B000C4614968C163036230BD0000002C014063
:1024C00030B5046A026A22F4805202624268C3692B
:1024D0000D6823F4E64343EA05238D6824F4005491
:1024E00044EA0534064DA84204D14D6922F48042E5
:1024F00042EA85124260C36149680164046230BDEA
:10250000002C014010B5406A0021C185C184FFF74D
:102510005DF910BD01680C3151E8002F22F4907272
:1025200041E80023002BF5D10168143151E8002F58
:1025300022F0010241E80023002BF5D1016B0129B3
:1025400009D101680C3151E8002F22F0100241E856
:102550000023002BF5D1202180F8421000210163D7
:10256000704708B590F84210222901D0022008BD1A
:1025700082684FF480539A4201D1016921B1816A86
:102580009A421BD04AB10AE00268816A5268C2F3DB
:1025900008020A80816A891C08E0026972B1026837
:1025A000526802F07F020A70816A491C8162C18D03
:1025B000491E0904090CC18503D01BE0026852685A
:1025C000F1E70168CA6822F02002CA600168CA689F
:1025D00022F48072CA6001684A6922F001024A61ED
:1025E000202180F8421000214163026B012A03D0B0
:1025F000FFF7FEFA002008BD016301680C3151E8C5
:10260000002F22F0100241E80023002BF5D10168D1
:102610000A68D20602D50A6849680091818DFFF7E1
:10262000D4F8E7E770B5044600680169E26821F470
:102630004051114301612169A06808436169084361
:102640002168CA6841F20C639A430243CA60206859
:102650004169A26921F44071114341611E4920681A
:10266000884202D1FEF774FB01E0FEF761FB00EB4C
:10267000C00101EB0012606864218000B2FBF0F33E
:10268000B3FBF1F36FF018067343B2FBF0F5B2FB46
:10269000F0F605EB8305322303EB0515B5FBF1F5E9
:1026A000B6FBF1F605F0F00505EB0615B2FBF0F60A
:1026B000B2FBF0F0B0FBF1F06FF01802504306EB04
:1026C000800003EB0010B0FBF1F0216800F00F0078
:1026D0002844886070BD0000003801408162828516
:1026E000C28500214164222180F84210016921B194
:1026F0000168CA6842F48072CA6001684A6942F09F
:1027000001024A610068C16841F02001C1600020F7
:10271000704700000148FFF75BB80000600200202E
:102720000148FFF755B80000A80200200148FFF754
:102730004FB80000F0020020FEE70907090E00284C
:1027400004DB00F1E02080F80014704700F00F0077
:1027500000F1E02080F8141D704702E008C8121F45
:1027600008C1002AFAD170477047002001E001C17A
:10277000121F002AFBD17047044800F079FE03487D
:1027800000F06EFD014800F09BFDFBE7A00000207B
:10279000FEF756F9FFF7A0FDFFF7E4FBFFF740FC5B
:1027A000FFF720FDFFF73AFDFFF75AFDFDF7EEFDBD
:1027B00000F008F800F056F8FFF79CFB00F06EF808
:1027C000FEE7000010B5FFF74BFC00210448FEF7C0
:1027D000A3FFBDE810400C210148FEF79DBF00009B
:1027E0008801002000B585B0002004900D48FDF759
:1027F000EBFD02900C48FDF7E7FD03900948FDF75B
:10280000F5FD80F0004000900748FDF7EFFD0190D6
:102810000648022304AA6946406802F0E7FC05B0B6
:1028200000BD0000D00100201802002000000020A0
:1028300010B5EFF3058149B9EFF3108131B90849BB
:102840000968022905D1EFF3118111B16FF0050478
:1028500003E0002408B102F0FBF9204610BD00009F
:1028600070000020EFF3058058B9EFF3108040B9F5
:1028700009490868022801D030B109E0EFF311805E
:1028800030B16FF0050070470120086000207047EC
:102890004FF0FF30704700007000002010B5EFF3DC
:1028A000058060B9EFF3108048B90B490868022829
:1028B00002D0012806D00BE0EFF3118040B16FF099
:1028C000050010BD0220086002F072FA002010BD61
:1028D0004FF0FF3010BD000070000020F0B585B053
:1028E0000B464FF00004EFF305810394A1BBEFF317
:1028F000108189BB21490968022902D1EFF31181B6
:1029000051BB48B3802618218DF8104004AD42B366
:10291000176807B13D4697691FB139467F1E382FAA
:1029200002D21779FF0702D0002005B0F0BD576929
:1029300007B1BE08D2F808C0BCF1000F0DD0D468B2
:102940005C2C18D312693AB137B18DE806103246C3
:10295000294602F0ACFD03900DE0D7685FB912691B
:102960004AB903AACDE90012B2B2294602F072FDBB
:10297000012800D003940398D7E7000070000020DE
:102980002DE9F041DFF84C80054640460C46B8F88A
:102990000610C38800680A19D8F800701844802A05
:1029A0000AD9C1F180018EB232462946FDF706FCF4
:1029B000A21BA919384601E022462946FDF7FEFB75
:1029C00098F80610214401F07F01A8F80610BDE830
:1029D000F0810000601C00202DE9F041134C0F46EF
:1029E000054666692068001D02F001F8681C07D1E1
:1029F00037B12168BDE8F0410D48091D02F047B824
:102A000020683544B5424560216805D2A068BDE81C
:102A1000F041091D02F023B86068091D02F01FF89B
:102A2000206B854200D22563BDE8F08120000020A4
:102A3000700800202DE9F041054602F035F82D4CD4
:102A40002069401C206120682B4F10B1E06930B331
:102A50002BE025602069012827D1002606EB86009F
:102A600007EB800001F0EDFF761C382EF6D32348EB
:102A700001F0E7FF2148143001F0E3FF1F48283040
:102A800001F0DFFF1D483C3001F0DBFF1B485030F8
:102A900001F0D7FF194860601430A06005E020689D
:102AA000E96AC06A884200D82560E06A401CE0629A
:102AB0006864E86AA169884200D9A06100EB8000DF
:102AC00007EB8000291D01F0E2FF02F00DF8E0693C
:102AD00000280CD02068E96AC06A884207D20849F9
:102AE0004FF080500860BFF34F8FBFF36F8FBDE88A
:102AF000F081000020000020C003002020080020FA
:102B000004ED00E038B501F0CFFF104CA068C8B963
:102B10000F4801F096FF0E48143001F092FF0C4868
:102B20002060143060600A4B00202833009003F1CD
:102B3000500210210A2002F031FAA06010B105A164
:102B400002F050F8BDE8384001F0CEBF5C00002034
:102B500084080020546D72510000000030B4026CF3
:102B60000B46002A0BD0C1681144C1604468A142E1
:102B700001D30168C16030BC1846FDF71FBB30BCF3
:102B800070472DE9F041856B174604460026026C1C
:102B900082B1C7B1E068FDF711FBE168206C091A4A
:102BA000E1602268914202D26168081AE060022F57
:102BB00016D017E02068A8B9606802F01BFD064631
:102BC000002060600EE0A068FDF7F8FA216CA068B4
:102BD0000844A0606168884204D32068A06001E0D6
:102BE00005B16D1E6D1CA5633046BDE8F08110B5C2
:102BF000044690F8590058B101280CD002280FD093
:102C0000502080F31188BFF34F8FBFF36F8FFEE723
:102C1000206B01F07DFF2046BDE8104001F078BF39
:102C200010BD000010484FF44061420706D0C01D9F
:102C30000D4920F00700411AC1F540610B4A0023FD
:102C40000144C2E900030839103A21F0070111607C
:102C50004B600B600B1AC0E9001393604FF000400B
:102C60005360D060704700005410002084000020A2
:102C7000154E164CA6F29C474FF08058DFF8509046
:102C800012E000BF01F010FFF068C568281D01F0D8
:102C9000AEFE2069401E2061E068401EE06001F049
:102CA00023FF2846FFF7A3FFE0680028EAD1386831
:102CB000012805D9C9F80080BFF34F8FBFF36F8F8C
:102CC00001F0BEFEF0E700005C08002020000020BC
:102CD00004ED00E070B51D46049C51B1C4F800201D
:102CE000C4E90F010121204602F08CF984F84C5010
:102CF00070BD2460F4E72DE9F0470E46DDE9098454
:102D00001746824691009946089DA522206BFDF743
:102D100067FA6FF00301206B01EB8701084420F094
:102D20000707780707D0502080F31188BFF34F8F33
:102D3000BFF36F8FFEE72218315C82F83410315CEC
:102D400011B1401C1028F6D3002684F84360382DBA
:102D500000D33725E562C4E91356201D01F07CFE3F
:102D600004F1180001F078FE2461C5F138006462B6
:102D7000A061666584F858604A465146384600F0BE
:102D80005DFA2060B8F1000F01D0C8F80040BDE83E
:102D9000F0872DE9F0471E46DDE9089417460D003F
:102DA00080460ED0002C14D0FFF7ACFEC4F8008093
:102DB000C4E90657C4E90869201DBDE8F04701F0E1
:102DC0004BBE502080F31188BFF34F8FBFF36F8F3E
:102DD000FEE7BDE8F087000030B5114900E011467C
:102DE0000A688242FBD34B685C18844203D1406876
:102DF00018444860084643681C18944209D1084C9E
:102E0000103C2468A24209D052681A4442600A6801
:102E100012680260814200D0086030BD0460F9E7AA
:102E20008400002070B5002441600B4D0061914288
:102E300006D8D11A8269914206D2011D686807E05E
:102E40009A4203D2994201D3012403E0011D28686C
:102E500001F005FE204670BD5C00002010B5044660
:102E600001F022FEA06B28B15FF0000401F03CFEEF
:102E7000204610BD0124F9E730B589B0304D55E04A
:102E80000498002806DADDE90601059A90470498BF
:102E900000284BDB069C606910B1201D01F0A7FDE6
:102EA00002A800F0B9F8024604980A283ED2DFE8EA
:102EB00000F00505053D263705053D260598A16965
:102EC000034601442046FFF7ADFF00B3616A204688
:102ED0008847E069012829D1002000900598A16960
:102EE000002342181946204602F0A8FC78B9502069
:102EF00080F31188BFF34F8FBFF36F8FFEE7059804
:102F0000A06128B1811813462046FFF78BFF0DE022
:102F1000502080F31188BFF34F8FBFF36F8FFEE710
:102F200094F82C0010B9204601F0F2FD002204A90B
:102F3000A86802F0B9F90028A2D109B030BD00009C
:102F40005C0000202DE9FC410F46054601F074FFAE
:102F500001A800F061F80446019818B102F0C2FB24
:102F6000BDE8FC81224EAFB170680068A8B30027AD
:102F7000291B3A46B06801F049FE02F0B3FB002875
:102F8000EED11C494FF080500860BFF34F8FBFF364
:102F90006F8FE5E7A542EBD802F0A4FB3068274627
:102FA000C068C468201D01F022FDE069012810D12D
:102FB000A0692B4641193A462046FFF733FF40B13E
:102FC00000200346014600902A46204602F036FCC7
:102FD00020B1616A20468847C2E707E0502080F3AD
:102FE0001188BFF34F8FBFF36F8FFEE70127BFE755
:102FF0005C00002004ED00E006484168096829B142
:103000004168C968C9684968016370474FF0FF317A
:10301000FAE700002000002070B5054602F080FAB3
:10302000064E04463069844203D200F009F80120BC
:1030300000E0002028602046346170BD5C00002064
:10304000F8B5194D1FE0C068C4680668201D01F07E
:10305000CEFC616A20468847E069012813D1A06947
:103060003044B04206D924616060211D286801F017
:10307000F6FC08E000200346014600903246204658
:1030800002F0DCFB38B1286801680029DBD16968EF
:10309000C5E90010F8BD502080F31188BFF34F8FB1
:1030A000BFF36F8FFEE700005C0000200848406817
:1030B000401C4FF0500080F3118804D0BFF34F8FB5
:1030C000BFF36F8FFEE7BFF34F8FBFF36F8FFEE746
:1030D0008C000020074C2068016841B1C0680021C5
:1030E000D0F80000FFF72EFFFFF7C6FEF3E701213F
:1030F0000020F7E75C0000202DE9F041044601F0D4
:10310000D3FC94F9455004F1240609E0606A48B103
:10311000304602F0AFFA08B101F010FE6D1E6DB23C
:10312000002DF3DC4FF0FF3684F8456001F0DCFC45
:1031300001F0BAFC94F9445004F1100709E0206949
:1031400048B1384602F096FA08B101F0F7FD6D1E5D
:103150006DB2002DF3DC84F84460BDE8F04101F06D
:10316000C3BC00002DE9F0410546002701F064FED4
:10317000314E306808B9FFF755FDF06805424BD174
:10318000C5B3083568070ED005F00700C0F1080088
:103190000544680707D0502080F31188BFF34F8F94
:1031A000BFF36F8FFEE72DB37068854234D8224895
:1031B000103001460C6801E020460C466168A942C7
:1031C00002D221680029F7D131688C4224D00768E7
:1031D0002168016060680837411B10290FD9601908
:1031E000420708D0502080F31188BFF34F8FBFF300
:1031F0006F8FFEE710E041606560FFF7EDFD6168ED
:103200007068401A7060B268904200D2B060F06896
:1032100001430020C4E9000102F064FA780707D0F6
:10322000502080F31188BFF34F8FBFF36F8FFEE7FD
:103230003846BDE8F08100007400002010B5031F7F
:103240004FF080741C601B1F21F001011960191FD1
:10325000024B0B60143940380A6010BDAD300008D5
:1032600038B505464FF47A7400F01CF911A30F220B
:103270000021284600F0AAFB1420009032232022CF
:103280001021284600F0BDF9284600F0C5FB204675
:10329000FDF72EF9282000901E23162247212846EC
:1032A00000F0AFF9284600F0B7FB2046BDE83840F3
:1032B000FDF71EB9447261774672616D65000000CA
:1032C0002DE9FC47824600F0EDF800250024AAB263
:1032D000A1B2504600F06EFA504600F09DFB10344B
:1032E000802CF4DB1035402DF0DB504600F0DAF88E
:1032F0001E27402680254FF6FF74784206EB4001DA
:1033000089B205EB800083B20091BAB204EA4701AA
:10331000504600F0D0F8504600F07EFBBF1E002F54
:10332000EBDC504600F0BEF80027784206EB400187
:1033300089B205EB800083B20091BAB204EA47017A
:10334000504600F05EF9504600F066FBBF1C202F8F
:10335000EBDB504600F0A6F81E274FF0030800BF35
:1033600097FBF8F07942C0F10A0006EB410280B207
:1033700092B2CDE9002005EB810083B2BAB204EA33
:103380004701504600F02DFA504600F045FBBF1EA5
:10339000002FE5DC504600F085F8B1460027464690
:1033A00097FBF6F07942C0F10A0009EB410280B2C6
:1033B00092B2CDE9002005EB810083B2BAB204EAF3
:1033C0004701504600F080FA504600F025FBBF1C34
:1033D000202FE5DB504600F065F802260F25B3B23A
:1033E000202240215046009500F0A7F8504600F0FA
:1033F00013FBF61C402EF2DB504600F053F840263B
:10340000B3B2202240215046009500F076F8504695
:1034100000F002FBF61E002EF2DC504600F042F8EF
:103420000226B0B2CDE9000504EA4603202240217D
:10343000504600F0C4F8504600F0EEFAF61C202E7C
:10344000EFDB504600F02EF82026B0B2CDE90005A3
:1034500004EA460320224021504600F08EF85046F0
:1034600000F0DAFAF61E002EEFDCBDE8FC87000063
:1034700010B50446084B094A094900F00FFB2046E5
:1034800001F06AF80021204601F076F82046BDE8F8
:10349000104000F007B800006D4900081D46000804
:1034A000F458000801680A7C90F83810406B5143CA
:1034B000C900FCF79CBE2DE9F8438146089C1E46D6
:1034C000101980B20090881983B215468846484684
:1034D00000F08AFA00280ED00027002C0BD03346CB
:1034E0002A4641464846009700F00EF96D1C641EBE
:1034F000ADB2A4B2F1E7BDE8F8832DE9F8431C466C
:1035000080461019401C80B200900819401C83B2FC
:103510001546101B82B20E46081B81B2089F40461A
:1035200000F062FA002806D023462A46314640467B
:10353000009700F040FBBDE8F8832DE9F8431C46F6
:1035400080461019401C80B200900819401C83B2BC
:103550001546101B82B20E46081B81B2089F4046DA
:1035600000F042FA002806D023462A46314640465B
:10357000009700F0B2FBBDE8F8832DE9FC478146D7
:10358000DDE90A481019401C80B21D460090481918
:10359000401C83B21646101B82B20F46481B81B2F4
:1035A000484600F021FA002807D0CDE900482B4614
:1035B00032463946484600F02BFCBDE8FC872DE931
:1035C000FC478146DDE90A481019401C80B21D46BF
:1035D00000904819401C83B21646101B82B20F4659
:1035E000481B81B2484600F0FFF9002807D0CDE91A
:1035F00000482B4632463946484600F0A7FCBDE855
:10360000FC872DE9F84F83460A9E9A46901980B2AE
:1036100001EB0A04009015460F46A3B2584600F08D
:10362000E3F900282FD04FF0000953462A463946C7
:103630005846CDF8009000F067F8022E23D3B61E4E
:10364000360405F10105360CADB214D04FF0010877
:1036500033462A4639465846CDF8008000F054F8E3
:10366000641EA1B233462A465846CDF8008000F0C9
:103670004BF8A81985B253462A4639465846CDF824
:10368000009000F041F8BDE8F88F2DE9F0410446C4
:1036900090F870001F4615460E4630B1012809D03B
:1036A00002280CD0032815D10FE0E16D2046884791
:1036B000284408E0E16D20468847301A09E0E16DB2
:1036C00020468847281A85B204E0E16D20468847E5
:1036D000304486B22846A4F86460A4F866003946EF
:1036E0000025204600F016FE010003D0204600F021
:1036F00041FD85B22846BDE8F08138B5002400942C
:1037000000F002F838BD00003FB581B0044690F8E3
:103710008C00089900283AD0BDF81000002836D057
:10372000012811D9022902D0032907D00CE0BDF8E5
:103730000820101A401CADF8080005E0BDF80C2068
:10374000101A401CADF80C0011F0010521D0B4F89E
:103750004810BDF80800814219D8B4F84A108142D7
:1037600015D9B4F84E30B4F84C2004A90DF10C0072
:1037700000F003FA00280AD00095206BBDF8103045
:10378000BDF80C208568BDF808102046A84705B094
:1037900030BDB4F84C10BDF80C008142F7D8B4F835
:1037A0004E108142F3D9B4F84A30B4F8482004A945
:1037B00002A8DDE708B5B0F84C30934210D8B0F855
:1037C0004E3093420CD9B0F848308B4208D8B0F84C
:1037D0004A308B4204D9002300930123FFF794FF62
:1037E00008BD2DE9FF4F83B01F46DDE910A402EBB1
:1037F0000A06B0B2CD19009090468946ABB2039844
:1038000000F0F2F800285CD009EB04001FFA80FBFE
:1038100008EB040081B2281B401E85B2301B401EFD
:1038200080B2CDE9010102200A46009023465946A4
:103830000398FFF782FE01200090DDE90220234675
:103840002946FFF77AFE0420009023465946019A44
:103850000398FFF772FE0820009023462946019A3C
:103860000398FFF76AFE0BF101011FFA81FB029931
:10387000381B491C001B80B289B20291032811D366
:10388000801E86B2601C85B233464246594600957A
:103890000398FFF710FE334600955946019A0398A6
:1038A000FFF709FEAAEB0400001B80B2032808D32F
:1038B000801E80B20090DDE902203B464946FFF7BA
:1038C000FAFD07B0BDE8F08F2DE9FF4F83B01C462D
:1038D000DDE9106502EB060A1FFA8AF001EB040924
:1038E0000090174688461FFA89F3039800F07CF889
:1038F000002867D008EB05001FFA80FB781981B219
:10390000A9EB0500401E80B2CDE90110AAEB05002D
:10391000401E1FFA80F902200A4600902B465946A5
:103920000398FFF7EAFD01200090DDE902102B4625
:10393000019AFFF7E2FD042000902B464A465946C3
:103940000398FFF7DAFD08200090DDE902102B460E
:103950004A46FFF7D2FD601B711B401B491B8DB20D
:103960000BF101011FFA81FA019980B2491C1FFA7B
:1039700081FB032810D3801E80B2814603463A465D
:103980005146761E0398FFF7B8FEB81982B24B462F
:1039900051460398FFF7B1FE032D13D3AD1EADB210
:1039A0002B465A464146641E039800F017F808EB70
:1039B000040081B2039807B02B465A46BDE8F04F89
:1039C00000F00CB807B0BDE8F08F000030B4024C36
:1039D000446030BC00F06CBBE145000838B5012400
:1039E0000094FFF791FE38BD70B50D461E460446A3
:1039F000B0F84E10B0F84C00049B00F0E8FC002832
:103A000009D0B4F84A10B4F8480033462A46BDE855
:103A1000704000F0DCBC70BD10B5044600F030FD15
:103A20002046BDE8104000F09FBD00000149C1657F
:103A300070470000274100080021A0F85010A0F8AE
:103A400054104FF6FF71A0F85210A0F85610016BF9
:103A50004968084770B5044600250498A565E362E7
:103A6000616384F8382084F8395084F86D5084F804
:103A7000915084F88D50012184F8921084F89310AD
:103A800020630168204688472046FFF7D5FF20467F
:103A9000FFF7CCFF84F8705070BD00007CB50C4679
:103AA000009313460546084A084900F06DFD01A839
:103AB00000F0E0FC0146064B00949DF804202846E7
:103AC000FFF7C8FF7CBD00003D47000865480008BF
:103AD000E74300082BB1012B05D0022B06D0104480
:103AE00002E0084400E0801A80B27047401AFBE709
:103AF0002BB1012B05D0022B06D0401A02E0104456
:103B000000E0084480B27047801AFBE738B50446ED
:103B1000B0F856000090B4F85230B4F85420B4F81D
:103B200050102046FFF760FF18B3012084F88C0086
:103B3000B4F84810B4F85000814201D2A4F848000B
:103B4000B4F84A10B4F85200814201D9A4F84A00EE
:103B5000B4F84C10B4F85400814201D2A4F84C00DF
:103B6000B4F84E10B4F85600814201D9A4F84E00C2
:103B700038BD002084F88C0038BD30B504880D882D
:103B80002544ADB2AC4205D99C4202D25D1EADB215
:103B900000E014469C4201D2954201D8002030BD7D
:103BA000944200D214469D4200D91D460480281B31
:103BB0000880012030BD2DE9FF4FC3F1010083B023
:103BC00006B258429146DDF840A040008B460127DE
:103BD0001C46CDE9009A00250FFA80F85B46224684
:103BE000294615E0002E08DB08F102000FFA80F8E4
:103BF000641E06EB0800A4B206B26D1CBF1C3FB2E7
:103C0000CDE9009AADB2F01906B25B4622462946CC
:103C1000039800F005F8A542E4D307B0BDE8F08FA3
:103C20002DE9FF4F83B00E46DDE9108703EB060058
:103C300002901546A8EB0600019003EB05001C4618
:103C4000F907A8EB050B00900DD002981FFA8BF234
:103C500081B20398FFF7AEFD019882B2009881B25D
:103C60000398FFF7A7FDB907A4EB060AA4EB050923
:103C70000DD51FFA8BF21FFA8AF10398FFF79AFD10
:103C800001981FFA89F182B20398FFF793FD08EBC0
:103C90000504390708EB06050BD50298A2B281B2DC
:103CA0000398FFF787FD0098AAB281B20398FFF747
:103CB00081FD78070ED5A2B21FFA8AF10398FFF7AB
:103CC00079FD039807B0AAB21FFA89F1BDE8F04F59
:103CD000FFF770BD07B0BDE8F08F2DE9FF4FC3F1CE
:103CE000010083B006B258429146DDF840A0400082
:103CF0008B4601271C46CDE9009A00250FFA80F873
:103D00005B462246294615E0002E08DB08F102003A
:103D10000FFA80F8641E06EB0800A4B206B26D1C10
:103D2000BF1C3FB2CDE9009AADB2F01906B25B46B6
:103D300022462946039800F005F8A542E4D307B0CF
:103D4000BDE8F08F2DE9FF4F83B0164610980F465F
:103D5000A0EB060B03EB070001901098DDF84490F0
:103D6000A0EB070098465FEAC97103EB060A02F16F
:103D7000010507F1010400900FD00198ABB281B2A8
:103D80001FFA8BF20398FFF729FE0098A3B282B2C4
:103D90001FFA8AF10398FFF721FE5FEA8971A8EB09
:103DA0000707A8EB06060DD5ABB21FFA8BF2B9B226
:103DB0000398FFF713FE0098A3B282B2B1B2039842
:103DC000FFF70CFE5FEA09700DD50198ABB281B226
:103DD000109A0398FFF702FEA3B21FFA8AF1109A15
:103DE0000398FFF7FBFD5FEA49700ED5ABB2B9B29D
:103DF000109A0398FFF7F2FD109A039807B0A3B248
:103E0000B1B2BDE8F04FFFF7E9BD07B0BDE8F08FF4
:103E10002DE9FF4F87B01C46149D03FB04F105FB01
:103E200005F0470004900020CDE90230C3F1010005
:103E30004E00001B68434FF0000800FB05F907FB2C
:103E400004FBC24605911EE015990998CDE90001D1
:103E5000DDE90703DDE9021200F048F8039805994F
:103E6000401C80B2039088198844059009EB4800F3
:103E7000B244002807DD0298C844401E80B2ABEB74
:103E8000070BB9440290D345DEDA00200290C5F159
:103E90000100401B604300FB04F8AB460024A14630
:103EA00006FB0BF5DDF810A01BE015990998CDE98C
:103EB0000001DDE907035A46029900F017F802985D
:103EC0005444401C80B2029008EB4400B944BA4408
:103ED000002806DDABF1010044441FFA80FBAD1B56
:103EE000B044A945E1DD0BB0BDE8F08F2DE9F05FEE
:103EF0009146DDE90AA488461E468346E207AAEBFE
:103F0000090503EB080704D0AAB2B9B25846FFF777
:103F100051FCA107A6EB080604D5AAB2B1B25846D7
:103F2000FFF748FC22070AEB090504D5AAB2B9B28B
:103F30005846FFF73FFC600706D5AAB2B1B2584613
:103F4000BDE8F05FFFF736BCBDE8F09F2DE9FF4FFD
:103F500087B01C46149D03FB04F105FB05F04700E8
:103F600004900020CDE90230C3F101004E00001B97
:103F700068434FF0000800FB05F907FB04FBC2464D
:103F800005911EE015990998CDE90001DDE90703C7
:103F9000DDE9021200F048F803980599401C80B250
:103FA000039088198844059009EB4800B244002822
:103FB00007DD0298C844401E80B2ABEB070BB94442
:103FC0000290D345DEDA00200290C5F10100401BCB
:103FD000604300FB04F8AB460024A14606FB0BF54A
:103FE000DDF810A01BE015990998CDE90001DDE985
:103FF00007035A46029900F017F802985444401CEF
:1040000080B2029008EB4400B944BA44002806DDAF
:10401000ABF1010044441FFA80FBAD1BB044A9453D
:10402000E1DD0BB0BDE8F08F2DE9F05F8946DDE9F9
:104030000AA51F468346E907AAEB020803EB090617
:1040400002F1010406D0A3B21FFA88F2B1B25846B9
:10405000FFF7C4FCA907A7EB090706D5A3B21FFA0F
:1040600088F2B9B25846FFF7B9FC280705D5A3B2C4
:10407000B1B252465846FFF7B1FC680707D5A3B264
:10408000B9B252465846BDE8F05FFFF7A7BCBDE89D
:10409000F09F38B5C58F049C0094521BC46A92B23D
:1040A000A04738BD38B5049C0094FFF7F2FF38BD37
:1040B0002DE9F0471C4691468846064600F093FCE1
:1040C00000254FF6FF777268217830469047034607
:1040D000B84225D0641CA3F57F40FE38F3D04A4691
:1040E00041463046FFF7D1FA96F8701031B10129F8
:1040F00007D0022908D003290FD10AE008EB0001FC
:1041000004E009EB000106E0A8EB00011FFA81F8CA
:1041100003E0A9EB00011FFA81F9284485B2D2E738
:104120002846BDE8F0870020704710B50C4600F027
:1041300006F80122641EA240801A40B210BD30B5BC
:104140000568047B2A78E2406318DBB2082B09D3A8
:104150006D1C05602D78C4F10804A5401543083B8B
:10416000EAB2DBB201248C40641E14400373204683
:1041700030BD00002DE9F843054600F1600400F071
:104180000CF915F96B6F2046E97BFFF7CEFF8146EE
:10419000297C2046FFF7C9FF0746697C20466B3D16
:1041A000FFF7C3FF804694F90A00002857DDF01995
:1041B000404247B2237CA0883A464946FFF78AFC32
:1041C000A080237C3A46E0884946FFF791FCE080D6
:1041D000A188277C02460B4637B1012F0AD0022F57
:1041E00040D0032F0FD146E094F90A7030443B448D
:1041F0009BB207E0891B491C94F90A705B1C89B2C9
:104200009BB2384480B200902846FFF7EDFB30B3F4
:104210000020207284F8090095F876102046FFF7F8
:104220008EFF814695F877102046FFF788FF0746F6
:1042300000224946284600F027F801223946284640
:1042400000F022F801212046FFF779FF0028EFD186
:1042500094F90900B042DFDBA07B85F8920040466C
:10426000BDE8F88394F90A705B1CC91B491C89B22C
:104270009BB2921B04E094F90A7033449BB2D21BA8
:10428000521C92B2401CBDE72DE9F74F84B00D4699
:10429000049C94F8687094F869806034A07AC01B1C
:1042A000C6B20196B54200D201954FFA88F279B2B2
:1042B000A088B4F806B0237C92468946FFF70AFC32
:1042C0000290237C524649465846FFF711FC0246AD
:1042D000069808B1A17B02E0607B50B9E17B0498AD
:1042E00080F89210207C0090DDE901310498FFF7FE
:1042F0000BFAB54207D3A81BC5B208F1010000278D
:1043000000F0FF08CAE77819207284F8098007B026
:10431000BDE8F08F70B50D460146806D1730FF2D5A
:1043200010D8612D02D3B1F8881003E0412D02D3DB
:10433000B1F886100844417819B30278AA42F9D13D
:10434000801C70BDB1F88A100C182646002130463A
:1043500000F019F804440221304600F014F8361D2C
:10436000A842F3D34FF6FF72207802EA002160786A
:10437000084306D0A84201D1E01C70BDA0780444D7
:10438000F2E7002070BD08444FF6FF7201784078D4
:1043900002EA0121084480B2704730B5054600F1B9
:1043A000600401660020207315F8781F2046FFF78F
:1043B000C6FEA07269782046FFF7C1FEE072A87EB3
:1043C000A07310B10020E07330BD0120FBE78A42EA
:1043D00005D2834201D89A4203D901207047834213
:1043E000F9D800207047F0B502F007060124B44068
:1043F000002590F892E0E7B2DDF814C02C46BEF13B
:10440000010F01D83D4600D03C46076822F0070264
:10441000BCF1000F3F7C07FB02F7BAB2476B3A448E
:10442000114409D108785B1E284360401B0401F841
:10443000010B1B0CF6D1F0BD0A78761C2A436240B2
:10444000A3F101030A7016F007069BB206D06A06B4
:10445000150E6206140E002BEED1F0BD428F1144F2
:1044600090F89220012A02D84FF00105F3D04FF0C6
:104470000104F0E708210170004870476C1D00201E
:104480002DE9F843064690F8387090F839500068E6
:1044900000244FF6FF7890F81190316830462A4694
:1044A0000B7C716B04FB03FC1FFA8CFC08EACC0C40
:1044B00061440091002100F040F8641C6D1CE4B2DE
:1044C000EDB2BC4201D24D45E7D3BDE8F883F0B56B
:1044D00090F838204FF6FF75036805EAC20181871E
:1044E000197C05EAC101418790F8394005EAC40109
:1044F000C1875E7CA718B74201D9321B92B205EA88
:10450000C20220F8401F11444180998A8180D98AD3
:10451000C180F0BDFFF7DBBF0021A0F84810B0F864
:104520004410A0F84A10B0F84010A0F84C10B0F8B1
:104530004210A0F84E10FFF7E9BA1CB58DF805102F
:104540008DF80620049C8DF80430009401228468C4
:104550006B460F21A0471CBD30B484680023A446DD
:1045600030BC1A460A21604730B484680023A44650
:1045700030BC1A461021604730B484680023A4463A
:104580000A4630BC0B2160472DE9F04115460E4626
:104590000446069F00F00AF86761A660C4E9035369
:1045A0002046BDE8F04100F013B80000002140F8BB
:1045B000081B064A026042608260C260C176817751
:1045C0000161FF21017780F82010704769490008D8
:1045D00030B484680023A44630BC1A4609216047E1
:1045E000080001D00A2801D14FF6FF70704730B49F
:1045F00004690023A44630BC1A461921604713B54C
:104600000122046901AB1721A0471CBD30B4046925
:104610000023A44630BC1A461821604738B5164816
:1046200018290AD004DC142923D017291FD107E048
:10463000192912D020291AD11BE00021017018E09D
:104640000E4C07E0017813F8015B6554491C521EBB
:104650000170D2B2002AF5D10BE04FF47A710091CB
:104660000378064A78210648FCF714F908B10020BF
:1046700038BD012038BD000098000020EC1C00204F
:104680003401002030B4C4680023A44630BC1A466C
:104690001921604730B4C4680023A4460A4630BCE0
:1046A0001621604730B4C4680023A4460A4630BCD3
:1046B0001521604730B4C4681346A4460A4630BC8E
:1046C00017216047F8B50C464FEA000514F8011BA6
:1046D000182924D00EDC152919D0162917D017292E
:1046E00023D120788DF800006A4601212846FFF783
:1046F000E1FF0AE0192912D0FE2916D122788DF89F
:1047000000202921284600F052F9641CDEE72278B7
:104710008DF80020EE6800232846B047F5E7002317
:10472000EE681A462846B047D0E7F8BD30B4C468F2
:104730000023A44630BC1A46182160472DE9F041F9
:10474000DFF8B08014460646A1F11402002798F85D
:1047500000001D46062A4AD2DFE802F02F03161B8E
:104760003E4310B13046FFF742FF3046FFF74EFFA1
:1047700000213046FFF743FF21463046FFF73FFF59
:10478000012088F8000029E021463046FFF737FF76
:1047900024E050B13046FFF72AFF06E018213046EA
:1047A00000F00BF9183CE4B21835182C2A46F5D85D
:1047B0002146304600F001F90EE096F82400FF286B
:1047C00002D1782086F8240037692B4622463046ED
:1047D000BC46BDE8F041604788F800700120BDE8A4
:1047E000F0810028F8D03046FFF701FFF4E7002001
:1047F000F5E700009900002070B5002345690446E4
:104800001A462821A8470023E5681A4614212046A5
:10481000A84701224B21204600F0C9F82068292131
:104820000279204600F0C3F800224B21204600F018
:10483000BEF8206829210279204600F0B8F801224C
:104840004B21204600F0B3F8206829214279204608
:10485000BDE8704000F0ABB80160897C80F82210A0
:104860007047000070B50C46054600F019F888B98D
:10487000092C0BD00A2C01D0002070BD2846FFF770
:10488000BBFF05492846FFF71DFF03E00349284603
:10489000FFF7E2FF012070BD26590008285A0008E2
:1048A0002DE9F0411E46144605460B2908D00D2976
:1048B0000ED00E291ED00F2927D00020BDE8F08190
:1048C0001AB12849FFF7FEFE4AE02649491FF9E7D9
:1048D0004AB124490C31FFF7F5FE286890F813001F
:1048E00085F822003CE01F49491DFFF7EBFE2868D0
:1048F000807CF5E7FFF71AFF81212846FFF7D2FEFB
:1049000021462846FFF7C6FE27E0FFF70FFF707924
:1049100095F8221001EBC000C7B240212846FFF7EE
:10492000C1FE102040EA17112846FFF7BBFE07F032
:104930000F012846FFF7AEFEB07940F0B0012846DF
:10494000FFF7A8FE30793268C006010E2846FFF74F
:10495000B1FE641E14F0FF04F4D12846FFF792FE66
:104960000120ABE705590008002070474D2919D0F8
:104970000CDC2B2916D004DC292913D02A290ED1CE
:1049800010E02D290ED04C2909D10BE0002250292E
:104990000AD0512908D0522906D0532904D0012128
:1049A00080F827100120704780F82720FAE730B4FC
:1049B00044690023A44630BC60472DE9F041154608
:1049C0000E460446FFF722FE40212046FFF717FE61
:1049D00027692B46324617212046B8472046BDE8B6
:1049E000F041FFF704BE002180F826107047D0E99F
:1049F000013201699A60D0E901235A604A68824213
:104A000001D182684A60002202610868401E086085
:104A100008687047034B036003F15C000860802066
:104A2000106070479C090020044B036003F15C0098
:104A300008604FF48070106070470000F80B002091
:104A4000704700F108014FF0FF32C0E90112C16068
:104A5000016100210160704700210161704730B59C
:104A60000B685A1C02D000F1080202E0026904E05F
:104A70002246546825689D42FAD953684B60996074
:104A80008A60516008610168491C016030BD42685C
:104A90004A6093688B60936859609160086101680F
:104AA000491C016070470000502080F31188BFF35B
:104AB0004F8FBFF36F8F0A494868401C4860012838
:104AC0000CD10848006810F0FF0F07D0502080F389
:104AD0001188BFF34F8FBFF36F8FFEE77047000061
:104AE0008C00002004ED00E00849486828B1401E11
:104AF000486001D180F311887047502080F31188FD
:104B0000BFF34F8FBFF36F8FFEE700008C000020D4
:104B100070B5002827D0144DA0F108046168E8683A
:104B2000014207D1502080F31188BFF34F8FBFF3AC
:104B30006F8FFEE722683AB1502080F31188BFF3EF
:104B40004F8FBFF36F8FFEE78143616000F074F910
:104B500060686968084468602046FEF73DF9BDE872
:104B6000704000F0BFBD70BD740000204FF0E02029
:104B700000210161816105494FF47A720968B1FB36
:104B8000F2F1491E41610721016170471C000020BC
:104B900010B5FBF7FDFA114910280ED300F1E02003
:104BA00090F8F0030A78904207D2502080F31188E1
:104BB000BFF34F8FBFF36F8FFEE709480068896826
:104BC00000F4E060884207D9502080F31188BFF3D9
:104BD0004F8FBFF36F8FFEE710BD00008C000020E9
:104BE0000CED00E010B5084B002200BF53F8324036
:104BF0001CB1521C082AF9D310BD43F8321003EB44
:104C0000C201486010BD00008003002070B5154649
:104C10000E460446FFF748FF94F944100020491C53
:104C200001D184F8440094F94510491C01D184F85D
:104C30004500FFF759FFA06B28B92A46314604F119
:104C4000240000F099F82046BDE87040FEF754BA01
:104C500010B5020014D00F48806B38B1502080F39B
:104C60001188BFF34F8FBFF36F8FFEE700F0E4F8BA
:104C700000211046FDF7B0FE00F034FD002807D1FA
:104C800005494FF080500860BFF34F8FBFF36F8F1F
:104C900010BD00002000002004ED00E070B50546C6
:104CA000FFF702FF1E4C05B92568281DFFF79FFE80
:104CB000A86A18B105F11800FFF799FEE06A401CD8
:104CC000E0622068854207D1291D1648FFF7DFFE04
:104CD000E068401CE06007E02069401E2061284633
:104CE000FDF785FFFEF788F9FFF7FEFEE069002873
:104CF00014D02068854211D1A06B38B1502080F3C8
:104D00001188BFF34F8FBFF36F8FFEE706494FF057
:104D100080500860BFF34F8FBFF36F8F70BD0000EE
:104D2000200000205C08002004ED00E002498A6AAF
:104D3000026049694160704720000020014901205C
:104D4000486270472000002010B50C4650B1094958
:104D500009681831FFF783FE2046BDE810400121A5
:104D6000FDF73ABE502080F31188BFF34F8FBFF399
:104D70006F8FFEE72000002070B514460D4668B125
:104D80000A4909681831FFF782FE0CB14FF0FF3570
:104D900021462846BDE87040FDF71EBE502080F336
:104DA0001188BFF34F8FBFF36F8FFEE72000002005
:104DB00030B587B00024039405AA04A903A804947D
:104DC000FFF728FEDDE903010094CDE9011000237F
:104DD00015A11748059A00F06AFB164D0028686374
:104DE0001FD000F0FBFC012809D0401C19D1502035
:104DF00080F31188BFF34F8FBFF36F8FFEE7502012
:104E000080F31188BFF34F8FBFF36F8F4FF0FF30E8
:104E100028630120E8616C6107B0BDE8304000F014
:104E200045B807B030BD000049444C4500000000C3
:104E3000712C0008200000200248816B491C81630E
:104E40007047000020000020164810B5816B11B19A
:104E50000121416210BD002141628169124A01E0D5
:104E6000B9B1491E01EB810352F82330002BF7D072
:104E700001EB810302EB830202F1080453685B68D3
:104E80005360A34201D15B685360DA6802608161BC
:104E900010BD502080F31188BFF34F8FBFF36F8F89
:104EA000FEE7000020000020C00300201CB52649BA
:104EB00008780190FF20087008788DF800009DF8B0
:104EC00000009DF8002000F0F000904207D0502034
:104ED00080F31188BFF34F8FBFF36F8FFEE79DF80C
:104EE00000001A4B00F0500018700720986005E091
:104EF0009DF8002052008DF80020401E9DF80020F3
:104F00001206F5D49860032807D0502080F311884A
:104F1000BFF34F8FBFF36F8FFEE74FF44070986081
:104F2000019808700A48016841F470010160016845
:104F300041F070410160FFF719FE00205860FBF757
:104F4000F1F800201CBD000000E400E08C0000200F
:104F500020ED00E0F8B517460E46050014D0DEB18E
:104F600005FB06F05030FEF7FDF804000AD00020E3
:104F700084F8460004F150023B463146284600942E
:104F8000FDF7A8FE2046F8BD502080F31188BFF33E
:104F90004F8FBFF36F8FFEE70020E3E738B5049D26
:104FA00018B153B1CAB181B120E0502080F311880B
:104FB000BFF34F8FBFF36F8FFEE7502080F3118850
:104FC000BFF34F8FBFF36F8FFEE7502080F3118840
:104FD000BFF34F8FBFF36F8FFEE739B1502080F3DF
:104FE0001188BFF34F8FBFF36F8FFEE750241C462D
:104FF000012384F846302B460094FDF76BFE2046D3
:1050000038BD000070B50D46040025D0FFF74CFDFB
:10501000D4E90F20216802FB001161600021A16327
:105020002168A1600A46D4E90F01401E00FB01215E
:10503000E16021464FF0FF3001F8440F487004F161
:1050400010008DB1FFF7FDFC04F12400FFF7F9FC1F
:10505000FFF74AFD012070BD502080F31188BFF397
:105060004F8FBFF36F8FFEE721690029F0D000F06A
:1050700001FB0028ECD004494FF080500860BFF3DA
:105080004F8FBFF36F8FE3E704ED00E02DE9FF479B
:1050900082B01D468A464FF00008040003D0BAF1E2
:1050A000000F08D011E0502080F31188BFF34F8F1C
:1050B000BFF36F8FFEE7206C38B1502080F311886A
:1050C000BFF34F8FBFF36F8FFEE7022D0AD1E06B66
:1050D000012807D0502080F31188BFF34F8FBFF312
:1050E0006F8FFEE700F00EFA3F4F4FF000094FF0D0
:1050F000805648B9049838B1502080F31188BFF326
:105100004F8FBFF36F8FFEE7FFF7CEFCA06BE16B15
:10511000884207D3022D05D00498D0B1B8F1000F12
:105120001AD01EE02A4651462046FDF72AFD616A44
:1051300019B104F1240000F09DFA20B13E60BFF3E4
:105140004F8FBFF36F8FFFF7CFFC012006B0BDE894
:10515000F087FFF7C9FC22E06846FFF7E7FD4FF054
:105160000108FFF7C1FCFFF767FEFFF79DFC94F90C
:105170004400401C01D184F8449094F94500401C3F
:1051800001D184F84590FFF7AFFC04A9684600F010
:1051900027F930B12046FDF7AFFF00F0A3FA002059
:1051A000D4E7FFF781FCA06BE16B884213D1FFF7D6
:1051B0009BFC04F110000499FFF7C6FD2046FDF7A3
:1051C0009BFF00F08FFA00289ED13E60BFF34F8F07
:1051D000BFF36F8F98E7FFF787FC2046FDF78CFF42
:1051E00000F080FA90E7000004ED00E02DE9F047C0
:1051F0001F4690468946040003D0B9F1000F08D03D
:1052000011E0502080F31188BFF34F8FBFF36F8FF1
:10521000FEE7206C38B1502080F31188BFF34F8F28
:10522000BFF36F8FFEE7022F0AD1E06B012807D092
:10523000502080F31188BFF34F8FBFF36F8FFEE7CD
:10524000FFF7A6FC5020EFF3118680F31188BFF31F
:105250004F8FBFF36F8FA06BE16B884206D3022F95
:1052600004D0002086F31188BDE8F08794F94550FA
:105270003A4649462046FDF784FC681C04D06D1C64
:1052800084F845500120EDE7606A0028FAD004F167
:10529000240000F0EFF90028F4D0B8F1000FF1D0AD
:1052A0000121C8F80010EDE72DE9F747002683B08B
:1052B0008A46040003D0BAF1000F08D011E0502054
:1052C00080F31188BFF34F8FBFF36F8FFEE7206C21
:1052D00038B1502080F31188BFF34F8FBFF36F8F29
:1052E000FEE700F00FF9DFF8F4804FF000094FF00F
:1052F000805748B9059838B1502080F31188BFF322
:105300004F8FBFF36F8FFEE7FFF7CEFBA56BC5B1E5
:1053100051462046FDF722FC6D1EA563206950B161
:1053200004F1100000F0A6F928B1C8F80070BFF32E
:105330004F8FBFF36F8FFFF7D7FB012006B0BDE89B
:10534000F087059808B11EB106E0FFF7CDFB27E016
:105350006846FFF7EBFC0126FFF7C6FBFFF76CFD85
:10536000FFF7A2FB94F94400401C01D184F844905B
:1053700094F94500401C01D184F84590FFF7B4FB37
:1053800005A9684600F02CF8002820460AD0FDF751
:10539000B3FE00F0A7F92046FDF760FD0028B3D06A
:1053A0000020CBE7FDF75AFD90B104F124000599E8
:1053B000FFF7CAFC2046FDF79FFE00F093F9002896
:1053C000A2D1C8F80070BFF34F8FBFF36F8F9BE778
:1053D0002046FDF791FE00F085F995E704ED00E029
:1053E0002DE9F0410C46050011D0C4B1FFF75CFB7C
:1053F000174B5A696E682068911B471C17D02F689D
:105400009B6A9F4219D0964217D8012410E0502081
:1054100080F31188BFF34F8FBFF36F8FFEE75020EB
:1054200080F31188BFF34F8FBFF36F8FFEE7002427
:10543000FFF75AFB2046BDE8F081884205D9401AA3
:1054400020602846FFF772FCF1E700202060DCE7CF
:10545000200000202DE9FF5F8346DDE90E87994695
:1054600016468A469000FDF77DFE05001CD05C20A4
:10547000FDF778FE040014D00020256384F859005D
:10548000CDE90240CDE900874B46324651465846A9
:10549000FDF731FC2046FDF7CDFA012004B0BDE850
:1054A000F09F2846FFF734FB4FF0FF30F6E7F0B5EA
:1054B00085B0DDE90B640A9DA6B1DCB15C270097DD
:1054C0002663022684F85960002604AFCDE902461F
:1054D000CDE90057FDF70FFC2046FDF7ABFA049825
:1054E00005B0F0BD502080F31188BFF34F8FBFF39C
:1054F0006F8FFEE7502080F31188BFF34F8FBFF30B
:105500006F8FFEE70548C16919B1806B18B10020A3
:1055100070470120704702207047000020000020E3
:105520000148406970470000200000202DE9F0414B
:105530002E4C0027A06B40B1206A401C2062606A9C
:1055400000B101273846BDE8F0816669761C6661C6
:1055500013D16068006838B1502080F31188BFF320
:105560004F8FBFF36F8FFEE76068A1686160A06036
:10557000A06A401CA062FDF73FFD206BDFF8708041
:10558000864209D36068006880B16068C068C568F9
:10559000686886420DD220632068C06A00EB8001F3
:1055A00058F821000128CAD90127C8E74FF0FF3079
:1055B000F1E7281DFFF71BFAA86A18B105F11800DA
:1055C000FFF715FAE86AA169884200D9A06100EBEB
:1055D000800108EB8100291DFFF759FAE86A21686C
:1055E000C96A8842CED30127CCE700002000002002
:1055F000C003002070B504004FF0000133D01B4DF4
:105600002868844207D0502080F31188BFF34F8F61
:10561000BFF36F8FFEE7206D38B1401E2065E36C4D
:10562000E26A9A421FD040B11DE0502080F31188F9
:10563000BFF34F8FBFF36F8FFEE7201DFFF7D7F942
:10564000E06CE062C0F13800A061E06AA9698842BC
:1056500000D9A861064900EB800001EB8000211D04
:10566000FFF715FA0121084670BD00002000002058
:10567000C003002070B5C068C46854B104F11800BC
:105680000646FFF7B4F9144DA86B50B131461348E4
:1056900015E0502080F31188BFF34F8FBFF36F8F59
:1056A000FEE7201DFFF7A3F9E06AA969884200D947
:1056B000A8610B4900EB800001EB8000211DFFF782
:1056C000E6F9E06A2968C96A884202D9012068625D
:1056D00070BD002070BD00002000002048080020A0
:1056E000C00300202DE9F0472C4D00242746A86B6D
:1056F00038B1FFF7D9F9A86B401EA863A86B40B179
:1057000046E0502080F31188BFF34F8FBFF36F8FB7
:10571000FEE72969224E0120D1B3A6F591698046A2
:105720003068E0B1F068C46804F11800FFF75FF971
:10573000201DFFF75CF9E06AA969884200D9A861D9
:1057400000EB800109EB8100211DFFF7A0F9E06A61
:105750002968C96A8842E3D3C5F82480E0E70CB120
:10576000FDF74AFC2C6A4CB14FEA0806FFF7DEFE53
:1057700000B16E62641EF9D100202862686A38B1F7
:105780000849012738070860BFF34F8FBFF36F8FB9
:10579000FFF7AAF93846BDE8F08700002000002096
:1057A0004808002004ED00E02DE9FC4781461E4634
:1057B0001746884630200A9DFDF7D4FC04000AD025
:1057C000CDE9005433463A4641464846FDF7E1FAF2
:1057D000002084F82C002046BDE8FC8710B586B078
:1057E000FDF790F9114CA068B8B100200390049027
:1057F00005AA04A903A8FFF717F9DDE9032137205B
:105800008DE8070000230AA10B48059AFFF74FFE19
:10581000E06010B106B0012010BD502080F3118867
:10582000BFF34F8FBFF36F8FFEE700005C000020D7
:10583000546D722053766300D53000082DE9FF4186
:105840001E46134602000A9D4FF0000016D0144C6D
:10585000A768002F0FD0CDE900130292062917DAAE
:10586000FFF750FE02284FF000030FD000226946D8
:10587000A068FFF70BFC04B0BDE8F081502080F376
:105880001188BFF34F8FBFF36F8FFEE72A46EEE715
:105890000023324669463846FFF7A8FCEBE70000D4
:1058A0005C000020585A00080000000000000000C2
:1058B0000000000000000000F000000018000000E0
:1058C00000000000000000000102020304050607BA
:1058D00008090A0B0C0D0E0F10100000000000004C
:1058E000000001020304060708090000000001028D
:1058F000030400001545000819450008A5400008EC
:105900001815AF19FF1815AE19FF1815A115C819EC
:10591000FF1815A015C019FF1815A115C019FF18FB
:1059200015A015C819FF1815AE15D5168015A8169F
:105930003F15D316001540158D16141520160015A9
:10594000A115C815DA1612158116CF15D916F1153D
:10595000DB1640152E15A415A619FF1815AE15D582
:10596000168015A8163F15D316001540158D161470
:105970001520160015A115C815DA1612158116EF97
:1059800015D916A115DB1600152E15A415A619FF9D
:105990001815AE15D5168015A8163F15D316001587
:1059A00040158D16141520160015A115C815DA1608
:1059B00002158116CF15D916F115DB1640152E15D7
:1059C000A415A619FF1815AE15A415D5165015A8BF
:1059D000163F15D31600154015AD168B15D9162296
:1059E00015DB16351532158116FF15A615DA1612B8
:1059F00019FF1815AE15D5168015A8163F15D31624
:105A0000001540158D16141520160015A115C0158A
:105A1000DA1612158116CF15D916F115DB164015B9
:105A20002E15A415A619FF000001140A6464323271
:105A300000127A0000042896100800008000400040
:105A40000001140A6464323200093D000004289603
:105A5000100802028000400064656661756C745431
:105A600061736B00845A000800000020A000000051
:105A70005A270008245B0008A0000020D024000062
:105A80006A2700080000000000000000000000007D
:105A900000000000010000001000000000000000F5
:105AA0000024F400000000000000000000000000DE
:105AB00000000000000000000000000000000000E6
:105AC00000000000000000000000000000000000D6
:105AD00000000000000000000000000000000000C6
