:020000040800F2
:10000000B81F002099010008071A00086D150008A4
:10001000051A000855020008F92000080000000039
:1000200000000000000000000000000001010008C6
:10003000570200080000000045010008E91D000803
:10004000B3010008B3010008B3010008B3010008C0
:10005000B3010008B3010008B3010008B3010008B0
:10006000B3010008B3010008B3010008B3010008A0
:10007000B3010008B3010008B3010008B301000890
:10008000B3010008B3010008B3010008B301000880
:10009000B3010008B3010008B3010008B301000870
:1000A000B3010008B3010008B3010008B301000860
:1000B000B3010008691E0008B3010008B30100087D
:1000C000B3010008B3010008B3010008B301000840
:1000D000B3010008B3010008B3010008B301000830
:1000E000B3010008B3010008B3010008DFF80CD029
:1000F00000F09EF80048004765230008B81F002064
:10010000224B19680868B0E8F00F80F30988BFF344
:100110006F8F4FF0000080F311884EF00D0E704786
:100120000000000006480068006880F3088862B696
:1001300061B6BFF34F8FBFF36F8F00DF00BF00BF0B
:1001400008ED00E0EFF30980BFF36F8F0F4B1A68E3
:1001500020E9F00F106008B54FF0500080F31188CF
:10016000BFF34F8FBFF36F8F02F0C4FF4FF000005B
:1001700080F31188BDE8084019680868B0E8F00FFE
:1001800080F30988BFF36F8F704700BF1400002011
:10019000EFF3058070470000064880470648004797
:1001A000FEE7FEE7FEE7FEE7FEE7FEE7FEE7FEE727
:1001B000FEE7FEE7651E0008ED00000840EA0103C7
:1001C0009B0703D009E008C9121F08C0042AFAD20D
:1001D00003E011F8013B00F8013B521EF9D27047D1
:1001E000D2B201E000F8012B491EFBD27047002279
:1001F000F6E710B513460A4604461946FFF7F0FF26
:10020000204610BD30B50B460146002020220124B7
:1002100009E021FA02F59D4205D303FA02F5491BD4
:1002200004FA02F52844151EA2F10102F1DC30BDEA
:10023000064C074D06E0E06840F0010394E8070033
:1002400098471034AC42F6D3FFF754FF303B000818
:10025000503B0008FEE7704772B6FEE770B50446F3
:1002600000F008F90546601C02D0044800780444F8
:1002700000F000F9401BA042FAD370BD040000203A
:100280002DE9F84FDFF8B8910024A9F1040B2346BB
:100290000F2709F1040AABF1040EC9E00125A540BE
:1002A0002A40AA427DD1674ED1F804C0ACEB0608C3
:1002B000B44532D014DCBCF1030F3AD009DCBCF1F8
:1002C000000F2AD0BCF1010F1CD0BCF1020F31D1BC
:1002D0001DE0BCF1110F17D0BCF1120F2AD119E0AB
:1002E000B8F5881F19D006DCB8F5803F15D0B8F5F1
:1002F000801F1FD111E0B8F5001F0ED0B8F5041F04
:1003000018D10AE0CB6815E0CB681B1D12E0CB6862
:1003100008330FE0CB680C330CE08B682BB1012B5A
:100320004FF0080303D0456104E0042302E00561B7
:1003300000E00023FF2A01D8064601E000F1040690
:100340004FEA840501D9A5F12005D6F8008007FA07
:1003500005FC28EA0C0803FA05F548EA0508C6F882
:1003600000804D68ED0062D5374DAE6946F001065C
:10037000AE61AD6924F0030605F001050095334D2B
:1003800006EB050CDCF80850A607360F07FA06F84E
:1003900025EA0805DFF8B880404503D14FF0000892
:1003A00017E044E0DFF8AC80404502D14FF001088F
:1003B0000FE0DFF8A480404502D14FF0020808E0CA
:1003C000DFF89880404502D14FF0030801E04FF07C
:1003D000040808FA06F848EA0508CCF808804D68D1
:1003E000D9F80060ED024D4601D5164300E0964372
:1003F0002E604D68DAF80060AD02554601D516430F
:1004000000E096432E604D68DBF80060AD035D466A
:1004100001D5164300E096432E604D68DEF800607B
:10042000ED03754601D5164300E096432E60641C2B
:100430000D682A46E5407FF431AFBDE8F88F000033
:1004400008040140000011100010024000000140AB
:1004500000080140000C0140001001400014014060
:100460008068084000D0012070470AB101617047E0
:100470000904FBE701488068704700000400002081
:1004800070B5040025D094F83D00002520B984F80B
:100490003C50204600F0B8F8242084F83D00206845
:1004A000016821F0010101602068016841F4004108
:1004B00001602068016821F40041016000F05CFAED
:1004C0004D4A6168914201D84C4900E04C4988424C
:1004D00001D2012070BD4B492368B0FBF1F15E6889
:1004E00026F03F060E435E606368934206D94FF4E0
:1004F000967359434FF47A73B1FBF3F12368491CA7
:100500001E6A26F03F06314319626168914210D895
:100510004900401EB0FBF1F2521CC2F30B02042A48
:1005200001D2042022E0B0FBF1F0401CC0F30B002C
:100530001CE0A268F2B301EBC10303EB0116431EFA
:10054000B3FBF6F35B1C43F480431B0549D092B325
:1005500001EBC10202EB0111401EB0FBF1F0401CA7
:10056000C0F30B0040F4804040F400402168CA69A9
:100570004CF6FF739A431043C861D4E90710014356
:100580002068026822F0C00211430160D4E903012F
:1005900001432068826848F2FF339A431143816027
:1005A000D4E9050108432168CA6822F0FF0210431C
:1005B000C86001E00EE016E02068016841F001012A
:1005C00001602564202084F83D00256384F83E50B6
:1005D000002070BD01EB4106431EB3FBF6F35B1C2C
:1005E000B3E70120C2E701EB4101401EB0FBF1F08F
:1005F000401CC0F30B00B7E7A086010080841E00FA
:1006000000093D0040420F0010B586B00021009166
:1006100001910291039100681349884222D1134C41
:10062000A06940F00800A061A069694600F00800D8
:1006300004904FF44070009012200190032003902A
:100640000B48FFF71DFE0B48416841F0E06141F0A7
:1006500002014160E06940F40010E061E06900F4EB
:100660000010049006B010BD00540040001002407D
:10067000000C0140000001400248816802781144EA
:100680008160704704000020074810B5016841F000
:1006900010010160032000F0A7F80F2000F006F819
:1006A00000F050F8002010BD0020024030B5054693
:1006B0001F4887B0C16941F00201C161C06906A944
:1006C00000F00200009001A800F036F90498B0B1E3
:1006D00000F052F940001749174AB0FBF1F11748F2
:1006E000491E0260416040F2E7320021C0E9032167
:1006F0008160816100F076FB040003D015E000F01A
:100700003BF9E8E70D4800F09BFB04000DD11D20EC
:1007100000F03CF8102D07D2002229461D2000F0E1
:1007200043F80748056000E0012407B0204630BDCB
:100730000010024040420F000004004098020020D8
:10074000080000200F4808B5816941F0010181616E
:10075000816901F001010091C16941F08051C161DD
:10076000C069002200F0805000900F21901E00F020
:100770001BF80548416821F0E06141F000714160DB
:1007800008BD00000010024000000140002809DB05
:1007900000F01F02012191404009800000F1E0209B
:1007A000C0F8001170470000F0B40E4B1B680C46F7
:1007B000C3F30223C3F10705042D00D90425191D35
:1007C000072901D2002300E0DB1E012606FA05F10D
:1007D000491E214099409E40761E16403143F0BC90
:1007E00001F09CBC0CED00E0064900F0070208682F
:1007F0004FF6FF03184040EA0220034A1043086006
:10080000704700000CED00E00000FA052DE9F0470C
:100810000F46050061D0434E306800F00700B84233
:1008200009D2306820F0070038433060306800F0AB
:100830000700B84251D128683B4C810712D54007C8
:1008400003D5606840F4E06060602878000703D555
:10085000606840F4605060606068A96820F0F00053
:10086000084360602878C00728D06868012810D045
:100870002168022810D0890700292EDA616821F04A
:10088000030101436160FFF7F5FD804641F28839BD
:100890000DE021688903EFE78901EDE7FFF7EAFD45
:1008A000A0EB0801494502D90320BDE8F087606844
:1008B000696800F00C00B0EB810FEFD1306800F0F8
:1008C0000700B8420BD9306820F007003843306089
:1008D000306800F00700B84201D00120E5E7287831
:1008E000400705D56068E96820F4E060084360606F
:1008F0002878000706D56068296920F4605040EA2E
:10090000C100606000F058F86168084AC1F3031143
:10091000515CC8400649086006480068FFF7C6FEFB
:100920000020C2E700200240001002400A3B0008FD
:1009300010000020080000200F2202600C4A5368BB
:1009400003F003034360536803F0F00383605368CC
:1009500003F4E063C36052684FF4E06303EAD20239
:1009600002610448006800F007000860704700005A
:100970000010024000200240044805490068496810
:10098000044AC1F30221515CC840704710000020A6
:10099000001002401A3B00080448054900684968F5
:1009A000044AC1F3C221515CC840704710000020C6
:1009B000001002401A3B00080E4A51680E4801F030
:1009C0000C03042B11D0082B0FD10C48C1F3834327
:1009D000C903C05C0AD55168084AC1F34041921E60
:1009E000515C054A5043B0FBF1F07047044948435D
:1009F000704700000010024000127A00FA3A000826
:100A000000093D002DE9F84F040070D02078C04D5A
:100A1000C00749D06868C0F38100012807D0686822
:100A2000C0F38100022809D16868C00306D5286890
:100A3000800339D560680028E7D035E06068B0F5FC
:100A4000803F0BD010B1B0F5A02F11D0286820F452
:100A500080302860286820F4802002E0286840F474
:100A600080302860606890B1FFF704FD06460AE018
:100A7000286840F480202860F0E700BFFFF7FAFC08
:100A8000801B642873D828688003F7D50CE0FFF733
:100A9000F1FC064605E000BFFFF7ECFC801B642874
:100AA000F0D828688003F7D420789A4E80074FF05A
:100AB00001094FF0000839D5686810F00C0F07D015
:100AC0006868C0F38100022809D16868C00306D4B1
:100AD0002868800714D52069012808D110E0206912
:100AE000B0B1C6F80090FFF7C5FC074605E00AE183
:100AF000FFF7C0FCC01B0228C4D828688007F7D5C0
:100B00002868616920F0F80040EAC10028600DE023
:100B1000C6F80080FFF7AEFC074604E0FFF7AAFC2A
:100B2000C01B022823D828688007F7D42078000744
:100B30002CD57948A169D9B1C0F80090FFF79AFC8B
:100B4000074604E0FFF796FCC01B02280FD8686A2E
:100B50008007F7D571484FF4FA510068B0FBF1F007
:100B6000009000BF0098411E0091FAD20EE080E094
:100B7000C0F80080FFF77EFC074604E0FFF77AFC30
:100B8000C01B022875D8686A8007F7D42078400710
:100B900060D5E8690027C00008D4E86940F08050BB
:100BA000E861E869012700F0805000905C48016826
:100BB000C90513D40168834641F480710160FFF7D1
:100BC00059FC824606E000BFFFF754FCA0EB0A0088
:100BD00064284ED8DBF80000C005F5D5E068012890
:100BE0000AD008B1052813D0286A20F00100286235
:100BF000286A20F0040002E0286A40F00100286220
:100C0000E06841F2883B98B1FFF734FC82460BE084
:100C1000286A40F004002862EEE700BFFFF72AFCD4
:100C2000A0EB0A0159455AD8286A8007F6D50CE08E
:100C3000FFF720FC824605E0FFF71CFCA0EB0A0151
:100C400059454CD8286A8007F6D41FB1E86920F0CE
:100C50008050E861E06988B36968C1F381010229C5
:100C600044D00228C6F8608004D0FFF703FC044695
:100C700038E034E0FFF7FEFB074604E0FFF7FAFB3D
:100C8000C01B02282BD828688001F7D4206AB0F551
:100C9000803F05D16868A16820F40030084368608F
:100CA000D4E908010843696821F4741108436860B5
:100CB000C6F86090FFF7DEFB044606E025E000BFC3
:100CC000FFF7D8FB001B022809D828688001F7D558
:100CD0001BE000BFFFF7CEFB001B022802D9032058
:100CE000BDE8F88F28688001F4D40EE00128F7D021
:100CF0006868226A00F48031914204D1616A00F48C
:100D00007010884201D00120EAE70020E8E70000E7
:100D100000100240000042428004424210000020C5
:100D2000007000407047704710B590F83C20012AD1
:100D300022D0012280F83C20CA688C6822F44072DC
:100D400022434C6822F4806222430C6822F4006241
:100D500022430C6922F4805222434C6922F400524F
:100D60002243C969002322F480420A4301684A648D
:100D700080F83C30002010BD022010BD70B590F806
:100D80003C20012A26D0012480F83C40022280F831
:100D90003D2003685A689D6822F070060A68324355
:100DA0005A600D4B02689A4208D0B2F1804F05D0CC
:100DB0000A4B9A4202D00A4B9A4204D1496825F064
:100DC00080031943916080F83D40002180F83C1079
:100DD000084670BD022070BD002C01400004004098
:100DE0000008004010B5040003D094F83D0010B195
:100DF00007E0012010BD002084F83C00204600F0F0
:100E00001EF8022084F83D00211D206801F032F810
:100E1000012084F8460084F83E0084F83F0084F8FE
:100E2000400084F8410084F8420084F8430084F8CC
:100E3000440084F8450084F83D00002010BD704750
:100E400090F83D10012901D001207047022180F85F
:100E50003D100168CA6842F00102CA6000680B498F
:100E6000884208D0B0F1804F05D00949884202D0AD
:100E70000849884204D1816801F00701062903D09E
:100E8000016841F00101016000207047002C014021
:100E900000040040000800402DE9F0410D46040028
:100EA00003D094F83D0018B108E00120BDE8F081BE
:100EB000002084F83C00204600F040F8022084F82E
:100EC0003D002068816844F2070291438160211D42
:100ED000206800F0CFFF226890689169166A2B683D
:100EE000AF69034340F20330814341EA0721A86818
:100EF000EF6908434FF6FC418843E96840EA072060
:100F0000014328692F6A000140EA073008436968F5
:100F10006D6926F0220646EA05152943936022688A
:100F2000906154F8460B0162012004F81F09E07536
:100F30002076E0762077A0750020B7E700B585B071
:100F40000021009101910291039101681A48B1F1C9
:100F5000804F1BD0194A914216D1C16941F004015A
:100F6000C161C16901F004010491816941F0080186
:100F700081618069694600F008000490C0200090FB
:100F80000F4800BFFFF77CF905B000BDC16941F013
:100F90000101C161C16901F001010491816941F060
:100FA000040181618069694600F004000490032017
:100FB00000900448E6E700000010024000080040EE
:100FC000000C01400008014070B590F83E600446F6
:100FD00090F83F5090F8423090F84320022021B121
:100FE00004290ED0012E1BD114E0012E18D1012BA3
:100FF00016D184F83E0084F84200012200212068C6
:1010000020E0012D0CD1012A0AD184F83F0084F898
:10101000430014E0012D03D1012B01D1012A01D09D
:10102000012070BD84F83E0084F83F0084F842003F
:1010300084F8430001220021206800F051FF0122C2
:101040000421206800F04CFF2068016841F0010194
:101050000160002070BD704770B5044600680169EA
:101060004FF00005C943890715D4C168C9438907F2
:1010700011D4E91E01610120207720688069800772
:10108000204602D0FFF7E7FF04E000F0BFF820465B
:1010900000F064F9257720680169C943490717D42E
:1010A000C168C943490713D46FF0040101610220EC
:1010B00020772068806910F4407F204602D0FFF737
:1010C000CAFF04E000F0A2F8204600F047F92577B7
:1010D00020680169C943090716D4C168C9430907D3
:1010E00012D46FF008010161042020772068C069E4
:1010F0008007204602D0FFF7AEFF04E000F086F83C
:10110000204600F02BF9257720680169C943C906FC
:1011100017D4C168C943C90613D46FF01001016127
:10112000082020772068C06910F4407F204602D054
:10113000FFF791FF04E000F069F8204600F00EF997
:10114000257720680169C943C90708D1C168C94327
:10115000C90704D1891E0161204600F04FF92068BB
:101160000169C943090609D4C168C943090605D400
:101170006FF0800101612046FFF7D4FD206801690E
:10118000C943490609D4C168C943490605D46FF06B
:1011900040010161204600F03BF920680169C94324
:1011A00089060BD4C168C943890607D46FF02001B2
:1011B00001612046BDE87040FFF7B5BD70BD00007D
:1011C00000B585B000210091019102910391006862
:1011D0000B49884212D10B48816941F004018161B9
:1011E0008069694600F0040004904FF4106000909C
:1011F0000220019003900448FFF742F805B000BDBB
:10120000002C01400010024000080140704770B5FA
:10121000044690F83C0000260D4601280FD001201E
:1012200084F83C006AB1042A1DD0082A2FD00C2A69
:101230003FD00126002084F83C00304670BD0220DB
:1012400070BD206800F05AFE2068816941F00801F5
:1012500081612068816921F00401816120688169D0
:101260002A69114311E0206800F070FE206881694E
:1012700041F4006181612068816921F480618161AC
:10128000206881692A6941EA02218161D2E72068E8
:1012900000F088FE2068C16941F00801C161206842
:1012A000C16921F00401C1612068C1692A69114343
:1012B00011E0206800F0A2FE2068C16941F40061DD
:1012C000C1612068C16921F48061C1612068C16980
:1012D0002A6941EA0221C161ACE710B5040003D0DC
:1012E00094F83D0010B107E0012010BD002084F803
:1012F0003C00204600F01EF8022084F83D00211D2D
:10130000206800F0B7FD012084F8460084F83E0014
:1013100084F83F0084F8400084F8410084F84200DB
:1013200084F8430084F8440084F8450084F83D00C4
:10133000002010BD08B500680649884208D106485B
:10134000816941F400618161806900F4006000906E
:1013500008BD0000002C0140001002407047000052
:1013600010B50446022249B104290ED0082913D031
:1013700094F84100012816D0012010BD94F83E00D9
:101380000128F9D184F83E200FE094F83F000128AD
:10139000F2D184F83F2008E094F840000128EBD116
:1013A00084F8402001E084F841200122206800F008
:1013B00097FD0F492068884203D1426C42F40042F5
:1013C00042642068884208D0B0F1804F05D00949B6
:1013D000884202D00849884204D1816801F007019F
:1013E000062903D0016841F001010160002010BD11
:1013F000002C014000040040000800400068034940
:10140000884201D1FFF738B970470000000400405E
:10141000704770B5040004D094F84100002510B165
:1014200006E0012070BD84F84050204600F024F80A
:10143000242084F841002068C16821F40051C16073
:10144000204600F0FDFD2068016921F49041016112
:101450002068416921F02A0141612068C16841F496
:101460000051C1606564202084F8410084F8420086
:101470006563002070BD0000F0B585B000240094C5
:101480000194029403940368324F022032490322EC
:10149000324D4602BB421AD18B6943F480438B61C3
:1014A0008B6903F4804304938B6943F004038B61DD
:1014B0008969039201F0040104910102CDE9001051
:1014C00069462846FEF7DCFECDE900641CE0244FA7
:1014D000BB4220D1CB6943F40033CB61CB6903F429
:1014E000003304938B6943F004038B618969039291
:1014F00001F0040104910421CDE900106946284659
:10150000FEF7BEFE082022E0694628460294FEF758
:10151000B7FE05B0F0BD134DAB42FAD1CB6943F431
:101520008023CB61CB6903F4802304938B6943F060
:1015300008038B6189690C4D01F00801CDE9032195
:10154000CDE9006069462846FEF79AFEE814CDE929
:101550000004D9E7003801400010024000080140B3
:101560000044004000480040000C0140FEE7FF201E
:10157000401EFDD27047000010B50B4C0022102118
:101580002046FEF772FF012208212046FEF76DFF7C
:10159000FFF7EDFF012210212046FEF766FFBDE8B0
:1015A0001040FFF7E4BF0000000C014070B5114E81
:1015B00005460024280601D5012200E00022102162
:1015C0003046FEF752FFFFF7D2FF012208213046D6
:1015D000FEF74BFFFFF7CBFF002208213046FEF756
:1015E00044FF6806050E641C082CE3DBBDE8704070
:1015F00000F020B8000C014010B50D4C0122102164
:101600002046FEF732FF012208212046FEF72DFF7B
:10161000FFF7ADFF002210212046FEF726FFFFF75F
:10162000A6FF20460022BDE810400821FEF71DBF9E
:10163000000C014070B50D4D012210212846FEF727
:1016400014FFFFF794FF012208212846FEF70DFF43
:10165000FFF78DFF10212846FEF702FF0446002207
:1016600008212846FEF701FF204670BD000C01400E
:1016700010B57021002000F0A1FB2021012000F016
:101680009DFB0021BDE81040022000F097BB000048
:101690001CB500F025FA00F0B7F9FFF7E9FF094A99
:1016A0000021094800F0D0FE08494FF49672086006
:1016B00000211820CDE900010B4605A1074801F0E3
:1016C000FBFF1CBDD43A0008E11D0008000000200B
:1016D0006C63645F7465737400000000C9220008C5
:1016E0002DE9F04385B00024294800940194029428
:1016F0000394816941F010018161816901F0100159
:101700000491816941F020018161816901F020012A
:101710000491816941F004018161816901F0040152
:101720000491816941F0080181618069012200F022
:101730000800DFF860805503049029464046FEF714
:1017400094FEDFF854904FF21807002239464846BD
:10175000FEF78BFE0095022601250396CDE9015484
:1017600069464046FEF78CFD0320CDE9000469463A
:1017700048460294FEF784FD00970396CDE9015494
:1017800069464846FEF77CFD05B0BDE8F0830000E1
:101790000010024000100140000C01400D4810B53F
:1017A0000B4901600C49416000214FF48042816087
:1017B000C0E9031241618161C1610162FEF760FE0F
:1017C000002803D0BDE81040FEF746BD10BD000064
:1017D0000054004094000020A086010010B592B093
:1017E00000240F941C2168461094FEF700FD202170
:1017F00007A8FEF7FCFC24482249C0E9001441F682
:101800001F41C0E90241046144618461FFF765FD45
:1018100008B1FEF721FD0F940FA91B481094FFF7A4
:10182000ADFA08B1FEF718FD6020CDE9000402947E
:101830000394049405940022694613480694FFF724
:10184000E6FC08B1FEF708FD0C2269460E48FFF7DA
:10185000DEFC08B1FEF700FD0794089409944FF4EC
:1018600000500A94CDE90B4007A907480E94FFF7F2
:101870005BFA08B1FEF7F0FC0348FFF7A1FC12B0D9
:1018800010BD0000002C0140E800002010B58CB015
:1018900024216846FEF7ABFC0024154809944FF05C
:1018A00080410A94C0E900144FF6FF71C0E902417B
:1018B000046184610120CDE90004CDE902040494AF
:1018C000CDE905400794694609480894FFF7E4FA12
:1018D00008B1FEF7C1FC099409A905480A94FFF76D
:1018E0004DFA002801D0FEF7B7FC0CB010BD000087
:1018F0003001002010B58CB024216846FEF777FC3B
:1019000000241548099413490A94C0E900144FF6BD
:10191000FF71C0E90241046184610120CDE9000446
:10192000CDE902040494CDE90540079469460A48CC
:101930000894FFF7B1FA08B1FEF78EFC099409A9E3
:1019400005480A94FFF71AFA002801D0FEF784FC34
:101950000CB010BD00080040780100200C4810B504
:101960000A4901604FF4E1314160002181600C229D
:10197000C160C0E904128161C161FFF74AFD00281E
:1019800003D0BDE81040FEF767BC10BD0038014031
:10199000C00100200C4810B50A4901604FF4E13144
:1019A0004160002181600C22C160C0E904128161A4
:1019B000C161FFF72EFD002803D0BDE81040FEF7FF
:1019C0004BBC10BD00440040080200200C4810B57C
:1019D0000A4901604FF4E1314160002181600C222D
:1019E000C160C0E904128161C161FFF712FD0028E6
:1019F00003D0BDE81040FEF72FBC10BD00480040EA
:101A000050020020FEE7FEE710B5A0B000248021C0
:101A10006846FEF7ECFB0021204600F063F98021C8
:101A2000684600F07FF9641CE4B2082CF3D320B0C0
:101A300010BD000070B501220B4D1402214628464E
:101A4000FEF713FD0122560231462846FEF70DFD32
:101A5000002231462846FEF708FD21462846BDE80B
:101A600070400022FEF701BD000C014070B501225C
:101A70000E4D140221462846FEF7F7FC66000022B0
:101A800031462846FEF7F1FC012221462846FEF7A2
:101A9000ECFC012231462846FEF7E7FC21462846A9
:101AA000BDE870400122FEF7E0BC0000000C0140E0
:101AB00070B50A4C00224FF400712046FEF7D5FCA9
:101AC0000122150229462046FEF7CFFC2946204672
:101AD000BDE870400022FEF7C8BC0000000C0140C9
:101AE00010B586B0002002902E48816941F00801AF
:101AF0008161816901F008010491816941F0080167
:101B000081618069284C00F0080004904FF4407017
:101B10000090012001900220039069462046FEF7C4
:101B2000AFFB69462046FEF7ABFB012211022046BF
:101B3000FEF79BFC012251022046FEF796FC642032
:101B4000FEF78CFB022000F09FF83F2000F0AEF87B
:101B5000002000F085F8002000F08FF8A12000F0B0
:101B6000CAF8C82000F0C7F80021084600F046F87F
:101B70007F2000F059F8A42000F0BDF8A62000F066
:101B8000BAF80821002000F059F8012000F00EF802
:101B90000021012000F032F8AF2000F0ACF806B0D0
:101BA00010BD000000100240000C014010B5040000
:101BB00001D0012C0AD18D2000F09DF8102000EBFF
:101BC0008400BDE81040C0B200F095B810BD000020
:101BD00010B504460848007802280CD17F2C0AD89A
:101BE00004F00F0000F087F8102000EB1410BDE89F
:101BF000104000F080B810BD8C00002070B50C467D
:101C0000050001D0012D0ED10CB1012C0BD1DA2031
:101C100000F071F8280100EB4410BDE87040801C12
:101C2000C0B200F068B870BD10B50446812000F065
:101C300062F82046BDE8104000F05DB870B50C4673
:101C400005460F280BD80F2C09D8D52000F053F8E3
:101C500005EB0410BDE87040C0B200F04CB870BD98
:101C600010B504463F2807D8D32000F044F820469A
:101C7000BDE8104000F03FB810BD3F2803D8403009
:101C8000C0B200F038B8704710B5040003D0012C82
:101C900001D0022C07D1202000F02DF8204600F0C2
:101CA0002AF80148047010BD8C00002010B50446CD
:101CB0000F38312807D2A82000F01DF82046BDE8D3
:101CC000104000F018B810BD05490978022905D167
:101CD000072803D8B030C0B200F00DB8704700003C
:101CE0008C00002010B50C46FFF7EEFF2046BDE843
:101CF0001040FFF76DBF10B50446FFF79BFE78203C
:101D000000F02EF8FFF7D4FE002000F029F8FFF7CE
:101D1000CFFE204600F024F8FFF7CAFEFFF7A6FE2C
:101D2000002010BD70B50D460646FFF783FE7820F3
:101D300000F016F8FFF7BCFE402000F011F8FFF7A6
:101D4000B7FE002405E0305D00F00AF8FFF7B0FEB2
:101D5000641CAC42F7DBFFF789FE002070BD000079
:101D60002DE9F041144F04464FF4807600223146AD
:101D70003846FEF77AFB00254FF4007804F0800027
:101D8000802816D0002241463846FEF76EFB6006DA
:101D9000040E012231463846FEF767FB0022314629
:101DA0003846FEF762FB6D1CEDB2082DE6D3BDE8A8
:101DB000F0810122E7E70000000C014070B50D46FC
:101DC0000446FFF719FC3C20FFF7F0FB2046FFF725
:101DD000EDFB2846FFF7EAFBBDE87040FFF7CCBB00
:101DE000012000F0DBFAFBE710B5502080F31188EA
:101DF000BFF34F8FBFF36F8F01F0CAFC18B10449D6
:101E00004FF080500860002080F3118810BD000062
:101E100004ED00E010B590B028216846FEF7E7F920
:101E200014210AA8FEF7E3F9022000900120049093
:101E300010200024059007946846FEF7E3FD08B1E2
:101E400072B6FEE70F20CDE90A040C940D94002130
:101E50000AA80E94FEF7DAFC002801D072B6FEE75D
:101E600010B010BD704700000148FFF7F5B8000042
:101E700098020020F0B50268164B174C174D4FF032
:101E80008047984205D0B84203D0A04201D0A84272
:101E900003D122F070064A683243984205D0B84216
:101EA00003D0A04201D0A84203D122F44074CA68F2
:101EB00022434C6922F08002224302608A68C26297
:101EC0000A688262984201D1096901630121416176
:101ED000F0BD0000002C014000040040000800405C
:101EE00010B501F01F030121046A99408C4304627C
:101EF000016A9A401143016210BD000030B5036AC7
:101F0000026A22F0010202624268846924F07305C9
:101F10000C682C4323F002058B682B430A4DA84222
:101F20000BD123F00805CB6822F440722B434D6996
:101F300023F0040315438A692A4342608461496897
:101F40004163036230BD0000002C014030B5026ADD
:101F5000036A23F010030362436884690D6824F464
:101F6000E64444EA05248D6822F0200242EA051284
:101F70000B4DA8420ED1CD6822F0800242EA051234
:101F80004D6923F4406343EA85038D6922F04002E2
:101F900043EA85034360846149688163026230BD1E
:101FA000002C014030B5036A026A22F4807202629A
:101FB0004268C46923F4007324F073050C682C4351
:101FC0008D6843EA05230C4DA8420ED1CD6823F459
:101FD000006343EA05234D6922F4405242EA0512A8
:101FE0008D6923F4806342EA05124260C461496846
:101FF000C163036230BD0000002C014030B5046AAB
:10200000026A22F4805202624268C3690D6823F4B6
:10201000E64343EA05238D6824F4005444EA05347A
:10202000064DA84204D14D6922F4804242EA85124D
:102030004260C36149680164046230BD002C014004
:1020400070B5044600680169E26821F4405111430B
:1020500001612169A0680843616908432168CA6871
:1020600041F20C639A430243CA6020684169A26945
:1020700021F44071114341611E492068884202D118
:10208000FEF78AFC01E0FEF777FC00EBC00101EBF4
:102090000012606864218000B2FBF0F3B3FBF1F33F
:1020A0006FF018067343B2FBF0F5B2FBF0F605EBE8
:1020B0008305322303EB0515B5FBF1F5B6FBF1F60D
:1020C00005F0F00505EB0615B2FBF0F6B2FBF0F0FB
:1020D000B0FBF1F06FF01802504306EB800003EB09
:1020E0000010B0FBF1F0216800F00F002844886078
:1020F00070BD000000380140FEE700000FB4054B42
:1021000010B503A9044A029800F028F810BC5DF845
:1021100014FB0000B1220008900000200907090EFE
:10212000002804DB00F1E02080F80014704700F084
:102130000F0000F1E02080F8141D704702E008C88D
:10214000121F08C1002AFAD170477047002001E031
:1021500001C1121F002AFBD1704700002DE9FF4F7B
:1021600089B09B460446002506E025280BD05A4638
:102170000B999047641C6D1C20780028F5D10DB098
:102180002846BDE8F08F0027B8460122474900E005
:10219000074314F8013F203B02FA03F00842F7D14D
:1021A00020782E2819D114F8010F47F004072A28A7
:1021B0000ED06FF02F022078A0F1300109290CD841
:1021C00008EB880102EB410100EB0108641CF2E717
:1021D0000A98641C50F8048B0A9020780028CED00E
:1021E000642808D0692806D075281ED05A460B9955
:1021F00090476D1C58E00A994FF00A0901C90A91ED
:10220000002802DA40422D2102E0390504D52B21B5
:102210008DF82010012103E0F90704D02021F7E711
:102220008A4608AE0DE00021FAE70A994FF00A0944
:1022300001C90A91F7E74946FDF7E4FF303106F896
:10224000011D0028F7D1ADEB060000F12009780749
:1022500001D44FF00108C84502DDA8EB090000E0F9
:1022600000208046002706E008A85A46C05D0B996A
:1022700090476D1C7F1C5745F6DB04E030205A4622
:102280000B9990476D1CB8F10001A8F10108F5DC2D
:1022900005E016F8010B5A460B9990476D1CB9F1F1
:1022A0000001A9F10109F4DC641C65E709280100BB
:1022B00004490A685206FCD5024AC1B2121D1160D7
:1022C000704700000044004000211D48FFF748F817
:1022D0000C211B48FFF744F800211A48FEF774FE52
:1022E00004211848FEF770FE00211748FEF76CFE27
:1022F00004211548FEF768FE144940F6C410086032
:1023000012490C3108600F4C114D00264FF4204744
:102310004FF4A0482068416A0EA0FFF7EFFE206846
:102320004662012239462846FEF79FF800224146C0
:102330002846FEF79AF80A2000F030F8EAE7000095
:10234000E80000207801002030010020342C0140FA
:10235000000C0140636F756E746572203A25640D40
:102360000A000000FEF790F9FFF754FDFFF7B8F9F7
:10237000FFF714FAFFF732FAFFF788FAFFF7BAFA15
:10238000FFF7ECFAFFF706FBFFF720FB00F020F861
:10239000FFF77EF900F038F8FEE7000010B5EFF324
:1023A000058149B9EFF3108131B90849096802295B
:1023B00005D1EFF3118111B16FF0050403E00024A2
:1023C00008B100F0E3FD204610BD000064000020CD
:1023D000EFF3058058B9EFF3108040B90949086858
:1023E000022801D030B109E0EFF3118030B16FF075
:1023F0000500704701200860002070474FF0FF3053
:10240000704700006400002010B5EFF3058060B94C
:10241000EFF3108048B90B490868022802D0012860
:1024200006D00BE0EFF3118040B16FF0050010BD56
:102430000220086000F012FE002010BD4FF0FF30B7
:1024400010BD000064000020F0B585B00B464FF0D1
:102450000004EFF305810394A1BBEFF3108189BB66
:1024600021490968022902D1EFF3118151BB48B318
:10247000802618218DF8104004AD42B3176807B1CB
:102480003D4697691FB139467F1E382F02D2177912
:10249000FF0702D0002005B0F0BD576907B1BE08A4
:1024A000D2F808C0BCF1000F0DD0D4685C2C18D352
:1024B00012693AB137B18DE806103246294601F06B
:1024C00028F903900DE0D7685FB912694AB903AAE9
:1024D000CDE90012B2B2294601F0EEF8012800D091
:1024E00003940398D7E70000640000202DE9F04131
:1024F000134C0F46054666692068001D00F016FC67
:10250000681C07D137B12168BDE8F0410D48091DAD
:1025100000F05CBC20683544B5424560216805D2B6
:10252000A068BDE8F041091D00F038BC6068091DD5
:1025300000F034FC206B854200D22563BDE8F081B9
:1025400014000020D00700202DE9F041054600F0DE
:1025500049FC2D4C2069401C206120682B4F10B194
:10256000E06930B32BE025602069012827D10026DF
:1025700006EB860007EB800000F002FC761C382E8C
:10258000F6D3234800F0FCFB2148143000F0F8FBA0
:102590001F48283000F0F4FB1D483C3000F0F0FBF1
:1025A0001B48503000F0ECFB194860601430A0600C
:1025B00005E02068E96AC06A884200D82560E06AC0
:1025C000401CE0626864E86AA169884200D9A061A1
:1025D00000EB800007EB8000291D00F0F7FB00F006
:1025E00021FCE06900280CD02068E96AC06A8842B2
:1025F00007D208494FF080500860BFF34F8FBFF3F8
:102600006F8FBDE8F081000014000020200300203F
:102610008007002004ED00E038B500F0E3FB104C2B
:10262000A068C8B90F4800F0ABFB0E48143000F0AA
:10263000A7FB0C482060143060600A4B0020283350
:10264000009003F1500210210A2000F0D9FDA06093
:1026500010B105A100F064FCBDE8384000F0E2BB19
:1026600050000020E4070020546D7251000000006B
:1026700030B4026C0B46002A0BD0C1681144C16013
:102680004468A14201D30168C16030BC1846FDF71F
:1026900095BD30BC70472DE9F041856B1746044667
:1026A0000026026C82B1C7B1E068FDF787FDE168E2
:1026B000206C091AE1602268914202D26168081A0E
:1026C000E060022F16D017E02068A8B9606801F01A
:1026D000C3F80646002060600EE0A068FDF76EFDBE
:1026E000216CA0680844A0606168884204D3206817
:1026F000A06001E005B16D1E6D1CA5633046BDE80C
:10270000F08110B5044690F8590058B101280CD05A
:1027100002280FD0502080F31188BFF34F8FBFF3F2
:102720006F8FFEE7206B00F091FB2046BDE8104064
:1027300000F08CBB10BD000010484FF44061420710
:1027400006D0C01D0D4920F00700411AC1F54061B7
:102750000B4A00230144C2E900030839103A21F072
:10276000070111604B600B600B1AC0E90013936006
:102770004FF000405360D06070470000B40F00205D
:1027800078000020144E154CA6F29C474FF080585C
:10279000DFF84C9012E000BF00F024FBF068C56841
:1027A000281D00F0C3FA2069401E2061E068401E29
:1027B000E06000F037FB2846FFF7A3FFE068002841
:1027C000EAD138680128F9D9C9F80080BFF34F8FE2
:1027D000BFF36F8FF2E70000BC0700201400002059
:1027E00004ED00E070B51D46049C51B1C4F8002012
:1027F000C4E90F010121204600F036FD84F84C5059
:1028000070BD2460F4E72DE9F0470E46DDE9098448
:102810001746824691009946089DA522206BFDF738
:10282000DFFC6FF00301206B01EB8701084420F00F
:102830000707780707D0502080F31188BFF34F8F28
:10284000BFF36F8FFEE72218315C82F83410315CE1
:1028500011B1401C1028F6D3002684F84360382DAF
:1028600000D33725E562C4E91356201D00F093FA22
:1028700004F1180000F08FFA2461C5F13800646299
:10288000A061666584F858604A465146384600F0B3
:102890003BFA2060B8F1000F01D0C8F80040BDE855
:1028A000F087000030B5114900E011460A68824205
:1028B000FBD34B685C18844203D1406818444860DD
:1028C000084643681C18944209D1084C103C2468FF
:1028D000A24209D052681A4442600A681268026033
:1028E000814200D0086030BD0460F9E77800002024
:1028F00070B5002441600B4D0061914206D8D11A99
:102900008269914206D2011D686807E09A4203D2AB
:10291000994201D3012403E0011D286800F03EFA2A
:10292000204670BD5000002010B5044600F05AFA51
:10293000A06B28B15FF0000400F074FA204610BDCF
:102940000124F9E730B589B0304D55E004980028EE
:1029500006DADDE90601059A9047049800284BDB6A
:10296000069C606910B1201D00F0E0F902A800F09B
:10297000B9F8024604980A283ED2DFE800F00505BF
:10298000053D263705053D260598A1690346014406
:102990002046FFF7ADFF00B3616A20468847E06933
:1029A000012829D1002000900598A1690023421830
:1029B0001946204601F05AF878B9502080F3118862
:1029C000BFF34F8FBFF36F8FFEE70598A06128B16B
:1029D000811813462046FFF78BFF0DE0502080F34F
:1029E0001188BFF34F8FBFF36F8FFEE794F82C0071
:1029F00010B9204600F02AFA002204A9A86800F0C5
:102A000085FD0028A2D109B030BD00005000002093
:102A10002DE9FC410F46054600F064FB01A800F0DB
:102A200061F80446019818B100F08EFFBDE8FC8102
:102A3000224EAFB170680068A8B30027291B3A4640
:102A4000B06800F081FA00F07FFF0028EED11C4949
:102A50004FF080500860BFF34F8FBFF36F8FE5E7F3
:102A6000A542EBD800F070FF30682746C068C46804
:102A7000201D00F05BF9E069012810D1A0692B4608
:102A800041193A462046FFF733FF40B10020034684
:102A9000014600902A46204600F0E8FF20B1616A16
:102AA00020468847C2E707E0502080F31188BFF333
:102AB0004F8FBFF36F8FFEE70127BFE75000002065
:102AC00004ED00E006484168096829B14168C96819
:102AD000C9684968016370474FF0FF31FAE70000A9
:102AE0001400002070B5054600F04CFE064E04466A
:102AF0003069844203D200F009F8012000E0002090
:102B000028602046346170BD50000020F8B5194D92
:102B10001FE0C068C4680668201D00F007F9616AFC
:102B200020468847E069012813D1A0693044B042AB
:102B300006D924616060211D286800F02FF908E0A3
:102B400000200346014600903246204600F08EFFEA
:102B500038B1286801680029DBD16968C5E900102F
:102B6000F8BD502080F31188BFF34F8FBFF36F8FF4
:102B7000FEE700005000002008484068401C4FF06D
:102B8000500080F3118804D0BFF34F8FBFF36F8FD5
:102B9000FEE7BFF34F8FBFF36F8FFEE7800000208B
:102BA000074C2068016841B1C0680021D0F80000DE
:102BB000FFF72EFFFFF7C6FEF3E701210020F7E73E
:102BC000500000202DE9F041044600F00BF994F983
:102BD000455004F1240609E0606A48B1304600F02F
:102BE0007BFE08B100F000FA6D1E6DB2002DF3DC23
:102BF0004FF0FF3684F8456000F014F900F0F2F869
:102C000094F9445004F1100709E0206948B13846AE
:102C100000F062FE08B100F0E7F96D1E6DB2002D04
:102C2000F3DC84F84460BDE8F04100F0FBB800003C
:102C30002DE9F0410546002700F054FA314E306886
:102C400008B9FFF779FDF06805424BD1C5B30835E7
:102C500068070ED005F00700C0F1080005446807BA
:102C600007D0502080F31188BFF34F8FBFF36F8FD1
:102C7000FEE72DB37068854234D8224810300146F3
:102C80000C6801E020460C466168A94202D2216826
:102C90000029F7D131688C4224D00768216801608F
:102CA00060680837411B10290FD96019420708D006
:102CB000502080F31188BFF34F8FBFF36F8FFEE773
:102CC00010E041606560FFF7EDFD61687068401AD3
:102CD0007060B268904200D2B060F068014300209A
:102CE000C4E9000100F030FE780707D0502080F3DF
:102CF0001188BFF34F8FBFF36F8FFEE73846BDE8F3
:102D0000F08100006800002010B5031F4FF08074B0
:102D10001C601B1F21F001011960191F024B0B6081
:102D2000143940380A6010BD792B0008D0E901320F
:102D300001699A60D0E901235A604A68824201D150
:102D400082684A60002202610868401E08600868C4
:102D500070470000034B036003F15C0008608020B3
:102D600010607047FC080020044B036003F15C0016
:102D700008604FF48070106070470000580B00200E
:102D800000F108014FF0FF32C0E90112C16001619A
:102D900000210160704700210161704730B50B6868
:102DA0005A1C02D000F1080202E0026904E0224647
:102DB000546825689D42FAD953684B6099608A60CF
:102DC000516008610168491C016030BD42684A6079
:102DD00093688B6093685960916008610168491C31
:102DE00001607047502080F31188BFF34F8FBFF30D
:102DF0006F8F0A494868401C486001280CD1084878
:102E0000006810F0FF0F07D0502080F31188BFF347
:102E10004F8FBFF36F8FFEE77047000080000020E8
:102E200004ED00E00849486828B1401E486001D11F
:102E300080F311887047502080F31188BFF34F8FC3
:102E4000BFF36F8FFEE700008000002070B5002800
:102E500027D0144DA0F108046168E868014207D149
:102E6000502080F31188BFF34F8FBFF36F8FFEE7C1
:102E700022683AB1502080F31188BFF34F8FBFF31F
:102E80006F8FFEE78143616000F02CF9606869682C
:102E9000084468602046FFF705FDBDE8704000F07B
:102EA00053BD70BD680000204FF0E020002101619B
:102EB000816105494FF47A720968B1FBF2F1491E4C
:102EC00041610721016170471000002010B5FDF736
:102ED0005FF9114910280ED300F1E02090F8F003BB
:102EE0000A78904207D2502080F31188BFF34F8FA9
:102EF000BFF36F8FFEE709480068896800F4E0605F
:102F0000884207D9502080F31188BFF34F8FBFF359
:102F10006F8FFEE710BD0000800000200CED00E088
:102F200010B5084B002200BF53F832401CB1521CB0
:102F3000082AF9D310BD43F8321003EBC2014860F0
:102F400010BD0000E002002070B515460E46044694
:102F5000FFF748FF94F944100020491C01D184F880
:102F6000440094F94510491C01D184F84500FFF74D
:102F700059FFA06B28B92A46314604F1240000F01D
:102F800051F82046BDE87040FFF71CBE10B50200A6
:102F900014D00F48806B38B1502080F31188BFF3F4
:102FA0004F8FBFF36F8FFEE700F09CF800211046B3
:102FB000FFF79CFA00F0C8FC002807D105494FF044
:102FC00080500860BFF34F8FBFF36F8F10BD0000BC
:102FD0001400002004ED00E002498A6A0260496999
:102FE0004160704714000020014901204862704789
:102FF0001400002010B50C4650B109490968183179
:10300000FFF7CCFE2046BDE810400121FFF76EBA65
:10301000502080F31188BFF34F8FBFF36F8FFEE70F
:103020001400002070B514460D4668B10A490968BD
:103030001831FFF7CBFE0CB14FF0FF352146284683
:10304000BDE87040FFF752BA502080F31188BFF3FB
:103050004F8FBFF36F8FFEE71400002030B587B0AD
:103060000024039405AA04A903A80494FFF772FEA0
:10307000DDE903010094CDE90110002315A11748F3
:10308000059A00F046FB164D002868631FD000F03B
:10309000BDFC012809D0401C19D1502080F31188B3
:1030A000BFF34F8FBFF36F8FFEE7502080F311887F
:1030B000BFF34F8FBFF36F8F4FF0FF3028630120B6
:1030C000E8616C6107B0BDE8304000F045B807B07A
:1030D00030BD000049444C45000000008527000831
:1030E000140000200248816B491C81637047000076
:1030F00014000020164810B5816B11B10121416206
:1031000010BD002141628169124A01E0B9B1491E36
:1031100001EB810352F82330002BF7D001EB810340
:1031200002EB830202F1080453685B685360A34218
:1031300001D15B685360DA680260816110BD502084
:1031400080F31188BFF34F8FBFF36F8FFEE700004E
:1031500014000020200300201CB5264908780190A7
:10316000FF20087008788DF800009DF800009DF899
:10317000002000F0F000904207D0502080F311882A
:10318000BFF34F8FBFF36F8FFEE79DF800001A4B20
:1031900000F0500018700720986005E09DF80020AE
:1031A00052008DF80020401E9DF800201206F5D434
:1031B0009860032807D0502080F31188BFF34F8F09
:1031C000BFF36F8FFEE74FF440709860019808706E
:1031D0000A48016841F470010160016841F07041E2
:1031E0000160FFF761FE00205860FCF79BFF0020A4
:1031F0001CBD000000E400E08000002020ED00E0A5
:1032000038B5049D18B153B1CAB181B120E0502046
:1032100080F31188BFF34F8FBFF36F8FFEE750200D
:1032200080F31188BFF34F8FBFF36F8FFEE75020FD
:1032300080F31188BFF34F8FBFF36F8FFEE739B173
:10324000502080F31188BFF34F8FBFF36F8FFEE7DD
:1032500050241C46012384F846302B460094FFF787
:10326000C1FA204638BD000070B50D46040025D0D7
:10327000FFF7B8FDD4E90F20216802FB001161605F
:103280000021A1632168A1600A46D4E90F01401E14
:1032900000FB0121E16021464FF0FF3001F8440FAF
:1032A000487004F110008DB1FFF76AFD04F12400AD
:1032B000FFF766FDFFF7B6FD012070BD502080F3DB
:1032C0001188BFF34F8FBFF36F8FFEE7216900298D
:1032D000F0D000F001FB0028ECD004494FF0805002
:1032E0000860BFF34F8FBFF36F8FE3E704ED00E09B
:1032F0002DE9FF4782B01D468A464FF000080400C2
:1033000003D0BAF1000F08D011E0502080F31188EB
:10331000BFF34F8FBFF36F8FFEE7206C38B15020A3
:1033200080F31188BFF34F8FBFF36F8FFEE7022D3D
:103330000AD1E06B012807D0502080F31188BFF339
:103340004F8FBFF36F8FFEE700F00EFA3F4F4FF045
:1033500000094FF0805648B9049838B1502080F3E6
:103360001188BFF34F8FBFF36F8FFEE7FFF73AFD72
:10337000A06BE16B884207D3022D05D00498D0B131
:10338000B8F1000F1AD01EE02A4651462046FFF73A
:1033900082F9616A19B104F1240000F09DFA20B1AC
:1033A0003E60BFF34F8FBFF36F8FFFF73BFD0120F0
:1033B00006B0BDE8F087FFF735FD22E06846FFF76D
:1033C0000BFE4FF00108FFF72DFDFFF78BFEFFF717
:1033D00009FD94F94400401C01D184F8449094F90B
:1033E0004500401C01D184F84590FFF71BFD04A95E
:1033F000684600F027F930B12046FFF7E3FB00F004
:10340000A3FA0020D4E7FFF7EDFCA06BE16B884244
:1034100013D1FFF707FD04F110000499FFF7EAFD4F
:103420002046FFF7CFFB00F08FFA00289ED13E60C8
:10343000BFF34F8FBFF36F8F98E7FFF7F3FC204682
:10344000FFF7C0FB00F080FA90E7000004ED00E019
:103450002DE9F0471F4690468946040003D0B9F194
:10346000000F08D011E0502080F31188BFF34F8F78
:10347000BFF36F8FFEE7206C38B1502080F31188C6
:10348000BFF34F8FBFF36F8FFEE7022F0AD1E06BC0
:10349000012807D0502080F31188BFF34F8FBFF36E
:1034A0006F8FFEE7FFF712FD5020EFF3118680F3D8
:1034B0001188BFF34F8FBFF36F8FA06BE16B884212
:1034C00006D3022F04D0002086F31188BDE8F087D0
:1034D00094F945503A4649462046FFF7DCF8681C07
:1034E00004D06D1C84F845500120EDE7606A002887
:1034F000FAD004F1240000F0EFF90028F4D0B8F17C
:10350000000FF1D00121C8F80010EDE72DE9F747D1
:10351000002683B08A46040003D0BAF1000F08D019
:1035200011E0502080F31188BFF34F8FBFF36F8FEE
:10353000FEE7206C38B1502080F31188BFF34F8F25
:10354000BFF36F8FFEE700F00FF9DFF8F4804FF064
:1035500000094FF0805748B9059838B1502080F3E2
:103560001188BFF34F8FBFF36F8FFEE7FFF73AFC71
:10357000A56BC5B151462046FFF77AF86D1EA563CD
:10358000206950B104F1100000F0A6F928B1C8F884
:103590000070BFF34F8FBFF36F8FFFF743FC012025
:1035A00006B0BDE8F087059808B11EB106E0FFF748
:1035B00039FC27E06846FFF70FFD0126FFF732FCD4
:1035C000FFF790FDFFF70EFC94F94400401C01D179
:1035D00084F8449094F94500401C01D184F845904A
:1035E000FFF720FC05A9684600F02CF800282046CB
:1035F0000AD0FFF7E7FA00F0A7F92046FFF794F9A1
:103600000028B3D00020CBE7FFF78EF990B104F18A
:1036100024000599FFF7EEFC2046FFF7D3FA00F0EF
:1036200093F90028A2D1C8F80070BFF34F8FBFF301
:103630006F8F9BE72046FFF7C5FA00F085F995E705
:1036400004ED00E02DE9F0410C46050011D0C4B1B5
:10365000FFF7C8FB174B5A696E682068911B471C1F
:1036600017D02F689B6A9F4219D0964217D8012421
:1036700010E0502080F31188BFF34F8FBFF36F8F9E
:10368000FEE7502080F31188BFF34F8FBFF36F8F99
:10369000FEE70024FFF7C6FB2046BDE8F081884224
:1036A00005D9401A20602846FFF796FCF1E7002074
:1036B0002060DCE7140000202DE9FF5F8346DDE990
:1036C0000E87994616468A469000FFF7B1FA050024
:1036D0001CD05C20FFF7ACFA040014D00020256356
:1036E00084F85900CDE90240CDE900874B463246C7
:1036F00051465846FFF787F82046FEF725FF012080
:1037000004B0BDE8F09F2846FFF7A0FB4FF0FF3064
:10371000F6E7F0B585B0DDE90B640A9DA6B1DCB132
:103720005C2700972663022684F85960002604AFC0
:10373000CDE90246CDE90057FFF765F82046FEF7D0
:1037400003FF049805B0F0BD502080F31188BFF34B
:103750004F8FBFF36F8FFEE7502080F31188BFF3C8
:103760004F8FBFF36F8FFEE70548C16919B1806BBA
:1037700018B10020704701207047022070470000F8
:103780001400002001484069704700001400002028
:103790002DE9F0412E4C0027A06B40B1206A401C5F
:1037A0002062606A00B101273846BDE8F081666991
:1037B000761C666113D16068006838B1502080F3D0
:1037C0001188BFF34F8FBFF36F8FFEE76068A1686A
:1037D0006160A060A06A401CA062FFF773F9206BD3
:1037E000DFF87080864209D36068006880B1606845
:1037F000C068C568686886420DD220632068C06AC8
:1038000000EB800158F821000128CAD90127C8E738
:103810004FF0FF30F1E7281DFFF788FAA86A18B1CA
:1038200005F11800FFF782FAE86AA169884200D919
:10383000A06100EB800108EB8100291DFFF7C6FAAB
:10384000E86A2168C96A8842CED30127CCE7000024
:10385000140000202003002070B504004FF0000188
:1038600033D01B4D2868844207D0502080F3118844
:10387000BFF34F8FBFF36F8FFEE7206D38B1401E4F
:103880002065E36CE26A9A421FD040B11DE05020EF
:1038900080F31188BFF34F8FBFF36F8FFEE7201DBA
:1038A000FFF744FAE06CE062C0F13800A061E06A22
:1038B000A969884200D9A861064900EB800001EBA4
:1038C0008000211DFFF782FA0121084670BD00002B
:1038D000140000202003002070B5C068C46854B1F3
:1038E00004F118000646FFF721FA144DA86B50B1F9
:1038F0003146134815E0502080F31188BFF34F8FF5
:10390000BFF36F8FFEE7201DFFF710FAE06AA96989
:10391000884200D9A8610B4900EB800001EB8000D0
:10392000211DFFF753FAE06A2968C96A884202D963
:103930000120686270BD002070BD000014000020EE
:10394000A8070020200300202DE9F0472C4D00247B
:103950002746A86B38B1FFF745FAA86B401EA8634D
:10396000A86B40B146E0502080F31188BFF34F8F21
:10397000BFF36F8FFEE72969224E0120D1B3A6F570
:10398000916980463068E0B1F068C46804F11800BD
:10399000FFF7CCF9201DFFF7C9F9E06AA969884251
:1039A00000D9A86100EB800109EB8100211DFFF720
:1039B0000DFAE06A2968C96A8842E3D3C5F8248011
:1039C000E0E70CB1FFF77EF82C6A4CB14FEA08062D
:1039D000FFF7DEFE00B16E62641EF9D1002028629E
:1039E000686A38B10849012738070860BFF34F8F6C
:1039F000BFF36F8FFFF716FA3846BDE8F087000077
:103A000014000020A807002004ED00E010B586B0E7
:103A1000FEF702FE114CA068B8B10020039004909C
:103A200005AA04A903A8FFF79FF9DDE903210220F5
:103A30008DE8070000230AA10B48059AFFF769FEED
:103A4000E06010B106B0012010BD502080F3118855
:103A5000BFF34F8FBFF36F8FFEE7000050000020D1
:103A6000546D722053766300A12B00082DE9FF41AD
:103A70001E46134602000A9D4FF0000016D0144C5B
:103A8000A768002F0FD0CDE900130292062917DA9C
:103A9000FFF76AFE02284FF000030FD000226946AC
:103AA000A068FFF725FC04B0BDE8F081502080F34A
:103AB0001188BFF34F8FBFF36F8FFEE72A46EEE703
:103AC0000023324669463846FFF7C2FCEBE70000A8
:103AD00050000020243B000800000000000000000F
:103AE00000000000000000000002000018000000BC
:103AF00000000000000000000102020304050607A8
:103B000008090A0B0C0D0E0F101000000000000039
:103B1000000001020304060708090000000001027A
:103B20000304000064656661756C745461736B0016
:103B3000503B000800000020940000003C210008D9
:103B4000E43B000894000020241F00004C210008E2
:103B50000000000001000000100000000000000054
:103B60000024F4000000000000000000000000003D
:103B70000000000000000000000000000000000045
:103B80000000000000000000000000000000000035
:103B90000000000000000000000000000000000025
:103BA0000000000000000000000000000000000015
:103BB0000000000000000000000000000000000005
:103BC00000000000000000000000000000000000F5
:103BD00000000000AAAAAAAA00000000020000003B
:043BE00000000000E1
:04000005080000ED02
:00000001FF
