:020000040800F2
:10000000701F002099010008B31E00088519000820
:10001000691E000893070008812600080000000000
:1000200000000000000000000000000001010008C6
:100030009507000800000000450100088D23000816
:10004000B3010008B3010008B3010008B3010008C0
:10005000B3010008B3010008B3010008B3010008B0
:10006000B3010008B3010008B3010008B3010008A0
:10007000B3010008B3010008B3010008B301000890
:10008000B3010008B3010008B3010008B301000880
:10009000B3010008B3010008B3010008B301000870
:1000A000B3010008B3010008B3010008B301000860
:1000B000B30100080D240008B3010008B3010008D3
:1000C000B3010008B3010008B3010008B301000840
:1000D000B3010008B3010008B3010008B301000830
:1000E000B3010008B3010008B3010008DFF80CD029
:1000F00000F026FB0048004759340008701F00201C
:10010000224B19680868B0E8F00F80F30988BFF344
:100110006F8F4FF0000080F311884EF00D0E704786
:100120000000000006480068006880F3088862B696
:1001300061B6BFF34F8FBFF36F8F00DF00BF00BF0B
:1001400008ED00E0EFF30980BFF36F8F0F4B1A68E3
:1001500020E9F00F106008B54FF0500080F31188CF
:10016000BFF34F8FBFF36F8F04F03CF84FF00000E8
:1001700080F31188BDE8084019680868B0E8F00FFE
:1001800080F30988BFF36F8F704700BF1400002011
:10019000EFF3058070470000064880470648004797
:1001A000FEE7FEE7FEE7FEE7FEE7FEE7FEE7FEE727
:1001B000FEE7FEE709240008ED000008202A04DB22
:1001C000203A21FA02F00021704721FA02F3D040D0
:1001D000C2F12002914008431946704740EA0103EA
:1001E0009B0703D009E008C9121F08C0042AFAD2ED
:1001F00003E011F8013B00F8013B521EF9D27047B1
:10020000D2B201E000F8012B491EFBD27047002258
:10021000F6E710B513460A4604461946FFF7F0FF05
:10022000204610BD2DE9FE4F804681EA0300C00F35
:100230000C46009021F0004123F00045B8EB02008D
:10024000A94105D24046214690461C460B4602462F
:1002500023F00040104347D0270DC7F30A00C3F333
:100260000A510290401A019040286BDAC3F3130040
:1002700040F4801B0098924620B10023D2EB030A81
:1002800063EB0B0B01985946C0F14002504600F059
:100290003AF906460D4650465946019A00F042F991
:1002A00010EB08006141002487EA115284EAE773E9
:1002B0001A4340D0009A62B3019A012A4FEA0752CA
:1002C00015DC001B61EB02014FF0004202EA07520D
:1002D000CDE90042001C41F5801132462B4600F06A
:1002E00042F903B0BDE8F08F40462146F9E7001B14
:1002F00061EB0201001C41F5801300185B412018DE
:10030000A2F5001747EB030140EAD570B6196D411D
:1003100011E06D084FEA360645EAC0754FEA07520C
:10032000001B61EB0201001C41F5801149084FEAF6
:1003300030000019514132462B4603B0BDE8F04F62
:1003400000F002B90098012240000023D0EB020225
:1003500063EBE073009821464FEAE074B8EB0000CD
:1003600061EB0401E9E783F000435BE781F00041C2
:1003700058E72DE9FE4F81EA030404F0004421F020
:10038000004100944FF0000B23F0004350EA0104B9
:100390005ED052EA03045BD0C3F30A54C1F30A559A
:1003A0002C44A4F2F3340194A0FB0254C1F31301D2
:1003B00041F48011C3F3130343F4801301FB02449F
:1003C00000FB034E840A970A44EA815447EA8357A4
:1003D000A4FB076802958D0A05FB07854FEA932C5D
:1003E00004FB0C542705029D4FEA065847EA1637CE
:1003F000B5EB08056EEB070C870E920E47EA8117E6
:1004000042EA8312A7FB0201B6EB0B0164EB000486
:100410002B0D43EA0C335E1844EB1C50DA46514670
:10042000E7FB0201C5F313044FEA0B3343EA14530D
:100430004FEA0432019C43EA0603A4F10C0402943F
:10044000009CCDE900B400F08EF803B0BDE8F08F59
:1004500000200146F9E70EB5C10F80EAE0700844BC
:10046000CA07002140F233438DE80E000A460B46CE
:1004700000F079F803B000BD30B50B46014600200E
:100480002022012409E021FA02F59D4205D303FA56
:1004900002F5491B04FA02F52844151EA2F10102D7
:1004A000F1DC30BD2DE9F05F0546002092469B4609
:1004B00088460646814640241BE02846414647467A
:1004C0002246FFF77BFE53465A46C01A914110D38D
:1004D00011461846224600F016F82D1A67EB01085F
:1004E0004F4622460120002100F00DF817EB0009CD
:1004F0004E41201EA4F10104DFDC484631462A4665
:100500004346BDE8F09F202A04DB203A00FA02F1BE
:10051000002070479140C2F1200320FA03F31943F1
:1005200090407047202A06DBCB17203A41FA02F0B0
:1005300043EAE07306E041FA02F3D040C2F1200240
:10054000914008431946704710B5141E73F100041A
:1005500008DA401C41F1000192185B411A4301D1B5
:1005600020F0010010BD2DE9F04D92469B4611B1DF
:10057000B1FA81F202E0B0FA80F220329046FFF741
:10058000C2FF04460F4640EA0A0041EA0B01534607
:100590005A46084313D0114653EA010019D0C8F156
:1005A00040025046FFF70AFE05460E4650465946A1
:1005B0004246FFF7A8FF084305D0012004E020468B
:1005C0003946BDE8F08D0020054346EAE0762C432D
:1005D00037430A986305E40AA0EB08000022FD0AED
:1005E00044EA47540A3002D500200146E9E70105F4
:1005F00010196941DDE9084500196941BDE8F04D70
:10060000A2E72DE9F04D81EA030404F0004B21F04C
:10061000004514464FF0000A23F0004150EA05025D
:1006200020D054EA01021DD0C5F30A570246C5F393
:100630001303C1F31300C1F30A5640F4801543F4C9
:100640008013A7EB0608101BD64608F2FD3873EBA3
:10065000050002D308F1010801E092185B41B8F1EE
:10066000000F03DA00200146BDE8F08D00204FF4B2
:100670008011064684460EE0171B73EB050705D371
:10068000121B63EB050306434CEA010C49084FEAD1
:10069000300092185B4150EA0107EDD152EA0300A5
:1006A00012D082EA040083EA0501084305D0101B3A
:1006B000AB4106D20122002306E000224FF00043A6
:1006C00002E06FF0010253101AEB06004CEB0851E8
:1006D00010EB0A0041EB0B01BDE8F04DFFF734BF12
:1006E000C1F30A52C1F3130140F2FF3341F4801108
:1006F0009A4202DA00200146704740F233439A42A0
:10070000A2F2334202DC5242FFF758BDFFF7FBBEB4
:1007100030B5041E71F1000404DB4FF00044404288
:1007200064EB0101141E73F1000405DB1C464FF05D
:100730000043524263EB0403994208BF904230BD2C
:10074000064C074D06E0E06840F0010394E807001E
:1007500098471034AC42F6D3FFF7CCFCC4540008E1
:10076000E454000870B521F0004303430CD0C1F3FA
:100770000A550024D5EB040564EB0403D617AD1A23
:10078000B34102DB0020014670BD201841EB02514D
:1007900070BDFEE7704772B6FEE7000070B5044614
:1007A00000F008F90546601C02D0044800780444B3
:1007B00000F000F9401BA042FAD370BD04000020F5
:1007C0002DE9F84FDFF8B8910024A9F1040B234676
:1007D0000F2709F1040AABF1040EC9E00125A54079
:1007E0002A40AA427DD1674ED1F804C0ACEB06087E
:1007F000B44532D014DCBCF1030F3AD009DCBCF1B3
:10080000000F2AD0BCF1010F1CD0BCF1020F31D176
:100810001DE0BCF1110F17D0BCF1120F2AD119E065
:10082000B8F5881F19D006DCB8F5803F15D0B8F5AB
:10083000801F1FD111E0B8F5001F0ED0B8F5041FBE
:1008400018D10AE0CB6815E0CB681B1D12E0CB681D
:1008500008330FE0CB680C330CE08B682BB1012B15
:100860004FF0080303D0456104E0042302E0056172
:1008700000E00023FF2A01D8064601E000F104064B
:100880004FEA840501D9A5F12005D6F8008007FAC2
:1008900005FC28EA0C0803FA05F548EA0508C6F83D
:1008A00000804D68ED0062D5374DAE6946F0010617
:1008B000AE61AD6924F0030605F001050095334DE6
:1008C00006EB050CDCF80850A607360F07FA06F809
:1008D00025EA0805DFF8B880404503D14FF000084D
:1008E00017E044E0DFF8AC80404502D14FF001084A
:1008F0000FE0DFF8A480404502D14FF0020808E085
:10090000DFF89880404502D14FF0030801E04FF036
:10091000040808FA06F848EA0508CCF808804D688B
:10092000D9F80060ED024D4601D5164300E096432C
:100930002E604D68DAF80060AD02554601D51643C9
:1009400000E096432E604D68DBF80060AD035D4625
:1009500001D5164300E096432E604D68DEF8006036
:10096000ED03754601D5164300E096432E60641CE6
:100970000D682A46E5407FF431AFBDE8F88F0000EE
:100980000804014000001110001002400000014066
:1009900000080140000C014000100140001401401B
:1009A0008068084000D0012070470AB1016170479B
:1009B0000904FBE70148806870470000040000203C
:1009C00070B5040025D094F83D00002520B984F8C6
:1009D0003C50204600F0B8F8242084F83D00206800
:1009E000016821F0010101602068016841F40041C3
:1009F00001602068016821F40041016000F05CFAA8
:100A00004D4A6168914201D84C4900E04C49884206
:100A100001D2012070BD4B492368B0FBF1F15E6843
:100A200026F03F060E435E606368934206D94FF49A
:100A3000967359434FF47A73B1FBF3F12368491C61
:100A40001E6A26F03F06314319626168914210D850
:100A50004900401EB0FBF1F2521CC2F30B02042A03
:100A600001D2042022E0B0FBF1F0401CC0F30B00E7
:100A70001CE0A268F2B301EBC10303EB0116431EB5
:100A8000B3FBF6F35B1C43F480431B0549D092B3E0
:100A900001EBC10202EB0111401EB0FBF1F0401C62
:100AA000C0F30B0040F4804040F400402168CA6964
:100AB0004CF6FF739A431043C861D4E90710014311
:100AC0002068026822F0C00211430160D4E90301EA
:100AD00001432068826848F2FF339A4311438160E2
:100AE000D4E9050108432168CA6822F0FF021043D7
:100AF000C86001E00EE016E02068016841F00101E5
:100B000001602564202084F83D00256384F83E5070
:100B1000002070BD01EB4106431EB3FBF6F35B1CE6
:100B2000B3E70120C2E701EB4101401EB0FBF1F049
:100B3000401CC0F30B00B7E7A086010080841E00B4
:100B400000093D0040420F0010B586B00021009121
:100B500001910291039100681349884222D1134CFC
:100B6000A06940F00800A061A069694600F0080093
:100B700004904FF4407000901220019003200390E5
:100B80000B48FFF71DFE0B48416841F0E06141F062
:100B900002014160E06940F40010E061E06900F4A6
:100BA0000010049006B010BD005400400010024038
:100BB000000C0140000001400248816802781144A5
:100BC0008160704704000020074810B5016841F0BB
:100BD00010010160032000F0A7F80F2000F006F8D4
:100BE00000F050F8002010BD0020024030B505464E
:100BF0001F4887B0C16941F00201C161C06906A9FF
:100C000000F00200009001A800F036F90498B0B19D
:100C100000F052F940001749174AB0FBF1F11748AC
:100C2000491E0260416040F2E7320021C0E9032121
:100C30008160816100F076FB040003D015E000F0D4
:100C40003BF9E8E70D4800F09BFB04000DD11D20A7
:100C500000F03CF8102D07D2002229461D2000F09C
:100C600043F80748056000E0012407B0204630BD86
:100C70000010024040420F000004004050020020DB
:100C8000080000200F4808B5816941F00101816129
:100C9000816901F001010091C16941F08051C16198
:100CA000C069002200F0805000900F21901E00F0DB
:100CB0001BF80548416821F0E06141F00071416096
:100CC00008BD00000010024000000140002809DBC0
:100CD00000F01F02012191404009800000F1E02056
:100CE000C0F8001170470000F0B40E4B1B680C46B2
:100CF000C3F30223C3F10705042D00D90425191DF0
:100D0000072901D2002300E0DB1E012606FA05F1C7
:100D1000491E214099409E40761E16403143F0BC4A
:100D200001F0D4BC0CED00E0064900F007020868B1
:100D30004FF6FF03184040EA0220034A10430860C0
:100D4000704700000CED00E00000FA052DE9F047C7
:100D50000F46050061D0434E306800F00700B842EE
:100D600009D2306820F0070038433060306800F066
:100D70000700B84251D128683B4C810712D5400783
:100D800003D5606840F4E06060602878000703D510
:100D9000606840F4605060606068A96820F0F0000E
:100DA000084360602878C00728D06868012810D000
:100DB0002168022810D0890700292EDA616821F005
:100DC000030101436160FFF7F5FD804641F2883978
:100DD0000DE021688903EFE78901EDE7FFF7EAFD00
:100DE000A0EB0801494502D90320BDE8F0876068FF
:100DF000696800F00C00B0EB810FEFD1306800F0B3
:100E00000700B8420BD9306820F007003843306043
:100E1000306800F00700B84201D00120E5E72878EB
:100E2000400705D56068E96820F4E0600843606029
:100E30002878000706D56068296920F4605040EAE8
:100E4000C100606000F058F86168084AC1F30311FE
:100E5000515CC8400649086006480068FFF7C6FEB6
:100E60000020C2E70020024000100240FA4B0008B8
:100E700010000020080000200F2202600C4A536876
:100E800003F003034360536803F0F0038360536887
:100E900003F4E063C36052684FF4E06303EAD202F4
:100EA00002610448006800F0070008607047000015
:100EB00000100240002002400448054900684968CB
:100EC000044AC1F30221515CC84070471000002061
:100ED000001002400A4C00080448054900684968AF
:100EE000044AC1F3C221515CC84070471000002081
:100EF000001002400A4C00080E4A51680E4801F0EA
:100F00000C03042B11D0082B0FD10C48C1F38343E1
:100F1000C903C05C0AD55168084AC1F34041921E1A
:100F2000515C054A5043B0FBF1F070470449484317
:100F3000704700000010024000127A00EA4B0008DF
:100F400000093D002DE9F84F040070D02078C04D15
:100F5000C00749D06868C0F38100012807D06868DD
:100F6000C0F38100022809D16868C00306D528684B
:100F7000800339D560680028E7D035E06068B0F5B7
:100F8000803F0BD010B1B0F5A02F11D0286820F40D
:100F900080302860286820F4802002E0286840F42F
:100FA00080302860606890B1FFF704FD06460AE0D3
:100FB000286840F480202860F0E700BFFFF7FAFCC3
:100FC000801B642873D828688003F7D50CE0FFF7EE
:100FD000F1FC064605E000BFFFF7ECFC801B64282F
:100FE000F0D828688003F7D420789A4E80074FF015
:100FF00001094FF0000839D5686810F00C0F07D0D0
:101000006868C0F38100022809D16868C00306D46B
:101010002868800714D52069012808D110E02069CC
:10102000B0B1C6F80090FFF7C5FC074605E00AE13D
:10103000FFF7C0FCC01B0228C4D828688007F7D57A
:101040002868616920F0F80040EAC10028600DE0DE
:10105000C6F80080FFF7AEFC074604E0FFF7AAFCE5
:10106000C01B022823D828688007F7D420780007FF
:101070002CD57948A169D9B1C0F80090FFF79AFC46
:10108000074604E0FFF796FCC01B02280FD8686AE9
:101090008007F7D571484FF4FA510068B0FBF1F0C2
:1010A000009000BF0098411E0091FAD20EE080E04F
:1010B000C0F80080FFF77EFC074604E0FFF77AFCEB
:1010C000C01B022875D8686A8007F7D420784007CB
:1010D00060D5E8690027C00008D4E86940F0805076
:1010E000E861E869012700F0805000905C480168E1
:1010F000C90513D40168834641F480710160FFF78C
:1011000059FC824606E000BFFFF754FCA0EB0A0042
:1011100064284ED8DBF80000C005F5D5E06801284A
:101120000AD008B1052813D0286A20F001002862EF
:10113000286A20F0040002E0286A40F001002862DA
:10114000E06841F2883B98B1FFF734FC82460BE03F
:10115000286A40F004002862EEE700BFFFF72AFC8F
:10116000A0EB0A0159455AD8286A8007F6D50CE049
:10117000FFF720FC824605E0FFF71CFCA0EB0A010C
:1011800059454CD8286A8007F6D41FB1E86920F089
:101190008050E861E06988B36968C1F38101022980
:1011A00044D00228C6F8608004D0FFF703FC044650
:1011B00038E034E0FFF7FEFB074604E0FFF7FAFBF8
:1011C000C01B02282BD828688001F7D4206AB0F50C
:1011D000803F05D16868A16820F40030084368604A
:1011E000D4E908010843696821F474110843686070
:1011F000C6F86090FFF7DEFB044606E025E000BF7E
:10120000FFF7D8FB001B022809D828688001F7D512
:101210001BE000BFFFF7CEFB001B022802D9032012
:10122000BDE8F88F28688001F4D40EE00128F7D0DB
:101230006868226A00F48031914204D1616A00F446
:101240007010884201D00120EAE70020E8E70000A2
:101250000010024000004242800442421000002080
:10126000007000407047704710B590F83C20012A8C
:1012700022D0012280F83C20CA688C6822F4407297
:1012800022434C6822F4806222430C6822F40062FC
:1012900022430C6922F4805222434C6922F400520A
:1012A0002243C969002322F480420A4301684A6448
:1012B00080F83C30002010BD022010BD70B590F8C1
:1012C0003C20012A26D0012480F83C40022280F8EC
:1012D0003D2003685A689D6822F070060A68324310
:1012E0005A600D4B02689A4208D0B2F1804F05D087
:1012F0000A4B9A4202D00A4B9A4204D1496825F01F
:1013000080031943916080F83D40002180F83C1033
:10131000084670BD022070BD002C01400004004052
:101320000008004010B5040003D094F83D0010B14F
:1013300007E0012010BD002084F83C00204600F0AA
:101340001EF8022084F83D00211D206801F064F899
:10135000012084F8460084F83E0084F83F0084F8B9
:10136000400084F8410084F8420084F8430084F887
:10137000440084F8450084F83D00002010BD70470B
:1013800090F83D10012901D001207047022180F81A
:101390003D100168CA6842F00102CA6000680B494A
:1013A000884208D0B0F1804F05D00949884202D068
:1013B0000849884204D1816801F00701062903D059
:1013C000016841F00101016000207047002C0140DC
:1013D00000040040000800402DE9F0410D460400E3
:1013E00003D094F83D0018B108E00120BDE8F08179
:1013F000002084F83C00204600F040F8022084F8E9
:101400003D002068816844F2070291438160211DFC
:10141000206801F001F8226890689169166A2B68CB
:10142000AF69034340F20330814341EA0721A868D2
:10143000EF6908434FF6FC418843E96840EA07201A
:10144000014328692F6A000140EA073008436968B0
:101450006D6926F0220646EA051529439360226845
:10146000906154F8460B0162012004F81F09E075F1
:101470002076E0762077A0750020B7E700B585B02C
:101480000021009101910291039101681A48B1F184
:10149000804F1BD0194A914216D1C16941F0040115
:1014A000C161C16901F004010491816941F0080141
:1014B00081618069694600F008000490C0200090B6
:1014C0000F4800BFFFF77CF905B000BDC16941F0CE
:1014D0000101C161C16901F001010491816941F01B
:1014E000040181618069694600F0040004900320D2
:1014F00000900448E6E700000010024000080040A9
:10150000000C014000080140704770B504460068B7
:1015100001694FF00005C943890715D4C168C94363
:10152000890711D4E91E01610120207720688069B4
:101530008007204602D0FFF7E7FF04E000F0BEF886
:10154000204600F063F9257720680169C9434907FF
:1015500017D4C168C943490713D46FF0040101616E
:10156000022020772068806910F4407F204602D056
:10157000FFF7CAFF04E000F0A1F8204600F046F9AA
:10158000257720680169C943090716D4C168C94392
:10159000090712D46FF00801016104202077206848
:1015A000C0698007204602D0FFF7AEFF04E000F0DC
:1015B00085F8204600F02AF9257720680169C9439B
:1015C000C90617D4C168C943C90613D46FF0100106
:1015D0000161082020772068C06910F4407F204610
:1015E00002D0FFF791FF04E000F068F8204600F019
:1015F0000DF9257720680169C943C90708D1C16879
:10160000C943C90704D1891E0161204600F000F9D1
:1016100020680169C943090609D4C168C94309069C
:1016200005D46FF0800101612046FFF71BFE2068A2
:101630000169C943490609D4C168C943490605D4AB
:101640006FF040010161204600F0ECF8206801696C
:10165000C94389060BD4C168C943890607D46FF012
:10166000200101612046BDE87040FFF7FCBD70BD60
:1016700000B585B0002100910191029103910068AD
:101680000B49884212D10B48816941F00401816104
:101690008069694600F0040004904FF410600090E7
:1016A0000220019003900448FFF78AF805B000BDBE
:1016B000002C01400010024000080140704770B546
:1016C000044690F83C0000260D4601280FD001206A
:1016D00084F83C006AB1042A1DD0082A2FD00C2AB5
:1016E0003FD00126002084F83C00304670BD022027
:1016F00070BD206800F0C6FE2068816941F00801D5
:1017000081612068816921F004018161206881691B
:101710002A69114311E0206800F0DCFE206881692D
:1017200041F4006181612068816921F480618161F7
:10173000206881692A6941EA02218161D2E7206833
:1017400000F0F4FE2068C16941F00801C161206821
:10175000C16921F00401C1612068C1692A6911438E
:1017600011E0206800F00EFF2068C16941F40061BB
:10177000C1612068C16921F48061C1612068C169CB
:101780002A6941EA0221C161ACE710B5040003D027
:1017900094F83D0010B107E0012010BD002084F84E
:1017A0003C00204600F01EF8022084F83D00211D78
:1017B000206800F031FE012084F8460084F83E00E5
:1017C00084F83F0084F8400084F8410084F8420027
:1017D00084F8430084F8440084F8450084F83D0010
:1017E000002010BD08B500680649884208D10648A7
:1017F000816941F400618161806900F400600090BA
:1018000008BD0000002C014000100240704700009D
:1018100000680349884201D1FFF7CEB97047000044
:1018200000040040704770B5040004D094F84100F3
:10183000002510B106E0012070BD84F8405020461C
:1018400000F024F8242084F841002068C16821F4C5
:101850000051C160204600F0B7FE2068016921F404
:10186000904101612068416921F02A0141612068AD
:10187000C16841F40051C1606564202084F84100D2
:1018800084F842006563002070BD000070B586B02A
:1018900000240094019402940394234E0368234986
:1018A00002200322224DB34219D18B6943F48043B5
:1018B0008B618B6903F4804304938B6943F00403C9
:1018C0008B618969039201F0040104910102CDE961
:1018D000001069462846FEF773FF28151BE0154ED9
:1018E000B3421FD1CB6943F40033CB61CB6903F41E
:1018F000003304938B6943F004038B61896903927D
:1019000001F0040104910421CDE900106946284644
:10191000FEF756FF0820CDE90004694628460294E8
:10192000FEF74EFF06B070BD0038014000100240C7
:10193000000801400044004070B5044600F095FAEC
:101940002088A18840BA49BA00B20DB2FEF783FDE3
:1019500004460E462846FEF77EFD2246334601F039
:1019600091FC054A054BFEF704FDBDE870400022DE
:10197000034BFEF757BC0000775AF01ADCA54C4029
:1019800000806640FEE7FF20401EFDD27047000049
:1019900010B50B4C002210212046FFF706F801225B
:1019A00008212046FFF701F8FFF7EDFF0122102183
:1019B0002046FEF7FAFFBDE81040FFF7E4BF000045
:1019C000000C01402DE9F041144E0746002401228D
:1019D00010213046FEF7E9FF00256006040E0122C3
:1019E00008213046FEF7E1FFFFF7CDFF102130461A
:1019F000FEF7D6FF08B1641CE4B20022082130468D
:101A0000FEF7D3FFFFF7BFFF6D1C082DE5DB38465F
:101A100000F068F82046BDE8F0810000000C0140AD
:101A200070B5114E05460024280601D5012200E0BC
:101A3000002210213046FEF7B8FFFFF7A4FF012275
:101A400008213046FEF7B1FFFFF79DFF0022082175
:101A50003046FEF7AAFF6806050E641C082CE3DB7F
:101A6000BDE8704000F020B8000C014010B50D4CEE
:101A7000012210212046FEF798FF0122082120466E
:101A8000FEF793FFFFF77FFF002210212046FEF7AD
:101A90008CFFFFF778FF20460022BDE810400821A8
:101AA000FEF783BF000C014070B50D4D01221021DF
:101AB0002846FEF77AFFFFF766FF01220821284635
:101AC000FEF773FFFFF75FFF10212846FEF768FF60
:101AD0000446002208212846FEF767FF204670BD15
:101AE000000C014010B50D4C012814D0002210212B
:101AF0002046FEF75AFFFFF746FF01220821204645
:101B0000FEF753FFFFF73FFF20460022BDE81040DD
:101B10000821FEF74ABF0122E9E70000000C01405E
:101B200010B57021002000F01BFC2021012000F0E6
:101B300017FC0021BDE81040022000F011BC00009D
:101B40001CB500F023FA00F0B5F9FFF7E9FF094AE8
:101B50000021094801F0F0FC08494FF49672086032
:101B600000211820CDE900010B4605A1074802F02D
:101B70001BFE1CBDC44B000885230008000000208C
:101B80006C63645F74657374000000001D340008AA
:101B90002DE9F04186B00024244800940194029479
:101BA0000394816941F010018161816901F01001A4
:101BB0000491816941F020018161816901F0200176
:101BC0000491816941F004018161816901F004019E
:101BD0000491816941F0080181618069012200F06E
:101BE0000800134F5503049029463846FEF7DDFEE2
:101BF000DFF84080002218214046FEF7D6FE00950F
:101C0000022601250396CDE9015469463846FEF7C0
:101C1000D7FD1820CDE90005CDE9024669464046CA
:101C2000FEF7CEFD06B0BDE8F081000000100240D6
:101C300000100140000C01400D4810B50B49016037
:101C40000C49416000214FF480428160C0E90312D9
:101C500041618161C1610162FEF7B2FE002803D0DB
:101C6000BDE81040FEF797BD10BD000000540040D5
:101C700094000020A086010010B592B000240F94BB
:101C80001C2168461094FEF7C2FA202107A8FEF72F
:101C9000BEFA24482249C0E900144FF6FF71C0E99A
:101CA0000241046144618461FFF76FFD08B1FEF7F2
:101CB00072FD0F940FA91B481094FFF7FFFA08B1AB
:101CC000FEF769FD6020CDE90004029403940494BA
:101CD00005940022694613480694FFF7F0FC08B10A
:101CE000FEF759FD0C2269460E48FFF7E8FC08B1E3
:101CF000FEF751FD0794089409944FF400500A949C
:101D0000CDE90B4007A907480E94FFF7ADFA08B1DB
:101D1000FEF741FD0348FFF7ABFC12B010BD000019
:101D2000002C0140E800002010B58CB0242168464A
:101D3000FEF76DFA0024154809944FF080410A948B
:101D4000C0E900144FF6FF71C0E9024104618461EB
:101D50000120CDE90004CDE902040494CDE9054059
:101D60000794694609480894FFF736FB08B1FEF767
:101D700012FD099409A905480A94FFF79FFA002863
:101D800001D0FEF708FD0CB010BD000030010020AE
:101D900010B58CB024216846FEF739FA00241548A6
:101DA000099413490A94C0E900144FF6FF71C0E981
:101DB0000241046184610120CDE90004CDE90204FF
:101DC0000494CDE90540079469460A480894FFF752
:101DD00003FB08B1FEF7DFFC099409A905480A9442
:101DE000FFF76CFA002801D0FEF7D5FC0CB010BD4F
:101DF00000080040780100200C4810B50A49016035
:101E00004FF4E1314160002181600C22C160C0E9E2
:101E100004128161C161FFF706FD002803D0BDE80F
:101E20001040FEF7B8BC10BD00380140C0010020D2
:101E30000C4810B50A4901604FF4E13141600021BE
:101E400081600C22C160C0E904128161C161FFF7A9
:101E5000EAFC002803D0BDE81040FEF79CBC10BD92
:101E60000044004008020020FEE770B50546FFF779
:101E7000FDFD3C20FFF7D4FD0320FFF7D1FDFFF768
:101E8000F5FD3D20FFF7CCFD002401E0052C0BD033
:101E90000020FFF797FD2855641CE4B2062CF5D30B
:101EA000BDE87040FFF774BD0120FFF78BFD68713E
:101EB000F2E7FEE710B5A0B0002480216846FEF7E7
:101EC000A6F90021204600F0DFF98021684600F0E5
:101ED000FBF9641CE4B2082CF3D320B010BD000061
:101EE00070B501220B4D140221462846FEF75DFD18
:101EF0000122560231462846FEF757FD00223146A0
:101F00002846FEF752FD21462846BDE870400022D3
:101F1000FEF74BBD000C014070B501220E4D1402BE
:101F200021462846FEF741FD66000022314628463C
:101F3000FEF73BFD012221462846FEF736FD012231
:101F400031462846FEF731FD21462846BDE870405F
:101F50000122FEF72ABD0000000C014070B50A4CBA
:101F600000224FF400712046FEF71FFD01221502EA
:101F700029462046FEF719FD29462046BDE8704057
:101F80000022FEF712BD0000000C014010B586B023
:101F9000002002902E48816941F008018161816929
:101FA00001F008010491816941F0080181618069B3
:101FB000284C00F0080004904FF44070009001207D
:101FC00001900220039069462046FEF7F9FB69461E
:101FD0002046FEF7F5FB012211022046FEF7E5FC44
:101FE000012251022046FEF7E0FC6420FEF7D6FBFA
:101FF000022000F01BF93F2000F02AF9002000F039
:1020000001F9002000F00BF9A12000F046F9C820EA
:1020100000F043F90021084600F0C2F87F2000F0EC
:10202000D5F8A42000F039F9A62000F036F90821EF
:10203000002000F0D5F8012000F08AF800210120EE
:1020400000F0AEF8AF2000F028F906B010BD000097
:1020500000100240000C0140F0B589B00024074692
:1020600020466D4604AE002A08DA4FF02D038DF8A5
:1020700000304FF00104C2F1000214E006D14FF02D
:1020800030008DF800004FF001041AE04FF00A0C08
:1020900092FBFCF30CFB132392FBFCF203F13003E5
:1020A000335400F10100002AF0D108E006EB0002F1
:1020B000A0F1010012F8012C2A5504F101040028B6
:1020C000F4D14FF0000028552A46384600F003F8B6
:1020D00009B02046F0BD2DE9F04117460E460446F2
:1020E00000250BE03146204600F00EF8641CE4B2F7
:1020F0000F2C02D90024B61CF6B26D1C7A5D002AA2
:10210000F0D12846BDE8F08170B51646C206150E1E
:102110000C46072918D80F2816D82946204600F063
:10212000B3F80A48082100EB0610064600F0CCF888
:10213000641CE0B2294600F0A7F806F10800BDE8EB
:102140007040082100F0C0B870BD0000124C0008BB
:1021500010B5040001D0012C0AD18D2000F09DF8AB
:10216000102000EB8400BDE81040C0B200F095B82C
:1021700010BD000010B504460848007802280CD1B4
:102180007F2C0AD804F00F0000F087F8102000EB35
:102190001410BDE8104000F080B810BD8C00002085
:1021A00070B50C46050001D0012D0ED10CB1012CEB
:1021B0000BD1DA2000F071F8280100EB4410BDE8E3
:1021C0007040801CC0B200F068B870BD10B5044605
:1021D000812000F062F82046BDE8104000F05DB8B4
:1021E00070B50C4605460F280BD80F2C09D8D52002
:1021F00000F053F805EB0410BDE87040C0B200F0E9
:102200004CB870BD10B504463F2807D8D32000F065
:1022100044F82046BDE8104000F03FB810BD3F280C
:1022200003D84030C0B200F038B8704710B5040091
:1022300003D0012C01D0022C07D1202000F02DF872
:10224000204600F02AF80148047010BD8C000020E0
:1022500010B504460F38312807D2A82000F01DF829
:102260002046BDE8104000F018B810BD05490978B7
:10227000022905D1072803D8B030C0B200F00DB84C
:10228000704700008C00002010B50C46FFF7EEFFF1
:102290002046BDE81040FFF76DBF10B50446FFF7BC
:1022A0001FFE782000F02EF8FFF758FE002000F007
:1022B00029F8FFF753FE204600F024F8FFF74EFE02
:1022C000FFF72AFE002010BD70B50D460646FFF749
:1022D00007FE782000F016F8FFF740FE402000F0DF
:1022E00011F8FFF73BFE002405E0305D00F00AF82E
:1022F000FFF734FE641CAC42F7DBFFF70DFE002055
:1023000070BD00002DE9F041144F04464FF4807673
:10231000002231463846FEF748FB00254FF400788E
:1023200004F08000802816D0002241463846FEF78F
:102330003CFB6006040E012231463846FEF735FBB1
:10234000002231463846FEF730FB6D1CEDB2082DF9
:10235000E6D3BDE8F0810122E7E70000000C014070
:1023600070B50D460446FFF781FB3C20FFF758FB94
:102370002046FFF755FB2846FFF752FBBDE87040AB
:10238000FFF706BB012001F081F8FBE710B55020F4
:1023900080F31188BFF34F8FBFF36F8F02F070FA95
:1023A00018B104494FF080500860002080F3118874
:1023B00010BD000004ED00E010B590B02821684683
:1023C000FDF725FF14210AA8FDF721FF0220009048
:1023D0000120049010200024059007946846FEF721
:1023E000B1FD08B172B6FEE70F20CDE90A040C94E6
:1023F0000D9400210AA80E94FEF7A8FC002801D035
:1024000072B6FEE710B010BD704700000148FFF73C
:102410007CB8000050020020F0B50268164B174C43
:10242000174D4FF08047984205D0B84203D0A042E4
:1024300001D0A84203D122F070064A683243984284
:1024400005D0B84203D0A04201D0A84203D122F463
:102450004074CA6822434C6922F080022243026021
:102460008A68C2620A688262984201D1096901637E
:1024700001214161F0BD0000002C0140000400403A
:102480000008004030B5036A026A22F001020262CD
:102490004268846924F073050C682C4323F002051C
:1024A0008B682B430A4DA8420BD123F00805CB685B
:1024B00022F440722B434D6923F0040315438A69CB
:1024C0002A434260846149684163036230BD000071
:1024D000002C014030B5026A036A23F01003036246
:1024E000436884690D6824F4E64444EA05248D6851
:1024F00022F0200242EA05120B4DA8420ED1CD680F
:1025000022F0800242EA05124D6923F4406343EA57
:1025100085038D6922F0400243EA850343608461AC
:1025200049688163026230BD002C014030B5036A06
:10253000026A22F4807202624268C46923F4007362
:1025400024F073050C682C438D6843EA05230C4D79
:10255000A8420ED1CD6823F4006343EA05234D69F8
:1025600022F4405242EA05128D6923F4806342EA64
:1025700005124260C4614968C163036230BD000056
:10258000002C014030B5046A026A22F480520262D3
:102590004268C3690D6823F4E64343EA05238D6866
:1025A00024F4005444EA0534064DA84204D14D6990
:1025B00022F4804242EA85124260C36149680164A4
:1025C000046230BD002C014070B50446006801690A
:1025D000E26821F44051114301612169A068084378
:1025E000616908432168CA6841F20C639A43024357
:1025F000CA6020684169A26921F4407111434161B8
:102600001E492068884202D1FEF766FC01E0FEF711
:1026100053FC00EBC00101EB0012606864218000F4
:10262000B2FBF0F3B3FBF1F36FF018067343B2FBA8
:10263000F0F5B2FBF0F605EB8305322303EB05154D
:10264000B5FBF1F5B6FBF1F605F0F00505EB061567
:10265000B2FBF0F6B2FBF0F0B0FBF1F06FF0180255
:10266000504306EB800003EB0010B0FBF1F0216853
:1026700000F00F002844886070BD00000038014061
:10268000FEE700000FB4054B10B503A9044A0298F9
:1026900000F050F910BC5DF814FB00000534000890
:1026A00090000020490050EAC12018BF04204A0DC4
:1026B00018BF40F0010040F2FF72B2EB515F08BF5B
:1026C00040F00200012808BF052070470907090EE5
:1026D000002804DB00F1E02080F80014704700F0CF
:1026E0000F0000F1E02080F8141D70472DE9F04143
:1026F0004F1E00EBC7010446D1E9000115461E46F6
:1027000037F006020DD02A463346FDF732FE7F1E13
:1027100004EBC703D3E90023FDF784FD37F006027D
:10272000F1D1022F25D0042F13D0062F18BFBDE8FA
:10273000F0812A463346FDF71CFED4E90A23FDF753
:1027400071FD2A463346FDF714FED4E90823FDF750
:1027500069FD2A463346FDF70CFED4E90623FDF752
:1027600061FD2A463346FDF704FED4E90423FDF754
:1027700059FD2A463346FDF7FCFDD4E90223FDF757
:1027800051FD2A463346FDF7F4FDD4E90023BDE8A8
:10279000F041FDF747BD0122FDF7E4BFFDF742BD63
:1027A000024A00201107FDF7DDBF000001FDFFFF19
:1027B00002E008C8121F08C1002AFAD1704770470A
:1027C000002001E001C1121F002AFBD17047000068
:1027D0002DE9FF5FDDE90220010DDDF838B002438D
:1027E00018D044F61050A1F2FF3141430D140F9858
:1027F000012820D0A5EB0B00401C5FEA000A4FF037
:102800000004474EDFF81C91A046504616D5CAF189
:10281000000728E00F98012443A2012808D00021D6
:1028200000980F9BC0E90021C0E90243BDE8FF9F6B
:102830006FEA0B01F4E7CBF10000DEE7074612E098
:10284000F80707D02246334640464946FDF791FD3A
:10285000804689462246334610461946FDF789FDD3
:1028600004460E467F10002FEAD1DDE90201BAF1DD
:10287000000F42464B4602DAFDF77BFD01E0FDF713
:10288000C0FE04460E460022284BFDF741FF03D848
:102890004FF0FF30014607E00022254B204631462D
:1028A000FDF7C0FCFDF71CFF102409E0002C0ADB3B
:1028B0000A220023FDF7F6FD019B30321A55641EF3
:1028C00050EA0102F2D1641C019AC4F111031444CC
:1028D0000F9A012A03D0012208430DD10AE00843D0
:1028E00004D000204FF0110B0F9080E7A3EB0B05F5
:1028F0006D1E0DE05B4504DD4FF0000205F10105A2
:1029000004E003DA4FF00002A5F10105002AECD043
:1029100000980F99C0E90231C0E9004586E7000040
:10292000000024400000F03F300000000000F043B1
:102930000000E03F2DE9FF4F95B09B4689460646D3
:1029400000250FE2252877D100242746F84A0121E7
:10295000059400E0044316F8013F203B01FA03F020
:102960001042F7D130782A2811D06FF02F03307839
:10297000A0F13002092A16D8059A44F0020402EBAD
:10298000820203EB42021044761C0590EFE759F8EF
:10299000042B0592002A03DA504244F400540590B7
:1029A00044F00204761C30782E2816D116F8010F58
:1029B00044F004042A280DD06FF02F023078A0F1E3
:1029C0003003092B09D807EB870302EB4303C71831
:1029D000761CF3E759F8047B761C30786C280FD00E
:1029E00006DC4C2817D068280DD06A2814D104E0E2
:1029F000742810D07A280FD10DE044F400140AE0B6
:102A000044F4801401E044F440147278824202D10C
:102A100004F58014761C761C307866280BD013DC05
:102A2000582877D009DC002875D04528F6D04628EC
:102A3000F4D047281AD19DE118E0632835D06428E6
:102A400079D0652812D195E1702873D008DC672809
:102A5000F1D069286FD06E280DD06F2806D1B5E06F
:102A600073282CD0752875D0782874D05A461799B9
:102A700090476D1C75E1C4F30250022809D0032869
:102A80000DD0D9F8001004280DD00D6009F104090B
:102A900067E1D9F80010EA17C1E90052F6E7D9F862
:102AA00000100D80F2E70D70F0E719F8041B8DF8A7
:102AB000001000208DF80100EA46012003E059F8DB
:102AC00004AB4FF0FF3061074FF0000102D40DE07E
:102AD00008F101018846B9420FDA8045F8DB1AF89F
:102AE00008100029F4D108E008F10101884681426C
:102AF000FADB1AF808100029F6D105985B46A0EB1E
:102B0000080721463846179A00F094FA284400EB4B
:102B1000080507E04DE029E10DE01AF8010B5A46DF
:102B200017999047B8F10108F7D25B46214638461D
:102B3000179A13E142E00A220092C4F302524FF0C6
:102B4000000A022A08D059F804CB032A4FEAEC7194
:102B50000AD00DE029E02AE009F1070121F007027F
:102B6000F2E802C1914609E00FFA8CFC4FEAEC71E1
:102B7000042A03D14FFA8CFC4FEAEC71002907DAE2
:102B80000A460021DCF1000C61EB02012D2202E07B
:102B9000220504D52B228DF80420012203E0E20750
:102BA00001D02022F7E7904659E00A2102E01022E6
:102BB0000DE010214FF0000A00910BE010224FF0C1
:102BC000000A44F004040827009203E008224FF0B2
:102BD000000A0092C4F30252022A05D059F804CB2D
:102BE0000021032A08D009E009F1070121F00702BA
:102BF000F2E802C1914605E01FFA8CFC042A01D1DB
:102C00000CF0FF0C4FF00008220728D5702806D0E2
:102C1000009B83F0100353EA0A0305D00EE0402224
:102C20008DF80420012208E05CEA010206D030227F
:102C30008DF804208DF8050002229046009B83F059
:102C4000080353EA0A030AD15CEA010201D16207D0
:102C500005D530228DF804204FF001087F1E58283A
:102C600004D034A003900EA802900DE036A0F9E73E
:102C700053466046009AFDF715FC84460398825C33
:102C80000298401E029002705CEA0100F0D10298A6
:102C900006A9081A00F1200A600702D524F480343E
:102CA00000E00127574502DDA7EB0A0000E0002005
:102CB00000EB0A01009005984144401A0590E0039A
:102CC00006D45B462146179A059800F0B3F90544EF
:102CD000002706E001A85A46C05D179990476D1C71
:102CE0007F1C4745F6DBE0030CD55B462146179A6F
:102CF000059800F09FF9054404E030205A461799E2
:102D000090476D1C0099481E00900029F5DC08E0F2
:102D1000029802995A460078491C029117999047E7
:102D20006D1CBAF10001AAF1010AF1DC65E10000B5
:102D30000928010030313233343536373839616291
:102D40006364656600000000303132333435363755
:102D500038394142434445460000000000F058F92C
:102D60000544761C307800287FF4ECAD19B0284675
:102D7000BDE8F08F620700D4062709F1070222F0B0
:102D8000070CFCE80223E14603F000485FEA080C68
:102D900002D00FF2702C0DE05FEA045C02D50FF256
:102DA000682C07E05FEAC47C02D00FF2602C01E0DF
:102DB000AFF2700C4FF0FF3823F00043CDF850C055
:102DC00065280CD006DC452809D046281DD04728A8
:102DD0003DD13DE0662818D067287ED138E000213B
:102DE000112F01DB112000E0781CCDE9000106A9BC
:102DF0000EA8FFF7EDFCDDE90F010E9A039100210B
:102E0000009207F1010A04914DE04FF00040009755
:102E1000CDE9011006A90EA8FFF7DAFCDDE90F02E3
:102E200003920E9B11990022DDF80CA000930492EE
:102E300011B9791C00EB010AB7EB0A0004D4C0F108
:102E4000FF3007F1010A0490AAEB0700019044E06B
:102E5000012F00DA01270021112F01DD112000E0F0
:102E60003846CDE9000106A90EA8FFF7B1FCDDE95F
:102E70000F010E9A0391002104910092BA46210796
:102E80000CD40399514500DA8A46BAF1010F05DDE9
:102E9000009AAAF10101515C302908D0B84202DA47
:102EA00010F1040F06DA0121CDE9011015E0AAF1B5
:102EB0000101E9E7002805DC049901440491AAEB2B
:102EC000000102E0411C514500DD8A460499401A88
:102ED000401C01904FF000400290200704D401985C
:102EE000504501DBCDF8048000208DF84F0002989A
:102EF0000DF14F07B0F1004F25D02B200E90029816
:102F00004FF0020800280CDA404202902D200E906B
:102F100007E00A210298FDF7AFFA3031029007F876
:102F2000011DB8F10001A8F10108F2DC02980028A7
:102F3000EFD1791E0E980870307800F0200040F034
:102F4000450007F8020D12A8C01B00F107081498ED
:102F5000007800B1012000EB0A01019801EBE0715B
:102F600005984144401A401E0590E00306D45B4694
:102F70002146179A059800F05DF8054414980078EA
:102F800018B15A46179990476D1CE00324D55B464B
:102F90002146179A059800F04DF805441CE0049866
:102FA000002807DBDDE90301884203DD0098405C6F
:102FB000179901E0179930205A469047049805F177
:102FC0000105401C04900198401E019004D12E2060
:102FD0005A46179990476D1CBAF10001AAF1010AEF
:102FE000DDDC05E017F8010B5A46179990476D1C78
:102FF000B8F10001A8F10108F4DC5B462146179AFC
:103000000598ABE62D0000002B000000200000001A
:103010002DE9F041044600251E461746880404D4D5
:1030200005E039462020B0476D1C641EF9D52846BE
:10303000BDE8F0812DE9F041044600251E4690468A
:10304000C80301D5302700E02027880404D505E017
:1030500041463846B0476D1C641EF9D52846BDE888
:10306000F08100002DE9F84F04460D4621F00040A4
:1030700000917349814211DC7249884201DC06D11A
:103080002CB120462946BDE8F84FFFF784BB6E48B7
:10309000002DCCBF6D496E49BDE8F88F6D49814266
:1030A00011DD6D498142D8BF4FF0FF366DDD2046FE
:1030B0002946FFF7F7FA042808BFFFF771FB2046FF
:1030C0002946BDE8F88F6549654F25F000458142E6
:1030D00033DD6449814219DD002632464FF08043DA
:1030E00020462946FDF79EF880468A460122204662
:1030F0002946FDF737FB00223B46FDF734F94246EF
:103100005346FDF77EFA04460D463EE001260022B6
:10311000BA463B4620462946FDF784F880460F46CE
:103120000022534620462946FDF71DF942463B46FC
:10313000FDF767FA04460D4627E04B4981421BDD47
:10314000DFF828A102260022534620462946FDF733
:1031500010F900223B46FDF765F880460F46002235
:10316000534620462946FDF7FEF842463B46FDF70A
:1031700048FA04460D4608E0032622462B46002066
:103180003B49FDF73EFA04460D4622462B461046C3
:103190001946FDF7EEF88B46824602460B46FDF7D0
:1031A000E8F807460246334888460B46062178442D
:1031B000FFF79CFA52465B46FDF7DBF882462E4845
:1031C0008B463A46434605217844FFF78FFA3A4644
:1031D0004346FDF7CEF802460B46002E50465946B0
:1031E0000CDAFDF71FF822462B46FDF7C2F801B0B6
:1031F00022462B46BDE8F04FFDF7B8B8FDF712F8B0
:1032000022462B46FDF7B5F81C4A7A4402EBC6036A
:10321000D3E90023FDF7A7F822462B46FDF7A3F8D4
:10322000174A7A4402EBC603D3E90023FDF79EF860
:10323000009A002AB8BF81F00041BDE8F88F000075
:10324000000010440000F07F182D4454FB21F93F8A
:10325000FB21F9BF0000DC3F0000203E0000F33FEF
:103260000000F03F0000E63F008003400000F83F10
:103270000000F0BFCE2200008C2200002A220000B5
:10328000F22100002DE9F04D9446CCF1000423F02A
:1032900000464CEA0404524F46EAD4749A468846E3
:1032A00021F00042BC4206D8454240EA050442EA09
:1032B000D474BC4204D9BDE8F04D6246FFF76EBA43
:1032C000AAF14055A5F17F6555EA0C040BD0022404
:1032D00004EAAA74434DDFF810E144EAD87452EAD4
:1032E000000B04D00CE0BDE8F04DFFF7BBBE002C96
:1032F00014BF012CBDE8F08D022C30D0032C32D04D
:1033000056EA0C0B0AD0BE4220D1BA4209D126F0AF
:10331000804622F080423346114617E000291ADB2E
:1033200025E0DFF8C8B0FB44002C04BFDBE9000156
:10333000BDE8F08D012C02BFDBE9000181F0004106
:10334000BDE8F08D022C0AD0032C0CD0BA4212D169
:10335000B8F1000F0BDA23482549BDE8F08D284667
:103360002449BDE8F08D28467146BDE8F08D1D4822
:103370002149BDE8F08D921B12153C2AC4BF1948A3
:103380001D490EDCBAF1000FBEBF12F13C0F002048
:10339000014606DB6246FDF734F921F00041FFF7F4
:1033A00061FE002C08BFBDE8F08D012C04BF81F048
:1033B0000041BDE8F08D114A114B022C07D0FCF7FB
:1033C000D2FF2A46BDE8F04D0A4BFCF7CCBFFCF714
:1033D000CAFF2A46BDE8F04D064BFCF7C7BF000008
:1033E0000000F07F182D4454FB2109C08621000005
:1033F000FB21F9BFFB210940FB21F93F075C143396
:1034000026A6A13C04490A685206FCD5024AC1B26C
:10341000121D116070470000004400402DE91C405F
:10342000BDF80000022140BA02B20020FEF714FEEF
:103430006846FEF781FA02460B4603A0FFF722F921
:103440000A2000F023F8EBE7353838336461746103
:103450003A25660D0A000000FDF7B6FBFEF7ACFF4B
:10346000FEF796FBFEF7E8FBFEF706FCFEF75CFCBA
:10347000FEF78EFCFEF7C0FCFEF7DAFC00F020F849
:10348000FEF75EFB00F038F8FEE7000010B5EFF342
:10349000058149B9EFF3108131B90849096802295A
:1034A00005D1EFF3118111B16FF0050403E00024A1
:1034B00008B100F0E3FD204610BD000064000020CC
:1034C000EFF3058058B9EFF3108040B90949086857
:1034D000022801D030B109E0EFF3118030B16FF074
:1034E0000500704701200860002070474FF0FF3052
:1034F000704700006400002010B5EFF3058060B94C
:10350000EFF3108048B90B490868022802D001285F
:1035100006D00BE0EFF3118040B16FF0050010BD55
:103520000220086000F012FE002010BD4FF0FF30B6
:1035300010BD000064000020F0B585B00B464FF0D0
:103540000004EFF305810394A1BBEFF3108189BB65
:1035500021490968022902D1EFF3118151BB48B317
:10356000802618218DF8104004AD42B3176807B1CA
:103570003D4697691FB139467F1E382F02D2177911
:10358000FF0702D0002005B0F0BD576907B1BE08A3
:10359000D2F808C0BCF1000F0DD0D4685C2C18D351
:1035A00012693AB137B18DE806103246294601F06A
:1035B00028F903900DE0D7685FB912694AB903AAE8
:1035C000CDE90012B2B2294601F0EEF8012800D090
:1035D00003940398D7E70000640000202DE9F04130
:1035E000134C0F46054666692068001D00F016FC66
:1035F000681C07D137B12168BDE8F0410D48091DAD
:1036000000F05CBC20683544B5424560216805D2B5
:10361000A068BDE8F041091D00F038BC6068091DD4
:1036200000F034FC206B854200D22563BDE8F081B8
:1036300014000020880700202DE9F041054600F025
:1036400049FC2D4C2069401C206120682B4F10B193
:10365000E06930B32BE025602069012827D10026DE
:1036600006EB860007EB800000F002FC761C382E8B
:10367000F6D3234800F0FCFB2148143000F0F8FB9F
:103680001F48283000F0F4FB1D483C3000F0F0FBF0
:103690001B48503000F0ECFB194860601430A0600B
:1036A00005E02068E96AC06A884200D82560E06ABF
:1036B000401CE0626864E86AA169884200D9A061A0
:1036C00000EB800007EB8000291D00F0F7FB00F005
:1036D00021FCE06900280CD02068E96AC06A8842B1
:1036E00007D208494FF080500860BFF34F8FBFF3F7
:1036F0006F8FBDE8F081000014000020D802002088
:103700003807002004ED00E038B500F0E3FB104C72
:10371000A068C8B90F4800F0ABFB0E48143000F0A9
:10372000A7FB0C482060143060600A4B002028334F
:10373000009003F1500210210A2000F0D9FDA06092
:1037400010B105A100F064FCBDE8384000F0E2BB18
:10375000500000209C070020546D725100000000B2
:1037600030B4026C0B46002A0BD0C1681144C16012
:103770004468A14201D30168C16030BC1846FCF71F
:103780002DBD30BC70472DE9F041856B17460446CE
:103790000026026C82B1C7B1E068FCF71FFDE1684A
:1037A000206C091AE1602268914202D26168081A0D
:1037B000E060022F16D017E02068A8B9606801F019
:1037C000C3F80646002060600EE0A068FCF706FD26
:1037D000216CA0680844A0606168884204D3206816
:1037E000A06001E005B16D1E6D1CA5633046BDE80B
:1037F000F08110B5044690F8590058B101280CD05A
:1038000002280FD0502080F31188BFF34F8FBFF3F1
:103810006F8FFEE7206B00F091FB2046BDE8104063
:1038200000F08CBB10BD000010484FF4406142070F
:1038300006D0C01D0D4920F00700411AC1F54061B6
:103840000B4A00230144C2E900030839103A21F071
:10385000070111604B600B600B1AC0E90013936005
:103860004FF000405360D060704700006C0F0020A4
:1038700078000020144E154CA6F29C474FF080585B
:10388000DFF84C9012E000BF00F024FBF068C56840
:10389000281D00F0C3FA2069401E2061E068401E28
:1038A000E06000F037FB2846FFF7A3FFE068002840
:1038B000EAD138680128F9D9C9F80080BFF34F8FE1
:1038C000BFF36F8FF2E700007407002014000020A0
:1038D00004ED00E070B51D46049C51B1C4F8002011
:1038E000C4E90F010121204600F036FD84F84C5058
:1038F00070BD2460F4E72DE9F0470E46DDE9098448
:103900001746824691009946089DA522206BFCF738
:1039100077FC6FF00301206B01EB8701084420F076
:103920000707780707D0502080F31188BFF34F8F27
:10393000BFF36F8FFEE72218315C82F83410315CE0
:1039400011B1401C1028F6D3002684F84360382DAE
:1039500000D33725E562C4E91356201D00F093FA21
:1039600004F1180000F08FFA2461C5F13800646298
:10397000A061666584F858604A465146384600F0B2
:103980003BFA2060B8F1000F01D0C8F80040BDE854
:10399000F087000030B5114900E011460A68824204
:1039A000FBD34B685C18844203D1406818444860DC
:1039B000084643681C18944209D1084C103C2468FE
:1039C000A24209D052681A4442600A681268026032
:1039D000814200D0086030BD0460F9E77800002023
:1039E00070B5002441600B4D0061914206D8D11A98
:1039F0008269914206D2011D686807E09A4203D2AB
:103A0000994201D3012403E0011D286800F03EFA29
:103A1000204670BD5000002010B5044600F05AFA50
:103A2000A06B28B15FF0000400F074FA204610BDCE
:103A30000124F9E730B589B0304D55E004980028ED
:103A400006DADDE90601059A9047049800284BDB69
:103A5000069C606910B1201D00F0E0F902A800F09A
:103A6000B9F8024604980A283ED2DFE800F00505BE
:103A7000053D263705053D260598A1690346014405
:103A80002046FFF7ADFF00B3616A20468847E06932
:103A9000012829D1002000900598A169002342182F
:103AA0001946204601F05AF878B9502080F3118861
:103AB000BFF34F8FBFF36F8FFEE70598A06128B16A
:103AC000811813462046FFF78BFF0DE0502080F34E
:103AD0001188BFF34F8FBFF36F8FFEE794F82C0070
:103AE00010B9204600F02AFA002204A9A86800F0C4
:103AF00085FD0028A2D109B030BD00005000002093
:103B00002DE9FC410F46054600F064FB01A800F0DA
:103B100061F80446019818B100F08EFFBDE8FC8101
:103B2000224EAFB170680068A8B30027291B3A463F
:103B3000B06800F081FA00F07FFF0028EED11C4948
:103B40004FF080500860BFF34F8FBFF36F8FE5E7F2
:103B5000A542EBD800F070FF30682746C068C46803
:103B6000201D00F05BF9E069012810D1A0692B4607
:103B700041193A462046FFF733FF40B10020034683
:103B8000014600902A46204600F0E8FF20B1616A15
:103B900020468847C2E707E0502080F31188BFF332
:103BA0004F8FBFF36F8FFEE70127BFE75000002064
:103BB00004ED00E006484168096829B14168C96818
:103BC000C9684968016370474FF0FF31FAE70000A8
:103BD0001400002070B5054600F04CFE064E044669
:103BE0003069844203D200F009F8012000E000208F
:103BF00028602046346170BD50000020F8B5194D92
:103C00001FE0C068C4680668201D00F007F9616AFB
:103C100020468847E069012813D1A0693044B042AA
:103C200006D924616060211D286800F02FF908E0A2
:103C300000200346014600903246204600F08EFFE9
:103C400038B1286801680029DBD16968C5E900102E
:103C5000F8BD502080F31188BFF34F8FBFF36F8FF3
:103C6000FEE700005000002008484068401C4FF06C
:103C7000500080F3118804D0BFF34F8FBFF36F8FD4
:103C8000FEE7BFF34F8FBFF36F8FFEE7800000208A
:103C9000074C2068016841B1C0680021D0F80000DD
:103CA000FFF72EFFFFF7C6FEF3E701210020F7E73D
:103CB000500000202DE9F041044600F00BF994F982
:103CC000455004F1240609E0606A48B1304600F02E
:103CD0007BFE08B100F000FA6D1E6DB2002DF3DC22
:103CE0004FF0FF3684F8456000F014F900F0F2F868
:103CF00094F9445004F1100709E0206948B13846AE
:103D000000F062FE08B100F0E7F96D1E6DB2002D03
:103D1000F3DC84F84460BDE8F04100F0FBB800003B
:103D20002DE9F0410546002700F054FA314E306885
:103D300008B9FFF779FDF06805424BD1C5B30835E6
:103D400068070ED005F00700C0F1080005446807B9
:103D500007D0502080F31188BFF34F8FBFF36F8FD0
:103D6000FEE72DB37068854234D8224810300146F2
:103D70000C6801E020460C466168A94202D2216825
:103D80000029F7D131688C4224D00768216801608E
:103D900060680837411B10290FD96019420708D005
:103DA000502080F31188BFF34F8FBFF36F8FFEE772
:103DB00010E041606560FFF7EDFD61687068401AD2
:103DC0007060B268904200D2B060F0680143002099
:103DD000C4E9000100F030FE780707D0502080F3DE
:103DE0001188BFF34F8FBFF36F8FFEE73846BDE8F2
:103DF000F08100006800002010B5031F4FF08074B0
:103E00001C601B1F21F001011960191F024B0B6080
:103E1000143940380A6010BD693C0008D0E901320D
:103E200001699A60D0E901235A604A68824201D14F
:103E300082684A60002202610868401E08600868C3
:103E400070470000034B036003F15C0008608020B2
:103E500010607047B4080020044B036003F15C005D
:103E600008604FF48070106070470000100B002055
:103E700000F108014FF0FF32C0E90112C160016199
:103E800000210160704700210161704730B50B6867
:103E90005A1C02D000F1080202E0026904E0224646
:103EA000546825689D42FAD953684B6099608A60CE
:103EB000516008610168491C016030BD42684A6078
:103EC00093688B6093685960916008610168491C30
:103ED00001607047502080F31188BFF34F8FBFF30C
:103EE0006F8F0A494868401C486001280CD1084877
:103EF000006810F0FF0F07D0502080F31188BFF347
:103F00004F8FBFF36F8FFEE77047000080000020E7
:103F100004ED00E00849486828B1401E486001D11E
:103F200080F311887047502080F31188BFF34F8FC2
:103F3000BFF36F8FFEE700008000002070B50028FF
:103F400027D0144DA0F108046168E868014207D148
:103F5000502080F31188BFF34F8FBFF36F8FFEE7C0
:103F600022683AB1502080F31188BFF34F8FBFF31E
:103F70006F8FFEE78143616000F02CF9606869682B
:103F8000084468602046FFF705FDBDE8704000F07A
:103F900053BD70BD680000204FF0E020002101619A
:103FA000816105494FF47A720968B1FBF2F1491E4B
:103FB00041610721016170471000002010B5FCF736
:103FC000E7F8114910280ED300F1E02090F8F00333
:103FD0000A78904207D2502080F31188BFF34F8FA8
:103FE000BFF36F8FFEE709480068896800F4E0605E
:103FF000884207D9502080F31188BFF34F8FBFF359
:104000006F8FFEE710BD0000800000200CED00E087
:1040100010B5084B002200BF53F832401CB1521CAF
:10402000082AF9D310BD43F8321003EBC2014860EF
:1040300010BD00009802002070B515460E460446DB
:10404000FFF748FF94F944100020491C01D184F87F
:10405000440094F94510491C01D184F84500FFF74C
:1040600059FFA06B28B92A46314604F1240000F01C
:1040700051F82046BDE87040FFF71CBE10B50200A5
:1040800014D00F48806B38B1502080F31188BFF3F3
:104090004F8FBFF36F8FFEE700F09CF800211046B2
:1040A000FFF79CFA00F0C8FC002807D105494FF043
:1040B00080500860BFF34F8FBFF36F8F10BD0000BB
:1040C0001400002004ED00E002498A6A0260496998
:1040D0004160704714000020014901204862704788
:1040E0001400002010B50C4650B109490968183178
:1040F000FFF7CCFE2046BDE810400121FFF76EBA65
:10410000502080F31188BFF34F8FBFF36F8FFEE70E
:104110001400002070B514460D4668B10A490968BC
:104120001831FFF7CBFE0CB14FF0FF352146284682
:10413000BDE87040FFF752BA502080F31188BFF3FA
:104140004F8FBFF36F8FFEE71400002030B587B0AC
:104150000024039405AA04A903A80494FFF772FE9F
:10416000DDE903010094CDE90110002315A11748F2
:10417000059A00F046FB164D002868631FD000F03A
:10418000BDFC012809D0401C19D1502080F31188B2
:10419000BFF34F8FBFF36F8FFEE7502080F311887E
:1041A000BFF34F8FBFF36F8F4FF0FF3028630120B5
:1041B000E8616C6107B0BDE8304000F045B807B079
:1041C00030BD000049444C4500000000753800082F
:1041D000140000200248816B491C81637047000075
:1041E00014000020164810B5816B11B10121416205
:1041F00010BD002141628169124A01E0B9B1491E36
:1042000001EB810352F82330002BF7D001EB81033F
:1042100002EB830202F1080453685B685360A34217
:1042200001D15B685360DA680260816110BD502083
:1042300080F31188BFF34F8FBFF36F8FFEE700004D
:1042400014000020D80200201CB5264908780190EF
:10425000FF20087008788DF800009DF800009DF898
:10426000002000F0F000904207D0502080F3118829
:10427000BFF34F8FBFF36F8FFEE79DF800001A4B1F
:1042800000F0500018700720986005E09DF80020AD
:1042900052008DF80020401E9DF800201206F5D433
:1042A0009860032807D0502080F31188BFF34F8F08
:1042B000BFF36F8FFEE74FF440709860019808706D
:1042C0000A48016841F470010160016841F07041E1
:1042D0000160FFF761FE00205860FBF723FF00201C
:1042E0001CBD000000E400E08000002020ED00E0A4
:1042F00038B5049D18B153B1CAB181B120E0502046
:1043000080F31188BFF34F8FBFF36F8FFEE750200C
:1043100080F31188BFF34F8FBFF36F8FFEE75020FC
:1043200080F31188BFF34F8FBFF36F8FFEE739B172
:10433000502080F31188BFF34F8FBFF36F8FFEE7DC
:1043400050241C46012384F846302B460094FFF786
:10435000C1FA204638BD000070B50D46040025D0D6
:10436000FFF7B8FDD4E90F20216802FB001161605E
:104370000021A1632168A1600A46D4E90F01401E13
:1043800000FB0121E16021464FF0FF3001F8440FAE
:10439000487004F110008DB1FFF76AFD04F12400AC
:1043A000FFF766FDFFF7B6FD012070BD502080F3DA
:1043B0001188BFF34F8FBFF36F8FFEE7216900298C
:1043C000F0D000F001FB0028ECD004494FF0805001
:1043D0000860BFF34F8FBFF36F8FE3E704ED00E09A
:1043E0002DE9FF4782B01D468A464FF000080400C1
:1043F00003D0BAF1000F08D011E0502080F31188EB
:10440000BFF34F8FBFF36F8FFEE7206C38B15020A2
:1044100080F31188BFF34F8FBFF36F8FFEE7022D3C
:104420000AD1E06B012807D0502080F31188BFF338
:104430004F8FBFF36F8FFEE700F00EFA3F4F4FF044
:1044400000094FF0805648B9049838B1502080F3E5
:104450001188BFF34F8FBFF36F8FFEE7FFF73AFD71
:10446000A06BE16B884207D3022D05D00498D0B130
:10447000B8F1000F1AD01EE02A4651462046FFF739
:1044800082F9616A19B104F1240000F09DFA20B1AB
:104490003E60BFF34F8FBFF36F8FFFF73BFD0120EF
:1044A00006B0BDE8F087FFF735FD22E06846FFF76C
:1044B0000BFE4FF00108FFF72DFDFFF78BFEFFF716
:1044C00009FD94F94400401C01D184F8449094F90A
:1044D0004500401C01D184F84590FFF71BFD04A95D
:1044E000684600F027F930B12046FFF7E3FB00F003
:1044F000A3FA0020D4E7FFF7EDFCA06BE16B884244
:1045000013D1FFF707FD04F110000499FFF7EAFD4E
:104510002046FFF7CFFB00F08FFA00289ED13E60C7
:10452000BFF34F8FBFF36F8F98E7FFF7F3FC204681
:10453000FFF7C0FB00F080FA90E7000004ED00E018
:104540002DE9F0471F4690468946040003D0B9F193
:10455000000F08D011E0502080F31188BFF34F8F77
:10456000BFF36F8FFEE7206C38B1502080F31188C5
:10457000BFF34F8FBFF36F8FFEE7022F0AD1E06BBF
:10458000012807D0502080F31188BFF34F8FBFF36D
:104590006F8FFEE7FFF712FD5020EFF3118680F3D7
:1045A0001188BFF34F8FBFF36F8FA06BE16B884211
:1045B00006D3022F04D0002086F31188BDE8F087CF
:1045C00094F945503A4649462046FFF7DCF8681C06
:1045D00004D06D1C84F845500120EDE7606A002886
:1045E000FAD004F1240000F0EFF90028F4D0B8F17B
:1045F000000FF1D00121C8F80010EDE72DE9F747D1
:10460000002683B08A46040003D0BAF1000F08D018
:1046100011E0502080F31188BFF34F8FBFF36F8FED
:10462000FEE7206C38B1502080F31188BFF34F8F24
:10463000BFF36F8FFEE700F00FF9DFF8F4804FF063
:1046400000094FF0805748B9059838B1502080F3E1
:104650001188BFF34F8FBFF36F8FFEE7FFF73AFC70
:10466000A56BC5B151462046FFF77AF86D1EA563CC
:10467000206950B104F1100000F0A6F928B1C8F883
:104680000070BFF34F8FBFF36F8FFFF743FC012024
:1046900006B0BDE8F087059808B11EB106E0FFF747
:1046A00039FC27E06846FFF70FFD0126FFF732FCD3
:1046B000FFF790FDFFF70EFC94F94400401C01D178
:1046C00084F8449094F94500401C01D184F8459049
:1046D000FFF720FC05A9684600F02CF800282046CA
:1046E0000AD0FFF7E7FA00F0A7F92046FFF794F9A0
:1046F0000028B3D00020CBE7FFF78EF990B104F18A
:1047000024000599FFF7EEFC2046FFF7D3FA00F0EE
:1047100093F90028A2D1C8F80070BFF34F8FBFF300
:104720006F8F9BE72046FFF7C5FA00F085F995E704
:1047300004ED00E02DE9F0410C46050011D0C4B1B4
:10474000FFF7C8FB174B5A696E682068911B471C1E
:1047500017D02F689B6A9F4219D0964217D8012420
:1047600010E0502080F31188BFF34F8FBFF36F8F9D
:10477000FEE7502080F31188BFF34F8FBFF36F8F98
:10478000FEE70024FFF7C6FB2046BDE8F081884223
:1047900005D9401A20602846FFF796FCF1E7002073
:1047A0002060DCE7140000202DE9FF5F8346DDE98F
:1047B0000E87994616468A469000FFF7B1FA050023
:1047C0001CD05C20FFF7ACFA040014D00020256355
:1047D00084F85900CDE90240CDE900874B463246C6
:1047E00051465846FFF787F82046FEF725FF01207F
:1047F00004B0BDE8F09F2846FFF7A0FB4FF0FF3064
:10480000F6E7F0B585B0DDE90B640A9DA6B1DCB131
:104810005C2700972663022684F85960002604AFBF
:10482000CDE90246CDE90057FFF765F82046FEF7CF
:1048300003FF049805B0F0BD502080F31188BFF34A
:104840004F8FBFF36F8FFEE7502080F31188BFF3C7
:104850004F8FBFF36F8FFEE70548C16919B1806BB9
:1048600018B10020704701207047022070470000F7
:104870001400002001484069704700001400002027
:104880002DE9F0412E4C0027A06B40B1206A401C5E
:104890002062606A00B101273846BDE8F081666990
:1048A000761C666113D16068006838B1502080F3CF
:1048B0001188BFF34F8FBFF36F8FFEE76068A16869
:1048C0006160A060A06A401CA062FFF773F9206BD2
:1048D000DFF87080864209D36068006880B1606844
:1048E000C068C568686886420DD220632068C06AC7
:1048F00000EB800158F821000128CAD90127C8E738
:104900004FF0FF30F1E7281DFFF788FAA86A18B1C9
:1049100005F11800FFF782FAE86AA169884200D918
:10492000A06100EB800108EB8100291DFFF7C6FAAA
:10493000E86A2168C96A8842CED30127CCE7000023
:1049400014000020D802002070B504004FF00001D0
:1049500033D01B4D2868844207D0502080F3118843
:10496000BFF34F8FBFF36F8FFEE7206D38B1401E4E
:104970002065E36CE26A9A421FD040B11DE05020EE
:1049800080F31188BFF34F8FBFF36F8FFEE7201DB9
:10499000FFF744FAE06CE062C0F13800A061E06A21
:1049A000A969884200D9A861064900EB800001EBA3
:1049B0008000211DFFF782FA0121084670BD00002A
:1049C00014000020D802002070B5C068C46854B13B
:1049D00004F118000646FFF721FA144DA86B50B1F8
:1049E0003146134815E0502080F31188BFF34F8FF4
:1049F000BFF36F8FFEE7201DFFF710FAE06AA96989
:104A0000884200D9A8610B4900EB800001EB8000CF
:104A1000211DFFF753FAE06A2968C96A884202D962
:104A20000120686270BD002070BD000014000020ED
:104A300060070020D80200202DE9F0472C4D00240B
:104A40002746A86B38B1FFF745FAA86B401EA8634C
:104A5000A86B40B146E0502080F31188BFF34F8F20
:104A6000BFF36F8FFEE72969224E0120D1B3A6F56F
:104A7000916980463068E0B1F068C46804F11800BC
:104A8000FFF7CCF9201DFFF7C9F9E06AA969884250
:104A900000D9A86100EB800109EB8100211DFFF71F
:104AA0000DFAE06A2968C96A8842E3D3C5F8248010
:104AB000E0E70CB1FFF77EF82C6A4CB14FEA08062C
:104AC000FFF7DEFE00B16E62641EF9D1002028629D
:104AD000686A38B10849012738070860BFF34F8F6B
:104AE000BFF36F8FFFF716FA3846BDE8F087000076
:104AF000140000206007002004ED00E010B586B02F
:104B0000FEF702FE114CA068B8B10020039004909B
:104B100005AA04A903A8FFF79FF9DDE903210220F4
:104B20008DE8070000230AA10B48059AFFF769FEEC
:104B3000E06010B106B0012010BD502080F3118854
:104B4000BFF34F8FBFF36F8FFEE7000050000020D0
:104B5000546D722053766300913C00082DE9FF41AB
:104B60001E46134602000A9D4FF0000016D0144C5A
:104B7000A768002F0FD0CDE900130292062917DA9B
:104B8000FFF76AFE02284FF000030FD000226946AB
:104B9000A068FFF725FC04B0BDE8F081502080F349
:104BA0001188BFF34F8FBFF36F8FFEE72A46EEE702
:104BB0000023324669463846FFF7C2FCEBE70000A7
:104BC00050000020B8540008000000000000000061
:104BD00000000000000000000002000018000000BB
:104BE00000000000000000000102020304050607A7
:104BF00008090A0B0C0D0E0F101000000000000039
:104C00000000010203040607080900000000010279
:104C1000030400000000000000000000000000008D
:104C2000000000FE020202020202003F20202020BB
:104C30002020000000000000000000000000000034
:104C4000000000FE020202020202003F202020209B
:104C5000202000FE020202020202003F202020204B
:104C6000202000FE020202020202003F202020203B
:104C7000202000FE020202020202003F202020202B
:104C8000202000FE020202020202003F202020201B
:104C9000202000FE020202020202003F202020200B
:104CA00020200000000000000000000000000000C4
:104CB00000000000000000000000000000000000F4
:104CC00000000000000000000000000000000000E4
:104CD000000000FE020202020202003F202020200B
:104CE000202000FE020202020202003F20202020BB
:104CF000202000FE020202020202003F20202020AB
:104D0000202000FE020202020202003F202020209A
:104D1000202000FE020202020202003F202020208A
:104D2000202000FE020202020202003F202020207A
:104D3000202000FE020202020202003F202020206A
:104D4000202000FE020202020202003F202020205A
:104D5000202000FE020202020202003F202020204A
:104D6000202000FE020202020202003F202020203A
:104D7000202000FE020202020202003F202020202A
:104D8000202000FE020202020202003F202020201A
:104D9000202000FE020202020202003F202020200A
:104DA000202000FE020202020202003F20202020FA
:104DB000202000FE020202020202003F20202020EA
:104DC000202000FE020202020202003F20202020DA
:104DD0002020000000000000000000000000000093
:104DE00000000000000000000000000000000000C3
:104DF00000000000000000000000000000000000B3
:104E000000000000000000000000000000000000A2
:104E10000000000000000000000000000000000092
:104E20000000000000F80000000000000033000057
:104E3000000000100C02100C020000000000000036
:104E400000000040C07840C0780000043F04043FE8
:104E5000040000708888FC08300000182020FF2122
:104E60001E00F008F0806018000000310C031E21C5
:104E70001E0000F00888700000001E21232C192756
:104E8000211000120E0000000000000000000000D1
:104E90000000000000E018040200000000071820D5
:104EA000400000020418E000000000402018070045
:104EB0000000404080F0804040000202010F0102EB
:104EC000020000000000E0000000000101010F01ED
:104ED00001010000000000000000009070000000D0
:104EE00000000000000000000000000101010101BD
:104EF0000100000000000000000000303000000051
:104F0000000000000000C038040000601807000026
:104F1000000000E010080810E000000F1020201032
:104F20000F0000001010F8000000000020203F20BB
:104F30002000007008080808F00000302824222112
:104F40003000003008080888700000182021212255
:104F50001C000000804030F8000000060524243FBB
:104F6000242400F8888888080800001920202011CF
:104F70000E0000E0108888900000000F1120202013
:104F80001F0000180808886818000000003E010093
:104F900000000070880808887000001C222121226F
:104FA0001C0000F008080810E00000011222221185
:104FB0000F00000000C0C000000000000030300002
:104FC00000000000008000000000000000E0000081
:104FD00000000000804020100800000102040810BA
:104FE0002000004040404040400000020202020217
:104FF0000200000810204080000000201008040279
:105000000100007048080888700000000030370078
:105010000000C030C828E810E000071827282F2813
:1050200017000000C038E0000000203C23020227E7
:10503000382008F8888888700000203F2020201140
:105040000E00C0300808080838000718202020107B
:10505000080008F808080810E000203F2020201071
:105060000F0008F88888E8081000203F202023203F
:10507000180008F88888E8081000203F2000030086
:105080000000C03008080838000007182020221E41
:10509000020008F808000008F808203F210101215B
:1050A0003F20000808F8080800000020203F2020CA
:1050B000000000000808F8080800C08080807F0019
:1050C000000008F888C028180800203F2001263872
:1050D000200008F8080000000000203F20202020C9
:1050E000300008F8F800F8F80800203F013E013FC2
:1050F000200008F830C00008F808203F20000718FA
:105100003F00E01008080810E0000F1020202010D9
:105110000F0008F808080808F000203F21010101ED
:105120000000E01008080810E0000F102828305098
:105130004F0008F8888888887000203F2000030C02
:10514000302000708808080838000038202121220B
:105150001C00180808F8080818000000203F20006C
:10516000000008F808000008F808001F2020202090
:105170001F000878880000C83808000007380E01B2
:10518000000008F800F800F8080000033E013E03A4
:105190000000081868808068180820302C03032C51
:1051A00030200838C800C83808000000203F200020
:1051B000000010080808C8380800203826212020E0
:1051C0001800000000FE020202000000007F4040C4
:1051D0004000000438C00000000000000001063854
:1051E000C00000020202FE000000004040407F00BC
:1051F00000000000040202040000000000000000A3
:10520000000000000000000000008080808080809E
:105210008080000202040000000000000000000086
:105220000000000080808000000000192424123F4C
:10523000200010F0008080000000003F11202011AD
:105240000E000000008080800000000E1120202051
:105250001100000080808090F000001F20202010AE
:105260003F200000808080800000001F2424242430
:105270001700008080E0909020000020203F202038
:1052800000000000808080808000006B94949493E4
:10529000600010F0008080800000203F210000208E
:1052A0003F2000809898000000000020203F202030
:1052B0000000000000809898000000C08080807F7F
:1052C000000010F0000080808000203F240629307C
:1052D0002000001010F8000000000020203F2020D7
:1052E00000008080808080808000203F20003F2060
:1052F000003F8080008080800000203F210000204F
:105300003F200000808080800000001F202020209F
:105310001F00808000808000000080FF912020110D
:105320000E000000008080008000000E11202091FF
:10533000FF80808080008080800020203F2120002E
:105340000100000080808080800000332424242419
:105350001900008080E0808000000000001F2020F5
:1053600010008080000000808000001F202020109E
:105370003F20808080008080800000030C300C0380
:1053800000008080008080008080010E300C073893
:10539000060100808080008080000020310E2E31C8
:1053A0002000808080000080808000818678180640
:1053B000010000808080808080000021302C22212C
:1053C00030000000000000FC020200000000013E6E
:1053D000404000000000FF00000000000000FF004F
:1053E00000000202FC000000000040403E010000FE
:1053F00000000002010202040200000000000000A0
:10540000000000000000000000000000000000009C
:1054100000000000000000004FBB610567ACDD3FED
:10542000182D4454FB21E93F9BF681D20B73EF3FCB
:10543000182D4454FB21F93FE2652F227F2B7A3C43
:10544000075C143326A6813CBDCBF07A8807703CFC
:10545000075C143326A6913CC4EB98999999C9BF6F
:10546000711623FEC671BCBF6D9A74AFF2B0B3BFA4
:105470009AFDDE522DDEADBF2F6C6A2C44B4A2BF64
:105480000D5555555555D53FFF8300922449C23FD0
:105490006E204CC5CD45B73F513DD0A0660DB13F04
:1054A000EB0D76244B7BA93F11DA22E33AAD903F16
:1054B000000000000000000064656661756C7454B3
:1054C00061736B00E45400080000002094000000A9
:1054D000B02700087855000894000020DC1E00006A
:1054E000C0270008000000000100000010000000BC
:1054F000000000000024F400000000000000000094
:10550000000000000000000000000000000000009B
:10551000000000000000000000000000000000008B
:10552000000000000000000000000000000000007B
:10553000000000000000000000000000000000006B
:10554000000000000000000000000000000000005B
:10555000000000000000000000000000000000004B
:105560000000000000000000AAAAAAAA0000000093
:08557000020000000000000031
:04000005080000ED02
:00000001FF
