:020000040800F2
:10000000982A0020990100087B240008932000080A
:1000100079240008130900080D2C000800000000D6
:1000200000000000000000000000000001010008C6
:10003000150900080000000045010008812700089C
:10004000B3010008B3010008B3010008B3010008C0
:10005000B3010008B3010008B3010008B3010008B0
:10006000B3010008B3010008B3010008B3010008A0
:10007000B3010008B3010008B3010008B301000890
:10008000B3010008B3010008B3010008B301000880
:10009000B3010008B3010008B3010008B301000870
:1000A000B3010008B3010008B3010008B301000860
:1000B000B301000801280008B3010008B3010008DB
:1000C000B3010008B3010008B3010008B301000840
:1000D000B3010008E92B0008F52B0008012C0008EB
:1000E000B3010008B3010008B3010008DFF80CD029
:1000F00000F0CEFB0048004725580008982A002051
:10010000224B19680868B0E8F00F80F30988BFF344
:100110006F8F4FF0000080F311884EF00D0E704786
:100120000000000006480068006880F3088862B696
:1001300061B6BFF34F8FBFF36F8F00DF00BF00BF0B
:1001400008ED00E0EFF30980BFF36F8F0F4B1A68E3
:1001500020E9F00F106008B54FF0500080F31188CF
:10016000BFF34F8FBFF36F8F06F0C6FB4FF0000059
:1001700080F31188BDE8084019680868B0E8F00FFE
:1001800080F30988BFF36F8F704700BF2000002005
:10019000EFF3058070470000064880470648004797
:1001A000FEE7FEE7FEE7FEE7FEE7FEE7FEE7FEE727
:1001B000FEE7FEE7FD270008ED0000082DE9F05FEF
:1001C0000546002092469B468846064681464024C6
:1001D0001BE0284641464746224600F020F8534699
:1001E0005A46C01A914110D311461846224600F0D3
:1001F0006AFA2D1A67EB01084F46224601200021BA
:1002000000F061FA17EB00094E41201EA4F1010431
:10021000DFDC484631462A464346BDE8F09F202AA7
:1002200004DB203A21FA02F00021704721FA02F3A0
:10023000D040C2F12002914008431946704740EA7D
:1002400001039B0703D009E008C9121F08C0042A54
:10025000FAD203E011F8013B00F8013B521EF9D23B
:100260007047D2B201E000F8012B491EFBD2704763
:100270000022F6E710B513460A4604461946FFF772
:10028000F0FF204610BD034611F8012B00F8012BAA
:10029000002AF9D11846704780EA010210B502F031
:1002A0000043400022D04A001FD0010E01EB126132
:1002B000C0F35600C2F3560240F4000042F40002BC
:1002C000A0FB022000047F39140400D0401C50EA37
:1002D000124001D44000491EC2B20C0604EBD010FB
:1002E000401C4008802A02D003E0002010BD20F00E
:1002F0000100002900DA0020184310BD30B480EA64
:10030000010202F0004530F0004221F0004013D01D
:1003100090B1C30DD40DC2F31601C0F31600E41A58
:1003200041F4000140F400027D34914201D3641C89
:1003300000E04900002C02DA30BC002070474FF486
:1003400000000023914201D3891A034340084FEA79
:100350004101F7D151B1914202D14FF0004105E086
:1003600002D24FF0010101E06FF0010103EBC45034
:10037000284430BC00F0C8B92DE9FE4F804681EA20
:100380000300C00F0C46009021F0004123F000450F
:10039000B8EB0200A94105D24046214690461C46D2
:1003A0000B46024623F00040104347D0270DC7F309
:1003B0000A00C3F30A510290401A019040286BDAF8
:1003C000C3F3130040F4801B0098924620B1002331
:1003D000D2EB030A63EB0B0B01985946C0F14002C4
:1003E000504600F070F906460D4650465946019AAF
:1003F00000F078F910EB08006141002487EA1152FF
:1004000084EAE7731A4340D0009A62B3019A012A42
:100410004FEA075215DC001B61EB02014FF000426E
:1004200002EA0752CDE90042001C41F58011324634
:100430002B4600F0AFF903B0BDE8F08F40462146EF
:10044000F9E7001B61EB0201001C41F58013001865
:100450005B412018A2F5001747EB030140EAD57075
:10046000B6196D4111E06D084FEA360645EAC075D0
:100470004FEA0752001B61EB0201001C41F580119D
:1004800049084FEA30000019514132462B4603B06B
:10049000BDE8F04F00F06FB9009801224000002342
:1004A000D0EB020263EBE073009821464FEAE07460
:1004B000B8EB000061EB0401E9E783F000435BE780
:1004C00081F0004158E72DE9FE4F81EA030404F072
:1004D000004421F0004100944FF0000B23F0004352
:1004E00050EA01045ED052EA03045BD0C3F30A541D
:1004F000C1F30A552C44A4F2F3340194A0FB025436
:10050000C1F3130141F48011C3F3130343F48013C7
:1005100001FB024400FB034E840A970A44EA81541B
:1005200047EA8357A4FB076802958D0A05FB0785F8
:100530004FEA932C04FB0C542705029D4FEA065802
:1005400047EA1637B5EB08056EEB070C870E920EDF
:1005500047EA811742EA8312A7FB0201B6EB0B01BF
:1005600064EB00042B0D43EA0C335E1844EB1C5083
:10057000DA465146E7FB0201C5F313044FEA0B3399
:1005800043EA14534FEA0432019C43EA0603A4F100
:100590000C040294009CCDE900B400F0FBF803B019
:1005A000BDE8F08F00200146F9E72DE9F04D81EA22
:1005B000030404F0004B21F0004514464FF0000AFC
:1005C00023F0004150EA050220D054EA01021DD078
:1005D000C5F30A570246C5F31303C1F31300C1F371
:1005E0000A5640F4801543F48013A7EB0608101B4D
:1005F000D64608F2FD3873EB050002D308F1010876
:1006000001E092185B41B8F1000F03DA00200146C7
:10061000BDE8F08D00204FF48011064684460EE0C0
:10062000171B73EB050705D3121B63EB050306438A
:100630004CEA010C49084FEA300092185B4150EA3D
:100640000107EDD152EA030012D082EA040083EAE6
:100650000501084305D0101BAB4106D2012200233F
:1006600006E000224FF0004302E06FF00102531059
:100670001AEB06004CEB085110EB0A0041EB0B01A2
:10068000BDE8F04D00F077B8C10F80EAE070084493
:10069000CA079623002100F040B830B50B4601464A
:1006A00000202022012409E021FA02F59D4205D311
:1006B00003FA02F5491B04FA02F52844151EA2F1BB
:1006C0000102F1DC30BD202A04DB203A00FA02F1FD
:1006D000002070479140C2F1200320FA03F3194330
:1006E00090407047202A06DBCB17203A41FA02F0EF
:1006F00043EAE07306E041FA02F3D040C2F120027F
:1007000091400843194670470029A8BF7047401C14
:10071000490008BF20F00100704710B4B0FA80FC17
:1007200000FA0CF050EA010404BF10BC704749B154
:10073000CCF1200421FA04F411FA0CF118BF0121C4
:1007400021430843A3EB0C01CB1D4FEA00614FEAA4
:10075000102042BF002010BC704700EBC350104473
:100760000029A4BF10BC7047401C490008BF20F0FE
:10077000010010BC704710B5141E73F1000408DAB4
:10078000401C41F1000192185B411A4301D120F055
:10079000010010BD2DE9F04D92469B4611B1B1FA12
:1007A00081F202E0B0FA80F220329046FFF78BFF30
:1007B00004460F4640EA0A0041EA0B0153465A46F6
:1007C000084313D0114653EA010019D0C8F1400282
:1007D0005046FFF724FD05460E4650465946424610
:1007E000FFF771FF084305D0012004E02046394699
:1007F000BDE8F08D0020054346EAE0762C43374300
:100800000A986305E40AA0EB08000022FD0A44EA06
:1008100047540A3002D500200146E9E701051019C6
:100820006941DDE9084500196941BDE8F04DA2E7DD
:10083000C1F30A52C1F3130140F2FF3341F48011B6
:100840009A4202DA00200146704740F233439A424E
:10085000A2F2334202DC5242FFF7E1BCFFF733BFA2
:1008600030B5041E71F1000404DB4FF00044404237
:1008700064EB0101141E73F1000405DB1C464FF00C
:100880000043524263EB0403994208BF904230BDDB
:10089000064C074D06E0E06840F0010394E80700CD
:1008A00098471034AC42F6D3FFF724FCB07300082D
:1008B000D073000870B58D1810F8014B14F00302C6
:1008C00001D110F8012B231106D110F8013B03E0F0
:1008D00010F8016B01F8016B521EF9D1ABB110F8A1
:1008E000012B04F00C048A1A0C2C03D0A2EB841206
:1008F0009B1C08E010F8014BA2EB0422F8E712F869
:10090000014B01F8014B5B1EF9D5A942D4D300205D
:1009100070BDFEE77047000010B501F0EBFC01F080
:100920001DFD0021084800F05FFF0421064800F08B
:100930005BFF0021054800F057FFBDE8104004218F
:10094000024800F051BF000044040020FC030020D6
:1009500072B6FEE710B50068406A00B2FFF794FE79
:100960000349FFF799FCBDE810400249FFF7C6BCF8
:100970000000B4430000524710B50168486A0022E5
:1009800000B24A6241F270714843FFF77DFEBDE854
:1009900010400149FFF7B2BC0000524710B590F873
:1009A00021100022022905D00421816380F8202033
:1009B000012010BD01680B6823F00E030B60016875
:1009C0000B6823F001030B6090F84030C46B0121E9
:1009D00001FA03F3636080F8211080F820201046AC
:1009E00010BD000010B590F821100024022903D09A
:1009F0000421816301243DE001680A6822F00E02AF
:100A00000A6001680A6822F001020A601A4A016855
:100A1000914201D1012121E0174A1432914201D1C2
:100A200010211BE0144A2832914201D1891515E0AA
:100A3000114A3C32914201D189140FE00E4A5032E2
:100A4000914202D14FF4803108E00B4A6432914266
:100A500002D14FF4801101E04FF08071064A083A4C
:100A60005160012180F82110002180F82010416B95
:100A700001B18847204610BD0800024070B5044609
:100A800000F008F90546601C02D0044800780444D0
:100A900000F000F9401BA042FAD370BD1000002006
:100AA0002DE9F84FDFF8B8910024A9F1040B234693
:100AB0000F2709F1040AABF1040EC9E00125A54096
:100AC0002A40AA427DD1674ED1F804C0ACEB06089B
:100AD000B44532D014DCBCF1030F3AD009DCBCF1D0
:100AE000000F2AD0BCF1010F1CD0BCF1020F31D194
:100AF0001DE0BCF1110F17D0BCF1120F2AD119E083
:100B0000B8F5881F19D006DCB8F5803F15D0B8F5C8
:100B1000801F1FD111E0B8F5001F0ED0B8F5041FDB
:100B200018D10AE0CB6815E0CB681B1D12E0CB683A
:100B300008330FE0CB680C330CE08B682BB1012B32
:100B40004FF0080303D0456104E0042302E005618F
:100B500000E00023FF2A01D8064601E000F1040668
:100B60004FEA840501D9A5F12005D6F8008007FADF
:100B700005FC28EA0C0803FA05F548EA0508C6F85A
:100B800000804D68ED0062D5374DAE6946F0010634
:100B9000AE61AD6924F0030605F001050095334D03
:100BA00006EB050CDCF80850A607360F07FA06F826
:100BB00025EA0805DFF8B880404503D14FF000086A
:100BC00017E044E0DFF8AC80404502D14FF0010867
:100BD0000FE0DFF8A480404502D14FF0020808E0A2
:100BE000DFF89880404502D14FF0030801E04FF054
:100BF000040808FA06F848EA0508CCF808804D68A9
:100C0000D9F80060ED024D4601D5164300E0964349
:100C10002E604D68DAF80060AD02554601D51643E6
:100C200000E096432E604D68DBF80060AD035D4642
:100C300001D5164300E096432E604D68DEF8006053
:100C4000ED03754601D5164300E096432E60641C03
:100C50000D682A46E5407FF431AFBDE8F88F00000B
:100C60000804014000001110001002400000014083
:100C700000080140000C0140001001400014014038
:100C80008068084000D0012070470AB101617047B8
:100C90000904FBE70148806870470000100000204D
:100CA00070B5040025D094F83D00002520B984F8E3
:100CB0003C50204600F0B8F8242084F83D0020681D
:100CC000016821F0010101602068016841F40041E0
:100CD00001602068016821F40041016000F05CFAC5
:100CE0004D4A6168914201D84C4900E04C49884224
:100CF00001D2012070BD4B492368B0FBF1F15E6861
:100D000026F03F060E435E606368934206D94FF4B7
:100D1000967359434FF47A73B1FBF3F12368491C7E
:100D20001E6A26F03F06314319626168914210D86D
:100D30004900401EB0FBF1F2521CC2F30B02042A20
:100D400001D2042022E0B0FBF1F0401CC0F30B0004
:100D50001CE0A268F2B301EBC10303EB0116431ED2
:100D6000B3FBF6F35B1C43F480431B0549D092B3FD
:100D700001EBC10202EB0111401EB0FBF1F0401C7F
:100D8000C0F30B0040F4804040F400402168CA6981
:100D90004CF6FF739A431043C861D4E9071001432E
:100DA0002068026822F0C00211430160D4E9030107
:100DB00001432068826848F2FF339A4311438160FF
:100DC000D4E9050108432168CA6822F0FF021043F4
:100DD000C86001E00EE016E02068016841F0010102
:100DE00001602564202084F83D00256384F83E508E
:100DF000002070BD01EB4106431EB3FBF6F35B1C04
:100E0000B3E70120C2E701EB4101401EB0FBF1F066
:100E1000401CC0F30B00B7E7A086010080841E00D1
:100E200000093D0040420F0010B586B0002100913E
:100E300001910291039100681349884222D1134C19
:100E4000A06940F00800A061A069694600F00800B0
:100E500004904FF440700090122001900320039002
:100E60000B48FFF71DFE0B48416841F0E06141F07F
:100E700002014160E06940F40010E061E06900F4C3
:100E80000010049006B010BD005400400010024055
:100E9000000C0140000001400248816802781144C2
:100EA0008160704710000020074810B5016841F0CC
:100EB00010010160032000F0A7F80F2000F006F8F1
:100EC00000F050F8002010BD0020024030B505466B
:100ED0001F4887B0C16941F00201C161C06906A91C
:100EE00000F00200009001A800F036F90498B0B1BB
:100EF00000F052F940001749174AB0FBF1F11748CA
:100F0000491E0260416040F2E7320021C0E903213E
:100F10008160816100F076FB040003D015E000F0F1
:100F20003BF9E8E70D4800F09BFB04000DD11D20C4
:100F300000F03CF8102D07D2002229461D2000F0B9
:100F400043F80748056000E0012407B0204630BDA3
:100F50000010024040420F000004004064050020E1
:100F6000140000200F4808B5816941F0010181613A
:100F7000816901F001010091C16941F08051C161B5
:100F8000C069002200F0805000900F21901E00F0F8
:100F90001BF80548416821F0E06141F000714160B3
:100FA00008BD00000010024000000140002809DBDD
:100FB00000F01F02012191404009800000F1E02073
:100FC000C0F8001170470000F0B40E4B1B680C46CF
:100FD000C3F30223C3F10705042D00D90425191D0D
:100FE000072901D2002300E0DB1E012606FA05F1E5
:100FF000491E214099409E40761E16403143F0BC68
:1010000003F06ABE0CED00E0064900F00702086834
:101010004FF6FF03184040EA0220034A10430860DD
:10102000704700000CED00E00000FA052DE9F047E4
:101030000F46050061D0434E306800F00700B8420B
:1010400009D2306820F0070038433060306800F083
:101050000700B84251D128683B4C810712D54007A0
:1010600003D5606840F4E06060602878000703D52D
:10107000606840F4605060606068A96820F0F0002B
:10108000084360602878C00728D06868012810D01D
:101090002168022810D0890700292EDA616821F022
:1010A000030101436160FFF7F5FD804641F2883995
:1010B0000DE021688903EFE78901EDE7FFF7EAFD1D
:1010C000A0EB0801494502D90320BDE8F08760681C
:1010D000696800F00C00B0EB810FEFD1306800F0D0
:1010E0000700B8420BD9306820F007003843306061
:1010F000306800F00700B84201D00120E5E7287809
:10110000400705D56068E96820F4E0600843606046
:101110002878000706D56068296920F4605040EA05
:10112000C100606000F058F86168084AC1F303111B
:10113000515CC8400649086006480068FFF7C6FED3
:101140000020C2E700200240001002408A7300081D
:101150001C000020140000200F2202600C4A53687B
:1011600003F003034360536803F0F00383605368A4
:1011700003F4E063C36052684FF4E06303EAD20211
:1011800002610448006800F0070008607047000032
:1011900000100240002002400448054900684968E8
:1011A000044AC1F30221515CC84070471C00002072
:1011B000001002409A730008044805490068496815
:1011C000044AC1F3C221515CC84070471C00002092
:1011D000001002409A7300080E4A51680E4801F050
:1011E0000C03042B11D0082B0FD10C48C1F38343FF
:1011F000C903C05C0AD55168084AC1F34041921E38
:10120000515C054A5043B0FBF1F070470449484334
:10121000704700000010024000127A007A73000844
:1012200000093D002DE9F84F040070D02078C04D32
:10123000C00749D06868C0F38100012807D06868FA
:10124000C0F38100022809D16868C00306D5286868
:10125000800339D560680028E7D035E06068B0F5D4
:10126000803F0BD010B1B0F5A02F11D0286820F42A
:1012700080302860286820F4802002E0286840F44C
:1012800080302860606890B1FFF704FD06460AE0F0
:10129000286840F480202860F0E700BFFFF7FAFCE0
:1012A000801B642873D828688003F7D50CE0FFF70B
:1012B000F1FC064605E000BFFFF7ECFC801B64284C
:1012C000F0D828688003F7D420789A4E80074FF032
:1012D00001094FF0000839D5686810F00C0F07D0ED
:1012E0006868C0F38100022809D16868C00306D489
:1012F0002868800714D52069012808D110E02069EA
:10130000B0B1C6F80090FFF7C5FC074605E00AE15A
:10131000FFF7C0FCC01B0228C4D828688007F7D597
:101320002868616920F0F80040EAC10028600DE0FB
:10133000C6F80080FFF7AEFC074604E0FFF7AAFC02
:10134000C01B022823D828688007F7D4207800071C
:101350002CD57948A169D9B1C0F80090FFF79AFC63
:10136000074604E0FFF796FCC01B02280FD8686A06
:101370008007F7D571484FF4FA510068B0FBF1F0DF
:10138000009000BF0098411E0091FAD20EE080E06C
:10139000C0F80080FFF77EFC074604E0FFF77AFC08
:1013A000C01B022875D8686A8007F7D420784007E8
:1013B00060D5E8690027C00008D4E86940F0805093
:1013C000E861E869012700F0805000905C480168FE
:1013D000C90513D40168834641F480710160FFF7A9
:1013E00059FC824606E000BFFFF754FCA0EB0A0060
:1013F00064284ED8DBF80000C005F5D5E068012868
:101400000AD008B1052813D0286A20F0010028620C
:10141000286A20F0040002E0286A40F001002862F7
:10142000E06841F2883B98B1FFF734FC82460BE05C
:10143000286A40F004002862EEE700BFFFF72AFCAC
:10144000A0EB0A0159455AD8286A8007F6D50CE066
:10145000FFF720FC824605E0FFF71CFCA0EB0A0129
:1014600059454CD8286A8007F6D41FB1E86920F0A6
:101470008050E861E06988B36968C1F3810102299D
:1014800044D00228C6F8608004D0FFF703FC04466D
:1014900038E034E0FFF7FEFB074604E0FFF7FAFB15
:1014A000C01B02282BD828688001F7D4206AB0F529
:1014B000803F05D16868A16820F400300843686067
:1014C000D4E908010843696821F47411084368608D
:1014D000C6F86090FFF7DEFB044606E025E000BF9B
:1014E000FFF7D8FB001B022809D828688001F7D530
:1014F0001BE000BFFFF7CEFB001B022802D9032030
:10150000BDE8F88F28688001F4D40EE00128F7D0F8
:101510006868226A00F48031914204D1616A00F463
:101520007010884201D00120EAE70020E8E70000BF
:101530000010024000004242800442421C00002091
:10154000007000407047704710B590F83C20012AA9
:1015500022D0012280F83C20CA688C6822F44072B4
:1015600022434C6822F4806222430C6822F4006219
:1015700022430C6922F4805222434C6922F4005227
:101580002243C969002322F480420A4301684A6465
:1015900080F83C30002010BD022010BD70B590F8DE
:1015A0003C20012A26D0012480F83C40022280F809
:1015B0003D2003685A689D6822F070060A6832432D
:1015C0005A600D4B02689A4208D0B2F1804F05D0A4
:1015D0000A4B9A4202D00A4B9A4204D1496825F03C
:1015E00080031943916080F83D40002180F83C1051
:1015F000084670BD022070BD002C01400004004070
:101600000008004010B5040003D094F83D0010B16C
:1016100007E0012010BD002084F83C00204600F0C7
:101620001EF8022084F83D00211D206801F0EEF82C
:10163000012084F8460084F83E0084F83F0084F8D6
:10164000400084F8410084F8420084F8430084F8A4
:10165000440084F8450084F83D00002010BD704728
:1016600090F83D10012901D001207047022180F837
:101670003D100168CA6842F00102CA6000680B4967
:10168000884208D0B0F1804F05D00949884202D085
:101690000849884204D1816801F00701062903D076
:1016A000016841F00101016000207047002C0140F9
:1016B00000040040000800402DE9F0410D46040000
:1016C00003D094F83D0018B108E00120BDE8F08196
:1016D000002084F83C00204600F040F8022084F806
:1016E0003D002068816844F2070291438160211D1A
:1016F000206801F08BF8226890689169166A2B685F
:10170000AF69034340F20330814341EA0721A868EF
:10171000EF6908434FF6FC418843E96840EA072037
:10172000014328692F6A000140EA073008436968CD
:101730006D6926F0220646EA051529439360226862
:10174000906154F8460B0162012004F81F09E0750E
:101750002076E0762077A0750020B7E700B585B049
:101760000021009101910291039101681A48B1F1A1
:10177000804F1BD0194A914216D1C16941F0040132
:10178000C161C16901F004010491816941F008015E
:1017900081618069694600F008000490C0200090D3
:1017A0000F4800BFFFF77CF905B000BDC16941F0EB
:1017B0000101C161C16901F001010491816941F038
:1017C000040181618069694600F0040004900320EF
:1017D00000900448E6E700000010024000080040C6
:1017E000000C01400008014070B590F83E600446CE
:1017F00090F83F5090F8423090F84320022021B1F9
:1018000004290ED0012E1BD114E0012E18D1012B7A
:1018100016D184F83E0084F842000122002120689D
:1018200020E0012D0CD1012A0AD184F83F0084F870
:10183000430014E0012D03D1012B01D1012A01D075
:10184000012070BD84F83E0084F83F0084F8420017
:1018500084F8430001220021206801F00DF80122E4
:101860000421206801F008F82068016841F00101B6
:101870000160002070BD704770B5044600680169C2
:101880004FF00005C943890715D4C168C9438907CA
:1018900011D4E91E0161012020772068806980074A
:1018A000204602D0FFF7E7FF04E000F0BFF8204633
:1018B00000F064F9257720680169C943490717D406
:1018C000C168C943490713D46FF0040101610220C4
:1018D00020772068806910F4407F204602D0FFF70F
:1018E000CAFF04E000F0A2F8204600F047F925778F
:1018F00020680169C943090716D4C168C9430907AB
:1019000012D46FF008010161042020772068C069BB
:101910008007204602D0FFF7AEFF04E000F086F813
:10192000204600F02BF9257720680169C943C906D4
:1019300017D4C168C943C90613D46FF010010161FF
:10194000082020772068C06910F4407F204602D02C
:10195000FFF791FF04E000F069F8204600F00EF96F
:10196000257720680169C943C90708D1C168C943FF
:10197000C90704D1891E0161204600F04FF9206893
:101980000169C943090609D4C168C943090605D4D8
:101990006FF0800101612046FFF7D4FD20680169E6
:1019A000C943490609D4C168C943490605D46FF043
:1019B00040010161204600F03BF920680169C943FC
:1019C00089060BD4C168C943890607D46FF020018A
:1019D00001612046BDE87040FFF7B5BD70BD000055
:1019E00000B585B00021009101910291039100683A
:1019F0000B49884212D10B48816941F00401816191
:101A00008069694600F0040004904FF41060009073
:101A10000220019003900448FFF742F805B000BD92
:101A2000002C01400010024000080140704770B5D2
:101A3000044690F83C0000260D4601280FD00120F6
:101A400084F83C006AB1042A1DD0082A2FD00C2A41
:101A50003FD00126002084F83C00304670BD0220B3
:101A600070BD206800F016FF2068816941F0080110
:101A700081612068816921F00401816120688169A8
:101A80002A69114311E0206800F02CFF2068816969
:101A900041F4006181612068816921F48061816184
:101AA000206881692A6941EA02218161D2E72068C0
:101AB00000F044FF2068C16941F00801C16120685D
:101AC000C16921F00401C1612068C1692A6911431B
:101AD00011E0206800F05EFF2068C16941F40061F8
:101AE000C1612068C16921F48061C1612068C16958
:101AF0002A6941EA0221C161ACE710B5040003D0B4
:101B000094F83D0010B107E0012010BD002084F8DA
:101B10003C00204600F01EF8022084F83D00211D04
:101B2000206800F073FE012084F8460084F83E002F
:101B300084F83F0084F8400084F8410084F84200B3
:101B400084F8430084F8440084F8450084F83D009C
:101B5000002010BD08B500680649884208D1064833
:101B6000816941F400618161806900F40060009046
:101B700008BD0000002C014000100240704700002A
:101B800010B50446022249B104290ED0082913D009
:101B900094F84100012816D0012010BD94F83E00B1
:101BA0000128F9D184F83E200FE094F83F00012885
:101BB000F2D184F83F2008E094F840000128EBD1EE
:101BC00084F8402001E084F841200122206800F0E0
:101BD00053FE0F492068884203D1426C42F4004210
:101BE00042642068884208D0B0F1804F05D009498E
:101BF000884202D00849884204D1816801F0070177
:101C0000062903D0016841F001010160002010BDE8
:101C1000002C014000040040000800400068034917
:101C2000884201D1FFF738B9704700000004004036
:101C30007047704770470000F8B5016804460868AF
:101C4000CA684B6910F00F0F4FF000055AD003F02F
:101C5000010602F49077374365D0C10705D0D1055E
:101C600003D5616C41F001016164410705D5D907D5
:101C700003D0616C41F002016164810705D5D90789
:101C800003D0616C41F004016164010707D502F0E3
:101C90002001314303D0616C41F008016164616C43
:101CA00000293BD0800604D5900602D5204600F0DE
:101CB000C2FE20684069616CC0F3801001F0080129
:101CC000014320462BD000F08FFE2068406940067B
:101CD00021D52068143050E8001F21F0400140E871
:101CE0000012002AF5D1E06BA8B16D494163E06BA9
:101CF000FEF778FE002811D0E06B416B01B0BDE823
:101D0000F040084783060ED593060CD52046BDE863
:101D1000F84000F090BE2046FFF78CFFF8BDFFF7BB
:101D200089FF6564F8BD266B2023012E7CD1C60691
:101D30007AD5D60678D508684868009048694FF08B
:101D40000206400640D5E16B086840680004000CBC
:101D5000E8D0A28D8242E5D9E085886920282DD07F
:101D600020680C3050E8001F21F4807140E8001218
:101D7000002AF5D12168143151E8000F20F001004C
:101D800041E80002002AF5D12068143050E8001F15
:101D900021F0400140E80012002AF5D184F84230D9
:101DA000256320680C3050E8001F21F0100140E846
:101DB0000012002AF5D1E06BFEF7F0FD6663A08DFE
:101DC000E18D401A81B22AE0A08DE18D401A81B2E6
:101DD000E08D0028A6D00029A4D022680C3252E859
:101DE000000F20F4907042E80007002FF5D1206822
:101DF000143050E8002F22F0010240E80027002FA5
:101E0000F5D184F84230256320680C3050E8002F6B
:101E100022F0100240E80023002BF5D16663204633
:101E2000FFF707FFF8BDFFE705062BD5150629D5F7
:101E300094F841002128F5D1A068B0F5805F01D168
:101E40002069B0B1206A411C216221680078486095
:101E5000E08C401E0004000CE084E3D12068C168DF
:101E600021F08001C1602068C16841F04001C1607B
:101E7000D8E7206A0088C0F308004860206A801C08
:101E80002062E5E74006CDD55006CBD5CA6820468E
:101E900022F04002CA6084F8413000F0F9F8C1E74E
:101EA000D929000870B5040004D094F84100002539
:101EB00010B106E0012070BD84F84050204600F0CB
:101EC00023F8242084F841002068C16821F40051DF
:101ED000C160204600F010FE2068016921F49041A5
:101EE00001612068416921F02A0141612068C168CF
:101EF00041F40051C1606564202084F8410084F8F9
:101F000042006563002070BDF0B585B000240094E8
:101F10000194029403940368424F02204249032231
:101F2000424D4602BB4225D18B6943F480438B610D
:101F30008B6903F4804304938B6943F004038B6142
:101F40008969039201F0040104910102CDE90010B6
:101F500069462846FEF7A4FDCDE900646946284697
:101F60000294FEF79DFD002205212520FFF72CF8A5
:101F7000252028E02E4FBB4229D1CB6943F4003302
:101F8000CB61CB6903F4003304938B6943F0040302
:101F90008B618969039201F0040104910421CDE968
:101FA000001069462846FEF77BFD0820CDE90004B5
:101FB000694628460294FEF773FD0022052126207B
:101FC000FFF702F82620FEF7F1FF05B0F0BD194D2E
:101FD000AB42FAD1CB6943F48023CB61CB6903F4E4
:101FE000802304938B6943F008038B618969124D48
:101FF00001F00801CDE90321CDE9006069462846DA
:10200000FEF74EFDE814CDE9000469462846029427
:10201000FEF746FD002205212720FEF7D5FF2720E9
:10202000D1E70000003801400010024000080140E4
:102030000044004000480040000C014090F842304D
:10204000202B01D00220704721B11AB10023036375
:1020500000F0AEBD0120704710B500680849884205
:102060000DD0084988420AD10121074803F004FD38
:10207000BDE81040012204490448FFF7DFBF10BD4E
:1020800000380140004400400C000020D40400202F
:102090007047FEE708B505208DF800009DF80000A8
:1020A000002803D09DF80000401EF5E708BD0000A1
:1020B0001CB511480090002301220A210FA005F051
:1020C000CBF8114C002210212060012004F09AFC72
:1020D00060600E4A00210E4803F04AFC0021A06017
:1020E0001820CDE900010B464FF4FA7209A10C4803
:1020F00004F008FF1CBD0000795800086D6F746F74
:10210000725F74696D6572000000002054730008EE
:10211000712700086C63645F7465737400000000CD
:10212000F15700082DE9F04786B0002431480094AB
:10213000019402940394816941F0100181618169E5
:1021400001F010010491816941F0200181618169F0
:1021500001F020010491816941F0040181618169EC
:1021600001F004010491816941F0080181618069F5
:10217000012200F00800204F5503049029463846FC
:10218000FEF783FDDFF874900022C0214846FEF779
:102190007CFDDFF86CA04FF2180800224146504643
:1021A000FEF773FD0095022601250396CDE9015443
:1021B00069463846FEF774FCC020009001AA112041
:1021C000032782E8910069464846FEF769FC0097BC
:1021D00069465046CDE90145FEF762FCCDF8008026
:1021E0000396CDE9015469465046FEF759FC06B006
:1021F000BDE8F087001002400010014000080140D7
:10220000000C01400D4810B50B4901600C494160BC
:1022100000214FF480428160C0E903124161816175
:10222000C1610162FEF73CFD002803D0BDE810400B
:10223000FEF78EBB10BD000000540040600300207C
:10224000A086010010B592B000240F941C216846AE
:102250001094FEF70DF8202107A8FEF709F824488E
:102260002249C0E9001441F61F41C0E9024104615E
:1022700044618461FFF741FC08B1FEF769FB0F94EC
:102280000FA91B481094FFF789F908B1FEF760FB0E
:102290006020CDE900040294039404940594002284
:1022A000694613480694FFF7C2FB08B1FEF750FBDE
:1022B0000C2269460E48FFF7BAFB08B1FEF748FB4F
:1022C0000794089409944FF400500A94CDE90B4008
:1022D00007A907480E94FFF737F908B1FEF738FB56
:1022E0000348FFF77DFB12B010BD0000002C014039
:1022F000B403002010B58CB024216846FDF7B8FF68
:102300000024154809944FF080410A94C0E9001454
:102310004FF6FF71C0E90241046184610120CDE9FB
:102320000004CDE90204CDE90404CDE906040890D7
:1023300069460948FFF7C0F908B1FEF709FB09949F
:1023400009A905480A94FFF729F9002801D0FEF7EA
:10235000FFFA0CB010BD0000FC03002010B58CB0DB
:1023600024216846FDF784FF002415480994134989
:102370000A94C0E900144FF6FF71C0E902410461FC
:1023800084610120CDE90004CDE90204CDE9040413
:10239000CDE90604089069460948FFF78DF908B1B0
:1023A000FEF7D6FA099409A905480A94FFF7F6F84A
:1023B000002801D0FEF7CCFA0CB010BD0008004098
:1023C000440400200C4810B50A4901604FF4E13183
:1023D0004160002181600C22C160C0E9041281616A
:1023E000C161FFF75FFD002803D0BDE81040FEF794
:1023F000AFBA10BD003801408C0400200E4810B563
:102400000C4901604FF4E1314160002181600C22F0
:10241000C160C0E904128161C161FFF743FD08B1E9
:10242000FEF796FABDE81040012204490248FFF782
:1024300005BE000000440040D40400200C00002031
:102440000C4810B50A4901604FF4E13141600021A8
:1024500081600C22C160C0E904128161C161FFF793
:1024600021FD002803D0BDE81040FEF771BA10BD71
:10247000004800401C050020FEE7FEE710B50F4CA9
:10248000002208212046FEF700FCFFF703FE012290
:1024900010212046FEF7F9FBFFF7FCFD0122082181
:1024A0002046FEF7F2FBFFF7F5FD0022082120464B
:1024B000FEF7EBFBBDE81040FFF7ECBD000C014060
:1024C00070B5154E08250024012210213046FEF774
:1024D000DCFB16E06006040E002208213046FEF701
:1024E000D4FBFFF7D7FD012208213046FEF7CDFBD4
:1024F000FFF7D0FD10213046FEF7C2FB08B144F0D3
:1025000001046D1EEDB2E5D2002208213046FEF72F
:10251000BCFB204670BD0000000C014070B50546B4
:102520000824134E18E000BFFEF7AFFBFFF7B2FD23
:10253000280601D5012200E0002210213046FEF7D6
:10254000A4FB6806050EFFF7A5FD01220821304611
:10255000FEF79BFBFFF79EFD641EE4B24FF0000206
:102560004FF008013046DFD2BDE87040FEF78DBB6A
:10257000000C014010B5154C012210212046FEF739
:1025800084FB012208212046FEF77FFBFFF782FD36
:1025900010212046FEF774FB00280CD000221021E9
:1025A0002046FEF772FBFFF775FD10212046FEF76F
:1025B00067FB08B1002010BD002210212046FEF765
:1025C00064FBFFF767FD012010BD0000000C014017
:1025D00010B50F4C002208212046FEF756FBFFF7EE
:1025E00059FD002210212046FEF74FFBFFF752FD58
:1025F000012208212046FEF748FBFFF74BFD012290
:1026000010212046FEF741FBBDE81040FFF742BD18
:10261000000C014010B5164C002208212046FEF7A0
:1026200034FBFFF737FD012210212046FEF72DFB7A
:10263000FFF730FD012208212046FEF726FBFFF7B9
:1026400029FD10212046FEF71BFB00284FF0000259
:102650004FF00801204605D0FEF717FBFFF71AFDE3
:10266000002010BDFEF711FBFFF714FD012010BD87
:10267000000C01402DE9F041984615460F460646EC
:102680000024FFF777FF002846D03046FFF746FFCB
:10269000FFF7C0FF90B33846FFF740FFFFF7BAFFE0
:1026A000FFF768FF761CF0B2FFF738FFFFF7B2FFC5
:1026B0006E1E1A4F2BE0B44221D0FFF701FF08F83D
:1026C0000400002208213846FEF7DFFAFFF7E2FC9B
:1026D000002210213846FEF7D8FAFFF7DBFC012272
:1026E00008213846FEF7D1FAFFF7D4FC0022082172
:1026F0003846FEF7CAFAFFF7CDFC06E009E0FFF71F
:10270000DFFE08F80400FFF7B9FE641CE4B2AC4237
:10271000D1D3FFF75DFF0020BDE8F081000C014040
:1027200007B502AB012200F001F80EBD2DE9F04122
:102730001E461546884607460024FFF71BFF38460D
:10274000FFF7ECFEFFF766FF4046FFF7E7FEFFF7F7
:1027500061FF06E0305DFFF7E1FEFFF75BFF641C01
:10276000E4B2AC42F6D3FFF733FF0020BDE8F081BE
:10277000002003F0EBFF012003F0A4F8FBE70000CA
:1027800010B5502080F31188BFF34F8FBFF36F8FC8
:1027900004F024FC18B104494FF080500860002078
:1027A00080F3118810BD000004ED00E010B590B07A
:1027B00028216846FDF75CFD14210AA8FDF758FDA5
:1027C000022000900120049010200024059007941E
:1027D0006846FEF727FD08B172B6FEE70F20CDE987
:1027E0000A040C940D9400210AA80E94FEF71EFC16
:1027F000002801D072B6FEE710B010BD704700008F
:102800000148FFF739B8000064050020F0B5026800
:10281000164B174C174D4FF08047984205D0B842E1
:1028200003D0A04201D0A84203D122F070064A682A
:102830003243984205D0B84203D0A04201D0A8420A
:1028400003D122F44074CA6822434C6922F080020A
:10285000224302608A68C2620A688262984201D199
:102860000969016301214161F0BD0000002C0140B4
:10287000000400400008004010B501F01F030121D2
:10288000046A99408C430462016A9A4011430162D0
:1028900010BD000030B5036A026A22F00102026234
:1028A0004268846924F073050C682C4323F0020508
:1028B0008B682B430A4DA8420BD123F00805CB6847
:1028C00022F440722B434D6923F0040315438A69B7
:1028D0002A434260846149684163036230BD00005D
:1028E000002C014030B5026A036A23F01003036232
:1028F000436884690D6824F4E64444EA05248D683D
:1029000022F0200242EA05120B4DA8420ED1CD68FA
:1029100022F0800242EA05124D6923F4406343EA43
:1029200085038D6922F0400243EA85034360846198
:1029300049688163026230BD002C014030B5036AF2
:10294000026A22F4807202624268C46923F400734E
:1029500024F073050C682C438D6843EA05230C4D65
:10296000A8420ED1CD6823F4006343EA05234D69E4
:1029700022F4405242EA05128D6923F4806342EA50
:1029800005124260C4614968C163036230BD000042
:10299000002C014030B5046A026A22F480520262BF
:1029A0004268C3690D6823F4E64343EA05238D6852
:1029B00024F4005444EA0534064DA84204D14D697C
:1029C00022F4804242EA85124260C3614968016490
:1029D000046230BD002C014010B5406A0021C18561
:1029E000C184FFF727F910BD01680C3151E8002FB1
:1029F00022F4907241E80023002BF5D101681431D4
:102A000051E8002F22F0010241E80023002BF5D10C
:102A1000016B012909D101680C3151E8002F22F026
:102A2000100241E80023002BF5D1202180F842104C
:102A300000210163704708B590F84210222901D0A7
:102A4000022008BD82684FF480539A4201D1016987
:102A500021B1816A9A421BD04AB10AE00268816AB8
:102A60005268C2F308020A80816A891C08E0026980
:102A700072B10268526802F07F020A70816A491CD2
:102A80008162C18D491E0904090CC18503D01BE078
:102A900002685268F1E70168CA6822F02002CA6041
:102AA0000168CA6822F48072CA6001684A6922F02B
:102AB00001024A61202180F8421000214163026B2B
:102AC000012A03D0FFF7C8FA002008BD016301689E
:102AD0000C3151E8002F22F0100241E80023002BB6
:102AE000F5D101680A68D20602D50A6849680091E2
:102AF000818DFFF79EF8E7E770B50446006801692D
:102B0000E26821F44051114301612169A068084342
:102B1000616908432168CA6841F20C639A43024321
:102B2000CA6020684169A26921F440711143416182
:102B30001E492068884202D1FEF73EFB01E0FEF705
:102B40002BFB00EBC00101EB0012606864218000E8
:102B5000B2FBF0F3B3FBF1F36FF018067343B2FB73
:102B6000F0F5B2FBF0F605EB8305322303EB051518
:102B7000B5FBF1F5B6FBF1F605F0F00505EB061532
:102B8000B2FBF0F6B2FBF0F0B0FBF1F06FF0180220
:102B9000504306EB800003EB0010B0FBF1F021681E
:102BA00000F00F002844886070BD0000003801402C
:102BB00081628285C28500214164222180F8421011
:102BC000016921B10168CA6842F48072CA60016873
:102BD0004A6942F001024A610068C16841F020017F
:102BE000C1600020704700000148FFF725B80000D1
:102BF0008C0400200148FFF71FB80000D404002017
:102C00000148FFF719B800001C050020FEE700008E
:102C10007CB50446002094F8DA200D46012A03D042
:102C2000022A01D0032A14D101AB6A4601212046B1
:102C300000F091F9009A4FF47F018A4202D8019A7C
:102C40008A4206D9002804D125B10F49204601F057
:102C5000F9FC7CBD0422FF21204600F081FE0546E0
:102C600000227021204600F07BFE05430022FF2158
:102C7000204600F075FE054300228021204600F02A
:102C80006FFE28437CBD00008B010020F8B506468E
:102C9000002401220B21304600F062FE074600228C
:102CA0000B21304600F05CFE40EA07056A4613211E
:102CB000304600F030FB641C9DF800102843E4B25D
:102CC000490704D0032C04D20028E2D0F8BD032C1D
:102CD000FCD36FF00B00F8BDF0B591B004460022B4
:102CE000882100F03DFE002584F8F0504FF47A7002
:102CF000A4F852014FF4C870A4F854015748C4F81E
:102D0000580157482562C4F8D4006946204600F0AF
:102D1000A9F8060009D18DF800508DF80150402225
:102D2000694604F11000FDF78AFA6420A4F8340122
:102D30004FF46170A4F836014FF4FA70A4F838012A
:102D40004FF42060A4F83C01012784F850713A4602
:102D50008021204600F004FE06430122FF21204688
:102D600000F0FEFD064300221146204600F0F8FD6B
:102D7000064310AA9121204600F0CDFA06439DF8A3
:102D8000400084F83A0101220021204600F0E8FDCD
:102D900006430022FF21204600F0E2FD0643002208
:102DA0008021204600F0DCFD30430026002852D16F
:102DB000B1B20122204600F0B1FB761C062EF5DBF5
:102DC000002848D100220221204600F0A7FB00285D
:102DD00041D100220321204600F0A0FB00283AD177
:102DE00000220421204600F099FB002833D1002264
:102DF0000521204600F092FB00282CD14FF49012C0
:102E00000021204600F0CBFB002824D14FF4804263
:102E10000121204600F0C3FB00281CD14FF40C1206
:102E20000221204600F0BBFB002814D10022032120
:102E3000204600F0B4FB00280DD1FF2084F83001BB
:102E400002460121204600F08BFD84F832710028F3
:102E500001D184F8155111B0F0BD0000856B01005F
:102E6000A470090070B506460C46007C01F8080BFA
:102E7000304600F044F8002833D1207304F11001EB
:102E8000304600F0E4F900282BD104F1140130465B
:102E900000F0E2F8002824D1002501E0002820D12C
:102EA00004EB8502A9B23046243200F07AF80028FB
:102EB00017D16219A9B23046183200F066F86D1CBD
:102EC000062DEBDB00280CD104F13C01304600F06C
:102ED000A3F9002805D1211D3046BDE8704000F05F
:102EE000B9B870BD10B50C460A46092100F013FAB6
:102EF000002803D1217801F00101217010BD3EB5F9
:102F00000C46054602AAF82100F024FA00280ED14A
:102F10006A460421284600F007FA002807D1BDF8C8
:102F2000081029B1009AB2FBF1F12160A9613EBD00
:102F30002168FBE738B50C466A46132100F0EBF92F
:102F40009DF8001001F0070211F0180F226001D067
:102F50006FF0050038BDF8B515461C4606466A46B2
:102F60000E2100F0F7F9BDF800100905C908296025
:102F7000002809D16A460C21304600F0EBF9BDF873
:102F800000100905C9082160F8BD03460020062984
:102F900002D3001F002102E0194491F8281011709B
:102FA0007047F8B504460020154606292DD2DFE803
:102FB00001F00305191B1D1D646B24E06A464421C2
:102FC000204600F0C7F9002803D1BDF800104FEAF1
:102FD000412606D1E6B12E604FF00101A66384F8C8
:102FE0002910F8BDE46B0EE0246C0CE06A464FF04B
:102FF0006401204600F0AEF9002803D1BDF80010AE
:103000004FEA4124EDD12C60F8BD6FF00300F8BD0C
:10301000A16B29604FF00001E1E77CB50C4690F808
:10302000DA100025012604290AD06A46142100F08E
:1030300072F900280BD19DF80010C90706D007E0EF
:1030400001A9FFF777FF0199042901D025707CBD04
:1030500026707CBD01F034B901F094B9F0B58DB0A3
:103060000C4605460C2302AA142100F083F9060041
:103070007ED10021A17521609DF813009DF81220DA
:10308000616000EB02209DF80F209DF80E304FF498
:103090007A7E02EB03221204D209E2609DF811301D
:1030A0009DF8106080B203EB06231B04DB0923614B
:1030B0009DF80B309DF80A6003EB06239BB2A382B8
:1030C000B5F852619DF8087095F831C176451FD06A
:1030D000464306F5FA7696FBFEF02E8C95F81CE03A
:1030E00080B2B6B2BEF1000F12D05E43B2EB262F13
:1030F00008D1BCF1000F02D042F2B82008E048F637
:10310000E0200DE05043A2EB2626B0FBF6F080B2A3
:10311000BCF1000F04D0810821818001E07501E03D
:103120002081E1750CA8CDE900403946284601F020
:1031300043F9060024D19DF8307005F1500127763F
:103140001C220D4605A8FDF77AF82089ADF81C0071
:10315000E07D8DF82B006089ADF81E006068069058
:10316000E068089020690990A08AADF8280000E086
:1031700006E08DF82C701C2205A92846FDF75FF8A3
:103180000DB03046F0BD38B5054600200C468DF830
:1031900000006A460121284600F0BDF800282AD127
:1031A00023469DF800200021284603F0D5F800288A
:1031B00021D1A31C9DF800200121284603F0CCF862
:1031C000002818D1631C9DF800200221284603F036
:1031D000C3F800280FD1E31C9DF8002003212846E6
:1031E00003F0BAF8002806D1231D9DF80020042121
:1031F000284603F0B1F838BD10B5054C206800F042
:1032000059F8D4E90001FFF729FF6068008910BD73
:103210005403002001F0E8B938B50C4605466A466B
:10322000012100F078F800280BD19DF8001085F8F6
:103230003011090601D5012100E00021217085F837
:103240004C1038BD02460020127F0A70704738B516
:103250000D4604466A46202100F07CF8002807D17C
:10326000BDF8001029B1C900296021620121217730
:1032700038BD216A29600021F9E7000010B50C4C27
:103280005221206880F85C1100F07EF8012120684E
:1032900000F0AFF90121206800F07AF80A212068D7
:1032A00000F024F92068BDE81040FFF715BD0000CC
:1032B0005403002070B5047C054614B900F014FADC
:1032C00010B9284601F010FA50EA040102D1032196
:1032D00085F8321170BD70B50C460546002100F02E
:1032E00057F8002810D12846FFF7E4FF00280BD13B
:1032F00021462846FFF7B2FE002805D12846BDE842
:1033000070400021FFF7C2BC70BD10B50A20FDF768
:10331000B5FB002010BD10B5134690F85C010122EA
:10332000FFF7A8F940B210BD38B5144690F85C011B
:103330006B460422FFF79EF99DF8030020709DF86C
:10334000020060709DF80100A0709DF80000E07020
:10335000002038BD38B5144690F85C016B46022257
:10336000FFF788F99DF8010020709DF8000060705B
:10337000002038BD10B5DCB2134690F85C0122463F
:10338000FFF778F940B210BD4A088A2100F0E8BA88
:103390000246002003290BD003DC49B1012904D1E6
:1033A00006E0142904D0152902D06FF007007047F9
:1033B0001174704770B51C46049E054611B16FF03C
:1033C000090070BD142A08D0152A0FD0052C6FD221
:1033D000DFE804F066686A6C6F002EB10122BDE878
:1033E0007040842100F0BCBA1022F8E70122FF21CE
:1033F00000F0B6FA044600221146284600F0B0FA62
:1034000004430022FF21284600F0AAFA04430122C7
:103410008021284600F0A4FA044302228521284690
:1034200000F09EFA04430422FF21284600F098FA97
:1034300004430022CD21284600F092FA04431122D1
:10344000CC21284600F08CFA04430722FF212846AD
:1034500000F086FA04430022BE21284600F080FADC
:1034600004430622FF21284600F07AFA0443092289
:10347000CC21284600F074FA04430022FF2128469C
:1034800000F06EFA04430122FF21284600F068FA9A
:10349000044300221146284600F062FA204370BD22
:1034A000002207E0012205E0022203E0032201E0FE
:1034B00017E004220A21284600F052FA0028EED133
:1034C00096B11023EF228421284600F031FA00281B
:1034D000E5D185F8DA402846BDE870400021FFF7C5
:1034E000D5BB6FF00A0070BD0023EBE738B50C4682
:1034F00005466A46F821FFF72DFF00280DD1BDF8DB
:10350000000010B104FB00F200E02246042128462E
:1035100000F02DFA002800D1AC6138BD2DE9F04152
:10352000044600200D461646071F03460146024684
:10353000062D02D33846BDE8F08156B104EB850173
:103540004B6B0121062DF5D2DFE805F005080F12BF
:1035500015180122F6E784F8281017E0C3F34F226C
:103560004421204600F017FA0EE084F82A100DE0FE
:1035700084F82B100AE05300FE2201E01301EF2231
:103580006021204600F0D4F90028D4D1611926B179
:103590005FF0010281F82820CDE70022FAE770B53C
:1035A00014460022431800EB810593F82830DBB164
:1035B000C4F34F23062914D2DFE801F00305080AFB
:1035C0000C0C446310E01A46442105E0C4630BE090
:1035D000046409E01A46642100F0DDF9020003D01A
:1035E00003E06FF0030200E06C63104670BD01F071
:1035F000AEBA70B50446022591B1022902D06FF02F
:10360000070070BD0022802100F0AAF90028F8D13F
:10361000204600F0D3F80028F3D184F8335170BD70
:103620000022802100F09CF90028F8D184F8325162
:10363000002184F8331170BD2DE9F84307460020BE
:1036400090460E468DF800006A4601213846FFF785
:1036500062FE05009DF8000004462ED1291FB8F136
:10366000010F06D0052E2CD2DFE806F0191C1F2210
:103670002500052E25D2DFE806F00306090C0F0011
:1036800044F0100419E044F0280416E044F0040467
:1036900013E044F0400410E044F080040DE004F036
:1036A000EF040AE004F0D70407E004F0FB0404E0B0
:1036B00004F0BF0401E004F07F04844210D015B18F
:1036C0000EE00D460CE022460121384600F048F994
:1036D000050005D187F8304138467969FFF787FF43
:1036E0002846BDE8F8830000F8B501250646047CAD
:1036F0002A46802100F034F90122FF21304600F0F3
:103700002FF900221146304600F02AF996F83A21A6
:103710009121304600F024F901220021304600F0CA
:103720001FF90022FF21304600F01AF90022802103
:10373000304600F015F93CB10425012C26D0032CAD
:103740002FD06FF00700F8BD01220021304600F0B5
:1037500007F98DF800500028F5D100244FF4FA67DE
:1037600005E024B16A4600213046FFF7D4FD9DF8FC
:103770000020641C25EA0201014304D0BC42E2D3CC
:103780006FF00600F8BDBC42EBD3F9E718B9012190
:103790003046FFF73DFA022209E000BF86F83251B9
:1037A000F8BD18B901213046FFF732FA0422002192
:1037B000304600F0D5F80028F0D0F8BD30B597B00D
:1037C0000446402101A8FCF753FD00258DF8445024
:1037D000ADF850508DF8545001212046169500F058
:1037E000DBFA94F8142194F81311012A06D802D1B7
:1037F000202903D808E03AB90C2905D915AA16A939
:10380000204600F0E6FF02E0204601F001FA4749B9
:1038100000287DD194F8500108B9D4F84C11204605
:1038200000F010FF00287ED100220423114620461C
:103830000095FFF7BFFD002875D10122FF2120462A
:1038400000F08EF8054614AA84212046FFF782FD79
:1038500005430022FF21204600F082F8284362D170
:10386000BDF8500001A90001C4F8D4002046FFF7BC
:10387000F9FA002857D111A92046FFF733FB002899
:1038800051D19DF8440084F83101402201A904F18E
:103890001000FCF7D4FC11AA01212046FFF73BFDE4
:1038A000002840D19DF8440084F8300100221146E0
:1038B0002046FFF7C1FE002835D100220221204614
:1038C000FFF7BAFE00282ED1032084F8320112AA95
:1038D00000212046FFF79EFC002824D19DF84800D7
:1038E00084F8E80012AA01212046FFF793FC002883
:1038F00019D19DF8480084F8E00013AA032120465E
:1039000001F0F1FE00280ED1139813AA042100E063
:1039100009E0C4F8E400204601F0E5FE002802D1E9
:103920001399C4F8DC1017B030BD000098000020D7
:10393000F8B51D46164604460F4690F85C016B46E6
:103940000122FEF797FE9DF80020394632402A43B7
:103950008DF8002094F85C01FEF7E2FE40B2F8BD5D
:1039600010B590F85C01FEF7DBFE40B210BD08B563
:10397000130E8DF80030130C8DF80130130A8DF8FA
:1039800002308DF8032090F85C016B460422FEF7AC
:10399000CDFE40B208BD08B5130A8DF800308DF891
:1039A000012090F85C016B460222FEF7BFFE40B298
:1039B00008BD10B5DCB2134690F85C012246FEF754
:1039C000B5FE40B210BD00002DE9F047B0F854C17B
:1039D000D0F85801DDE90A860CFB00F58035DDE9F9
:1039E00008972C0A4FF0000A04FB0CF4554652B11C
:1039F000880200EB5200B0FBF2F000EB40004043C5
:103A000000F50040050C07F50040000C0622C01C24
:103A1000B0FBF2F003FB09F303F50043190C494333
:103A2000C0EBC000B0F5803F01D31C4808E0FF1C8C
:103A3000B7FBF2F0C0EBC00000F50040000C4043C3
:103A4000084400EB5800B0FBF8F08003FE227F3002
:103A5000B0FBF2F068434FF47A7100F5FA70B0FBF6
:103A6000F1F0000100F5FA70B0FBF1F7402004F12D
:103A70002001B1FBF0F000F0CFFD054627B104EBCB
:103A80005700B0FBF7F000E0002000F0C5FD356006
:103A9000854200D930605046BDE8F0870000F0FF55
:103AA00001EBC10140F277600902A1FB0001704700
:103AB0002DE9FF4F87B00446006A069088460869E2
:103AC0004FF47A714843000C0390D8F80C0005902D
:103AD000DFF8F8B14FF4481604AA4146204600F03A
:103AE0005EFD06AA4146204600F067FD81464FF480
:103AF0007A710498069D484300F50040070C4D4339
:103B0000B54200D935465FEA090074D1D4F8DC002B
:103B1000019094F8E06001463246204600F0DCF85F
:103B20008246D4F8E4000090014694F8E82020464C
:103B300000F0D2F801460320082E00D102205144A3
:103B40004143C9024FF47A7001F5FA71B1FBF0F10B
:103B500040F27762514301F5FA71B1FBF0FA049833
:103B60008030010A01FB0AF08030060A0802049046
:103B70000FB14EB109E00999C1F800B0C4F840B1E5
:103B80000A98002101609CE001264FF448700290E1
:103B900003984F490004B0FBF7F0884200D908466B
:103BA0004FF4167100FB01F906EB4600800000F0AF
:103BB00033FD40000390B8F8081046486A4241437C
:103BC000380400EB42024FF47A7002F5FA72B2FB4D
:103BD000F0F2431003EB0743B3FBF0F01202B2FB29
:103BE000F0F0002800DA404298F8182000021AB1DC
:103BF0004FF480350FE065E041F25C22B1FBF2F159
:103C0000C0F58030484300F50040000C00F58030DE
:103C100040084043850B4FF4487105FB01F000F567
:103C20000040010C09F50040000C494340430844A2
:103C300000F0F2FC000464213230B0FBF1F1039893
:103C4000B1FBF0F040F6B531484341F28831084409
:103C50004900B0FBF1F74FF47040874200D90746A6
:103C6000DDE9001008444FF47A7800F5FA70B0FBF3
:103C7000F8F04FF4C81101EB5001B1FBF0F000F087
:103C8000CBFC000200F5FA70B0FBF8F07F43404334
:103C9000384400F0C1FC414648430EB1584500D9B4
:103CA000584609990860C4F840010A98029B03909D
:103CB0008DE80806DDE904122B462046FFF784FE56
:103CC000814648460BB0BDE8F08F0000AE878F02FA
:103CD000666666009A99060000B50B461146FFF726
:103CE000DFFE4FF47A7100F5FA70B0FBF1F04B4350
:103CF00003EB5001B1FBF0F000BD00B50B461146DF
:103D0000FFF7CEFE4FF47A7100F5FA70B0FBF1F0D8
:103D1000434303F5FA73B3FBF1F000BD0146C0B2B3
:103D2000090A8840401C70474000801CC0B27047A0
:103D3000F8B5064600228321FFF712FE040011D1D8
:103D400000254FF4FA676A4683213046FFF7E3FA0D
:103D500004469DF8000020430BD0BD4202D300BFB3
:103D60006FF00604012283213046FFF7F9FD20435E
:103D7000F8BD6D1CBD42E6D3F2E70022114648B102
:103D8000401E02E04008491C89B2020AFAD161F3E0
:103D90001F2082B2104670472DE9F04F95B00025E4
:103DA00004460E954FF4C8500F95CDE90450129576
:103DB00094F8F0600F46AB46AA46072E7ED001224B
:103DC00080212046FFF7CCFD80460122FF212046BE
:103DD000FFF7C6FD40EA0805002211462046FFF71E
:103DE000BFFD40EA05080622FF212046FFF7B8FD87
:103DF00040EA080502AA83212046FFF78CFA40EA30
:103E000005089DF80800832140F004022046FFF7D2
:103E1000A7FD40EA08050722FF212046FFF7A0FD85
:103E200040EA0508012281212046FFF799FD40EA7A
:103E300008052046FFF769FA40EA050801228021BB
:103E40002046FFF78DFD40EA0805F80755D0F0073A
:103E500053D16B2294212046FFF782FD40EA0508EA
:103E60002046FFF765FF40EA080501AA9021204699
:103E7000FFF75AFA40EA050801982422C0F3062108
:103E8000C0F3C03B129194212046FFF769FD40EA40
:103E900008052046FFF74CFF40EA050801AA9021DB
:103EA0002046FFF741FA40EA08050198010E8DF817
:103EB0002C10010C8DF82D10010A00E0FCE18DF8AA
:103EC0002E108DF82F00252294212046FFF748FD63
:103ED00040EA05082046FFF72BFF40EA080901AA3F
:103EE00090212046FFF720FA40EA09050198010ECB
:103EF0008DF83010000C8DF83100B8077ED5B00772
:103F00007CD4022294212046FFF72AFD40EA0508CE
:103F10002046FFF70DFF40EA080513AA902120462E
:103F2000FFF7F9F940EA05087B2294212046FFF7C4
:103F300017FD40EA08052046FFF7FAFE40EA0508AB
:103F400010AA90212046FFF7E6F940EA08057722FB
:103F500094212046FFF704FD40EA05082046FFF7BC
:103F6000E7FE40EA080501AA90212046FFF7DCF9A8
:103F700040EA050801987822410E8DF81810C0F328
:103F800086418DF81910C0F3C6218DF81A10C0F3C0
:103F900006110007400E8DF81B108DF808009421C3
:103FA0002046FFF7DDFC40EA08052046FFF7C0FE8B
:103FB00040EA050801AA90212046FFF7B5F940EA3A
:103FC00008059DF80810019801EB50718DF81C1040
:103FD000C0F386518DF81D10C0F3C6318DF81E1048
:103FE000C0F306218DF81F10C0F34601C007400E34
:103FF0008DF820108DF80800792200E055E094211A
:104000002046FFF7ADFC40EA05082046FFF790FE8A
:1040100040EA080501AA90212046FFF785F940EA09
:1040200005089DF8081001987A2201EB90618DF83F
:104030002110C0F3C6418DF82210C0F306318DF86F
:104040002310C0F34611C006400E8DF824108DF8E1
:10405000080094212046FFF783FC40EA080520462B
:10406000FFF766FE40EA050801AA90212046FFF707
:104070005BF940EA08059DF80810019801EB907182
:104080008DF82510C0F3C6518DF82610C0F30641F7
:104090008DF82710C0F346218DF82810C0F3860054
:1040A0008DF8290000208DF82A0078077ED570074A
:1040B0007CD47B2294212046FFF752FC40EA05087D
:1040C0002046FFF735FE40EA08050EAA902120465B
:1040D000FFF72AF940EA05087C2294212046FFF7E1
:1040E0003FFC40EA08092046FFF722FE40EA0905A6
:1040F0000FAA90212046FFF717F940EA050873221E
:1041000094212046FFF72CFC40EA08052046FFF7E3
:104110000FFE40EA050801AA90212046FFF704F9A6
:1041200040EA08050198742200064FEA10499421DC
:104130002046FFF715FC40EA05082046FFF7F8FD8A
:1041400040EA080501AA90212046FFF7EDF8019901
:1041500040EA050849EA116004907522942120463E
:10416000FFF7FEFB40EA08052046FFF7E1FD40EAC5
:10417000050901AA90212046FFF7D6F840EA090870
:104180000198762200064FEA104994212046FFF755
:10419000E7FB40EA08052046FFF7CAFD40EA0508AC
:1041A00001AA90212046FFF7BFF800E004E0019942
:1041B00040EA080549EA116A002281212046FFF7FA
:1041C000CFFB40EA05080622FF212046FFF7C8FB87
:1041D00040EA080502AA83212046FFF79CF840EA3E
:1041E00005089DF80800832100F0FB022046FFF738
:1041F000B7FB40EA08050122FF212046FFF7B0FB8C
:1042000040EA0508012200212046FFF7A9FB40EA09
:1042100008050022FF212046FFF7A2FB40EA05081F
:10422000002280212046FFF79BFB50EA080543D17E
:10423000F8070FD0F0070DD1129884F8130184F815
:1042400014B100200BA923180A5C401C83F82A2112
:104250000628F8DBB8070ED5B0070CD49DF84C0043
:1042600084F8F1009DF8400084F8F20004F1F300B6
:1042700006A9FCF708F8780719D5700717D40E9827
:10428000C4F818010F98C4F81C0104984002C4F83F
:1042900020010020BAF1000F08D00599AAEB010017
:1042A0004FF47A1148430014404200B2E0603E43AC
:1042B0008DF8086084F8F06015B02846BDE8F08FEE
:1042C00030B585B005464FF4FA60029000200390A7
:1042D00040F6363008600C4669462846FEF753FF24
:1042E00000284DD19DF8001029B99DF8011011B991
:1042F0009DF8021011B302AA0221284601F0F3F939
:1043000000283DD19DF8001029B10299226801F2E0
:104310004E21114421609DF8021031B102992268AA
:1043200001F2B22102EB410107E09DF8011029B131
:104330000299226801F52571114421609DF803104E
:1043400061B103AA0321284601F0CDF9039922683F
:1043500001F5257111442160002811D19DF8041048
:1043600061B104AA0421284601F0BDF9049922682C
:1043700001F2262111442160002801D121686961E0
:1043800005B030BD38B50C4640F2FF756A462821AD
:10439000FEF7E0FF00280DD1BDF80010C1F30B02BD
:1043A000ADF80020AA424FF0FA0101DDA2F58052DB
:1043B0004A43226038BD00002DE9FF4F8BB04FF01B
:1043C0000009199D8DF800909A460646C8464F464A
:1043D0008DF804908DF808908DF80C90ADF8109041
:1043E000C1F3C304CDF81490BCB1052C15D0072C33
:1043F00013D00C2C11D00D2C0FD00E2C0DD00F2C57
:104400000BD0002083466A4600213046FEF7BDFDF2
:104410009DF80010C9B110B11DE00120F2E705AB15
:1044200006AA30461899FFF743FBA0B918990598DA
:1044300007AA488100213046FEF7B3FD079921B154
:10444000069A8A4201D94FF0010920B902AA022135
:104450003046FEF79AFD9DF8081011B338BB08AA44
:1044600002213046FEF79DFD80B90122FF21304632
:10447000FFF776FA50B904AAB6213046FEF76AFF74
:1044800020B90022FF213046FFF76AFABDF810106C
:104490004902C6F84811089A1AB1914201D94FF061
:1044A000010820B903AA03213046FEF76EFD9DF8EE
:1044B0000C1091B190B9BAF1000F12D00D98010211
:1044C000B1FBFAF0824609AA03213046FEF769FDE6
:1044D000099911B18A4500D2012720B1287858B333
:1044E0002DE00020EEE7BBF1000F01D0FF2013E02C
:1044F000012C10D0022C0ED0032C0CD0062C0DD089
:10450000092C0BD0082C04D00A2C02D0B8F1000FD3
:1045100006D0032000E00520287010E00420FBE70F
:10452000042C00D00FB10220F6E7B9F1000F01D042
:104530000120F1E70020287018990020488101AA85
:1045400001213046FEF721FD002825D19DF80010FD
:1045500011B15FEA090100D0012186F82E10042C68
:1045600015D09DF8041091B15FF0000186F82F106E
:104570009DF8081011B15FEA080100D0012186F80A
:1045800030109DF80C1001B11FB1012102E0012192
:10459000ECE7002186F831100FB0BDE8F08F38B598
:1045A0001446CA6822606A4600F007F8002803D162
:1045B0002168009A1144216038BDF8B506460020F4
:1045C0000D461060144669463046FEF73BFE002853
:1045D00009D19DF80010002905D0A98A326A5143FB
:1045E0008031090A2160F8BD38B5144621B101298E
:1045F00005D06FF003010DE06A46502101E06A46E4
:104600007021FEF788FE010004D19DF80000FFF73D
:104610008BFB2070084638BD024600204FF08041D9
:1046200000E089089142FCD808E04318934203D87F
:10463000D21A01EB500000E0400889080029F4D1AB
:1046400070470000F8B5074600200D460446061FD7
:1046500013E0CBB2641CFF2B05D0042B0CD8295DD2
:1046600000206A4639E0295D641C61B1012912D03D
:10467000022918D003291ED03046295D002901D017
:104680000028E6D0F8BD2A5D641C295D01EB0221FB
:10469000A7F8341116E0295D641C2A5D02EB0121A4
:1046A000A7F836110EE02A5D641C295D01EB02219A
:1046B000A7F8381106E0295D641C2A5D02EB012190
:1046C000A7F83C11641C295D0029C2D1F8BD00BFC8
:1046D00015F804C002F800C0401C641C9842F7DBC7
:1046E0003846FFF766F9C8E7F8B5064600208DF8AA
:1046F000000004464FF4FA6569463046FEF78DFC2B
:10470000002807D19DF80010012903D0641CAC4299
:1047100001D3C01FF8BD3046FEF7F7FDECE72DE9E9
:10472000F04385B01D0091460E4607464FF0000449
:1047300001D097F8304102220121FFF711F94FF023
:10474000000838B90021384600F052F910B9B9F123
:10475000010F11D086F8008000280AD1002D08D062
:10476000224601213846FFF7FBF8002801D187F8DF
:10477000304105B0BDE8F083012004A9CDE9001661
:10478000CDE90280424601461346384600F086F9DC
:10479000E2E72DE9F0411E461746054690F8304104
:1047A0000023324600F040F9002810D100233246A1
:1047B00039462846FFF7B3FF002808D122460121D9
:1047C0002846FFF7CDF8002801D185F83041BDE833
:1047D000F0812DE9F74F96B006462C200B90002073
:1047E0000E9011908DF84C008DF850001290B6F894
:1047F0003CA14FF0B4094FF0030B01464FF00608FF
:10480000074672180020491C82F824014145F8D35C
:104810000122FF213046FFF7A3F8040079D10022DE
:104820004F213046FFF79CF80400F7D12C224E218F
:104830003046FFF795F80400F0D10022FF21304602
:10484000FFF78EF80400E9D14A46B6213046FFF75B
:1048500087F80400E2D1002280213046FFF780F87B
:104860000400DBD1002314AA13A93046FFF791FFFF
:104870000400D3D106F592730EAACDF800800693FA
:104880000E90CDE903B29A1D0A92CDE9019001463E
:10489000304600F08AFE04003BD109A930460E9D47
:1048A00001F0B8F8040034D1BDF82410514531D9D5
:1048B00000213218401C82F824114045F9D300E051
:1048C0006D1C09EB050000F087FF10B90B988542BD
:1048D000F6D301200EA9CDF800801590CDE903B1E3
:1048E000CDE9019501463046069B0A9A00F05DFE2F
:1048F000040079D109A930460E9D01F08BF804001F
:1049000072D1BDF82410514505D901205F4612909F
:1049100001E051E0159089B2514555D21598129099
:104920005F4642460FA80699FBF789FCBDF82410A4
:10493000B1EB0A0000D54042834611AB2A464146FE
:104940000A9800F09DFE1198411C0FD0484400F0D9
:1049500043FF159988422ED1119D41462A467F1C5E
:10496000069800F06CFE040003D03DE06FF03104C7
:104970003AE030466D1C069901F00AFD040033D17F
:1049800009A9304601F046F804002DD1BDF82410E5
:10499000B1EB0A0000D5404251450ED958450AD91D
:1049A0000FA9304601F0F4FC044642460FA90698D0
:1049B000FBF745FC7F1E3CB116E0834642460FA83C
:1049C0000699FBF73CFCB8E717980760189912980E
:1049D0000870012086F815011798007886F81301F1
:1049E0001898007886F8140119B02046BDE8F08FB9
:1049F00010B541F0010204460021FEF7B1FF002886
:104A000011D12046FFF770FE00280CD1002120466E
:104A1000FEF73CF9002806D120460022BDE81040F0
:104A20001146FEF79DBF10BD2DE9F04385B04FF054
:104A300000051E0091460F4680462C468DF810500A
:104A400001D098F8305101221146FEF789FF38B99C
:104A500040214046FFF7CCFF10B9B9F1010F10D04B
:104A60003C7000280AD1002E08D02A460121404679
:104A7000FEF776FF002801D188F8305105B0BDE877
:104A8000F083012004A900970394CDE90110224688
:104A900001461346404600F001F8E2E72DE9FF4FDA
:104AA00081B00020DDE90EA9DDE910650F468DF823
:104AB00000009B460122FF210198FEF751FF0446AA
:104AC000002211460198FEF74BFF40EA040800223D
:104AD000FF210198FEF744FF40EA08046FB12EB1B0
:104AE0005246CB210198FEF716FC0443A5B16A4655
:104AF000EE210198FEF70FFC0DE02EB1CB21039AB9
:104B00000198FEF72DFF044335B15B468022EE216C
:104B10000198FEF70DFF04430122FF210198FEF7E3
:104B20001FFF0443012200210198FEF719FF0443EF
:104B30000022FF210198FEF713FF9DF8001020438B
:104B400001F0EF0289F8002005B0BDE8F08F2DE9F3
:104B5000FF4107464FF4FA6002900020039044F6AC
:104B600020600E466FF0030581424FD3A6F636341F
:104B700069463846FEF707FB002844D19DF800102F
:104B800029B99DF8011011B99DF8021001B302AACC
:104B90000221384600F0A7FD002834D19DF800100E
:104BA00029B1029901F24E21A1422FD2641A9DF837
:104BB000021021B1029901F2B221490005E09DF8ED
:104BC000011029B1029901F52571A1421ED2641A82
:104BD0009DF8031061B103AA0321384600F083FD5C
:104BE000039901F52571A14210D2641A00280AD157
:104BF0009DF80410002906D0A4F22622042138468C
:104C000001F0CBFB7E6104B0BDE8F0812846FAE7F5
:104C10002DE9F0479046894686B004460025B42623
:104C200006274FF02C0A0122FF21FEF799FEB0B9AA
:104C300000224F212046FEF793FE80B92C224E2100
:104C40002046FEF78DFE50B90022FF212046FEF7D8
:104C500087FE20B93246B6212046FEF781FE0020AD
:104C600001462218401C82F82411B842F9D3B8F149
:104C7000000F01D106E06D1C701900F0ADFD08B900
:104C80005545F8D305A90097CDE90391CDE9016514
:104C900004F592739A1D4146204600F086FC0028D8
:104CA00006D1012184F8151184F8139184F8148138
:104CB00006B0BDE8F08700000FB4054B10B503A99E
:104CC000044A029800F0DAF810BC5DF814FB00000A
:104CD000695600085C0300200907090E002804DB60
:104CE00000F1E02080F80014704700F00F0000F1A0
:104CF000E02080F8141D704702E008C8121F08C1A8
:104D0000002AFAD170477047002001E001C1121F4C
:104D1000002AFBD1704700002DE9FF5FDDE902208A
:104D2000010DDDF838B0024318D044F61050A1F25E
:104D3000FF3141430D140F98012820D0A5EB0B0043
:104D4000401C5FEA000A4FF00004474EDFF81C9158
:104D5000A046504616D5CAF1000728E00F98012456
:104D600043A2012808D0002100980F9BC0E9002130
:104D7000C0E90243BDE8FF9F6FEA0B01F4E7CBF106
:104D80000000DEE7074612E0F80707D02246334668
:104D900040464946FBF797FB804689462246334604
:104DA00010461946FBF78FFB04460E467F10002F76
:104DB000EAD1DDE90201BAF1000F42464B4602DAC0
:104DC000FBF781FB01E0FBF7F0FB04460E460022F7
:104DD000284BFBF745FD03D84FF0FF30014607E0B5
:104DE0000022254B20463146FBF7C6FAFBF720FD93
:104DF000102409E0002C0ADB0A220023FBF7DEF96D
:104E0000019B30321A55641E50EA0102F2D1641C33
:104E1000019AC4F1110314440F9A012A03D001220C
:104E200008430DD10AE0084304D000204FF0110BD5
:104E30000F9080E7A3EB0B056D1E0DE05B4504DDD5
:104E40004FF0000205F1010504E003DA4FF0000223
:104E5000A5F10105002AECD000980F99C0E90231B4
:104E6000C0E9004586E70000000024400000F03F54
:104E7000300000000000F0430000E03F2DE9FF4F4C
:104E800095B09B468946064600250FE2252877D136
:104E900000242746F84A0121059400E0044316F84F
:104EA000013F203B01FA03F01042F7D130782A2865
:104EB00011D06FF02F033078A0F13002092A16D8F4
:104EC000059A44F0020402EB820203EB4202104412
:104ED000761C0590EFE759F8042B0592002A03DAB7
:104EE000504244F40054059044F00204761C30789B
:104EF0002E2816D116F8010F44F004042A280DD0EC
:104F00006FF02F023078A0F13003092B09D807EB9E
:104F1000870302EB4303C718761CF3E759F8047BB9
:104F2000761C30786C280FD006DC4C2817D0682807
:104F30000DD06A2814D104E0742810D07A280FD13B
:104F40000DE044F400140AE044F4801401E044F459
:104F500040147278824202D104F58014761C761CCB
:104F6000307866280BD013DC582877D009DC00286D
:104F700075D04528F6D04628F4D047281AD19DE1AF
:104F800018E0632835D0642879D0652812D195E1DE
:104F9000702873D008DC6728F1D069286FD06E289C
:104FA0000DD06F2806D1B5E073282CD0752875D0A8
:104FB000782874D05A46179990476D1C75E1C4F350
:104FC0000250022809D003280DD0D9F80010042877
:104FD0000DD00D6009F1040967E1D9F80010EA1756
:104FE000C1E90052F6E7D9F800100D80F2E70D7024
:104FF000F0E719F8041B8DF8001000208DF801006F
:10500000EA46012003E059F804AB4FF0FF30610796
:105010004FF0000102D40DE008F101018846B942C9
:105020000FDA8045F8DB1AF808100029F4D108E0FF
:1050300008F1010188468142FADB1AF808100029BC
:10504000F6D105985B46A0EB080721463846179A2B
:1050500000F094FA284400EB080507E04DE029E150
:105060000DE01AF8010B5A4617999047B8F101085C
:10507000F7D25B4621463846179A13E142E00A22EE
:105080000092C4F302524FF0000A022A08D059F8E5
:1050900004CB032A4FEAEC710AD00DE029E02AE0A4
:1050A00009F1070121F00702F2E802C1914609E087
:1050B0000FFA8CFC4FEAEC71042A03D14FFA8CFCF6
:1050C0004FEAEC71002907DA0A460021DCF1000CF6
:1050D00061EB02012D2202E0220504D52B228DF87E
:1050E0000420012203E0E20701D02022F7E79046E6
:1050F00059E00A2102E010220DE010214FF0000AD1
:1051000000910BE010224FF0000A44F0040408273D
:10511000009203E008224FF0000A0092C4F302520A
:10512000022A05D059F804CB0021032A08D009E04F
:1051300009F1070121F00702F2E802C1914605E0FA
:105140001FFA8CFC042A01D10CF0FF0C4FF0000870
:10515000220728D5702806D0009B83F0100353EA5D
:105160000A0305D00EE040228DF80420012208E059
:105170005CEA010206D030228DF804208DF805008B
:1051800002229046009B83F0080353EA0A030AD1E7
:105190005CEA010201D1620705D530228DF80420B6
:1051A0004FF001087F1E582804D034A003900EA8A9
:1051B00002900DE036A0F9E753466046009AFAF7F0
:1051C000FDFF84460398825C0298401E02900270A4
:1051D0005CEA0100F0D1029806A9081A00F1200A41
:1051E000600702D524F4803400E00127574502DD32
:1051F000A7EB0A0000E0002000EB0A0100900598F0
:105200004144401A0590E00306D45B462146179AB4
:10521000059800F0B3F90544002706E001A85A46B6
:10522000C05D179990476D1C7F1C4745F6DBE00376
:105230000CD55B462146179A059800F09FF9054466
:1052400004E030205A46179990476D1C0099481E7B
:1052500000900029F5DC08E0029802995A4600788F
:10526000491C0291179990476D1CBAF10001AAF1EF
:10527000010AF1DC65E10000092801003031323318
:105280003435363738396162636465660000000082
:10529000303132333435363738394142434445466C
:1052A0000000000000F058F90544761C3078002812
:1052B0007FF4ECAD19B02846BDE8F08F620700D44A
:1052C000062709F1070222F0070CFCE80223E14659
:1052D00003F000485FEA080C02D00FF2702C0DE0DA
:1052E0005FEA045C02D50FF2682C07E05FEAC47C39
:1052F00002D00FF2602C01E0AFF2700C4FF0FF38DB
:1053000023F00043CDF850C065280CD006DC4528BA
:1053100009D046281DD047283DD13DE0662818D049
:1053200067287ED138E00021112F01DB112000E039
:10533000781CCDE9000106A90EA8FFF7EDFCDDE918
:105340000F010E9A03910021009207F1010A0491C6
:105350004DE04FF000400097CDE9011006A90EA8DE
:10536000FFF7DAFCDDE90F0203920E9B1199002290
:10537000DDF80CA00093049211B9791C00EB010A2E
:10538000B7EB0A0004D4C0F1FF3007F1010A049022
:10539000AAEB0700019044E0012F00DA0127002169
:1053A000112F01DD112000E03846CDE9000106A9EA
:1053B0000EA8FFF7B1FCDDE90F010E9A0391002161
:1053C00004910092BA4621070CD40399514500DAA2
:1053D0008A46BAF1010F05DD009AAAF10101515C7C
:1053E000302908D0B84202DA10F1040F06DA0121A0
:1053F000CDE9011015E0AAF10101E9E7002805DC7B
:10540000049901440491AAEB000102E0411C5145BA
:1054100000DD8A460499401A401C01904FF000407C
:105420000290200704D40198504501DBCDF8048098
:1054300000208DF84F0002980DF14F07B0F1004F9A
:1054400025D02B200E9002984FF0020800280CDA8D
:10545000404202902D200E9007E00A210298FBF7AF
:105460001CF93031029007F8011DB8F10001A8F1D4
:105470000108F2DC02980028EFD1791E0E9808701E
:10548000307800F0200040F0450007F8020D12A827
:10549000C01B00F107081498007800B1012000EB50
:1054A0000A01019801EBE07105984144401A401E41
:1054B0000590E00306D45B462146179A059800F054
:1054C0005DF805441498007818B15A46179990472A
:1054D0006D1CE00324D55B462146179A059800F021
:1054E0004DF805441CE00498002807DBDDE90301C2
:1054F000884203DD0098405C179901E0179930203D
:105500005A469047049805F10105401C0490019803
:10551000401E019004D12E205A46179990476D1CC9
:10552000BAF10001AAF1010ADDDC05E017F8010B70
:105530005A46179990476D1CB8F10001A8F101086F
:10554000F4DC5B462146179A0598ABE62D00000077
:105550002B000000200000002DE9F041044600254A
:105560001E461746880404D405E039462020B0477B
:105570006D1C641EF9D52846BDE8F0812DE9F04187
:10558000044600251E469046C80301D5302700E09A
:105590002027880404D505E041463846B0476D1CF5
:1055A000641EF9D52846BDE8F0812DE9FF4F83B090
:1055B0000024DDE9125A149F9B46DDF840902646F0
:1055C0006FF0310800951AE06B462A464946059867
:1055D00000F056F80098411C06D01199084400F0DC
:1055E000FBF80499884202D044463D6023E0009DC8
:1055F00049462A46584600F022F86D1C761C56454E
:10560000E2D33D60BCB95946039800F0C1FE0400E6
:1056100011D101A9039800F061F80446002001A906
:1056200007E01BF800200B5C9A4201D0444602E0E0
:10563000401C4845F5D307B02046BDE8F08F70B553
:105640000825B2FBF5F3B2FBF5F60446002005FB96
:1056500016228B4202D36FF0310070BDE15C012550
:1056600095402943E15470BD04490A685206FCD5AF
:10567000024AC1B2121D1160704700000044004090
:105680002DE9F043082581464FF0FF301860B2FB4A
:10569000F5F0B2FBF5F605FB10274FF0000C304695
:1056A00015E0002219F80040B04202D1FC403A4611
:1056B0000AE05FEAC47805D000FB05224FF0010C38
:1056C0001A6003E06408521CAA42F2D3401C8842CC
:1056D00002D2BCF1000FE4D0BDE8F08306230A46F5
:1056E000B021FDF747BE2DE9F04100248AB01746EE
:1056F00080468DF81C402546ADF81840264641B13D
:10570000012906D0022904D0032912D0042929D066
:105710005DE06A4600214046FDF77CFD040005D1AE
:1057200007AA46214046FDF7F6FD04469DF81C00F9
:1057300015E06A4600214046FDF76CFD040046D1A5
:105740006A4600214046FDF765FD040005D106AA22
:1057500051214046FDF7FEFD0446BDF81800FEF756
:10576000DDFA2DE004A94046FDF70DFD9DF813007C
:10577000002590B16A4600214046FDF74BFD04002C
:105780001DD106AA51214046FDF7E4FD0446BDF8AF
:105790001800FEF7C3FA85B28CB96A46012140466B
:1057A000FDF738FD04000AD108AA71214046FDF733
:1057B000D1FD0446BDF82000FEF7B0FA86B2701B9A
:1057C00081B29DF800204046FEF797FA05463D60FD
:1057D0000AB02046BDE8F0810146044A890901204B
:1057E00052F82110002900D1002070474403002006
:1057F00006A0FFF761FAFDF741FD00BFFDF7FCFCD5
:10580000014606A0FFF758FAF8E7000068656C6CDF
:105810006F776F726C640D0A00000000643D2564B0
:105820000D0A0000FBF740FBFCF7C0FFFCF77AFC19
:10583000FCF7E8FCFCF7C6FDFCF7E0FDFCF700FE1A
:10584000FBF76AF800F008F800F056F8FCF730FCB7
:1058500000F06EF8FEE7000010B5FCF7F3FC002145
:105860000448FCF78DF9BDE810400C210148FCF715
:1058700087B90000B403002000B585B00020049073
:105880000D48FBF767F802900C48FBF763F80390AC
:105890000948FBF771F880F0004000900748FBF7DB
:1058A0006BF801900648022304AA6946406801F09B
:1058B000F5F905B000BD0000FC0300204404002001
:1058C0000000002010B5EFF3058149B9EFF3108116
:1058D00031B908490968022905D1EFF3118111B1E5
:1058E0006FF0050403E0002408B100F009FF204632
:1058F00010BD000070000020EFF3058058B9EFF3F1
:10590000108040B909490868022801D030B109E087
:10591000EFF3118030B16FF005007047012008608F
:10592000002070474FF0FF307047000070000020EB
:1059300010B5EFF3058060B9EFF3108048B90B495B
:105940000868022802D0012806D00BE0EFF311808E
:1059500040B16FF0050010BD0220086000F080FF2C
:10596000002010BD4FF0FF3010BD0000700000207F
:10597000F0B585B00B464FF00004EFF305810394BA
:10598000A1BBEFF3108189BB21490968022902D12B
:10599000EFF3118151BB48B3802618218DF81040D8
:1059A00004AD42B3176807B13D4697691FB1394648
:1059B0007F1E382F02D21779FF0702D0002005B0D2
:1059C000F0BD576907B1BE08D2F808C0BCF1000F9E
:1059D0000DD0D4685C2C18D312693AB137B18DE878
:1059E00006103246294601F0BAFA03900DE0D76856
:1059F0005FB912694AB903AACDE90012B2B22946C9
:105A000001F080FA012800D003940398D7E7000042
:105A10007000002070B50E4688B0054690F8304101
:105A2000C0220121FDF79CFF002823D169462846AA
:105A3000FDF751FC00281DD10122FF212846FDF76A
:105A40008FFF002816D13246B6212846FDF782FC8A
:105A500000280FD10022FF212846FDF781FF0028F2
:105A600008D1224601212846FDF77AFF002801D1FE
:105A700085F8304108B070BD2DE9F041DFF84C8069
:105A8000054640460C46B8F80610C38800680A1957
:105A9000D8F800701844802A0AD9C1F180018EB26A
:105AA00032462946FAF7CBFBA21BA919384601E07A
:105AB00022462946FAF7C3FB98F80610214401F064
:105AC0007F01A8F80610BDE8F08100008C240020BA
:105AD0002DE9F041134C0F46054666692068001D0C
