:020000040800F2
:10000000F8390020990100086D3A0008D12B00084A
:1000100005350008DD0B00080D4400080000000055
:1000200000000000000000000000000001010008C6
:10003000630C000800000000450100081D3E000898
:10004000B3010008B3010008B3010008B3010008C0
:10005000B3010008B3010008B3010008B3010008B0
:10006000B3010008B3010008B3010008B3010008A0
:10007000B3010008B3010008B3010008B301000890
:10008000210C00082D0C0008B3010008B301000882
:10009000B3010008B3010008B3010008B301000870
:1000A000B3010008B3010008B3010008B301000860
:1000B000B30100089D3E0008B3010008B301000829
:1000C000B3010008B3010008B3010008B301000840
:1000D000B3010008E9430008F543000801440008A3
:1000E000B3010008B3010008B3010008DFF80CD029
:1000F00000F0E4FC0048004795570008F83900205C
:10010000224B19680868B0E8F00F80F30988BFF344
:100110006F8F4FF0000080F311884EF00D0E704786
:100120000000000006480068006880F3088862B696
:1001300061B6BFF34F8FBFF36F8F00DF00BF00BF0B
:1001400008ED00E0EFF30980BFF36F8F0F4B1A68E3
:1001500020E9F00F106008B54FF0500080F31188CF
:10016000BFF34F8FBFF36F8F07F020FD4FF00000FC
:1001700080F31188BDE8084019680868B0E8F00FFE
:1001800080F30988BFF36F8F704700BF9C00002089
:10019000EFF3058070470000064880470648004797
:1001A000FEE7FEE7FEE7FEE7FEE7FEE7FEE7FEE727
:1001B000FEE7FEE7993E0008ED0000082DE9F05F3C
:1001C0000546002092469B468846064681464024C6
:1001D0001BE0284641464746224600F020F8534699
:1001E0005A46C01A914110D311461846224600F0D3
:1001F00055FB2D1A67EB01084F46224601200021CE
:1002000000F04CFB17EB00094E41201EA4F1010445
:10021000DFDC484631462A464346BDE8F09F202AA7
:1002200004DB203A21FA02F00021704721FA02F3A0
:10023000D040C2F12002914008431946704740EA7D
:1002400001039B0703D009E008C9121F08C0042A54
:10025000FAD203E011F8013B00F8013B521EF9D23B
:100260007047D2B201E000F8012B491EFBD2704763
:100270000022F6E710B513460A4604461946FFF772
:10028000F0FF204610BD421C10F8011B0029FBD1D5
:10029000801A7047F0B480EA0102D40F4200B2EB3A
:1002A000410F02D20246084611464A0042D0C30D11
:1002B000DDB2C1F3C752AD1A202D35DAC1F31601F4
:1002C00041F4000204B15242C5F1200602FA06F1DF
:1002D0002A411044B3EBD05F23D0C4B1012DA0EB71
:1002E000C35009DCF0BC4FF0004202EAC352DBB25B
:1002F00000F5000000F0FCBA400000F1807000EB57
:10030000C350A0F1807040EAD170490009E049086B
:1003100041EAC071A0EBC35000F50000400800EBBB
:10032000C350F0BC00F0DBBA6142012202EB410194
:10033000001BF6E7F0BC704781F00041AAE780F0AF
:100340000040A7E780EA010210B502F00043400038
:1003500022D04A001FD0010E01EB1261C0F35600FB
:10036000C2F3560240F4000042F40002A0FB022057
:1003700000047F39140400D0401C50EA124001D41C
:100380004000491EC2B20C0604EBD010401C4008CD
:10039000802A02D003E0002010BD20F001000029D7
:1003A00000DA0020184310BD30B480EA010202F0E8
:1003B000004530F0004221F0004013D090B1C30D51
:1003C000D40DC2F31601C0F31600E41A41F4000183
:1003D00040F400027D34914201D3641C00E04900E6
:1003E000002C02DA30BC002070474FF400000023DC
:1003F000914201D3891A034340084FEA4101F7D1E2
:1004000051B1914202D14FF0004105E002D24FF0CC
:10041000010101E06FF0010103EBC450284430BC3E
:1004200000F05DBA420005D0C0F3C752524291427B
:1004300001DC0020704700EBC15070472DE9FE4FF2
:10044000804681EA0300C00F0C46009021F0004175
:1004500023F00045B8EB0200A94105D240462146F1
:1004600090461C460B46024623F00040104347D0FE
:10047000270DC7F30A00C3F30A510290401A0190F6
:1004800040286BDAC3F3130040F4801B00989246B7
:1004900020B10023D2EB030A63EB0B0B0198594602
:1004A000C0F14002504600F0F9F906460D465046AC
:1004B0005946019A00F001FA10EB0800614100244E
:1004C00087EA115284EAE7731A4340D0009A62B374
:1004D000019A012A4FEA075215DC001B61EB020169
:1004E0004FF0004202EA0752CDE90042001C41F5FC
:1004F000801132462B4600F038FA03B0BDE8F08F89
:1005000040462146F9E7001B61EB0201001C41F562
:10051000801300185B412018A2F5001747EB030178
:1005200040EAD570B6196D4111E06D084FEA360604
:1005300045EAC0754FEA0752001B61EB0201001C3F
:1005400041F5801149084FEA300000195141324607
:100550002B4603B0BDE8F04F00F0F8B90098012237
:1005600040000023D0EB020263EBE07300982146C9
:100570004FEAE074B8EB000061EB0401E9E783F0B7
:1005800000435BE781F0004158E72DE9FE4F81EA27
:10059000030404F0004421F0004100944FF0000BEC
:1005A00023F0004350EA01045ED052EA03045BD01A
:1005B000C3F30A54C1F30A552C44A4F2F334019452
:1005C000A0FB0254C1F3130141F48011C3F31303E0
:1005D00043F4801301FB024400FB034E840A970A94
:1005E00044EA815447EA8357A4FB076802958D0AC1
:1005F00005FB07854FEA932C04FB0C542705029D4D
:100600004FEA065847EA1637B5EB08056EEB070CBC
:10061000870E920E47EA811742EA8312A7FB020176
:10062000B6EB0B0164EB00042B0D43EA0C335E18B0
:1006300044EB1C50DA465146E7FB0201C5F31304B4
:100640004FEA0B3343EA14534FEA0432019C43EA66
:100650000603A4F10C040294009CCDE900B400F060
:1006600084F903B0BDE8F08F00200146F9E72DE9D9
:10067000F04D81EA030404F0004B21F000451446DC
:100680004FF0000A23F0004150EA050220D054EA5E
:1006900001021DD0C5F30A570246C5F31303C1F387
:1006A0001300C1F30A5640F4801543F48013A7EBFE
:1006B0000608101BD64608F2FD3873EB050002D37E
:1006C00008F1010801E092185B41B8F1000F03DA6C
:1006D00000200146BDE8F08D00204FF48011064651
:1006E00084460EE0171B73EB050705D3121B63EB63
:1006F000050306434CEA010C49084FEA3000921802
:100700005B4150EA0107EDD152EA030012D082EAC0
:10071000040083EA0501084305D0101BAB4106D253
:100720000122002306E000224FF0004302E06FF0B8
:10073000010253101AEB06004CEB085110EB0A00B3
:1007400041EB0B01BDE8F04D00F000B9C10F80EAAC
:10075000E0700844CA079623002100F0C9B80EB51E
:10076000C10F80EAE0700844CA07002140F2334319
:100770008DE80E000A460B4600F0F7F803B000BD06
:1007800000F0004220F00040C10DC0F3160040F41C
:1007900000007F2901DA00207047962903DCC1F1AF
:1007A0009601C84001E096398840002AF4D04042C2
:1007B000704700F0004230F000400AD0C10D01F552
:1007C0006071C0F3160042EA0151C20840071143AC
:1007D000704700200146704730B5041E71F10004D7
:1007E00004DB4FF00044404264EB0101141E73F13E
:1007F000000405DB1C464FF00043524263EB040348
:100800008B4208BF824230BD30B5041E71F1000436
:1008100004DB4FF00044404264EB0101141E73F10D
:10082000000405DB1C464FF00043524263EB040317
:10083000994208BF904230BD01F0004330B421F02E
:10084000004150EA010206D00A0DA2F56072C1F320
:100850001301002A02DC30BC00207047440F44EA38
:10086000C104C100E01830BC00EBC25000F037B842
:1008700030B50B46014600202022012409E021FA70
:1008800002F59D4205D303FA02F5491B04FA02F56D
:100890002844151EA2F10102F1DC30BD202A04DB40
:1008A000203A00FA02F1002070479140C2F1200383
:1008B00020FA03F3194390407047202A06DBCB1738
:1008C000203A41FA02F043EAE07306E041FA02F30B
:1008D000D040C2F1200291400843194670470029D8
:1008E000A8BF7047401C490008BF20F001007047B6
:1008F00010B4B0FA80FC00FA0CF050EA010404BF16
:1009000010BC704749B1CCF1200421FA04F411FA6B
:100910000CF118BF012121430843A3EB0C01CB1DAF
:100920004FEA00614FEA102042BF002010BC704720
:1009300000EBC35010440029A4BF10BC7047401CFA
:10094000490008BF20F0010010BC704710B5141E0C
:1009500073F1000408DA401C41F1000192185B4178
:100960001A4301D120F0010010BD2DE9F04D92464F
:100970009B4611B1B1FA81F202E0B0FA80F2203266
:100980009046FFF78BFF04460F4640EA0A0041EA13
:100990000B0153465A46084313D0114653EA01004F
:1009A00019D0C8F140025046FFF739FC05460E4603
:1009B000504659464246FFF771FF084305D00120D3
:1009C00004E020463946BDE8F08D0020054346EAA4
:1009D000E0762C4337430A986305E40AA0EB08004D
:1009E0000022FD0A44EA47540A3002D5002001469D
:1009F000E9E7010510196941DDE908450019694178
:100A0000BDE8F04DA2E72DE9FE4FC3F30A5701F010
:100A100000450024C1F30A56C3F31303C1F31301C5
:100A200043F4801312EB020AA64641F480110095AC
:100A300043EB030CA7F1010B16E0B0EB0A0061EBEE
:100A40000C01071E71F1000707DA4FF00008D0EB28
:100A5000080085F0004568EB0101171A73EB0107E8
:100A6000EBD3761E001849415E45F6DA50EA0102E2
:100A700009D0CDE900E5002213460296FFF775FF85
:100A800003B0BDE8F08F20460099F9E7C1F30A52A0
:100A9000C1F3130140F2FF3341F480119A4202DAAC
:100AA00000200146704740F233439A42A2F233429B
:100AB00002DC5242FFF7B3BBFFF7F0BE064C074D16
:100AC00006E0E06840F0010394E80700984710341E
:100AD000AC42F6D3FFF70EFB2895000848950008B6
:100AE00070B521F0004303430CD0C1F30A55002434
:100AF000D5EB040564EB0403D617AD1AB34102DB52
:100B00000020014670BD201841EB025170BD70B548
:100B10008C1810F8015B15F0070301D110F8013BA8
:100B20002A1106D110F8012B03E010F8016B01F82F
:100B3000016B5B1EF9D12B0705D40023521E0DD487
:100B400001F8013BFAE710F8013BCB1A921C03E0D5
:100B500013F8015B01F8015B521EF9D5A142D8D30D
:100B6000002070BD086000204861C1E9022303B184
:100B70009960D06848B110690861106941611161DC
:100B80001079401C1071087170470961D160012013
:100B90001161F7E708600020C86008617047000035
:100BA0000949084888611C31084888611C31084897
:100BB0008861703107488861A1F58C7106488861A9
:100BC00070470000493D000814310020553C0008E2
:100BD00011440008E10B0008E53C0008FEE70000B6
:100BE00010B508A32D226421074805F06DFE0648C4
:100BF00005F090FE05A003F013FCBDE810400020B6
:100C000006F0FEBE4F4E0000D82C0020436172203B
:100C10006973207265616479212121210A00000035
:100C2000014800F07FBA0000A4030020014800F052
:100C300079BA0000E803002030B590F84050012454
:100C4000AC40C56B6C60046863604368102B03683C
:100C500003D099600068C26030BD9A600068C160CE
:100C600030BD70472DE9FF4F81B000240E98144F1E
:100C700092468B46264625464FFA83F94FFA80F86E
:100C8000641CE4B273B24A462146B87802F0C5F952
:100C900086B26BB242462146B87802F0BEF985B200
:100CA0003346524659460095019800F00BF80198DA
:100CB00005F030FEB8788442E2D305B0BDE8F08F8D
:100CC000180100202DE9F843154C81468846E0784C
:100CD0001E4680F0010117464846089D05F023FE98
:100CE00033463A4641464846009505F008FCE1780F
:100CF000484605F018FEAD1EA8B2009008F10100AC
:100D0000B61E7F1C81B2B3B2BAB2484605F095FB5D
:100D1000E07880F001014846BDE8F84305F003BEE5
:100D2000180100202DE9FF4F83B08346984689467D
:100D30000026109D1868FFF7A6FA00EB40014FF05F
:100D4000040A0AEB4100C7B24B4805F00BFE4B49C1
:100D5000494805F0F0FDD8F80C000C21484CC36858
:100D6000AB4206D1454504D0E1710020207260728B
:100D700020702A7998F80400101A627A50EA020C5E
:100D80004FF0010201D0AB4202D1217262721AE02F
:100D900000280CDD237A00EB400003EB800040B21A
:100DA000207230280FDD2270302020720BE00AD52F
:100DB000237A00EB400003EB800040B220720C2845
:100DC00001DA22702172D9E903025061D9E90302E4
:100DD0000261294805F028FB761CF6B2E178264826
:100DE00005F0A1FD402000220090802311462248FA
:100DF00005F023FBE07880F001011F4805F093FD2A
:100E00002A464146304600F03DF8009543464946A3
:100E10005846059A00F072F80221174805F083FD44
:100E2000E07994F9082043B23146607802F0F5F891
:100E3000E0712868FFF727FA00EB40010AEB410058
:100E400042B27BB23146607802F0E7F80C21CDE97E
:100E5000001AC7B2E0793B46401E82B20BF1010195
:100E6000054805F03CFC044805F054FD60788642D6
:100E7000AFD307B0BDE8F08FD82C0020BE870008A4
:100E8000180100202DE9F843804690684027117929
:100E90000079491EB7FBF0F0164C484316466071C6
:100EA0003B4602227A21144805F016FD00250AE08F
:100EB000B7FBF0F06843801C82B2062377210E480E
:100EC00005F099FB6D1CB0680079A842F0D8207934
:100ED000414643B2607942B2607802F09EF8C2B2F5
:100EE00022710420009008237621034805F0A5FA1A
:100EF000BDE8F88318010020D82C00202DE9F04728
:100F00000D46CE68D96881460898C9682A4C904633
:100F1000814203D1984201D00921A171027926486A
:100F20001B7900270178A2EB030C2879BCF1000F94
:100F300001DD012905D0BCF1000F20D501290FD01A
:100F40001DE0011F27708C4507DDC0F10400A17969
:100F500000EB400001EB800010E0A0790C380DE0C0
:100F60009A1A011F27708A4206DDA17900EB400022
:100F700001EB8000303801E0A0790C30A07101272E
:100F80000EE000BF94F9061007FB0810092805D9E8
:100F900082B249460948336805F096FC76697F1CA1
:100FA0002879B842EED249462B68BDE8F0470922BD
:100FB000024805F089BC000018010020D82C002050
:100FC00010B502F0D9F902F00BFA0021084801F03F
:100FD00005F90421064801F001F90021054801F056
:100FE000FDF8BDE810400421024801F0F7B8000008
:100FF000480200200002002072B6FEE710B500682B
:10100000406A00B2FFF7A2FB0349FFF79BF9BDE876
:1010100010400249FFF7C8B90000B443000052472E
:1010200010B50168486A002200B24A6241F270714C
:101030004843FFF78BFBBDE810400149FFF7B4B907
:101040000000524710B590F821100022022905D067
:101050000421816380F82020012010BD01680B6805
:1010600023F00E030B6001680B6823F001030B6093
:1010700090F84030C46B012101FA03F3636080F8FB
:10108000211080F82020104610BD000010B590F807
:1010900021100024022903D00421816301243DE0B2
:1010A00001680A6822F00E020A6001680A6822F0EC
:1010B00001020A601A4A0168914201D1012121E02E
:1010C000174A1432914201D110211BE0144A2832F0
:1010D000914201D1891515E0114A3C32914201D16A
:1010E00089140FE00E4A5032914202D14FF4803100
:1010F00008E00B4A6432914202D14FF4801101E0C2
:101100004FF08071064A083A5160012180F82110A1
:10111000002180F82010416B01B18847204610BDA6
:10112000080002402DE9F05FC16B0C6801680B6894
:10113000D0F840C0042202FA0CF2494DDFF824A195
:10114000494E4A4FDFF828B1DFF828E122422CD07F
:101150005A072AD50A68920603D40A6822F00402C4
:101160000A600168A94201D1042219E0514501D168
:10117000402215E0B14202D14FF4806210E0B94242
:1011800002D14FF480420BE0594502D14FF4802246
:1011900006E0714502D14FF4800201E04FF0806219
:1011A0002F4908394A60C16A3BE04FF0020808FA4B
:1011B0000CF818EA040F4FF000094FF0010235D087
:1011C0005FEA837832D50B689B0605D40B6823F061
:1011D0000A030B6080F821200168A94201D1022294
:1011E00019E0514501D1202215E0B14202D14FF45E
:1011F000007210E0B94202D14FF400520BE05945A1
:1012000002D14FF4003206E0714502D14FF40012D2
:1012100001E04FF00072124908394A6080F82090CE
:10122000816A00291AD0BDE8F05F0847082505FA51
:101230000CF5254212D01B0710D50B6823F00E03C6
:101240000B6090F84010C36B02FA01F159608263A1
:1012500080F8212080F82090016BE2E7BDE8F09F44
:10126000080002401C0002403000024044000240DE
:10127000580002406C00024030B528B308C813493A
:1012800014221944B1FBF2F18900C1631049816352
:10129000022141771A6843F6F0718A43D0E90014BD
:1012A0002143D0E902452C43214304692143446989
:1012B00021438469214311431960002141630122C4
:1012C00042770177084630BD012030BDF8FFFDBFF1
:1012D0000000024070B5044690F820000025012867
:1012E0000CD0012084F8200094F821600020012E09
:1012F00006D084F820000225284670BD022070BD6B
:10130000022684F82160A0632068066826F00106A2
:1013100006602046FFF790FCE06A0028206801681C
:1013200002D041F00E0106E021F0040101602068C6
:10133000016841F00A0101602068016841F0010183
:101340000160D9E770B5044600F008F90546601C55
:1013500002D004480078044400F000F9401BA04289
:10136000FAD370BD2C0000202DE9F84FDFF8B891BA
:101370000024A9F1040B23460F2709F1040AABF15D
:10138000040EC9E00125A5402A40AA427DD1674E3E
:10139000D1F804C0ACEB0608B44532D014DCBCF183
:1013A000030F3AD009DCBCF1000F2AD0BCF1010FC9
:1013B0001CD0BCF1020F31D11DE0BCF1110F17D0D0
:1013C000BCF1120F2AD119E0B8F5881F19D006DC3C
:1013D000B8F5803F15D0B8F5801F1FD111E0B8F5E2
:1013E000001F0ED0B8F5041F18D10AE0CB6815E035
:1013F000CB681B1D12E0CB6808330FE0CB680C33C1
:101400000CE08B682BB1012B4FF0080303D0456132
:1014100004E0042302E0056100E00023FF2A01D874
:10142000064601E000F104064FEA840501D9A5F162
:101430002005D6F8008007FA05FC28EA0C0803FA14
:1014400005F548EA0508C6F800804D68ED0062D54C
:10145000374DAE6946F00106AE61AD6924F0030672
:1014600005F001050095334D06EB050CDCF808503E
:10147000A607360F07FA06F825EA0805DFF8B88050
:10148000404503D14FF0000817E044E0DFF8AC809E
:10149000404502D14FF001080FE0DFF8A48040453D
:1014A00002D14FF0020808E0DFF89880404502D1F1
:1014B0004FF0030801E04FF0040808FA06F848EA84
:1014C0000508CCF808804D68D9F80060ED024D465B
:1014D00001D5164300E096432E604D68DAF80060AF
:1014E000AD02554601D5164300E096432E604D6887
:1014F000DBF80060AD035D4601D5164300E096437E
:101500002E604D68DEF80060ED03754601D5164388
:1015100000E096432E60641C0D682A46E5407FF487
:1015200031AFBDE8F88F0000080401400000111041
:10153000001002400000014000080140000C014082
:1015400000100140001401408068084000D00120D4
:1015500070470AB1016170470904FBE701488068E0
:10156000704700002C00002070B5040025D094F8CE
:101570003D00002520B984F83C50204600F04EF98B
:10158000242084F83D002068016821F001010160F9
:101590002068016841F4004101602068016821F47D
:1015A0000041016000F0F2FA4D4A6168914201D8B1
:1015B0004C4900E04C49884201D2012070BD4B49A2
:1015C0002368B0FBF1F15E6826F03F060E435E60D3
:1015D0006368934206D94FF4967359434FF47A7374
:1015E000B1FBF3F12368491C1E6A26F03F06314324
:1015F00019626168914210D84900401EB0FBF1F2B7
:10160000521CC2F30B02042A01D2042022E0B0FBD8
:10161000F1F0401CC0F30B001CE0A268F2B301EB38
:10162000C10303EB0116431EB3FBF6F35B1C43F44B
:1016300080431B0549D092B301EBC10202EB0111BB
:10164000401EB0FBF1F0401CC0F30B0040F48040A2
:1016500040F400402168CA694CF6FF739A43104376
:10166000C861D4E9071001432068026822F0C00273
:1016700011430160D4E9030101432068826848F204
:10168000FF339A4311438160D4E90501084321687F
:10169000CA6822F0FF021043C86001E00EE016E0C5
:1016A0002068016841F0010101602564202084F870
:1016B0003D00256384F83E50002070BD01EB4106DB
:1016C000431EB3FBF6F35B1CB3E70120C2E701EB5B
:1016D0004101401EB0FBF1F0401CC0F30B00B7E726
:1016E000A086010080841E0000093D0040420F00DA
:1016F0002DE9F84F1F4690468A460446DDF82890AB
:10170000FFF72CFF054694F83D0020287FD11923D0
:10171000012240492046009501F06AFB002876D15D
:1017200094F83C00012872D0012084F83C00206825
:101730000168C90703D1016841F001010160206817
:10174000016821F400610160212084F83D0010202F
:1017500084F83E0000262664C4F824806785608DE6
:1017600020852D48E0622B464A465146204601F02E
:101770005FFA90B9206841698069009036E02A4696
:101780004946204601F0DAFB50B1206C042804D110
:101790002068016841F4007101600120BDE8F88F04
:1017A000606A216800780861606A401C6062618D2F
:1017B000491E6185218D491E89B2218522685369A0
:1017C000DB435B070BD451B100781061606A401CA9
:1017D0006062608D401E6085208D401E20852A46F7
:1017E0004946204601F0D8FA0028CED1208D0028A5
:1017F000C5D154F83D0B016841F40071016020200F
:1018000004F81E09E67766770020C7E7FFE70220A5
:10181000C4E70000020010000000FFFF10B586B012
:1018200000210091019102910391006813498842BF
:1018300022D1134CA06940F00800A061A06969465C
:1018400000F0080004904FF44070009012200190C6
:10185000032003900B48FFF787FD0B48416841F0D8
:10186000E06141F002014160E06940F40010E06194
:10187000E06900F40010049006B010BD0054004070
:1018800000100240000C0140000001400248816845
:1018900002781144816070472C000020074810B581
:1018A000016841F010010160032000F0A7F800205A
:1018B00000F006F800F050F8002010BD00200240B3
:1018C00030B505461F4887B0C16941F00201C161CA
:1018D000C06906A900F00200009001A800F036F9E6
:1018E0000498B0B100F052F940001749174AB0FB14
:1018F000F1F11748491E0260416040F2E7320021D1
:10190000C0E903218160816100F076FB040003D00F
:1019100015E000F03BF9E8E70D4800F09BFB040000
:101920000DD11D2000F03CF8102D07D200222946D1
:101930001D2000F043F80748056000E0012407B0CF
:10194000204630BD0010024040420F00000400401D
:101950002C040020300000200F4808B5816941F0B8
:1019600001018161816901F001010091C16941F0CA
:101970008051C161C069002200F0805000900F21A9
:10198000901E00F01BF80548416821F0E06141F02D
:101990000071416008BD00000010024000000140DD
:1019A000002809DB00F01F0201219140400980005E
:1019B00000F1E020C0F8001170470000F0B40E4BB9
:1019C0001B680C46C3F30223C3F10705042D00D99D
:1019D0000425191D072901D2002300E0DB1E012682
:1019E00006FA05F1491E214099409E40761E164098
:1019F0003143F0BC02F04CBD0CED00E0064900F0B4
:101A0000070208684FF6FF03184040EA0220034A25
:101A100010430860704700000CED00E00000FA057C
:101A20002DE9F0470F46050061D0434E306800F0C5
:101A30000700B84209D2306820F007003843306010
:101A4000306800F00700B84251D128683B4C81074C
:101A500012D5400703D5606840F4E06060602878E4
:101A6000000703D5606840F4605060606068A96852
:101A700020F0F000084360602878C00728D068682C
:101A8000012810D02168022810D0890700292EDAF9
:101A9000616821F0030101436160FFF75FFD80464B
:101AA00041F288390DE021688903EFE78901EDE70C
:101AB000FFF754FDA0EB0801494502D90320BDE81A
:101AC000F0876068696800F00C00B0EB810FEFD11F
:101AD000306800F00700B8420BD9306820F00700EA
:101AE00038433060306800F00700B84201D0012070
:101AF000E5E72878400705D56068E96820F4E060EC
:101B0000084360602878000706D56068296920F4DA
:101B1000605040EAC100606000F058F86168084A0F
:101B2000C1F30311515CC8400649086006480068CB
:101B3000FFF7C6FE0020C2E700200240001002406E
:101B4000A687000838000020300000200F22026025
:101B50000C4A536803F003034360536803F0F00337
:101B60008360536803F4E063C36052684FF4E0633A
:101B700003EAD20202610448006800F0070008602E
:101B80007047000000100240002002400448054950
:101B900000684968044AC1F30221515CC84070479B
:101BA0003800002000100240B687000804480549AC
:101BB00000684968044AC1F3C221515CC8407047BB
:101BC0003800002000100240B68700080E4A516815
:101BD0000E4801F00C03042B11D0082B0FD10C4838
:101BE000C1F38343C903C05C0AD55168084AC1F3F5
:101BF0004041921E515C054A5043B0FBF1F07047E2
:101C000004494843704700000010024000127A0067
:101C10009687000800093D002DE9F84F040070D0B8
:101C20002078C04DC00749D06868C0F38100012802
:101C300007D06868C0F38100022809D16868C00332
:101C400006D52868800339D560680028E7D035E0DC
:101C50006068B0F5803F0BD010B1B0F5A02F11D067
:101C6000286820F480302860286820F4802002E072
:101C7000286840F480302860606890B1FFF76EFCFF
:101C800006460AE0286840F480202860F0E700BF9C
:101C9000FFF764FC801B642873D828688003F7D59D
:101CA0000CE0FFF75BFC064605E000BFFFF756FCC3
:101CB000801B6428F0D828688003F7D420789A4ED7
:101CC00080074FF001094FF0000839D5686810F01F
:101CD0000C0F07D06868C0F38100022809D168683A
:101CE000C00306D42868800714D52069012808D1CC
:101CF00010E02069B0B1C6F80090FFF72FFC07464E
:101D000005E00AE1FFF72AFCC01B0228C4D82868B6
:101D10008007F7D52868616920F0F80040EAC10023
:101D200028600DE0C6F80080FFF718FC074604E0C5
:101D3000FFF714FCC01B022823D828688007F7D4BB
:101D4000207800072CD57948A169D9B1C0F8009056
:101D5000FFF704FC074604E0FFF700FCC01B022865
:101D60000FD8686A8007F7D571484FF4FA510068B8
:101D7000B0FBF1F0009000BF0098411E0091FAD234
:101D80000EE080E0C0F80080FFF7E8FB074604E0C3
:101D9000FFF7E4FBC01B022875D8686A8007F7D4F8
:101DA0002078400760D5E8690027C00008D4E869BA
:101DB00040F08050E861E869012700F08050009011
:101DC0005C480168C90513D40168834641F48071F9
:101DD0000160FFF7C3FB824606E000BFFFF7BEFBD2
:101DE000A0EB0A0064284ED8DBF80000C005F5D54A
:101DF000E06801280AD008B1052813D0286A20F02D
:101E000001002862286A20F0040002E0286A40F0FD
:101E100001002862E06841F2883B98B1FFF79EFB21
:101E200082460BE0286A40F004002862EEE700BF1B
:101E3000FFF794FBA0EB0A0159455AD8286A80079E
:101E4000F6D50CE0FFF78AFB824605E0FFF786FB3C
:101E5000A0EB0A0159454CD8286A8007F6D41FB177
:101E6000E86920F08050E861E06988B36968C1F3EF
:101E70008101022944D00228C6F8608004D0FFF70F
:101E80006DFB044638E034E0FFF768FB074604E0EA
:101E9000FFF764FBC01B02282BD828688001F7D409
:101EA000206AB0F5803F05D16868A16820F4003051
:101EB00008436860D4E908010843696821F4741193
:101EC00008436860C6F86090FFF748FB044606E0E8
:101ED00025E000BFFFF742FB001B022809D8286855
:101EE0008001F7D51BE000BFFFF738FB001B02287D
:101EF00002D90320BDE8F88F28688001F4D40EE0F1
:101F00000128F7D06868226A00F48031914204D138
:101F1000616A00F47010884201D00120EAE70020D5
:101F2000E8E7000000100240000042428004424204
:101F300038000020007000407047704710B590F8DE
:101F40003C20012A22D0012280F83C20CA688C68FB
:101F500022F4407222434C6822F4806222430C68CF
:101F600022F4006222430C6922F4805222434C691D
:101F700022F400522243C969002322F480420A431A
:101F800001684A6480F83C30002010BD022010BD7A
:101F900070B590F83C20012A26D0012480F83C40FE
:101FA000022280F83D2003685A689D6822F070067E
:101FB0000A6832435A600D4B02689A4208D0B2F167
:101FC000804F05D00A4B9A4202D00A4B9A4204D164
:101FD000496825F080031943916080F83D40002155
:101FE00080F83C10084670BD022070BD002C0140F6
:101FF000000400400008004010B5040003D094F82D
:102000003D0010B107E0012010BD002084F83C0025
:10201000204600F01EF8022084F83D00211D2068B3
:1020200001F042FF012084F8460084F83E0084F865
:102030003F0084F8400084F8410084F8420084F8AE
:10204000430084F8440084F8450084F83D000020F3
:1020500010BD704790F83D10012901D00120704754
:10206000022180F83D100168CA6842F00102CA608E
:1020700000680B49884208D0B0F1804F05D009496B
:10208000884202D00849884204D1816801F00701E2
:10209000062903D0016841F001010160002070476A
:1020A000002C014000040040000800402DE9F041F0
:1020B0000D46040003D094F83D0018B108E001205B
:1020C000BDE8F081002084F83C00204600F040F894
:1020D000022084F83D002068816844F207029143A1
:1020E0008160211D206801F0DFFE226890689169FF
:1020F000166A2B68AF69034340F20330814341EA1B
:102100000721A868EF6908434FF6FC418843E96856
:1021100040EA0720014328692F6A000140EA07309E
:10212000084369686D6926F0220646EA05152943C9
:1021300093602268906154F8460B0162012004F814
:102140001F09E0752076E0762077A0750020B7E7BC
:1021500000B585B0002100910191029103910168C1
:102160001A48B1F1804F1BD0194A914216D1C1696A
:1021700041F00401C161C16901F004010491816968
:1021800041F0080181618069694600F0080004900F
:10219000C02000900F4800BFFFF7E6F805B000BD73
:1021A000C16941F00101C161C16901F001010491FE
:1021B000816941F0040181618069694600F0040091
:1021C0000490032000900448E6E70000001002405D
:1021D00000080040000C01400008014070B590F874
:1021E0003E60044690F83F5090F8423090F843200B
:1021F000022021B104290ED0012E1BD114E0012EA2
:1022000018D1012B16D184F83E0084F84200012237
:102210000021206820E0012D0CD1012A0AD184F888
:102220003F0084F8430014E0012D03D1012B01D1BC
:10223000012A01D0012070BD84F83E0084F83F00DF
:1022400084F8420084F8430001220021206801F054
:1022500061FE01220421206801F05CFE2068016813
:1022600041F001010160002070BD704770B5044667
:10227000006801694FF00005C943890715D4C1689A
:10228000C943890711D4E91E016101202077206824
:1022900080698007204602D0FFF7E7FF04E000F0E6
:1022A000BFF8204600F064F9257720680169C9432A
:1022B000490717D4C168C943490713D46FF0040113
:1022C0000161022020772068806910F4407F204659
:1022D00002D0FFF7CAFF04E000F0A2F8204600F0A9
:1022E00047F9257720680169C943090716D4C168F1
:1022F000C943090712D46FF0080101610420207757
:102300002068C0698007204602D0FFF7AEFF04E0D6
:1023100000F086F8204600F02BF925772068016947
:10232000C943C90617D4C168C943C90613D46FF09D
:1023300010010161082020772068C06910F4407FF7
:10234000204602D0FFF791FF04E000F069F8204634
:1023500000F00EF9257720680169C943C90708D143
:10236000C168C943C90704D1891E0161204600F034
:102370004FF920680169C943090609D4C168C943F6
:10238000090605D46FF0800101612046FFF7D4FDF6
:1023900020680169C943490609D4C168C94349068F
:1023A00005D46FF040010161204600F03BF9206840
:1023B0000169C94389060BD4C168C943890607D49A
:1023C0006FF0200101612046BDE87040FFF7B5BD08
:1023D00070BD000000B585B000210091019102910F
:1023E000039100680B49884212D10B48816941F082
:1023F000040181618069694600F0040004904FF493
:10240000106000900220019003900448FEF7ACFF9A
:1024100005B000BD002C0140001002400008014042
:10242000704770B5044690F83C0000260D46012820
:102430000FD0012084F83C006AB1042A1DD0082A7C
:102440002FD00C2A3FD00126002084F83C003046D3
:1024500070BD022070BD206801F06AFD20688169AE
:1024600041F0080181612068816921F004018161E6
:10247000206881692A69114311E0206801F080FD1C
:102480002068816941F4006181612068816921F4DB
:1024900080618161206881692A6941EA0221816144
:1024A000D2E7206801F098FD2068C16941F0080179
:1024B000C1612068C16921F00401C1612068C1695E
:1024C0002A69114311E0206801F0B2FD2068C1695A
:1024D00041F40061C1612068C16921F48061C1617A
:1024E0002068C1692A6941EA0221C161ACE710B5DF
:1024F000040003D094F83D0010B107E0012010BDA6
:10250000002084F83C00204600F01EF8022084F8E9
:102510003D00211D206801F0C7FC012084F8460021
:1025200084F83E0084F83F0084F8400084F84100BD
:1025300084F8420084F8430084F8440084F845009D
:1025400084F83D00002010BD08B5006806498842A7
:1025500008D10648816941F400618161806900F415
:102560000060009008BD0000002C014000100240F7
:102570007047000010B50446022249B104290ED06C
:10258000082913D094F84100012816D0012010BD6D
:1025900094F83E000128F9D184F83E200FE094F829
:1025A0003F000128F2D184F83F2008E094F8400071
:1025B0000128EBD184F8402001E084F84120012279
:1025C000206801F0A7FC0F492068884203D1426CC3
:1025D00042F4004242642068884208D0B0F1804F43
:1025E00005D00949884202D00849884204D181684F
:1025F00001F00701062903D0016841F001010160E3
:10260000002010BD002C01400004004000080040E4
:1026100000680349884201D1FFF738B970470000CC
:1026200000040040704738B5044690F84200202866
:1026300001D0022038BD61B15AB1012020630020D1
:102640006063204601F088FE0028F3D1216B012948
:1026500001D0012038BD21680A68496800912168CD
:102660000C3151E8002F42F0100241E80023002B0A
:10267000F5D138BD7CB50068234A904242D0234A48
:1026800090423FD1224A1078A5282FD1551815F82D
:10269000010C5A282AD1002301208C1E04E0165C6C
:1026A000401C3344DBB2C0B2A042F8DB15F8020C88
:1026B00098421BD10A46164901F11E00FDF7BFFDE5
:1026C00000200090124802231E30019011486A46F3
:1026D00001A9006805F056FC009838B10E494FF08A
:1026E00080500860BFF34F8FBFF36F8F08491E22E1
:1026F00001F18400FFF797FF08480068016821F0A6
:10270000040101607CBD000000380140004400402D
:10271000900200202400002004ED00E0A40300202B
:1027200070470000F8B5016804460868CA684B693C
:1027300010F00F0F4FF000055AD003F0010602F41D
:102740009077374365D0C10705D0D10503D5616CBB
:1027500041F001016164410705D5D90703D0616CDF
:1027600041F002016164810705D5D90703D0616C8E
:1027700041F004016164010707D502F020013143F3
:1027800003D0616C41F008016164616C00293BD0A9
:10279000800604D5900602D5204601F01FFD206872
:1027A0004069616CC0F3801001F0080101432046CC
:1027B0002BD001F0DEFC20684069400621D520685E
:1027C000143050E8001F21F0400140E80012002AB8
:1027D000F5D1E06BA8B16D494163E06BFEF756FCA3
:1027E000002811D0E06B416B01B0BDE8F040084714
:1027F00083060ED593060CD52046BDE8F84001F0BF
:10280000EDBC2046FFF78CFFF8BDFFF789FF65643C
:10281000F8BD266B2023012E7CD1C6067AD5D606BC
:1028200078D508684868009048694FF0020640066D
:1028300040D5E16B086840680004000CE8D0A28D28
:102840008242E5D9E085886920282DD020680C30A7
:1028500050E8001F21F4807140E80012002AF5D1F1
:102860002168143151E8000F20F0010041E8000216
:10287000002AF5D12068143050E8001F21F04001F3
:1028800040E80012002AF5D184F842302563206820
:102890000C3050E8001F21F0100140E80012002A1F
:1028A000F5D1E06BFEF7CEFB6663A08DE18D401A9B
:1028B00081B22AE0A08DE18D401A81B2E08D00281E
:1028C000A6D00029A4D022680C3252E8000F20F4D0
:1028D000907042E80007002FF5D12068143050E8CE
:1028E000002F22F0010240E80027002FF5D184F8E4
:1028F0004230256320680C3050E8002F22F010028F
:1029000040E80023002BF5D166632046FFF7B2FEB6
:10291000F8BDFFE705062BD5150629D594F841002B
:102920002128F5D1A068B0F5805F01D12069B0B150
:10293000206A411C2162216800784860E08C401EBA
:102940000004000CE084E3D12068C16821F080011C
:10295000C1602068C16841F04001C160D8E7206AC9
:102960000088C0F308004860206A801C2062E5E708
:102970004006CDD55006CBD5CA68204622F040028D
:10298000CA6084F8413000F0FFF8C1E775400008E4
:1029900070B5040004D094F84100002510B106E0A1
:1029A000012070BD84F84050204600F023F8242018
:1029B00084F841002068C16821F40051C1602046BC
:1029C00001F06EFC2068016921F4904101612068EA
:1029D000416921F02A0141612068C16841F4005138
:1029E000C1606564202084F8410084F8420065637A
:1029F000002070BDF0B585B00024009401940294CD
:102A00000394064603685848DFF858C102210322A0
:102A1000564D0715634525D1836943F4804383618F
:102A2000836903F480430493836943F0040383615F
:102A30008069039200F0040004900802CDE90001CF
:102A400069462846FEF790FCCDE9007469462846A1
:102A50000294FEF789FC002205212520FEF7AEFF37
:102A6000252051E0DFF808C1634551D1C36943F423
:102A70000033C361C36903F400330493836943F0F3
:102A8000040383618069039200F004000490042031
:102A9000CDE9000169462846FEF766FC0820CDE92D
:102AA0000004694628460294FEF75EFC324D314828
:102AB0008027C5E90004C5E902472C616C61AC615F
:102AC0002846EC61FEF7D8FB08B1FEF795FAF563EE
:102AD0006E62294D27484435143001C5102091C538
:102AE000254845F8104944306C61AC61EC61FEF753
:102AF000C3FB08B1FEF780FAB5630022052126204A
:102B00006E62FEF75BFF2620FEF74AFF05B0F0BDC0
:102B10001A4DAB42FAD1C36943F48023C361C36940
:102B200003F480230493836943F00803836180697D
:102B3000CDE9007100F00800CDE90320104D694691
:102B40002846FEF711FCE814CDE900046946284642
:102B50000294FEF709FC002205212720FEF72EFF34
:102B60002720D1E700380140001002400008014052
:102B7000004400406C000240A403002000480040D4
:102B8000000C0140704770477047000070B5044664
:102B900000F048FF208841BAA088143140BA1A38A2
:102BA00009B205B20846FDF7DAFD06460C4628468E
:102BB000FDF7D5FD3246234602F056FABDE87040D7
:102BC000014A024BFDF7E1BC775AF01ADCA54C40F4
:102BD000FEE7000010B5094C002210212046FEF748
:102BE000B8FC012208212046FEF7B3FC2046012252
:102BF000BDE810401021FEF7ACBC0000000C014005
:102C000001684A69D24352050FD46FF480624A6169
:102C1000002140F8301F202242738173026942F084
:102C20000402026101730120704700207047000018
:102C3000F8B50446C06A1E460D461746082807D058
:102C4000012805D010F5803F02D0206B122804D156
:102C50002068016841F480710160134600224FF042
:102C600001112046009600F0C3F840B120680068CA
:102C7000C00502D54FF4007020640320F8BD206920
:102C8000B0F5804F0ED00620216800EAD51040F044
:102C9000F000086133463A460B49204600F0F0F850
:102CA00078B902E005F0FE0000E0E8B221680861B2
:102CB000054933463A46891F204600F0E1F80028CE
:102CC000DCD00120F8BD0000080001002DE9F04132
:102CD000124E07460024012210213046FEF739FC2F
:102CE00000256006040E012208213046FEF731FC63
:102CF00010213046FEF728FC08B1641CE4B2002223
:102D000008213046FEF725FC6D1C082DE9DB38460E
:102D100000F05AF92046BDE8F0810000000C0140A7
:102D200070B50F4E05460024280601D5012200E0AB
:102D3000002210213046FEF70CFC0122082130460B
:102D4000FEF707FC002208213046FEF702FC680669
:102D5000050E641C082CE7DBBDE8704000F01AB9D2
:102D6000000C014010B50B4C012210212046FEF74B
:102D7000F0FB012208212046FEF7EBFB0022102188
:102D80002046FEF7E6FB20460022BDE81040082161
:102D9000FEF7DFBB000C014070B516460D46044639
:102DA0001EE02046FFF72CFF08B1012070BD681C13
:102DB00016D0FEF7D3FB801BA84200D885B9206847
:102DC0004069C04340070BD5002044F8300F202154
:102DD0006173A073216941F0200121612073E4E750
:102DE00020684069C0434007DBD4002070BD00006C
:102DF0002DE9F047984617460D460446C1F30746AD
:102E0000DDF820902AE000BFB8F1FF3F26D0FEF7A2
:102E1000A5FBA0EB0901414502D8B8F1000F1DD177
:102E20002068012E16D0806925EA00000004000CFD
:102E300012D00020B84211D1002044F8300F2021D8
:102E40006173A073216941F0200121612073012089
:102E5000BDE8F0874069E7E70120EBE72068012E35
:102E60000AD0806925EA00000004000C06D000208A
:102E7000B842C9D00020EBE74069F3E70120F7E74B
:102E80002DE9F047984616460D4604464FF00009D6
:102E90004FF0200AC1F3074723E020684069C04390
:102EA000400515D42068016841F400710160216873
:102EB0006FF480604861C4F8309084F83DA084F8D5
:102EC0003E90216C41F00401216484F83C9021E0A3
:102ED000701C06D0FEF742FBA0EB0800B04203D8FE
:102EE00016B1012F1FD021E02068012F15D0806975
:102EF00025EA00000004000C18D000BF44F8309F01
:102F000084F80DA084F80E90216941F02001216120
:102F100084F80C900120BDE8F087406925EA0000A4
:102F20000004000CEAD12068406901E02068806953
:102F300025EA00000004000CAFD1ECE770B516469E
:102F40000D4604461EE02046FFF75AFE08B1012058
:102F500070BD681C16D0FEF701FB801BA84200D88C
:102F600085B920684069C04300060BD5002044F8AD
:102F7000300F20216173A073216941F0200121618C
:102F80002073E4E720684069C0430006DBD40020DA
:102F900070BD000070B50B4D012210212846FEF7D0
:102FA000D8FA012208212846FEF7D3FA1021284634
:102FB000FEF7CAFA0446002208212846FEF7C9FA9D
:102FC000204670BD000C014010B50B4C012810D0FC
:102FD000002210212046FEF7BCFA012208212046DB
:102FE000FEF7B7FA20460022BDE810400821FEF7A0
:102FF000B0BA0122EDE70000000C014010B57021CD
:10300000002000F0F9FE2021012000F0F5FE002153
:10301000BDE81040022000F0EFBED21A4A4392FBF6
:10302000F0F0184440B270470D4808B5416941F0CE
:10303000010141614069002200F00100009005217A
:103040001020FEF7BBFC1020FEF7AAFC0022052191
:103050001120FEF7B3FCBDE808401120FEF7A0BC2C
:10306000001002407CB53B480090002301220A2159
:1030700039A005F011FB3B4C00221021A06001207B
:1030800004F02FFE012120610022084604F029FEF1
:10309000606100220821012004F023FEA0610022CB
:1030A0000221012004F01DFEE06100220821012020
:1030B00004F017FE206200220421012004F011FE1A
:1030C0006062042004F009FE0146E060E06904F05B
:1030D000F3FDE168206A04F0EFFDE168606A04F046
:1030E000EBFD00251826CDE900652B4680221EA1A8
:1030F000204805F027F904F12800CDE900604FF4DD
:103100008076002332461CA11E4805F01BF91920C9
:10311000CDE90005002332461BA11F4805F012F936
:1031200000F0A5FC00F0F0F900F05CFA1A20CDE9FF
:1031300000050023324619A11B4805F003F905F0EC
:1031400067F90246009500230121A06805F0EEFA18
:103150007CBD0000655800086D6F746F725F746904
:103160006D657200000000206B65795F7461736BA0
:10317000000000008D550008686D635F7461736B1B
:1031800000000000FD6200086C6F6769635F636F99
:103190006E74726F6C000000455600087069645FC1
:1031A000636F6E74726F6C00295900082DE9F04747
:1031B00086B00024304800940194029403948169FD
:1031C00041F010018161816901F010010491816970
:1031D00041F020018161816901F020010491816940
:1031E00041F004018161816901F004010491816968
:1031F00041F0080181618069012200F00800DFF8D8
:103200007C805503049029464046FEF7A2F9DFF87A
:1032100070900022C0214846FEF79BF9DFF864A0B9
:103220004FF21807002239465046FEF792F90095F2
:10323000022601250396CDE9015469464046FEF772
:1032400093F8C020CDE90005CDE90246694648461D
:10325000FEF78AF803208DE8310069465046FEF7F4
:1032600083F800970396CDE9015469465046FEF76E
:103270007BF806B0BDE8F087001002400010014066
:1032800000080140000C01400D4810B50B490160D9
:103290000C49416000214FF480428160C0E9031273
:1032A00041618161C1610162FEF75EF9002803D0CE
:1032B000BDE81040FDF7A0BE10BD00000054004066
:1032C00064010020801A060010B592B000240F940B
:1032D0001C2168461094FCF7CBFF202107A8FCF7BF
:1032E000C7FF24482249C0E9001441F61F41C0E944
:1032F0000241046144618461FFF7F9F808B1FDF708
:103300007BFE0F940FA91B481094FEF741FE08B1F5
:10331000FDF772FE6020CDE900040294039404944A
:1033200005940022694613480694FFF77AF808B11D
:10333000FDF762FE0C2269460E48FFF772F808B1ED
:10334000FDF75AFE0794089409944FF400500A942C
:10335000CDE90B4007A907480E94FEF7EFFD08B131
:10336000FDF74AFE0348FFF735F812B010BD000024
:10337000002C0140B801002010B58CB02421684613
:10338000FCF776FF0024154809944FF080410A9419
:10339000C0E900144FF6FF71C0E902410461846185
:1033A0000120CDE90004CDE90204CDE90404CDE912
:1033B0000604089069460948FEF778FE08B1FDF753
:1033C0001BFE099409A905480A94FEF7E1FD0028AF
:1033D00001D0FDF711FE0CB010BD0000000200206E
:1033E00010B58CB024216846FCF742FF0024154834
:1033F000099413490A94C0E900144FF6FF71C0E91B
:103400000241046184610120CDE90004CDE9020498
:10341000CDE90404CDE90604089069460948FEF7A1
:1034200045FE08B1FDF7E8FD099409A905480A948D
:10343000FEF7AEFD002801D0FDF7DEFD0CB010BD9B
:1034400000080040480200200C4810B50A490160FD
:103450004FF4E1314160002181600C22C160C0E97C
:1034600004128161C161FFF793FA002803D0BDE81F
:103470001040FDF7C1BD10BD00380140CC02002056
:10348000114810B50F4901604FF4E131416000214E
:1034900081600C22C160C0E904128161C161FFF743
:1034A00077FA08B1FDF7A8FD07491E2284390648BE
:1034B000FFF7B9F8044890300068016821F0040172
:1034C000016010BD00440040140300200C4810B5FA
:1034D0000A4901604FF4E1314160002181600C2212
:1034E000C160C0E904128161C161FFF751FA00288F
:1034F00003D0BDE81040FDF77FBD10BD004800407F
:103500005C030020FEE7000008B5094802F072FFE6
:1035100000F082F8074800900346A0F1B4010C22A5
:103520000020FDF7FFFBBDE80840FDF739BB0000B8
:10353000D82C0020202E00201CB5284C2648284ED0
:103540004FF0FF37002520623A4601A9306804F0A9
:1035500019FE9DF80400012804D002282ED003286B
:103560000ED120E0236AD968C1B1E572C868009025
:103570000C220020FDF7D6FB206AC068C0682062DC
:10358000E07A0128E0D1606A8047E572236A0093FF
:103590000C2200209968FDF7C5FB1AE00120E072BB
:1035A00098696062F0E7236A0C2218690090002095
:1035B0009968FDF7B7FB206A006909E0236A0C22CD
:1035C0005869009000209968FDF7ACFB206A4069BB
:1035D0002062E572B8E70000202E002018010020CC
:1035E000140000201CB507491820CDE90001002374
:1035F0004FF4807204A1074804F0A4FE012800D013
:1036000000201CBD400100204D656E755F54617344
:103610006B00000039350008A649A74800B501F144
:10362000B402C0E9061200208860A4A0FDF7B2FA37
:10363000A04BA04A143302F1B401A3A0FDF792FA03
:103640009C4B9C4A283302F1D001A3A0FDF78AFAD3
:10365000984B984A3C3302F1EC01A1A0FDF782FAA5
:10366000944B944A503302F584719FA0FDF77AFA87
:10367000904B904A643302F592719EA0FDF772FA66
:103680008C4B8C4A643302F5A0719CA0FDF76AFA5A
:10369000884B884A643302F5AE719AA0FDF762FA4E
:1036A00084499AA01431FDF775FA824B9BA07833B8
:1036B000A3F1640202F5B271FDF754FA7D4B9AA0B2
:1036C0008C33A3F1780202F5C071FDF74BFA794B08
:1036D00097A0A033A3F18C0202F5CE71FDF742FA58
:1036E000744B96A003F1140202F5DC71FDF73AFA6F
:1036F000704995A07831FDF74DFA6E4A0023783273
:1037000002F54C7193A0FDF72DFA6A4A0023783236
:1037100002F5537192A0FDF725FA664A002378322C
:1037200002F55A7190A0FDF71DFA624B83A0143385
:1037300003F1640202F56171FDF714FA5D498CA092
:103740008C31FDF727FA5B4A00238C3202F5637156
:1037500089A0FDF707FA574A00238C3202F56A71F7
:1037600088A0FDF7FFF9534A00238C3202F57171EE
:1037700088A0FDF7F7F94F4B70A0143303F17802DE
:1037800002F57871FDF7EEF94A4984A02831FDF77A
:1037900001FA484A0023283202F5E07181A0FDF7C2
:1037A000E1F9444A0023283202F5EE717DA0FDF7CD
:1037B000D9F9404A0023283202F5FC7179A0FDF7BF
:1037C000D1F93C4B5DA003F1280202F50571FDF72C
:1037D000C9F9384977A03C31FDF7DCF9354A0023B7
:1037E0003C3202F507716FA0FDF7BCF9314A0023A6
:1037F0003C3202F50E716BA0FDF7B4F92D4A00239F
:103800003C3202F5157167A0FDF7ACF9294B4BA0CE
:1038100003F13C0202F51C71FDF7A4F9254967A0EC
:103820005031FDF7B7F9234A0023503202F51E71DB
:1038300065A0FDF797F91F4A0023503202F5257164
:1038400065A0FDF78FF91B4A0023503202F52C7159
:1038500065A0FDF787F9174B38A003F1500202F578
:103860003371FDF77FF9134963A06431FDF792F9D5
:10387000104A0023643202F5357161A0FDF772F938
:103880000C4A0023643202F53C7160A0FDF76AF92E
:10389000084A0023643202F543715FA0FDF762F924
:1038A000044B26A003F1640202F54A715DF804EBB3
:1038B000FDF758B96C2D0020180100205B4D61699F
:1038C0006E506167655D0000202D4170706C69630A
:1038D0006174696F6E000000202D46696C6573008D
:1038E000202D496D61676500202D52657365742038
:1038F000416C6C00202D41626F757400202D746541
:1039000073743100202D7465737432005B417070E4
:103910006C69636174696F6E5D000000202D5379DE
:103920007374656D00000000202D47616D657300A4
:10393000202D416C7469756D00000000202D5265CA
:103940007475726E000000005B53797374656D5D71
:1039500000000000202D4D5055363035300000005D
:10396000202D537065656400202D4D6F6465000047
:103970005B47616D65735D00202D44696E6F204764
:10398000616D6500202D416972506C616E65204744
:10399000616D6500202D4D79436172005B46696C55
:1039A00065735D00202D4E65772050726F6A6563E8
:1039B000740000005B496D6167655D005B52657373
:1039C000657420416C6C5D00202D52657365742018
:1039D0004E616D6500000000202D526573657420F6
:1039E00054696D6500000000202D526573657420D8
:1039F00053657474696E67005B41626F75745D0036
:103A0000202D47697468756200000000202D42690E
:103A10006C6962696C690000202D526561644D45D6
:103A20000000000070B50546FFF79CF93C20FFF749
:103A300077F90320FFF774F9FFF794F93D20FFF7BA
:103A40006FF9002401E0052C0BD00020FFF73EF9B0
:103A50002855641CE4B2062CF5D3BDE87040FFF78E
:103A6000B9B80120FFF732F96871F2E7FEE710B547
:103A70006420FDF767FC022000F084F83F2000F08E
:103A800093F8002000F069F8002000F073F8A120FE
:103A900000F098F8C82000F095F80021084600F0E2
:103AA0002AF87F2000F03DF8A42000F08BF8A62033
:103AB00000F088F80821002000F03DF8012000F017
:103AC00009F80021012000F016F8BDE81040AF20F1
:103AD00000F078B810B5040001D0012C0AD18D2077
:103AE00000F070F8102000EB8400BDE81040C0B278
:103AF00000F068B810BD70B50C46050001D0012D6E
:103B00000ED10CB1012C0BD1DA2000F05BF82801AA
:103B100000EB4410BDE87040801CC0B200F052B809
:103B200070BD10B50446812000F04CF82046BDE879
:103B3000104000F047B870B50C4605460F280BD86A
:103B40000F2C09D8D52000F03DF805EB0410BDE896
:103B50007040C0B200F036B870BD10B504463F28C2
:103B600007D8D32000F02EF82046BDE8104000F022
:103B700029B810BD3F2803D84030C0B200F022B8A9
:103B80007047000010B5040003D0012C01D0022CB6
:103B900007D1202000F016F8204600F013F8014865
:103BA000047010BD4C01002010B504460F383128B8
:103BB00007D2A82000F006F82046BDE8104000F02B
:103BC00001B810BD1CB500218DF804108DF805005A
:103BD0004FF4FA7000900448022301AA782140684B
:103BE000FDF786FD1CBD00004C0100202DE9F047CB
:103BF0000446C169C068FCF79FFB25690646294653
:103C0000FCF79AFB814601212846FCF70BFC314664
:103C1000FCF795FB6169FCF73DFB0146A068FCF7EA
:103C200091FB804631466068FCF78CFB07464946AD
:103C30002068FCF787FBA169FCF72CFB3946FCF7F1
:103C400029FB4146FCF726FB2661C4E90550BDE887
:103C5000F08700001CB5202778230C2204211C4883
:103C60000097FCF7FFFF1B4C4FF0030904F10A0813
:103C70000626607888F8000045467F230C22002144
:103C800013480097FDF71EF811482A7812A10C3846
:103C900000F0D6FB0E4B19220C3B08210C4802F019
:103CA00013FECDE9006960784D4600EB40031E220B
:103CB0000821074802F013FDCDE900655A231E22B2
:103CC0000821034802F07EFD014802F023FED0E700
:103CD000D82C0020180100205370656564203D2019
:103CE0002564000008B5202000900CA410A57D23B9
:103CF0000C2202211348FCF7B5FF234619220821A4
:103D0000104802F0E1FD2B46252208210D4802F063
:103D1000DBFD0C4802F0FEFDEFE7000068747470F4
:103D2000733A2F2F6769746875622E636F6D2F0069
:103D30004A46656E672D5A2F4D595F4755492E6784
:103D400069740000D82C002090B03E2000906423BD
:103D5000022201211A48FCF785FF1A4CE068FCF7A3
:103D600028FD02460B4618A101A800F069FB206956
:103D7000FCF71FFD02460B4617A106A800F060FBEA
:103D80006069FCF716FD02460B4617A10BA800F070
:103D900057FB01AB0E220C21094802F095FD06AB42
:103DA00024220C21064802F08FFD0BAB3A220C2195
:103DB000034802F089FD024802F0ACFDCEE70000A6
:103DC000D82C0020180100205069746368203D2021
:103DD000252E326600000000526F6C6C20203D20C2
:103DE000252E3266000000005961772020203D20FA
:103DF000252E32660000000070B50D460446FEF721
:103E0000B1FF3C20FEF78CFF2046FEF789FF2846D5
:103E1000FEF786FFBDE87040FEF7DCBE10B550200F
:103E200080F31188BFF34F8FBFF36F8F04F0F6FA62
:103E300018B104494FF080500860002080F31188C9
:103E400010BD000004ED00E010B590B028216846D8
:103E5000FCF70EFA14210AA8FCF70AFA02200090D7
:103E60000120049010200024059007946846FDF777
:103E7000D3FE08B172B6FEE70F20CDE90A040C9418
:103E80000D9400210AA80E94FDF7CAFD002801D068
:103E900072B6FEE710B010BD704700000148FEF793
:103EA000E5B900002C040020F0B50268164B174C51
:103EB000174D4FF08047984205D0B84203D0A0423A
:103EC00001D0A84203D122F070064A6832439842DA
:103ED00005D0B84203D0A04201D0A84203D122F4B9
:103EE0004074CA6822434C6922F080022243026077
:103EF0008A68C2620A688262984201D109690163D4
:103F000001214161F0BD0000002C0140000400408F
:103F10000008004010B501F01F030121046A994018
:103F20008C430462016A9A401143016210BD000093
:103F300030B5036A026A22F00102026242688469B3
:103F400024F073050C682C4323F002058B682B4387
:103F50000A4DA8420BD123F00805CB6822F4407229
:103F60002B434D6923F0040315438A692A434260B9
:103F7000846149684163036230BD0000002C014048
:103F800030B5026A036A23F0100303624368846950
:103F90000D6824F4E64444EA05248D6822F02002EA
:103FA00042EA05120B4DA8420ED1CD6822F08002E4
:103FB00042EA05124D6923F4406343EA85038D69A3
:103FC00022F0400243EA85034360846149688163CB
:103FD000026230BD002C014030B5036A026A22F44F
:103FE000807202624268C46923F4007324F073058E
:103FF0000C682C438D6843EA05230C4DA8420ED172
:10400000CD6823F4006343EA05234D6922F440524E
:1040100042EA05128D6923F4806342EA0512426088
:10402000C4614968C163036230BD0000002C0140D7
:1040300030B5046A026A22F4805202624268C3699F
:104040000D6823F4E64343EA05238D6824F4005405
:1040500044EA0534064DA84204D14D6922F4804259
:1040600042EA85124260C36149680164046230BD5E
:10407000002C014010B5406A0021C185C184FEF7C3
:104080004FFB10BD70B5446A2068406994F8411038
:10409000C0F3C0100025212904D118B1E5842046C1
:1040A00000F08EF82068406994F84210C0F3801048
:1040B000222904D118B1E585204600F05AF8606C39
:1040C00040F0100060642046FEF72AFB70BD10B57A
:1040D0000146406A096809684FF0000289062ED43B
:1040E000C28501680C3151E8003F23F4807341E838
:1040F0000034002CF5D10168143151E8003F23F061
:10410000010341E80034002CF5D10168143151E875
:10411000003F23F0400341E80034002CF5D120217A
:1041200080F84210016B012909D101680C3151E876
:10413000003F23F0100341E80034002CF5D1426326
:10414000016B012902D0FEF71DFD10BD818DFEF728
:1041500091FA10BD10B5406A01214163016B01293C
:1041600002D0FEF710FD10BD818D4908FEF782FADE
:1041700010BD01680C3151E8002F22F4907241E823
:104180000023002BF5D10168143151E8002F22F0F3
:10419000010241E80023002BF5D1016B012909D16F
:1041A00001680C3151E8002F22F0100241E8002391
:1041B000002BF5D1202180F84210002101637047C7
:1041C00001680C3151E8002F22F0C00241E80023C1
:1041D000002BF5D1202180F84110704708B590F8E8
:1041E0004210222901D0022008BD82684FF480537A
:1041F0009A4201D1016921B1816A9A421BD04AB128
:104200000AE00268816A5268C2F308020A80816A81
:10421000891C08E0026972B10268526802F07F02EC
:104220000A70816A491C8162C18D491E0904090C0A
:10423000C18503D01BE002685268F1E70168CA68D3
:1042400022F02002CA600168CA6822F48072CA6043
:1042500001684A6922F001024A61202180F8421077
:1042600000214163026B012A03D0FEF78BFC002082
:1042700008BD016301680C3151E8002F22F01002E3
:1042800041E80023002BF5D101680A68D20602D567
:104290000A6849680091818DFEF7ECF9E7E70000B4
:1042A00070B5044600680169E26821F44051114389
:1042B00001612169A0680843616908432168CA68EF
:1042C00041F20C639A430243CA6020684169A269C3
:1042D00021F44071114341611E492068884202D196
:1042E000FDF764FC01E0FDF751FC00EBC00101EBC0
:1042F0000012606864218000B2FBF0F3B3FBF1F3BD
:104300006FF018067343B2FBF0F5B2FBF0F605EB65
:104310008305322303EB0515B5FBF1F5B6FBF1F68A
:1043200005F0F00505EB0615B2FBF0F6B2FBF0F078
:10433000B0FBF1F06FF01802504306EB800003EB86
:104340000010B0FBF1F0216800F00F0028448860F5
:1043500070BD00000038014038B581620446828596
:10436000002013466064222284F84220E56B1B4A39
:10437000AA62E56B1A4AEA62E56B1A4A2A63E26BA3
:1043800050630A462168E06B091DFCF7A3FF206813
:10439000016840680090206948B120680C3050E8FE
:1043A000001F41F4807140E80012002AF5D1206816
:1043B000143050E8001F41F0010140E80012002ACB
:1043C000F5D12068143050E8001F41F0400140E86A
:1043D0000012002AF5D1002038BD0000CF400008AF
:1043E00055410008854000080148FEF79BB90000D0
:1043F000CC0200200148FEF795B90000140300200C
:104400000148FEF78FB900005C030020FEE70000C2
:104410000248C17881F00101C17070471801002085
:104420000FB4054B10B503A9044A029800F070F9C7
:1044300010BC5DF814FB0000755500085C010020FD
:104440000FB4084B10B504A902AA039800F060F954
:10445000044602A9002000F0F2FC204610BC5DF8E2
:1044600014FB00003F4E0008490050EAC12018BF6D
:1044700004204A0D18BF40F0010040F2FF72B2EB79
:10448000515F08BF40F00200012808BF05207047B7
:104490000907090E002804DB00F1E02080F8001471
:1044A000704700F00F0000F1E02080F8141D704705
:1044B0002DE9F0414F1E00EBC7010446D1E9000190
:1044C00015461E4637F006020DD02A463346FCF745
:1044D0005CF87F1E04EBC703D3E90023FBF7AEFFB4
:1044E00037F00602F1D1022F25D0042F13D0062F6A
:1044F00018BFBDE8F0812A463346FCF746F8D4E9F8
:104500000A23FBF79BFF2A463346FCF73EF8D4E923
:104510000823FBF793FF2A463346FCF736F8D4E925
:104520000623FBF78BFF2A463346FCF72EF8D4E927
:104530000423FBF783FF2A463346FCF726F8D4E929
:104540000223FBF77BFF2A463346FCF71EF8D4E92B
:104550000023BDE8F041FBF771BF0122FCF7C0BAB0
:10456000FBF76CBF0022134610461146FCF77FB8DC
:10457000024A00201107FCF7B3BA000001FDFFFF5B
:1045800002E008C8121F08C1002AFAD1704770471C
:10459000002001E001C1121F002AFBD1704700007A
:1045A0000149086070470000600100202DE9FF5FAD
:1045B000DDE90220010DDDF838B0024318D044F6E1
:1045C0001050A1F2FF3141430D140F98012820D063
:1045D000A5EB0B00401C5FEA000A4FF00004474EB9
:1045E000DFF81C91A046504616D5CAF1000728E016
:1045F0000F98012443A2012808D0002100980F9BA6
:10460000C0E90021C0E90243BDE8FF9F6FEA0B014A
:10461000F4E7CBF10000DEE7074612E0F80707D029
:104620002246334640464946FBF7AFFF804689465F
:104630002246334610461946FBF7A7FF04460E46AE
:104640007F10002FEAD1DDE90201BAF1000F4246E6
:104650004B4602DAFBF799FF01E0FCF708F8044645
:104660000E460022284BFCF7CFF803D84FF0FF305E
:10467000014607E00022254B20463146FBF7DEFECF
:10468000FCF704FA102409E0002C0ADB0A220023BC
:10469000FBF794FD019B30321A55641E50EA01026B
:1046A000F2D1641C019AC4F1110314440F9A012A37
:1046B00003D0012208430DD10AE0084304D00020B2
:1046C0004FF0110B0F9080E7A3EB0B056D1E0DE073
:1046D0005B4504DD4FF0000205F1010504E003DA5B
:1046E0004FF00002A5F10105002AECD000980F99C7
:1046F000C0E90231C0E9004586E70000000024401F
:104700000000F03F300000000000F0430000E03FF8
:104710002DE9FF4F95B09B468946064600250FE2DE
:10472000252877D100242746F84A0121059400E086
:10473000044316F8013F203B01FA03F01042F7D181
:1047400030782A2811D06FF02F033078A0F1300292
:10475000092A16D8059A44F0020402EB820203EB00
:1047600042021044761C0590EFE759F8042B05929D
:10477000002A03DA504244F40054059044F0020445
:10478000761C30782E2816D116F8010F44F0040458
:104790002A280DD06FF02F023078A0F13003092BBA
:1047A00009D807EB870302EB4303C718761CF3E72E
:1047B00059F8047B761C30786C280FD006DC4C2826
:1047C00017D068280DD06A2814D104E0742810D0BE
:1047D0007A280FD10DE044F400140AE044F4801468
:1047E00001E044F440147278824202D104F580144E
:1047F000761C761C307866280BD013DC582877D0CE
:1048000009DC002875D04528F6D04628F4D0472882
:104810001AD19DE118E0632835D0642879D0652845
:1048200012D195E1702873D008DC6728F1D069288F
:104830006FD06E280DD06F2806D1B5E073282CD02C
:10484000752875D0782874D05A46179990476D1CF2
:1048500075E1C4F30250022809D003280DD0D9F81D
:10486000001004280DD00D6009F1040967E1D9F8A2
:104870000010EA17C1E90052F6E7D9F800100D80E0
:10488000F2E70D70F0E719F8041B8DF80010002016
:104890008DF80100EA46012003E059F804AB4FF01F
:1048A000FF3061074FF0000102D40DE008F1010173
:1048B0008846B9420FDA8045F8DB1AF8081000295B
:1048C000F4D108E008F1010188468142FADB1AF8C8
:1048D00008100029F6D105985B46A0EB0807214691
:1048E0003846179A00F094FA284400EB080507E0D0
:1048F0004DE029E10DE01AF8010B5A46179990474F
:10490000B8F10108F7D25B4621463846179A13E101
:1049100042E00A220092C4F302524FF0000A022A37
:1049200008D059F804CB032A4FEAEC710AD00DE005
:1049300029E02AE009F1070121F00702F2E802C1AB
:10494000914609E00FFA8CFC4FEAEC71042A03D17E
:104950004FFA8CFC4FEAEC71002907DA0A46002175
:10496000DCF1000C61EB02012D2202E0220504D5EE
:104970002B228DF80420012203E0E20701D020223F
:10498000F7E7904659E00A2102E010220DE01021DD
:104990004FF0000A00910BE010224FF0000A44F0A3
:1049A00004040827009203E008224FF0000A009256
:1049B000C4F30252022A05D059F804CB0021032A7D
:1049C00008D009E009F1070121F00702F2E802C16D
:1049D000914605E01FFA8CFC042A01D10CF0FF0C73
:1049E0004FF00008220728D5702806D0009B83F0DE
:1049F000100353EA0A0305D00EE040228DF804208C
:104A0000012208E05CEA010206D030228DF8042081
:104A10008DF8050002229046009B83F0080353EABC
:104A20000A030AD15CEA010201D1620705D53022EE
:104A30008DF804204FF001087F1E582804D034A0C0
:104A400003900EA802900DE036A0F9E753466046A9
:104A5000009AFBF7B3FB84460398825C0298401EE1
:104A6000029002705CEA0100F0D1029806A9081ACF
:104A700000F1200A600702D524F4803400E0012709
:104A8000574502DDA7EB0A0000E0002000EB0A0119
:104A9000009005984144401A0590E00306D45B4617
:104AA0002146179A059800F0B3F90544002706E05F
:104AB00001A85A46C05D179990476D1C7F1C474559
:104AC000F6DBE0030CD55B462146179A059800F00B
:104AD0009FF9054404E030205A46179990476D1C11
:104AE0000099481E00900029F5DC08E00298029920
:104AF0005A460078491C0291179990476D1CBAF1EB
:104B00000001AAF1010AF1DC65E1000009280100B9
:104B10003031323334353637383961626364656633
:104B200000000000303132333435363738394142F5
:104B3000434445460000000000F058F90544761C47
:104B4000307800287FF4ECAD19B02846BDE8F08F2E
:104B5000620700D4062709F1070222F0070CFCE8DF
:104B60000223E14603F000485FEA080C02D00FF28E
:104B7000702C0DE05FEA045C02D50FF2682C07E0B0
:104B80005FEAC47C02D00FF2602C01E0AFF2700C3F
:104B90004FF0FF3823F00043CDF850C065280CD00B
:104BA00006DC452809D046281DD047283DD13DE0E8
:104BB000662818D067287ED138E00021112F01DB4C
:104BC000112000E0781CCDE9000106A90EA8FFF72E
:104BD000EDFCDDE90F010E9A03910021009207F12F
:104BE000010A04914DE04FF000400097CDE901101B
:104BF00006A90EA8FFF7DAFCDDE90F0203920E9B6F
:104C000011990022DDF80CA00093049211B9791CCF
:104C100000EB010AB7EB0A0004D4C0F1FF3007F142
:104C2000010A0490AAEB0700019044E0012F00DA8A
:104C300001270021112F01DD112000E03846CDE9C8
:104C4000000106A90EA8FFF7B1FCDDE90F010E9ADD
:104C50000391002104910092BA4621070CD40399D4
:104C6000514500DA8A46BAF1010F05DD009AAAF132
:104C70000101515C302908D0B84202DA10F1040F6A
:104C800006DA0121CDE9011015E0AAF10101E9E7F9
:104C9000002805DC049901440491AAEB000102E01C
:104CA000411C514500DD8A460499401A401C019080
:104CB0004FF000400290200704D40198504501DBDA
:104CC000CDF8048000208DF84F0002980DF14F07B9
:104CD000B0F1004F25D02B200E9002984FF0020823
:104CE00000280CDA404202902D200E9007E00A21A5
:104CF0000298FBF7BDFD3031029007F8011DB8F1B5
:104D00000001A8F10108F2DC02980028EFD1791E19
:104D10000E980870307800F0200040F0450007F849
:104D2000020D12A8C01B00F107081498007800B10A
:104D3000012000EB0A01019801EBE0710598414464
:104D4000401A401E0590E00306D45B462146179AA0
:104D5000059800F05DF805441498007818B15A469B
:104D6000179990476D1CE00324D55B462146179A9E
:104D7000059800F04DF805441CE00498002807DB76
:104D8000DDE90301884203DD0098405C179901E0EA
:104D9000179930205A469047049805F10105401CA8
:104DA00004900198401E019004D12E205A46179974
:104DB00090476D1CBAF10001AAF1010ADDDC05E0A3
:104DC00017F8010B5A46179990476D1CB8F100016E
:104DD000A8F10108F4DC5B462146179A0598ABE67A
:104DE0002D0000002B000000200000002DE9F04104
:104DF000044600251E461746880404D405E03946BB
:104E00002020B0476D1C641EF9D52846BDE8F0810E
:104E10002DE9F041044600251E469046C80301D501
:104E2000302700E02027880404D505E041463846B5
:104E3000B0476D1C641EF9D52846BDE8F0810A68AC
:104E4000531C0B60107070472DE9F84F04460D4657
:104E500021F0004000917349814211DC724988427F
:104E600001DC06D12CB120462946BDE8F84FFFF7FA
:104E700074BB6E48002DCCBF6D496E49BDE8F88FFC
:104E80006D49814211DD6D498142D8BF4FF0FF3637
:104E90006DDD20462946FFF7E7FA042808BFFFF733
:104EA00067FB20462946BDE8F88F6549654F25F028
:104EB0000045814233DD6449814219DD00263246D6
:104EC0004FF0804320462946FBF7B8FA80468A46D1
:104ED000012220462946FBF703FE00223B46FBF752
:104EE0004EFB42465346FBF7C2FB04460D463EE0EE
:104EF00001260022BA463B4620462946FBF79EFA89
:104F000080460F460022534620462946FBF737FBD2
:104F100042463B46FBF7ABFB04460D4627E04B49B8
:104F200081421BDDDFF828A10226002253462046DD
:104F30002946FBF72AFB00223B46FBF77FFA804617
:104F40000F460022534620462946FBF718FB4246EF
:104F50003B46FBF78CFB04460D4608E00326224641
:104F60002B4600203B49FBF782FB04460D462246B8
:104F70002B4610461946FBF708FB8B468246024635
:104F80000B46FBF702FB07460246334888460B46B2
:104F900006217844FFF78CFA52465B46FBF7F5FA98
:104FA00082462E488B463A46434605217844FFF711
:104FB0007FFA3A464346FBF7E8FA02460B46002ED4
:104FC000504659460CDAFBF739FA22462B46FBF7D6
:104FD000DCFA01B022462B46BDE8F04FFBF7D2BA0F
:104FE000FBF72CFA22462B46FBF7CFFA1C4A7A44F1
:104FF00002EBC603D3E90023FBF7C1FA22462B4696
:10500000FBF7BDFA174A7A4402EBC603D3E9002343
:10501000FBF7B8FA009A002AB8BF81F00041BDE85A
:10502000F88F0000000010440000F07F182D445459
:10503000FB21F93FFB21F9BF0000DC3F0000203ECF
:105040000000F33F0000F03F0000E63F0080034017
:105050000000F83F0000F0BF5A450000184500006E
:10506000B64400007E4400002DE9F04D9446CCF19A
:10507000000423F000464CEA0404524F46EAD4747C
:105080009A46884621F00042BC4206D8454240EA92
:10509000050442EAD474BC4204D9BDE8F04D62462E
:1050A000FFF75EBAAAF14055A5F17F6555EA0C04F9
:1050B0000BD0022404EAAA74434DDFF810E144EA5D
:1050C000D87452EA000B04D00CE0BDE8F04DFFF7B5
:1050D000BBBE002C14BF012CBDE8F08D022C30D0DB
:1050E000032C32D056EA0C0B0AD0BE4220D1BA4271
:1050F00009D126F0804622F080423346114617E05F
:1051000000291ADB25E0DFF8C8B0FB44002C04BFFF
:10511000DBE90001BDE8F08D012C02BFDBE90001F5
:1051200081F00041BDE8F08D022C0AD0032C0CD098
:10513000BA4212D1B8F1000F0BDA23482549BDE875
:10514000F08D28462449BDE8F08D28467146BDE81B
:10515000F08D1D482149BDE8F08D921B12153C2AA7
:10516000C4BF19481D490EDCBAF1000FBEBF12F1D1
:105170003C0F0020014606DB6246FBF778FA21F07F
:105180000041FFF761FE002C08BFBDE8F08D012C47
:1051900004BF81F00041BDE8F08D114A114B022C93
:1051A00007D0FBF7ECF92A46BDE8F04D0A4BFBF7B8
:1051B000E6B9FBF7E4F92A46BDE8F04D064BFBF7EC
:1051C000E1B900000000F07F182D4454FB2109C014
:1051D00012440000FB21F9BFFB210940FB21F93FEC
:1051E000075C143326A6A13C8078084902090848C8
:1051F000032A006802D0042A06D101220A70022381
:105200000022024902F008BE70470000440100205D
:105210001400002080780009032808D104490220E6
:105220000346087003480022006802F0F5BD70478D
:10523000440100201400002070B5044640688047F7
:105240000146E078420702D02288521C2280B1EB4E
:10525000D01F0CD04FF0005202EBB0104FEAB060FC
:10526000C0F3C202E070032A04D361F3C71020F038
:105270003800E070C0B200F00701002506291ED2F8
:10528000DFE801F0031E407A1D91C0F38011B1EBFD
:10529000D01FA07820F0F0000FD1A070A16809B154
:1052A000204688472580A07820F00F00401CA07081
:1052B000E07820F00700401C11E08030A07070BD45
:1052C000C0F38011B1EBD01F0BD0A07820F0F0001C
:1052D0001030A070E168A1B3204688475DE0E0701F
:1052E00070BD20886428FBD9A07820F0F0005030F1
:1052F000A070E16909B120468847E07820F00700F6
:10530000401DECE7C0F38011B1EBD01F1AD1A0789B
:1053100020F0F000A070A16809B120468847A0786D
:105320004FF0805101EB30104FEA3070A0702169CE
:1053300009B1204688472580E07820F00700C01C8E
:10534000CDE72AE020882828CAD9A07800F00F01EC
:10535000012902D0022906D03AE020F0F0003030D6
:10536000A070616904E020F0F0004030A070A169F5
:1053700071B3204688472BE0C0F38011B1EBD01FFA
:10538000AED0A07820F0F0001030A070E16809B134
:1053900020468847208828281AD22580E07820F0E7
:1053A0000700801C9BE7C0F38011B1EBD01FA078F1
:1053B00020F0F00008D16030A070216A00298FD061
:1053C0002046BDE8704008471030A070E168CFE784
:1053D000E07820F0070082E770B50D4616460446D7
:1053E0002821FAF745FFA07820F0F0008030A07067
:1053F0006560A8470146E07861F3C71066F3861040
:10540000E07070BD074A51680B4605E0814202D149
:105410004FF0FF307047496A0029F7D1436250606E
:105420000020704744010020054810B5446803E09F
:105430002046FFF701FF646A002CF9D110BD00007F
:10544000440100202DE9F047224E90469946224F14
:1054500000223346FAF7F2FF00223B4600F040F804
:1054600000223346FBF78BF804460D4600223346F4
:1054700040464946FAF7E2FF00223B4600F030F88A
:1054800000223346FBF77BF822462B46FBF777F8E2
:1054900004460D460022114BFBF79EF94FF0000227
:1054A00005D83B4620462946FAF7C8FF0BE03346AD
:1054B00020462946FBF7A8F907D200223B462046A2
:1054C0002946FBF75CF804460D4620462946BDE810
:1054D000F08700000080664000807640008066C053
:1054E00070B514461D460E46002814BF0121002148
:1054F000314321F00041C1F17F6101F1E041C90F69
:1055000016D1002C14BF01210021294321F00041B4
:10551000C1F17F6101F1E041C90F09D11449B1EB3B
:10552000460F08BF00281CD0690008BF002C18D007
:105530003146FBF768FA024640F2FF7030EA11503C
:105540000DD0F017B0EBE17F09D0084665F31E00DF
:1055500084460B4620466146FBF714F80246104687
:1055600070BD0120FFF71CF8BDE87040FEF7FABFE0
:105570000000E0FF04490A685206FCD5024AC1B2A5
:10558000121D1160704700000038014094B00022E5
:105590000D496846FFF720FF00220C490AA8FFF7D3
:1055A0001BFF0B4805900B480F9009480690684672
:1055B000FFF728FF0AA8FFF725FF00BFFFF734FF1A
:1055C000052002F0F7F9F9E7E5620008F16200084A
:1055D000E95100081552000810B5074C012291034B
:1055E0002046FBF7B6FF2046BDE8104000224FF4EE
:1055F0000041FBF7AEBF0000000C014010B5074CA6
:1056000000224FF480412046FBF7A3FF20460122F1
:10561000BDE81040D103FBF79CBF0000000C014027
:1056200010B5074C00224FF480412046FBF791FF54
:105630002046BDE8104000224FF40041FBF789BF2F
:10564000000C014088B04FF0000B454CCDF818B06D
:105650005F46D8465D465E46CDF81CB04FF0FF3140
:10566000E06802F02BFE010063D0206A81423ED147
:10567000002204A902F086FDDDE904232846314614
:10568000FAF77DFF0022374BFBF7A6F80DD2DDE9D4
:10569000042328463146FAF772FF0022324BFBF70B
:1056A000B3F802D2C4F804B016E0DDE904012A46DA
:1056B0003346FFF7C7FE07468846FBF7BDF82B4980
:1056C000C8610846FEF792FA29496060884202DC08
:1056D0002849884200D961606068FBF76AF8CDE923
:1056E000007802460B4624A0FEF79AFE21E0606A8D
:1056F00081421ED1002202A902F044FD029830F935
:10570000031FB0F90250B0F804A00846FBF727F8D1
:10571000064689462846FBF722F84B463246FFF7F5
:10572000A3FC1A4A1A4BFAF730FF05460E46A4F8B6
:1057300000A0B4F90000FBF709F8616881468A46C9
:10574000FAF7A8FD069048465146FAF7F5FD07908E
:105750000223002206A9A06902F05EFB7EE700009A
:10576000000000200000F03F0000F0BF7C0000209F
:1057700000008C4200008CC235383833646174619B
:105780003A25662C25660D0A00000000775AF01AAB
:10579000DCA54C40FCF782F8FEF756FBFDF706FD52
:1057A000FDF742FCFDF770FDFDF78EFDFDF7E4FD12
:1057B000FDF716FEFDF748FEFDF762FEFDF786FEDB
:1057C000FBF7FEFB00F03EF800F072F8FDF74AFC34
:1057D00000F08AF8FEE770B50C46051E04D024DD03
:1057E0000C2A1AD0E2B10AE000250C2A01D01AB125
:1057F00005E000F0EDFD0DE0FFF712FF12E0042AD6
:1058000002D0082A06D102E00868856370BD0868E6
:10581000C56370BD2068056470BD00F0B7FDF9E791
:10582000FFF7DAFE2068456370BD404205B20C2ADE
:1058300004D0002AE3D1FFF7E1FEF3E700F0B8FD62
:10584000E8E7000010B5FDF73FFD00210448FCF734
:1058500091FEBDE810400C210148FCF78BBE000012
:10586000B801002000B585B0002004900D48FBF77A
:10587000C5FB02900C48FBF7C1FB03900948FBF7FE
:10588000CFFB80F0004000900748FBF7C9FB019078
:105890000648022304AA6946006902F073FB05B0BA
:1058A00000BD00000002002048020020000000208F
:1058B000EFF3058058B9EFF3108040B90949086843
:1058C000022801D030B109E0EFF3118030B16FF060
:1058D0000500704701200860002070474FF0FF303E
:1058E00070470000EC00002010B5EFF3058060B9B0
:1058F000EFF3108048B90B490868022802D001284C
:1059000006D00BE0EFF3118040B16FF0050010BD41
:105910000220086002F0FEF8002010BD4FF0FF30BA
:1059200010BD0000EC00002086B000200090DFF8E1
:10593000A080DFF8A090DFF8A0A04FF4FA5B019000
:10594000029003900490CBF100060590002204A978
:105950004446D8F8180002F07BFB0598C9F80C0003
:105960000498CAF80C004D4657464FF0FF3269467E
:10597000206902F007FC0198E8610098F861154879
:10598000FEF734F9FAF7FCFE05B21348FEF72EF9DC
:10599000FAF7F6FE5F4604B2BD4201DCB54203DA17
:1059A0000C220E49002002E00C220C492846FFF789
:1059B00012FFBC4201DCB44203DA00220749104660
:1059C00002E0002205492046FFF705FFBEE7000080
:1059D000000000203C0000205C000020B8010020F6
:1059E0002DE9F041134C0F46054666692068001DFD
:1059F00001F0AFFE681C07D137B12168BDE8F04166
:105A00000D48091D01F0F5BE20683544B5424560DA
:105A1000216805D2A068BDE8F041091D01F0D1BEA2
:105A20006068091D01F0CDFE206B854200D2256320
:105A3000BDE8F0819C000020640900202DE9F041C0
:105A4000054601F0E3FE2D4C2069401C20612068D2
:105A50002B4F10B1E06930B32BE02560206901289D
:105A600027D1002606EB860007EB800001F09BFEA5
:105A7000761C382EF6D3234801F095FE21481430C9
:105A800001F091FE1F48283001F08DFE1D483C308A
:105A900001F089FE1B48503001F085FE1948606016
:105AA0001430A06005E02068E96AC06A884200D826
:105AB0002560E06A401CE0626864E86AA169884287
:105AC00000D9A06100EB800007EB8000291D01F0E8
:105AD00090FE01F0BBFEE06900280CD02068E96A66
