:020000040800F2
:100000001030002099010008532C0008C925000871
:10001000092C0008DB0A0008D132000800000000AB
:1000200000000000000000000000000001010008C6
:100030001F0B00080000000045010008E12C00082B
:10004000B3010008B3010008B3010008B3010008C0
:10005000B3010008B3010008B3010008B3010008B0
:10006000B3010008B3010008B3010008B3010008A0
:10007000B3010008B3010008B3010008B301000890
:10008000DD0A0008E90A0008B3010008B30100080E
:10009000B3010008B3010008B3010008B301000870
:1000A000B3010008B3010008B3010008B301000860
:1000B000B3010008612D0008B3010008B301000876
:1000C000B3010008B3010008B3010008B301000840
:1000D000B3010008AD320008B9320008C53200088B
:1000E000B3010008B3010008B3010008DFF80CD029
:1000F00000F0CAFC00480047094600081030002004
:10010000224B19680868B0E8F00F80F30988BFF344
:100110006F8F4FF0000080F311884EF00D0E704786
:100120000000000006480068006880F3088862B696
:1001300061B6BFF34F8FBFF36F8F00DF00BF00BF0B
:1001400008ED00E0EFF30980BFF36F8F0F4B1A68E3
:1001500020E9F00F106008B54FF0500080F31188CF
:10016000BFF34F8FBFF36F8F05F05EFA4FF00000C3
:1001700080F31188BDE8084019680868B0E8F00FFE
:1001800080F30988BFF36F8F704700BF9C00002089
:10019000EFF3058070470000064880470648004797
:1001A000FEE7FEE7FEE7FEE7FEE7FEE7FEE7FEE727
:1001B000FEE7FEE75D2D0008ED0000082DE9F05F89
:1001C0000546002092469B468846064681464024C6
:1001D0001BE0284641464746224600F020F8534699
:1001E0005A46C01A914110D311461846224600F0D3
:1001F0003BFB2D1A67EB01084F46224601200021E8
:1002000000F032FB17EB00094E41201EA4F101045F
:10021000DFDC484631462A464346BDE8F09F202AA7
:1002200004DB203A21FA02F00021704721FA02F3A0
:10023000D040C2F12002914008431946704740EA7D
:1002400001039B0703D009E008C9121F08C0042A54
:10025000FAD203E011F8013B00F8013B521EF9D23B
:100260007047D2B201E000F8012B491EFBD2704763
:100270000022F6E710B513460A4604461946FFF772
:10028000F0FF204610BDF0B480EA0102D40F420016
:10029000B2EB410F02D20246084611464A0042D054
:1002A000C30DDDB2C1F3C752AD1A202D35DAC1F34B
:1002B000160141F4000204B15242C5F1200602FACF
:1002C00006F12A411044B3EBD05F23D0C4B1012D15
:1002D000A0EBC35009DCF0BC4FF0004202EAC3526D
:1002E000DBB200F5000000F0E9BA400000F18070D8
:1002F00000EBC350A0F1807040EAD170490009E0E2
:10030000490841EAC071A0EBC35000F50000400865
:1003100000EBC350F0BC00F0C8BA6142012202EB0E
:100320004101001BF6E7F0BC704781F00041AAE7ED
:1003300080F00040A7E780EA010210B502F0004318
:10034000400022D04A001FD0010E01EB1261C0F321
:100350005600C2F3560240F4000042F40002A0FB33
:10036000022000047F39140400D0401C50EA1240DF
:1003700001D44000491EC2B20C0604EBD010401C50
:100380004008802A02D003E0002010BD20F00100C8
:10039000002900DA0020184310BD30B480EA0102C1
:1003A00002F0004530F0004221F0004013D090B13F
:1003B000C30DD40DC2F31601C0F31600E41A41F4C4
:1003C000000140F400027D34914201D3641C00E03E
:1003D0004900002C02DA30BC002070474FF40000C6
:1003E0000023914201D3891A034340084FEA410197
:1003F000F7D151B1914202D14FF0004105E002D254
:100400004FF0010101E06FF0010103EBC4502844FB
:1004100030BC00F04ABA420005D0C0F3C752524285
:10042000914201DC0020704700EBC15070472DE97C
:10043000FE4F804681EA0300C00F0C46009021F079
:10044000004123F00045B8EB0200A94105D2404627
:10045000214690461C460B46024623F000401043BE
:1004600047D0270DC7F30A00C3F30A510290401A80
:10047000019040286BDAC3F3130040F4801B00980E
:10048000924620B10023D2EB030A63EB0B0B0198D9
:100490005946C0F14002504600F0E6F906460D46C6
:1004A00050465946019A00F0EEF910EB0800614100
:1004B000002487EA115284EAE7731A4340D0009A75
:1004C00062B3019A012A4FEA075215DC001B61EB67
:1004D00002014FF0004202EA0752CDE90042001C3F
:1004E00041F5801132462B4600F025FA03B0BDE8F5
:1004F000F08F40462146F9E7001B61EB0201001C2A
:1005000041F5801300185B412018A2F5001747EB56
:10051000030140EAD570B6196D4111E06D084FEA4C
:10052000360645EAC0754FEA0752001B61EB02012F
:10053000001C41F5801149084FEA30000019514173
:1005400032462B4603B0BDE8F04F00F0E5B9009805
:10055000012240000023D0EB020263EBE07300981D
:1005600021464FEAE074B8EB000061EB0401E9E7D3
:1005700083F000435BE781F0004158E72DE9FE4F2F
:1005800081EA030404F0004421F0004100944FF09C
:10059000000B23F0004350EA01045ED052EA03044A
:1005A0005BD0C3F30A54C1F30A552C44A4F2F334CC
:1005B0000194A0FB0254C1F3130141F48011C3F371
:1005C000130343F4801301FB024400FB034E840A2F
:1005D000970A44EA815447EA8357A4FB07680295C7
:1005E0008D0A05FB07854FEA932C04FB0C54270565
:1005F000029D4FEA065847EA1637B5EB08056EEB41
:10060000070C870E920E47EA811742EA8312A7FB76
:100610000201B6EB0B0164EB00042B0D43EA0C3333
:100620005E1844EB1C50DA465146E7FB0201C5F365
:1006300013044FEA0B3343EA14534FEA0432019C8C
:1006400043EA0603A4F10C040294009CCDE900B433
:1006500000F071F903B0BDE8F08F00200146F9E722
:100660002DE9F04D81EA030404F0004B21F0004530
:1006700014464FF0000A23F0004150EA050220D052
:1006800054EA01021DD0C5F30A570246C5F313030D
:10069000C1F31300C1F30A5640F4801543F48013EC
:1006A000A7EB0608101BD64608F2FD3873EB0500D1
:1006B00002D308F1010801E092185B41B8F1000F84
:1006C00003DA00200146BDE8F08D00204FF48011D0
:1006D000064684460EE0171B73EB050705D3121B75
:1006E00063EB050306434CEA010C49084FEA30006E
:1006F00092185B4150EA0107EDD152EA030012D093
:1007000082EA040083EA0501084305D0101BAB41CF
:1007100006D20122002306E000224FF0004302E04F
:100720006FF0010253101AEB06004CEB085110EB6E
:100730000A0041EB0B01BDE8F04D00F0EDB8C10F30
:1007400080EAE0700844CA079623002100F0B6B89A
:100750000EB5C10F80EAE0700844CA07002140F2DC
:1007600033438DE80E000A460B4600F0E4F803B070
:1007700000BD00F0004220F00040C10DC0F31600A3
:1007800040F400007F2901DA00207047962903DC3D
:10079000C1F19601C84001E096398840002AF4D0A2
:1007A0004042704730B5041E71F1000404DB4FF085
:1007B0000044404264EB0101141E73F1000405DBA8
:1007C0001C464FF00043524263EB04038B4208BFC8
:1007D000824230BD30B5041E71F1000404DB4FF0DD
:1007E0000044404264EB0101141E73F1000405DB78
:1007F0001C464FF00043524263EB0403994208BF8A
:10080000904230BD01F0004330B421F0004150EA85
:10081000010206D00A0DA2F56072C1F31301002A8D
:1008200002DC30BC00207047440F44EAC104C10020
:10083000E01830BC00EBC25000F037B830B50B46C2
:10084000014600202022012409E021FA02F59D4200
:1008500005D303FA02F5491B04FA02F52844151ED4
:10086000A2F10102F1DC30BD202A04DB203A00FABB
:1008700002F1002070479140C2F1200320FA03F3F7
:10088000194390407047202A06DBCB17203A41FAE3
:1008900002F043EAE07306E041FA02F3D040C2F10D
:1008A000200291400843194670470029A8BF7047AD
:1008B000401C490008BF20F00100704710B4B0FA96
:1008C00080FC00FA0CF050EA010404BF10BC704731
:1008D00049B1CCF1200421FA04F411FA0CF118BF4B
:1008E000012121430843A3EB0C01CB1D4FEA00611A
:1008F0004FEA102042BF002010BC704700EBC350ED
:1009000010440029A4BF10BC7047401C490008BF18
:1009100020F0010010BC704710B5141E73F10004E4
:1009200008DA401C41F1000192185B411A4301D1E1
:1009300020F0010010BD2DE9F04D92469B4611B10B
:10094000B1FA81F202E0B0FA80F220329046FFF76D
:100950008BFF04460F4640EA0A0041EA0B0153466A
:100960005A46084313D0114653EA010019D0C8F182
:1009700040025046FFF753FC05460E465046594686
:100980004246FFF771FF084305D0012004E02046EE
:100990003946BDE8F08D0020054346EAE0762C4359
:1009A00037430A986305E40AA0EB08000022FD0A19
:1009B00044EA47540A3002D500200146E9E7010520
:1009C00010196941DDE9084500196941BDE8F04D9C
:1009D000A2E72DE9FE4FC3F30A5701F000450024BA
:1009E000C1F30A56C3F31303C1F3130143F4801395
:1009F00012EB020AA64641F48011009543EB030C6A
:100A0000A7F1010B16E0B0EB0A0061EB0C01071E29
:100A100071F1000707DA4FF00008D0EB080085F00D
:100A2000004568EB0101171A73EB0107EBD3761E43
:100A3000001849415E45F6DA50EA010209D0CDE9D5
:100A400000E5002213460296FFF775FF03B0BDE8EC
:100A5000F08F20460099F9E7C1F30A52C1F3130160
:100A600040F2FF3341F480119A4202DA002001463D
:100A7000704740F233439A42A2F2334202DC5242C0
:100A8000FFF7CDBBFFF7F0BE064C074D06E0E06870
:100A900040F0010394E8070098471034AC42F6D3C5
:100AA000FFF728FBE06200080063000870B521F042
:100AB000004303430CD0C1F30A550024D5EB0405D1
:100AC00064EB0403D617AD1AB34102DB00200146E4
:100AD00070BD201841EB025170BDFEE7014800F0E7
:100AE000D1B8000064030020014800F0CBB800003A
:100AF000A803002030B590F840500124AC40C56BED
:100B00006C60046863604368102B036803D09960CD
:100B10000068C26030BD9A600068C16030BD704737
:100B200010B501F0C7FF01F0F9FF0021084801F0FE
:100B30005DF80421064801F059F80021054801F04C
:100B400055F8BDE810400421024801F04FB80000FC
:100B500008020020C001002072B6FEE710B5006850
:100B6000406A00B2FFF7EBFD0349FFF7E4FBBDE885
:100B700010400249FFF711BC0000B4430000524787
:100B800010B50168486A002200B24A6241F27071F1
:100B90004843FFF7D4FDBDE810400149FFF7FDBB16
:100BA0000000524710B590F821100022022905D00C
:100BB0000421816380F82020012010BD01680B68AA
:100BC00023F00E030B6001680B6823F001030B6038
:100BD00090F84030C46B012101FA03F3636080F8A0
:100BE000211080F82020104610BD000010B590F8AC
:100BF00021100024022903D00421816301243DE057
:100C000001680A6822F00E020A6001680A6822F090
:100C100001020A601A4A0168914201D1012121E0D2
:100C2000174A1432914201D110211BE0144A283294
:100C3000914201D1891515E0114A3C32914201D10E
:100C400089140FE00E4A5032914202D14FF48031A4
:100C500008E00B4A6432914202D14FF4801101E066
:100C60004FF08071064A083A5160012180F8211046
:100C7000002180F82010416B01B18847204610BD4B
:100C8000080002402DE9F05FC16B0C6801680B6839
:100C9000D0F840C0042202FA0CF2494DDFF824A13A
:100CA000494E4A4FDFF828B1DFF828E122422CD024
:100CB0005A072AD50A68920603D40A6822F0040269
:100CC0000A600168A94201D1042219E0514501D10D
:100CD000402215E0B14202D14FF4806210E0B942E7
:100CE00002D14FF480420BE0594502D14FF48022EB
:100CF00006E0714502D14FF4800201E04FF08062BE
:100D00002F4908394A60C16A3BE04FF0020808FAEF
:100D10000CF818EA040F4FF000094FF0010235D02B
:100D20005FEA837832D50B689B0605D40B6823F005
:100D30000A030B6080F821200168A94201D1022238
:100D400019E0514501D1202215E0B14202D14FF402
:100D5000007210E0B94202D14FF400520BE0594545
:100D600002D14FF4003206E0714502D14FF4001277
:100D700001E04FF00072124908394A6080F8209073
:100D8000816A00291AD0BDE8F05F0847082505FAF6
:100D90000CF5254212D01B0710D50B6823F00E036B
:100DA0000B6090F84010C36B02FA01F15960826346
:100DB00080F8212080F82090016BE2E7BDE8F09FE9
:100DC000080002401C000240300002404400024083
:100DD000580002406C00024030B528B308C81349DF
:100DE00014221944B1FBF2F18900C16310498163F7
:100DF000022141771A6843F6F0718A43D0E9001462
:100E00002143D0E902452C4321430469214344692D
:100E10002143846921431143196000214163012268
:100E200042770177084630BD012030BDF8FFFDBF95
:100E30000000024070B5044690F82000002501280B
:100E40000CD0012084F8200094F821600020012EAD
:100E500006D084F820000225284670BD022070BD0F
:100E6000022684F82160A0632068066826F0010647
:100E700006602046FFF73EFEE06A00282068016811
:100E800002D041F00E0106E021F00401016020686B
:100E9000016841F00A0101602068016841F0010128
:100EA0000160D9E72DE9F84FDFF8B8910024A9F1E6
:100EB000040B23460F2709F1040AABF1040EC9E025
:100EC0000125A5402A40AA427DD1674ED1F804C031
:100ED000ACEB0608B44532D014DCBCF1030F3AD0B9
:100EE00009DCBCF1000F2AD0BCF1010F1CD0BCF111
:100EF000020F31D11DE0BCF1110F17D0BCF1120F60
:100F00002AD119E0B8F5881F19D006DCB8F5803F62
:100F100015D0B8F5801F1FD111E0B8F5001F0ED015
:100F2000B8F5041F18D10AE0CB6815E0CB681B1D8B
:100F300012E0CB6808330FE0CB680C330CE08B6811
:100F40002BB1012B4FF0080303D0456104E00423CB
:100F500002E0056100E00023FF2A01D8064601E017
:100F600000F104064FEA840501D9A5F12005D6F861
:100F7000008007FA05FC28EA0C0803FA05F548EAA0
:100F80000508C6F800804D68ED0062D5374DAE69A2
:100F900046F00106AE61AD6924F0030605F00105D7
:100FA0000095334D06EB050CDCF80850A607360F0C
:100FB00007FA06F825EA0805DFF8B880404503D1AE
:100FC0004FF0000817E044E0DFF8AC80404502D164
:100FD0004FF001080FE0DFF8A480404502D14FF048
:100FE000020808E0DFF89880404502D14FF003087E
:100FF00001E04FF0040808FA06F848EA0508CCF8C2
:1010000008804D68D9F80060ED024D4601D51643C1
:1010100000E096432E604D68DAF80060AD02554658
:1010200001D5164300E096432E604D68DBF8006062
:10103000AD035D4601D5164300E096432E604D6832
:10104000DEF80060ED03754601D5164300E09643D7
:101050002E60641C0D682A46E5407FF431AFBDE880
:10106000F88F000008040140000011100010024039
:101070000000014000080140000C01400010014048
:10108000001401408068084000D0012070470AB178
:10109000016170470904FBE7014880687047000060
:1010A0002C00002070B5040025D094F83D000025E8
:1010B00020B984F83C50204600F0B8F8242084F889
:1010C0003D002068016821F001010160206801688D
:1010D00041F4004101602068016821F40041016091
:1010E00000F05CFA4D4A6168914201D84C4900E039
:1010F0004C49884201D2012070BD4B492368B0FBA6
:10110000F1F15E6826F03F060E435E60636893422D
:1011100006D94FF4967359434FF47A73B1FBF3F148
:101120002368491C1E6A26F03F0631431962616834
:10113000914210D84900401EB0FBF1F2521CC2F39C
:101140000B02042A01D2042022E0B0FBF1F0401C83
:10115000C0F30B001CE0A268F2B301EBC10303EB88
:101160000116431EB3FBF6F35B1C43F480431B05DF
:1011700049D092B301EBC10202EB0111401EB0FB5A
:10118000F1F0401CC0F30B0040F4804040F40040FC
:101190002168CA694CF6FF739A431043C861D4E9C9
:1011A000071001432068026822F0C0021143016069
:1011B000D4E9030101432068826848F2FF339A436F
:1011C00011438160D4E9050108432168CA6822F00F
:1011D000FF021043C86001E00EE016E020680168DD
:1011E00041F0010101602564202084F83D00256361
:1011F00084F83E50002070BD01EB4106431EB3FB56
:10120000F6F35B1CB3E70120C2E701EB4101401E8E
:10121000B0FBF1F0401CC0F30B00B7E7A086010063
:1012200080841E0000093D0040420F0010B586B0CA
:1012300000210091019102910391006813498842B5
:1012400022D1134CA06940F00800A061A069694652
:1012500000F0080004904FF44070009012200190BC
:10126000032003900B48FFF71DFE0B48416841F037
:10127000E06141F002014160E06940F40010E0618A
:10128000E06900F40010049006B010BD0054004066
:1012900000100240000C014000000140024881683B
:1012A00002781144816070472C000020074810B577
:1012B000016841F010010160032000F0A7F80F2041
:1012C00000F006F800F050F8002010BD00200240A9
:1012D00030B505461F4887B0C16941F00201C161C0
:1012E000C06906A900F00200009001A800F036F9DC
:1012F0000498B0B100F052F940001749174AB0FB0A
:10130000F1F11748491E0260416040F2E7320021C6
:10131000C0E903218160816100F076FB040003D005
:1013200015E000F03BF9E8E70D4800F09BFB0400F6
:101330000DD11D2000F03CF8102D07D200222946C7
:101340001D2000F043F80748056000E0012407B0C5
:10135000204630BD0010024040420F000004004013
:10136000EC030020300000200F4808B5816941F0EF
:1013700001018161816901F001010091C16941F0C0
:101380008051C161C069002200F0805000900F219F
:10139000901E00F01BF80548416821F0E06141F023
:1013A0000071416008BD00000010024000000140D3
:1013B000002809DB00F01F02012191404009800054
:1013C00000F1E020C0F8001170470000F0B40E4BAF
:1013D0001B680C46C3F30223C3F10705042D00D993
:1013E0000425191D072901D2002300E0DB1E012678
:1013F00006FA05F1491E214099409E40761E16408E
:101400003143F0BC01F08ABF0CED00E0064900F06A
:10141000070208684FF6FF03184040EA0220034A1B
:1014200010430860704700000CED00E00000FA0572
:101430002DE9F0470F46050061D0434E306800F0BB
:101440000700B84209D2306820F007003843306006
:10145000306800F00700B84251D128683B4C810742
:1014600012D5400703D5606840F4E06060602878DA
:10147000000703D5606840F4605060606068A96848
:1014800020F0F000084360602878C00728D0686822
:10149000012810D02168022810D0890700292EDAEF
:1014A000616821F0030101436160FFF7F5FD8046AB
:1014B00041F288390DE021688903EFE78901EDE702
:1014C000FFF7EAFDA0EB0801494502D90320BDE87A
:1014D000F0876068696800F00C00B0EB810FEFD115
:1014E000306800F00700B8420BD9306820F00700E0
:1014F00038433060306800F00700B84201D0012066
:10150000E5E72878400705D56068E96820F4E060E1
:10151000084360602878000706D56068296920F4D0
:10152000605040EAC100606000F058F86168084A05
:10153000C1F30311515CC8400649086006480068C1
:10154000FFF7C6FE0020C2E7002002400010024064
:101550002262000838000020300000200F220260C4
:101560000C4A536803F003034360536803F0F0032D
:101570008360536803F4E063C36052684FF4E06330
:1015800003EAD20202610448006800F00700086024
:101590007047000000100240002002400448054946
:1015A00000684968044AC1F30221515CC840704791
:1015B000380000200010024032620008044805494B
:1015C00000684968044AC1F3C221515CC8407047B1
:1015D0003800002000100240326200080E4A5168B4
:1015E0000E4801F00C03042B11D0082B0FD10C482E
:1015F000C1F38343C903C05C0AD55168084AC1F3EB
:101600004041921E515C054A5043B0FBF1F07047D7
:1016100004494843704700000010024000127A005D
:101620001262000800093D002DE9F84F040070D057
:101630002078C04DC00749D06868C0F381000128F8
:1016400007D06868C0F38100022809D16868C00328
:1016500006D52868800339D560680028E7D035E0D2
:101660006068B0F5803F0BD010B1B0F5A02F11D05D
:10167000286820F480302860286820F4802002E068
:10168000286840F480302860606890B1FFF704FD5E
:1016900006460AE0286840F480202860F0E700BF92
:1016A000FFF7FAFC801B642873D828688003F7D5FD
:1016B0000CE0FFF7F1FC064605E000BFFFF7ECFC8D
:1016C000801B6428F0D828688003F7D420789A4ECD
:1016D00080074FF001094FF0000839D5686810F015
:1016E0000C0F07D06868C0F38100022809D1686830
:1016F000C00306D42868800714D52069012808D1C2
:1017000010E02069B0B1C6F80090FFF7C5FC0746AD
:1017100005E00AE1FFF7C0FCC01B0228C4D8286816
:101720008007F7D52868616920F0F80040EAC10019
:1017300028600DE0C6F80080FFF7AEFC074604E025
:10174000FFF7AAFCC01B022823D828688007F7D41B
:10175000207800072CD57948A169D9B1C0F800904C
:10176000FFF79AFC074604E0FFF796FCC01B02282F
:101770000FD8686A8007F7D571484FF4FA510068AE
:10178000B0FBF1F0009000BF0098411E0091FAD22A
:101790000EE080E0C0F80080FFF77EFC074604E022
:1017A000FFF77AFCC01B022875D8686A8007F7D457
:1017B0002078400760D5E8690027C00008D4E869B0
:1017C00040F08050E861E869012700F08050009007
:1017D0005C480168C90513D40168834641F48071EF
:1017E0000160FFF759FC824606E000BFFFF754FC9A
:1017F000A0EB0A0064284ED8DBF80000C005F5D540
:10180000E06801280AD008B1052813D0286A20F022
:1018100001002862286A20F0040002E0286A40F0F3
:1018200001002862E06841F2883B98B1FFF734FC80
:1018300082460BE0286A40F004002862EEE700BF11
:10184000FFF72AFCA0EB0A0159455AD8286A8007FD
:10185000F6D50CE0FFF720FC824605E0FFF71CFC04
:10186000A0EB0A0159454CD8286A8007F6D41FB16D
:10187000E86920F08050E861E06988B36968C1F3E5
:101880008101022944D00228C6F8608004D0FFF705
:1018900003FC044638E034E0FFF7FEFB074604E0B3
:1018A000FFF7FAFBC01B02282BD828688001F7D469
:1018B000206AB0F5803F05D16868A16820F4003047
:1018C00008436860D4E908010843696821F4741189
:1018D00008436860C6F86090FFF7DEFB044606E048
:1018E00025E000BFFFF7D8FB001B022809D82868B5
:1018F0008001F7D51BE000BFFFF7CEFB001B0228DD
:1019000002D90320BDE8F88F28688001F4D40EE0E6
:101910000128F7D06868226A00F48031914204D12E
:10192000616A00F47010884201D00120EAE70020CB
:10193000E8E70000001002400000424280044242FA
:1019400038000020007000407047704710B590F8D4
:101950003C20012A22D0012280F83C20CA688C68F1
:1019600022F4407222434C6822F4806222430C68C5
:1019700022F4006222430C6922F4805222434C6913
:1019800022F400522243C969002322F480420A4310
:1019900001684A6480F83C30002010BD022010BD70
:1019A00070B590F83C20012A26D0012480F83C40F4
:1019B000022280F83D2003685A689D6822F0700674
:1019C0000A6832435A600D4B02689A4208D0B2F15D
:1019D000804F05D00A4B9A4202D00A4B9A4204D15A
:1019E000496825F080031943916080F83D4000214B
:1019F00080F83C10084670BD022070BD002C0140EC
:101A0000000400400008004010B5040003D094F822
:101A10003D0010B107E0012010BD002084F83C001B
:101A2000204600F01EF8022084F83D00211D2068A9
:101A300001F09CF9012084F8460084F83E0084F807
:101A40003F0084F8400084F8410084F8420084F8A4
:101A5000430084F8440084F8450084F83D000020E9
:101A600010BD704790F83D10012901D0012070474A
:101A7000022180F83D100168CA6842F00102CA6084
:101A800000680B49884208D0B0F1804F05D0094961
:101A9000884202D00849884204D1816801F00701D8
:101AA000062903D0016841F0010101600020704760
:101AB000002C014000040040000800402DE9F041E6
:101AC0000D46040003D094F83D0018B108E0012051
:101AD000BDE8F081002084F83C00204600F040F88A
:101AE000022084F83D002068816844F20702914397
:101AF0008160211D206801F039F9226890689169A0
:101B0000166A2B68AF69034340F20330814341EA10
:101B10000721A868EF6908434FF6FC418843E9684C
:101B200040EA0720014328692F6A000140EA073094
:101B3000084369686D6926F0220646EA05152943BF
:101B400093602268906154F8460B0162012004F80A
:101B50001F09E0752076E0762077A0750020B7E7B2
:101B600000B585B0002100910191029103910168B7
:101B70001A48B1F1804F1BD0194A914216D1C16960
:101B800041F00401C161C16901F00401049181695E
:101B900041F0080181618069694600F00800049005
:101BA000C02000900F4800BFFFF77CF905B000BDD2
:101BB000C16941F00101C161C16901F001010491F4
:101BC000816941F0040181618069694600F0040087
:101BD0000490032000900448E6E700000010024053
:101BE00000080040000C01400008014070B590F86A
:101BF0003E60044690F83F5090F8423090F8432001
:101C0000022021B104290ED0012E1BD114E0012E97
:101C100018D1012B16D184F83E0084F8420001222D
:101C20000021206820E0012D0CD1012A0AD184F87E
:101C30003F0084F8430014E0012D03D1012B01D1B2
:101C4000012A01D0012070BD84F83E0084F83F00D5
:101C500084F8420084F8430001220021206801F04A
:101C6000BBF801220421206801F0B6F82068016861
:101C700041F001010160002070BD704770B504465D
:101C8000006801694FF00005C943890715D4C16890
:101C9000C943890711D4E91E01610120207720681A
:101CA00080698007204602D0FFF7E7FF04E000F0DC
:101CB000BFF8204600F064F9257720680169C94320
:101CC000490717D4C168C943490713D46FF0040109
:101CD0000161022020772068806910F4407F20464F
:101CE00002D0FFF7CAFF04E000F0A2F8204600F09F
:101CF00047F9257720680169C943090716D4C168E7
:101D0000C943090712D46FF008010161042020774C
:101D10002068C0698007204602D0FFF7AEFF04E0CC
:101D200000F086F8204600F02BF92577206801693D
:101D3000C943C90617D4C168C943C90613D46FF093
:101D400010010161082020772068C06910F4407FED
:101D5000204602D0FFF791FF04E000F069F820462A
:101D600000F00EF9257720680169C943C90708D139
:101D7000C168C943C90704D1891E0161204600F02A
:101D80004FF920680169C943090609D4C168C943EC
:101D9000090605D46FF0800101612046FFF7D4FDEC
:101DA00020680169C943490609D4C168C943490685
:101DB00005D46FF040010161204600F03BF9206836
:101DC0000169C94389060BD4C168C943890607D490
:101DD0006FF0200101612046BDE87040FFF7B5BDFE
:101DE00070BD000000B585B0002100910191029105
:101DF000039100680B49884212D10B48816941F078
:101E0000040181618069694600F0040004904FF488
:101E1000106000900220019003900448FFF742F800
:101E200005B000BD002C0140001002400008014038
:101E3000704770B5044690F83C0000260D46012816
:101E40000FD0012084F83C006AB1042A1DD0082A72
:101E50002FD00C2A3FD00126002084F83C003046C9
:101E600070BD022070BD206800F0C4FF2068816949
:101E700041F0080181612068816921F004018161DC
:101E8000206881692A69114311E0206800F0DAFFB7
:101E90002068816941F4006181612068816921F4D1
:101EA00080618161206881692A6941EA022181613A
:101EB000D2E7206800F0F2FF2068C16941F0080114
:101EC000C1612068C16921F00401C1612068C16954
:101ED0002A69114311E0206801F00CF82068C169FB
:101EE00041F40061C1612068C16921F48061C16170
:101EF0002068C1692A6941EA0221C161ACE710B5D5
:101F0000040003D094F83D0010B107E0012010BD9B
:101F1000002084F83C00204600F01EF8022084F8DF
:101F20003D00211D206800F021FF012084F84600BB
:101F300084F83E0084F83F0084F8400084F84100B3
:101F400084F8420084F8430084F8440084F8450093
:101F500084F83D00002010BD08B50068064988429D
:101F600008D10648816941F400618161806900F40B
:101F70000060009008BD0000002C014000100240ED
:101F80007047000010B50446022249B104290ED062
:101F9000082913D094F84100012816D0012010BD63
:101FA00094F83E000128F9D184F83E200FE094F81F
:101FB0003F000128F2D184F83F2008E094F8400067
:101FC0000128EBD184F8402001E084F8412001226F
:101FD000206800F001FF0F492068884203D1426C5D
:101FE00042F4004242642068884208D0B0F1804F39
:101FF00005D00949884202D00849884204D1816845
:1020000001F00701062903D0016841F001010160D8
:10201000002010BD002C01400004004000080040DA
:1020200000680349884201D1FFF738B970470000C2
:1020300000040040704738B5044690F8420020285C
:1020400001D0022038BD61B15AB1012020630020C7
:102050006063204601F0E2F80028F3D1216B0129EA
:1020600001D0012038BD21680A68496800912168C3
:102070000C3151E8002F42F0100241E80023002B00
:10208000F5D138BD7CB500681E4A904238D01E4A52
:10209000904235D11D4A1078A52825D1551815F83C
:1020A000010C5A2820D1002301208C1E04E0165C6C
:1020B000401C3344DBB2C0B2A042F8DB15F8020C7E
:1020C000984211D10A46114901F11E00FEF7B7F8F6
:1020D000002000900D4802231E3001900C486A46F3
:1020E00001A9006803F08CFC08491E2201F184005C
:1020F000FFF7A1FF07480068016821F004010160B3
:102100007CBD000000380140004400405002002027
:10211000240000206403002070470000F8B5016827
:1021200004460868CA684B6910F00F0F4FF00005AD
:102130005AD003F0010602F49077374365D0C10707
:1021400005D0D10503D5616C41F0010161644107FF
:1021500005D5D90703D0616C41F0020161648107A4
:1021600005D5D90703D0616C41F004016164010712
:1021700007D502F02001314303D0616C41F0080122
:102180006164616C00293BD0800604D5900602D5BD
:10219000204600F085FF20684069616CC0F3801024
:1021A00001F00801014320462BD000F044FF2068D5
:1021B0004069400621D52068143050E8001F21F006
:1021C000400140E80012002AF5D1E06BA8B16D494A
:1021D0004163E06BFEF70AFD002811D0E06B416B14
:1021E00001B0BDE8F040084783060ED593060CD534
:1021F0002046BDE8F84000F053BF2046FFF78CFFB3
:10220000F8BDFFF789FF6564F8BD266B2023012E1A
:102210007CD1C6067AD5D60678D50868486800907D
:1022200048694FF00206400640D5E16B08684068F7
:102230000004000CE8D0A28D8242E5D9E0858869CF
:1022400020282DD020680C3050E8001F21F4807128
:1022500040E80012002AF5D12168143151E8000F3E
:1022600020F0010041E80002002AF5D12068143076
:1022700050E8001F21F0400140E80012002AF5D18B
:1022800084F84230256320680C3050E8001F21F0AC
:10229000100140E80012002AF5D1E06BFEF782FC45
:1022A0006663A08DE18D401A81B22AE0A08DE18D98
:1022B000401A81B2E08D0028A6D00029A4D022685F
:1022C0000C3252E8000F20F4907042E80007002F13
:1022D000F5D12068143050E8002F22F0010240E8C8
:1022E0000027002FF5D184F84230256320680C3098
:1022F00050E8002F22F0100240E80023002BF5D117
:1023000066632046FFF7BEFEF8BDFFE705062BD546
:10231000150629D594F841002128F5D1A068B0F51B
:10232000805F01D12069B0B1206A411C216221681F
:1023300000784860E08C401E0004000CE084E3D18B
:102340002068C16821F08001C1602068C16841F047
:102350004001C160D8E7206A0088C0F308004860E7
:10236000206A801C2062E5E74006CDD55006CBD51B
:10237000CA68204622F04002CA6084F8413000F06A
:10238000FFF8C1E7392F000870B5040004D094F8B5
:102390004100002510B106E0012070BD84F84050D6
:1023A000204600F023F8242084F841002068C1680A
:1023B00021F40051C160204600F0D4FE206801697C
:1023C00021F4904101612068416921F02A014161B5
:1023D0002068C16841F40051C1606564202084F820
:1023E000410084F842006563002070BDF0B585B0FF
:1023F000002400940194029403940646036858480C
:10240000DFF858C102210322564D0715634525D137
:10241000836943F480438361836903F480430493B5
:10242000836943F0040383618069039200F0040030
:1024300004900802CDE9000169462846FEF732FD06
:10244000CDE90074694628460294FEF72BFD002270
:1024500005212520FEF7BAFF252051E0DFF808C14D
:10246000634551D1C36943F40033C361C36903F4C5
:1024700000330493836943F004038361806903920A
:1024800000F0040004900420CDE9000169462846CC
:10249000FEF708FD0820CDE90004694628460294AD
:1024A000FEF700FD324D31488027C5E90004C5E93B
:1024B00002472C616C61AC612846EC61FEF78CFC34
:1024C00008B1FEF749FBF5636E62294D2748443594
:1024D000143001C5102091C5254845F810494430F5
:1024E0006C61AC61EC61FEF777FC08B1FEF734FB80
:1024F000B5630022052126206E62FEF767FF2620C5
:10250000FEF756FF05B0F0BD1A4DAB42FAD1C369D4
:1025100043F48023C361C36903F480230493836974
:1025200043F0080383618069CDE9007100F0080081
:10253000CDE90320104D69462846FEF7B3FCE814A8
:10254000CDE90004694628460294FEF7ABFC002260
:1025500005212720FEF73AFF2720D1E70038014068
:102560000010024000080140004400406C0002409E
:102570006403002000480040000C01407047704791
:102580007047000070B5044600F03FFB208841BA58
:10259000A088143140BA1A3809B205B20846FEF7CD
:1025A000D7F806460C462846FEF7D2F832462346B0
:1025B00001F09CFCBDE87040014A024BFDF7DEBF14
:1025C000775AF01ADCA54C40FEE7000010B5094C24
:1025D000002210212046FEF75AFD01220821204644
:1025E000FEF755FD20460122BDE810401021FEF700
:1025F0004EBD0000000C01402DE9F041124E07468F
:102600000024012210213046FEF741FD002560061E
:10261000040E012208213046FEF739FD1021304614
:10262000FEF730FD08B1641CE4B2002208213046F8
:10263000FEF72DFD6D1C082DE9DB384600F05CF837
:102640002046BDE8F0810000000C014070B50F4E3F
:1026500005460024280601D5012200E000221021B1
:102660003046FEF714FD012208213046FEF70FFD2B
:10267000002208213046FEF70AFD6806050E641C9C
:10268000082CE7DBBDE8704000F01CB8000C0140EE
:1026900010B50B4C012210212046FEF7F8FC012258
:1026A00008212046FEF7F3FC002210212046FEF709
:1026B000EEFC20460022BDE810400821FEF7E7BCF2
:1026C000000C014070B50B4D012210212846FEF789
:1026D000DEFC012208212846FEF7D9FC10212846FD
:1026E000FEF7D0FC0446002208212846FEF7CFFC66
:1026F000204670BD000C014010B50B4C012810D0D5
:10270000002210212046FEF7C2FC012208212046AB
:10271000FEF7BDFC20460022BDE810400821FEF770
:10272000B6BC0122EDE70000000C014010B570219D
:10273000002000F0C2FA2021012000F0BEFA0021A2
:10274000BDE81040022000F0B8BA00000D4808B5FE
:10275000416941F0010141614069002200F001003E
:10276000009005211020FEF731FE1020FEF720FE1C
:10277000002205211120FEF729FEBDE808401120A6
:10278000FEF716BE001002402DE9FC413C480090C7
:10279000002301220A213BA003F0BCFC3C4C002298
:1027A0001021A060012002F0DAFF01212061002247
:1027B000084602F0D4FF606100220821012002F0E7
:1027C000CEFFA06100220221012002F0C8FFE061DB
:1027D00000220821012002F0C2FF20620022042111
:1027E000012002F0BCFF6062042002F0B4FF014649
:1027F000E060E06902F09EFFE168206A02F09AFF63
:10280000E168606A02F096FF00251826CDE90065B0
:102810004FF480772B463A461EA1214803F0D0FAA8
:10282000CDE90065002380221EA1214803F0C8FAEB
:1028300004F12800CDE9006000233A461DA120489C
:1028400003F0BEFA1920CDE9000500233A461DA188
:10285000204803F0B5FA1A20CDE9000500233A46D6
:102860001DA1204803F0ACFA03F010FB02460095CE
:1028700000230121A06803F097FCBDE8FC81000063
:10288000C94600086D6F746F725F74696D65720080
:10289000000000206C63645F7465737400000000C6
:1028A0005D4400086B65795F7461736B0000000024
:1028B00011440008686D635F7461736B0000000071
:1028C000615100086C6F6769635F636F6E74726F4C
:1028D0006C000000CD4400087069645F636F6E7423
:1028E000726F6C008D4700082DE9F04786B0002418
:1028F00030480094019402940394816941F01001DE
:102900008161816901F010010491816941F0200128
:102910008161816901F020010491816941F0040124
:102920008161816901F004010491816941F008012C
:1029300081618069012200F00800DFF87C80550386
:10294000049029464046FEF7A2FBDFF87090002273
:10295000C0214846FEF79BFBDFF864A04FF2180742
:10296000002239465046FEF792FB009502260125CB
:102970000396CDE9015469464046FEF793FAC0201C
:10298000CDE90005CDE9024669464846FEF78AFAD8
:1029900003208DE8310069465046FEF783FA009720
:1029A0000396CDE9015469465046FEF77BFA06B01E
:1029B000BDE8F0870010024000100140000801400F
:1029C000000C01400D4810B50B4901600C494160F5
:1029D00000214FF480428160C0E9031241618161AE
:1029E000C1610162FEF75EFB002803D0BDE8104024
:1029F000FEF7B2B810BD00000054004024010020D2
:102A0000801A060010B592B000240F941C2168466D
:102A10001094FDF72DFC202107A8FDF729FC244880
:102A20002249C0E9001441F61F41C0E90241046196
:102A300044618461FFF763FA08B1FEF78DF80F94E3
:102A40000FA91B481094FEF7ABFF08B1FEF784F8FE
:102A50006020CDE9000402940394049405940022BC
:102A6000694613480694FFF7E4F908B1FEF774F8D5
:102A70000C2269460E48FFF7DCF908B1FEF76CF846
:102A80000794089409944FF400500A94CDE90B4040
:102A900007A907480E94FEF759FF08B1FEF75CF846
:102AA0000348FFF79FF912B010BD0000002C014051
:102AB0007801002010B58CB024216846FDF7D8FBC2
:102AC0000024154809944FF080410A94C0E900148D
:102AD0004FF6FF71C0E90241046184610120CDE934
:102AE0000004CDE90204CDE90404CDE90604089010
:102AF00069460948FEF7E2FF08B1FEF72DF8099490
:102B000009A905480A94FEF74BFF002801D0FEF7FB
:102B100023F80CB010BD0000C001002010B58CB02F
:102B200024216846FDF7A4FB0024154809941349A5
:102B30000A94C0E900144FF6FF71C0E90241046134
:102B400084610120CDE90004CDE90204CDE904044B
:102B5000CDE90604089069460948FEF7AFFF08B1C1
:102B6000FDF7FAFF099409A905480A94FEF718FF32
:102B7000002801D0FDF7F0FF0CB010BD00080040A8
:102B8000080200200C4810B50A4901604FF4E131F9
:102B90004160002181600C22C160C0E904128161A2
:102BA000C161FFF7F1FB002803D0BDE81040FDF73D
:102BB000D3BF10BD003801408C020020114810B571
:102BC0000F4901604FF4E1314160002181600C2226
:102BD000C160C0E904128161C161FFF7D5FB08B192
:102BE000FDF7BAFF07491E2284390648FFF723FA8A
:102BF000044890300068016821F00401016010BDB4
:102C000000440040D4020020FEE770B50546FFF7FF
:102C10003FFD3C20FFF71AFD0320FFF717FDFFF7EC
:102C200037FD3D20FFF712FD002401E0052C0BD0FD
:102C30000020FFF7E1FC2855641CE4B2062CF5D314
:102C4000BDE87040FFF7C2BC0120FFF7D5FC6871FA
:102C5000F2E7FEE72DE9F0470446C169C068FDF7D9
:102C600064FB256906462946FDF75FFB8146012185
:102C70002846FDF7D0FB3146FDF75AFB6169FDF7A9
:102C800002FB0146A068FDF756FB804631466068AE
:102C9000FDF751FB074649462068FDF74CFBA1694B
:102CA000FDF7F1FA3946FDF7EEFA4146FDF7EBFA8A
:102CB0002661C4E90550BDE8F08770B50D460446AD
:102CC000FFF7E6FC3C20FFF7C1FC2046FFF7BEFC07
:102CD0002846FFF7BBFCBDE87040FFF777BC00005B
:102CE00010B5502080F31188BFF34F8FBFF36F8F63
:102CF00003F0D2F818B104494FF08050086000206A
:102D000080F3118810BD000004ED00E010B590B014
:102D100028216846FDF7ACFA14210AA8FDF7A8FAA5
:102D200002200090012004901020002405900794B8
:102D30006846FEF779FC08B172B6FEE70F20CDE9D0
:102D40000A040C940D9400210AA80E94FEF770FB5F
:102D5000002801D072B6FEE710B010BD7047000029
:102D60000148FEF78BBF0000EC030020F0B50268BD
:102D7000164B174C174D4FF08047984205D0B8427C
:102D800003D0A04201D0A84203D122F070064A68C5
:102D90003243984205D0B84203D0A04201D0A842A5
:102DA00003D122F44074CA6822434C6922F08002A5
:102DB000224302608A68C2620A688262984201D134
:102DC0000969016301214161F0BD0000002C01404F
:102DD000000400400008004010B501F01F0301216D
:102DE000046A99408C430462016A9A40114301626B
:102DF00010BD000030B5036A026A22F001020262CF
:102E00004268846924F073050C682C4323F00205A2
:102E10008B682B430A4DA8420BD123F00805CB68E1
:102E200022F440722B434D6923F0040315438A6951
:102E30002A434260846149684163036230BD0000F7
:102E4000002C014030B5026A036A23F010030362CC
:102E5000436884690D6824F4E64444EA05248D68D7
:102E600022F0200242EA05120B4DA8420ED1CD6895
:102E700022F0800242EA05124D6923F4406343EADE
:102E800085038D6922F0400243EA85034360846133
:102E900049688163026230BD002C014030B5036A8D
:102EA000026A22F4807202624268C46923F40073E9
:102EB00024F073050C682C438D6843EA05230C4D00
:102EC000A8420ED1CD6823F4006343EA05234D697F
:102ED00022F4405242EA05128D6923F4806342EAEB
:102EE00005124260C4614968C163036230BD0000DD
:102EF000002C014030B5046A026A22F4805202625A
:102F00004268C3690D6823F4E64343EA05238D68EC
:102F100024F4005444EA0534064DA84204D14D6916
:102F200022F4804242EA85124260C361496801642A
:102F3000046230BD002C014010B5406A0021C185FB
:102F4000C184FFF7E9F810BD70B5446A2068406994
:102F500094F84110C0F3C0100025212904D118B104
:102F6000E584204600F08EF82068406994F842100D
:102F7000C0F38010222904D118B1E585204600F065
:102F80005AF8606C40F0100060642046FFF7C4F807
:102F900070BD10B50146406A096809684FF000022B
:102FA00089062ED4C28501680C3151E8003F23F414
:102FB000807341E80034002CF5D10168143151E8E8
:102FC000003F23F0010341E80034002CF5D10168F3
:102FD000143151E8003F23F0400341E80034002C55
:102FE000F5D1202180F84210016B012909D1016837
:102FF0000C3151E8003F23F0100341E80034002C6D
:10300000F5D14263016B012902D0FFF7B7FA10BD79
:10301000818DFFF737F810BD10B5406A012141637B
:10302000016B012902D0FFF7AAFA10BD818D490872
:10303000FFF728F810BD01680C3151E8002F22F489
:10304000907241E80023002BF5D10168143151E85A
:10305000002F22F0010241E80023002BF5D1016B83
:10306000012909D101680C3151E8002F22F010022A
:1030700041E80023002BF5D1202180F842100021E7
:103080000163704701680C3151E8002F22F0C00243
:1030900041E80023002BF5D1202180F84110704732
:1030A00008B590F84210222901D0022008BD82689C
:1030B0004FF480539A4201D1016921B1816A9A4249
:1030C0001BD04AB10AE00268816A5268C2F3080262
:1030D0000A80816A891C08E0026972B1026852683C
:1030E00002F07F020A70816A491C8162C18D491E0B
:1030F0000904090CC18503D01BE002685268F1E79E
:103100000168CA6822F02002CA600168CA6822F415
:103110008072CA6001684A6922F001024A61202176
:1031200080F8421000214163026B012A03D0FFF7AF
:1031300025FA002008BD016301680C3151E8002F19
:1031400022F0100241E80023002BF5D101680A6843
:10315000D20602D50A6849680091818DFEF792FF78
:10316000E7E7000070B5044600680169E26821F4F1
:103170004051114301612169A06808436169084316
:103180002168CA6841F20C639A430243CA6020680E
:103190004169A26921F44071114341611E492068CF
:1031A000884202D1FEF70AFA01E0FEF7F7F900EBD8
:1031B000C00101EB0012606864218000B2FBF0F3F3
:1031C000B3FBF1F36FF018067343B2FBF0F5B2FBFB
:1031D000F0F605EB8305322303EB0515B5FBF1F59E
:1031E000B6FBF1F605F0F00505EB0615B2FBF0F6BF
:1031F000B2FBF0F0B0FBF1F06FF01802504306EBB9
:10320000800003EB0010B0FBF1F0216800F00F002C
:103210002844886070BD00000038014038B58162E4
:1032200004468285002013466064222284F84220EE
:10323000E56B1B4AAA62E56B1A4AEA62E56B1A4A19
:103240002A63E26B50630A462168E06B091DFDF7B3
:10325000F1FD2068016840680090206948B120684D
:103260000C3050E8001F41F4807140E80012002A41
:10327000F5D12068143050E8001F41F0010140E80A
:103280000012002AF5D12068143050E8001F41F0E8
:10329000400140E80012002AF5D1002038BD0000AE
:1032A000932F000819300008492F00080148FEF745
:1032B00035BF00008C0200200148FEF72FBF000040
:1032C000D40200200148FEF729BF00001C030020A3
:1032D000FEE700000FB4054B10B503A9044A02989D
:1032E00000F05CF910BC5DF814FB0000F943000825
:1032F0001C010020490050EAC12018BF04204A0DDB
:1033000018BF40F0010040F2FF72B2EB515F08BFFE
:1033100040F00200012808BF052070470907090E88
:10332000002804DB00F1E02080F80014704700F072
:103330000F0000F1E02080F8141D70472DE9F041E6
:103340004F1E00EBC7010446D1E9000115461E4699
:1033500037F006020DD02A463346FDF70FF97F1EDF
:1033600004EBC703D3E90023FDF761F837F0060249
:10337000F1D1022F25D0042F13D0062F18BFBDE89E
:10338000F0812A463346FDF7F9F8D4E90A23FDF720
:103390004EF82A463346FDF7F1F8D4E90823FDF745
:1033A00046F82A463346FDF7E9F8D4E90623FDF747
:1033B0003EF82A463346FDF7E1F8D4E90423FDF749
:1033C00036F82A463346FDF7D9F8D4E90223FDF74B
:1033D0002EF82A463346FDF7D1F8D4E90023BDE89C
:1033E000F041FDF724B80122FDF760BBFDF71FB8DF
:1033F0000022134610461146FDF732B9024A00205A
:103400001107FDF753BB000001FDFFFF02E008C8F4
:10341000121F08C1002AFAD170477047002001E04E
:1034200001C1121F002AFBD170470000014908604A
:1034300070470000200100202DE9FF5FDDE9022038
:10344000010DDDF838B0024318D044F61050A1F257
:10345000FF3141430D140F98012820D0A5EB0B003C
:10346000401C5FEA000A4FF00004474EDFF81C9151
:10347000A046504616D5CAF1000728E00F9801244F
:1034800043A2012808D0002100980F9BC0E9002129
:10349000C0E90243BDE8FF9F6FEA0B01F4E7CBF1FF
:1034A0000000DEE7074612E0F80707D02246334661
:1034B00040464946FDF762F8804689462246334633
:1034C00010461946FDF75AF804460E467F10002FA5
:1034D000EAD1DDE90201BAF1000F42464B4602DAB9
:1034E000FDF74CF801E0FDF7BBF804460E4600225C
:1034F000284BFDF76FF903D84FF0FF30014607E086
:103500000022254B20463146FCF791FFFDF7A4FA37
:10351000102409E0002C0ADB0A220023FCF74EFEEF
:10352000019B30321A55641E50EA0102F2D1641C2C
:10353000019AC4F1110314440F9A012A03D0012205
:1035400008430DD10AE0084304D000204FF0110BCE
:103550000F9080E7A3EB0B056D1E0DE05B4504DDCE
:103560004FF0000205F1010504E003DA4FF000021C
:10357000A5F10105002AECD000980F99C0E90231AD
:10358000C0E9004586E70000000024400000F03F4D
:10359000300000000000F0430000E03F2DE9FF4F45
:1035A00095B09B468946064600250FE2252877D12F
:1035B00000242746F84A0121059400E0044316F848
:1035C000013F203B01FA03F01042F7D130782A285E
:1035D00011D06FF02F033078A0F13002092A16D8ED
:1035E000059A44F0020402EB820203EB420210440B
:1035F000761C0590EFE759F8042B0592002A03DAB0
:10360000504244F40054059044F00204761C307893
:103610002E2816D116F8010F44F004042A280DD0E4
:103620006FF02F023078A0F13003092B09D807EB97
:10363000870302EB4303C718761CF3E759F8047BB2
:10364000761C30786C280FD006DC4C2817D0682800
:103650000DD06A2814D104E0742810D07A280FD134
:103660000DE044F400140AE044F4801401E044F452
:1036700040147278824202D104F58014761C761CC4
:10368000307866280BD013DC582877D009DC002866
:1036900075D04528F6D04628F4D047281AD19DE1A8
:1036A00018E0632835D0642879D0652812D195E1D7
:1036B000702873D008DC6728F1D069286FD06E2895
:1036C0000DD06F2806D1B5E073282CD0752875D0A1
:1036D000782874D05A46179990476D1C75E1C4F349
:1036E0000250022809D003280DD0D9F80010042870
:1036F0000DD00D6009F1040967E1D9F80010EA174F
:10370000C1E90052F6E7D9F800100D80F2E70D701C
:10371000F0E719F8041B8DF8001000208DF8010067
:10372000EA46012003E059F804AB4FF0FF3061078F
:103730004FF0000102D40DE008F101018846B942C2
:103740000FDA8045F8DB1AF808100029F4D108E0F8
:1037500008F1010188468142FADB1AF808100029B5
:10376000F6D105985B46A0EB080721463846179A24
:1037700000F094FA284400EB080507E04DE029E149
:103780000DE01AF8010B5A4617999047B8F1010855
:10379000F7D25B4621463846179A13E142E00A22E7
:1037A0000092C4F302524FF0000A022A08D059F8DE
:1037B00004CB032A4FEAEC710AD00DE029E02AE09D
:1037C00009F1070121F00702F2E802C1914609E080
:1037D0000FFA8CFC4FEAEC71042A03D14FFA8CFCEF
:1037E0004FEAEC71002907DA0A460021DCF1000CEF
:1037F00061EB02012D2202E0220504D52B228DF877
:103800000420012203E0E20701D02022F7E79046DE
:1038100059E00A2102E010220DE010214FF0000AC9
:1038200000910BE010224FF0000A44F00404082736
:10383000009203E008224FF0000A0092C4F3025203
:10384000022A05D059F804CB0021032A08D009E048
:1038500009F1070121F00702F2E802C1914605E0F3
:103860001FFA8CFC042A01D10CF0FF0C4FF0000869
:10387000220728D5702806D0009B83F0100353EA56
:103880000A0305D00EE040228DF80420012208E052
:103890005CEA010206D030228DF804208DF8050084
:1038A00002229046009B83F0080353EA0A030AD1E0
:1038B0005CEA010201D1620705D530228DF80420AF
:1038C0004FF001087F1E582804D034A003900EA8A2
:1038D00002900DE036A0F9E753466046009AFCF7E7
:1038E0006DFC84460398825C0298401E0290027030
:1038F0005CEA0100F0D1029806A9081A00F1200A3A
:10390000600702D524F4803400E00127574502DD2A
:10391000A7EB0A0000E0002000EB0A0100900598E8
:103920004144401A0590E00306D45B462146179AAD
:10393000059800F0B3F90544002706E001A85A46AF
:10394000C05D179990476D1C7F1C4745F6DBE0036F
:103950000CD55B462146179A059800F09FF905445F
:1039600004E030205A46179990476D1C0099481E74
:1039700000900029F5DC08E0029802995A46007888
:10398000491C0291179990476D1CBAF10001AAF1E8
:10399000010AF1DC65E10000092801003031323311
:1039A000343536373839616263646566000000007B
:1039B0003031323334353637383941424344454665
:1039C0000000000000F058F90544761C307800280B
:1039D0007FF4ECAD19B02846BDE8F08F620700D443
:1039E000062709F1070222F0070CFCE80223E14652
:1039F00003F000485FEA080C02D00FF2702C0DE0D3
:103A00005FEA045C02D50FF2682C07E05FEAC47C31
:103A100002D00FF2602C01E0AFF2700C4FF0FF38D3
:103A200023F00043CDF850C065280CD006DC4528B3
:103A300009D046281DD047283DD13DE0662818D042
:103A400067287ED138E00021112F01DB112000E032
:103A5000781CCDE9000106A90EA8FFF7EDFCDDE911
:103A60000F010E9A03910021009207F1010A0491BF
:103A70004DE04FF000400097CDE9011006A90EA8D7
:103A8000FFF7DAFCDDE90F0203920E9B1199002289
:103A9000DDF80CA00093049211B9791C00EB010A27
:103AA000B7EB0A0004D4C0F1FF3007F1010A04901B
:103AB000AAEB0700019044E0012F00DA0127002162
:103AC000112F01DD112000E03846CDE9000106A9E3
:103AD0000EA8FFF7B1FCDDE90F010E9A039100215A
:103AE00004910092BA4621070CD40399514500DA9B
:103AF0008A46BAF1010F05DD009AAAF10101515C75
:103B0000302908D0B84202DA10F1040F06DA012198
:103B1000CDE9011015E0AAF10101E9E7002805DC73
:103B2000049901440491AAEB000102E0411C5145B3
:103B300000DD8A460499401A401C01904FF0004075
:103B40000290200704D40198504501DBCDF8048091
:103B500000208DF84F0002980DF14F07B0F1004F93
:103B600025D02B200E9002984FF0020800280CDA86
:103B7000404202902D200E9007E00A210298FCF7A7
:103B80005DFE3031029007F8011DB8F10001A8F187
:103B90000108F2DC02980028EFD1791E0E98087017
:103BA000307800F0200040F0450007F8020D12A820
:103BB000C01B00F107081498007800B1012000EB49
:103BC0000A01019801EBE07105984144401A401E3A
:103BD0000590E00306D45B462146179A059800F04D
:103BE0005DF805441498007818B15A461799904723
:103BF0006D1CE00324D55B462146179A059800F01A
:103C00004DF805441CE00498002807DBDDE90301BA
:103C1000884203DD0098405C179901E01799302035
:103C20005A469047049805F10105401C04900198FC
:103C3000401E019004D12E205A46179990476D1CC2
:103C4000BAF10001AAF1010ADDDC05E017F8010B69
:103C50005A46179990476D1CB8F10001A8F1010868
:103C6000F4DC5B462146179A0598ABE62D00000070
:103C70002B000000200000002DE9F0410446002543
:103C80001E461746880404D405E039462020B04774
:103C90006D1C641EF9D52846BDE8F0812DE9F04180
:103CA000044600251E469046C80301D5302700E093
:103CB0002027880404D505E041463846B0476D1CEE
:103CC000641EF9D52846BDE8F08100002DE9F84FC3
:103CD00004460D4621F0004000917349814211DCF9
:103CE0007249884201DC06D12CB120462946BDE844
:103CF000F84FFFF778BB6E48002DCCBF6D496E4979
:103D0000BDE8F88F6D49814211DD6D498142D8BF10
:103D10004FF0FF366DDD20462946FFF7EBFA042809
:103D200008BFFFF76BFB20462946BDE8F88F6549C1
:103D3000654F25F00045814233DD6449814219DD3C
:103D4000002632464FF0804320462946FCF76FFBA1
:103D500080468A46012220462946FCF7A7FE00221B
:103D60003B46FCF705FC42465346FCF779FC04460B
:103D70000D463EE001260022BA463B462046294633
:103D8000FCF755FB80460F46002253462046294645
:103D9000FCF7EEFB42463B46FCF762FC04460D4650
:103DA00027E04B4981421BDDDFF828A102260022D3
:103DB000534620462946FCF7E1FB00223B46FCF730
:103DC00036FB80460F460022534620462946FCF724
:103DD000CFFB42463B46FCF743FC04460D4608E059
:103DE000032622462B4600203B49FCF739FC0446BB
:103DF0000D4622462B4610461946FCF7BFFB8B4664
:103E0000824602460B46FCF7B9FB0746024633489A
:103E100088460B4606217844FFF790FA52465B46E7
:103E2000FCF7ACFB82462E488B463A4643460521BA
:103E30007844FFF783FA3A464346FCF79FFB024675
:103E40000B46002E504659460CDAFCF7F0FA224693
:103E50002B46FCF793FB01B022462B46BDE8F04F02
:103E6000FCF789BBFCF7E3FA22462B46FCF786FBFE
:103E70001C4A7A4402EBC603D3E90023FCF778FB23
:103E800022462B46FCF774FB174A7A4402EBC60322
:103E9000D3E90023FCF76FFB009A002AB8BF81F03A
:103EA0000041BDE8F88F0000000010440000F07FE2
:103EB000182D4454FB21F93FFB21F9BF0000DC3FE2
:103EC0000000203E0000F33F0000F03F0000E63F0E
:103ED000008003400000F83F0000F0BF8E24000087
:103EE0004C240000EA230000B22300002DE9F04D2D
:103EF0009446CCF1000423F000464CEA0404524FEF
:103F000046EAD4749A46884621F00042BC4206D85C
:103F1000454240EA050442EAD474BC4204D9BDE8F3
:103F2000F04D6246FFF762BAAAF14055A5F17F65F0
:103F300055EA0C040BD0022404EAAA74434DDFF8BE
:103F400010E144EAD87452EA000B04D00CE0BDE85A
:103F5000F04DFFF7BBBE002C14BF012CBDE8F08D67
:103F6000022C30D0032C32D056EA0C0B0AD0BE42C1
:103F700020D1BA4209D126F0804622F08042334651
:103F8000114617E000291ADB25E0DFF8C8B0FB4432
:103F9000002C04BFDBE90001BDE8F08D012C02BF5D
:103FA000DBE9000181F00041BDE8F08D022C0AD070
:103FB000032C0CD0BA4212D1B8F1000F0BDA23480F
:103FC0002549BDE8F08D28462449BDE8F08D2846F6
:103FD0007146BDE8F08D1D482149BDE8F08D921B6A
:103FE00012153C2AC4BF19481D490EDCBAF1000F56
:103FF000BEBF12F13C0F0020014606DB6246FCF713
:104000002FFB21F00041FFF761FE002C08BFBDE847
:10401000F08D012C04BF81F00041BDE8F08D114A04
:10402000114B022C07D0FCF7A3FA2A46BDE8F04D4D
:104030000A4BFCF79DBAFCF79BFA2A46BDE8F04D07
:10404000064BFCF798BA00000000F07F182D44548E
:10405000FB2109C046230000FB21F9BFFB210940D9
:10406000FB21F93F075C143326A6A13C8078084960
:1040700002090848032A006802D0042A06D1012256
:104080000A7002230022024901F004BC70470000BC
:10409000140100201400002080780009032808D1B2
:1040A000044902200346087003480022006801F01A
:1040B000F1BB7047140100201400002070B50446C5
:1040C000406880470146E078420702D02288521CAF
:1040D0002280B1EBD01F0CD04FF0005202EBB01099
:1040E0004FEAB060C0F3C202E070032A04D361F368
:1040F000C71020F03800E070C0B200F007010025C2
:1041000006291ED2DFE801F0031E407A1D91C0F39C
:104110008011B1EBD01FA07820F0F0000FD1A0707B
:10412000A16809B1204688472580A07820F00F00BB
:10413000401CA070E07820F00700401C11E08030A7
:10414000A07070BDC0F38011B1EBD01F0BD0A07870
:1041500020F0F0001030A070E168A1B3204688473D
:104160005DE0E07070BD20886428FBD9A07820F065
:10417000F0005030A070E16909B120468847E0782E
:1041800020F00700401DECE7C0F38011B1EBD01F19
:104190001AD1A07820F0F000A070A16809B12046E3
:1041A0008847A0784FF0805101EB30104FEA307013
:1041B000A070216909B1204688472580E07820F069
:1041C0000700C01CCDE72AE020882828CAD9A0789B
:1041D00000F00F01012902D0022906D03AE020F0B8
:1041E000F0003030A070616904E020F0F000403051
:1041F000A070A16971B3204688472BE0C0F38011FD
:10420000B1EBD01FAED0A07820F0F0001030A0703D
:10421000E16809B120468847208828281AD22580DD
:10422000E07820F00700801C9BE7C0F38011B1EB21
:10423000D01FA07820F0F00008D16030A070216A73
:1042400000298FD02046BDE8704008471030A0708C
:10425000E168CFE7E07820F0070082E770B50D460F
:10426000164604462821FCF703F8A07820F0F00059
:104270008030A0706560A8470146E07861F3C71000
:1042800066F38610E07070BD074A51680B4605E082
:10429000814202D14FF0FF307047496A0029F7D1BF
:1042A000436250600020704714010020054810B59B
:1042B000446803E02046FFF701FF646A002CF9D14F
:1042C00010BD0000140100202DE9F047224E904659
:1042D0009946224F00223346FCF7A9F800223B46BC
:1042E00000F040F800223346FCF742F904460D4640
:1042F0000022334640464946FCF799F800223B46E7
:1043000000F030F800223346FCF732F922462B4603
:10431000FCF72EF904460D460022114BFCF742FA39
:104320004FF0000205D83B4620462946FCF77FF8AF
:104330000BE0334620462946FCF74CFA07D2002210
:104340003B4620462946FCF713F904460D46204615
:104350002946BDE8F0870000008066400080764076
:10436000008066C070B514461D460E46002814BF76
:1043700001210021314321F00041C1F17F6101F1B0
:10438000E041C90F16D1002C14BF0121002129439F
:1043900021F00041C1F17F6101F1E041C90F09D174
:1043A0001449B1EB460F08BF00281CD0690008BFB4
:1043B000002C18D03146FCF70CFB024640F2FF708F
:1043C00030EA11500DD0F017B0EBE17F09D008466C
:1043D00065F31E0084460B4620466146FCF7CBF889
:1043E0000246104670BD0120FFF720F8BDE870407E
:1043F000FEF7FEBF0000E0FF04490A685206FCD544
:10440000024AC1B2121D116070470000003801401D
:1044100094B000220D496846FFF720FF00220C49A6
:104420000AA8FFF71BFF0B4805900B480F9009489F
:1044300006906846FFF728FF0AA8FFF725FF00BF90
:10444000FFF734FF052001F03BF8F9E74951000878
:10445000555100086D40000899400008FEE7000033
:1044600010B5074C012291032046FCF710FE2046B0
:10447000BDE8104000224FF40041FCF708BE0000E8
:10448000000C014010B5074C00224FF4804120463B
:10449000FCF7FDFD20460122BDE81040D103FCF7EA
:1044A000F6BD0000000C014010B5074C00224FF48F
:1044B00080412046FCF7EBFD2046BDE8104000227D
:1044C0004FF40041FCF7E3BD000C014088B04FF011
:1044D0000009DFF80CA1DFF80CB1434CCDF81090C7
:1044E0004D464E46CDF814904FF0FF31E06801F094
:1044F00023FC00285DD0236A984235D1002202A90E
:10450000184601F07DFBDDE9022328463146FCF721
:104510002FF80022354BFCF745F90DD2DDE90223D7
:1045200028463146FCF724F80022314BFCF752F9BB
:1045300002D2C4F804903CE0DDE902012A46334689
:10454000FFF7C2FEFCF75EF92A49C8610846FEF78C
:1045500081FB6060504502DDC4F804A029E05845A5
:1045600027D9C4F804B024E0636A984221D100221C
:104570006946184601F044FB009A32F9030FB2F97C
:10458000028092880692FCF7E3F8074640460191C4
:10459000FCF7DEF83A46019BFFF7A8FC164A174BDA
:1045A000FBF7ECFF069A228002460B4614A0FEF7AA
:1045B00091FEB4F90000FCF7C2F86168074688462E
:1045C000FBF761FE049038464146FBF7AEFE0590CE
:1045D0000223002204A9A06901F05CF984E700002D
:1045E00000008C4200008CC2000000200000F03F60
:1045F0000000F0BF7C000020775AF01ADCA54C4088
:1046000025660D0A00000000FCF750FEFEF77EFB59
:10461000FEF76AF9FEF79AF8FEF7D4F9FEF7B2FA58
:10462000FEF7CCFAFCF77CFA00F03EF800F072F8E6
:10463000FEF7AAF800F08AF8FEE770B50C46051EF2
:1046400004D024DD0C2A1AD0E2B10AE000250C2A9D
:1046500001D01AB105E000F0EFFD0DE0FFF724FFF7
:1046600012E0042A02D0082A06D102E00868856315
:1046700070BD0868C56370BD2068056470BD00F03A
:10468000B9FDF9E7FFF7ECFE2068456370BD4042D5
:1046900005B20C2A04D0002AE3D1FFF7F3FEF3E7BA
:1046A00000F0BAFDE8E7000010B5FEF7ABF9002115
:1046B0000448FDF767FCBDE810400C210148FDF7F8
:1046C00061BC00007801002000B585B00020049096
:1046D0000D48FCF743FA02900C48FCF73FFA0390B0
:1046E0000948FCF74DFA80F0004000900748FCF7BD
:1046F00047FA01900648022304AA6946006901F0BE
:104700007FF905B000BD0000C001002008020020B4
:1047100000000020EFF3058058B9EFF3108040B996
:1047200009490868022801D030B109E0EFF311808F
:1047300030B16FF00500704701200860002070471D
:104740004FF0FF3070470000EC00002010B5EFF391
:10475000058060B9EFF3108048B90B49086802285A
:1047600002D0012806D00BE0EFF3118040B16FF0CA
:10477000050010BD0220086000F00AFF002010BDF7
:104780004FF0FF3010BD0000EC00002086B000208C
:104790000090DFF8A080DFF8A090DFF8A0A04FF431
:1047A000FA5B0190029003900490CBF10006059013
:1047B000002204A94446D8F8180001F087F90598AA
:1047C000C9F80C000498CAF80C004D4657464FF043
:1047D000FF326946206901F013FA0198E8610098F8
:1047E000F8611548FEF736FAFBF7C3FF05B2134828
:1047F000FEF730FAFBF7BDFF5F4604B2BD4201DCB5
:10480000B54203DA0C220E49002002E00C220C49CA
:104810002846FFF712FFBC4201DCB44203DA002253
:104820000749104602E0002205492046FFF705FF30
:10483000BEE70000000000203C0000205C000020DB
:10484000780100202DE9F041134C0F4605466669BA
:104850002068001D00F002FD681C07D137B12168F7
:10486000BDE8F0410D48091D00F049BD2068354400
:10487000B5424560216805D2A068BDE8F041091D38
:1048800000F025BD6068091D00F021FD206B854208
:1048900000D22563BDE8F0819C000020240900209F
:1048A0002DE9F041054600F037FD2D4C2069401CF4
:1048B000206120682B4F10B1E06930B32BE02560F8
:1048C0002069012827D1002606EB860007EB80002F
:1048D00000F0EFFC761C382EF6D3234800F0E9FCFC
:1048E0002148143000F0E5FC1F48283000F0E1FCBE
:1048F0001D483C3000F0DDFC1B48503000F0D9FC76
:10490000194860601430A06005E02068E96AC06A58
:10491000884200D82560E06A401CE0626864E86A6A
:10492000A169884200D9A06100EB800007EB8000FC
:10493000291D00F0E4FC00F00FFDE06900280CD018
:104940002068E96AC06A884207D208494FF080505F
:104950000860BFF34F8FBFF36F8FBDE8F081000099
:104960009C00002074040020D408002004ED00E026
:1049700038B500F0D1FC104CA068C8B90F4800F061
:1049800098FC0E48143000F094FC0C482060143061
:1049900060600A4B00202833009003F1540210217C
:1049A0000A2000F000FFA06010B105A100F052FD48
:1049B000BDE8384000F0D0BCD80000203809002005
:1049C000546D72510000000030B4026C0B46002A96
:1049D0000BD0C1681144C1604468A14201D3016891
:1049E000C16030BC1846FBF72ABC30BC70472DE9CB
:1049F000F041856B174604460026026C82B1C7B1B0
:104A0000E068FBF71CFCE168206C091AE160226891
:104A1000914202D26168081AE060022F16D017E0B6
:104A20002068A8B9606801F09BFA06460020606023
:104A30000EE0A068FBF703FC216CA0680844A060AE
:104A40006168884204D32068A06001E005B16D1E52
:104A50006D1CA5633046BDE8F08110B5044690F8A2
:104A6000590058B101280CD002280FD0502080F3F3
:104A70001188BFF34F8FBFF36F8FFEE7206B00F0FD
:104A80007FFC2046BDE8104000F07ABC10BD00005D
:104A900010484FF4D851420706D0C01D0D4920F0F0
:104AA0000700411AC1F5D8510B4A00230144C2E95D
:104AB00000030839103A21F0070111604B600B60C8
:104AC0000B1AC0E9001393604FF000405360D060B0
:104AD000704700000C11002000010020154E164CFC
:104AE000A6F29C474FF08058DFF8509012E000BFCC
:104AF00000F012FCF068C568281D00F0AFFB2069CB
:104B0000401E2061E068401EE06000F025FC284661
:104B1000FFF7A3FFE0680028EAD13868012805D92B
:104B2000C9F80080BFF34F8FBFF36F8F00F0C0FB59
:104B3000F0E70000100900209C00002004ED00E0D8
:104B400070B51D46049C61B1C4F80020C4E90F0192
:104B50000121204600F05AFE84F850500020A06445
:104B600070BD2460F2E72DE9F0470E46DDE90984C7
:104B70001746824691009946089DA522206BFBF7B7
:104B800070FB6FF00301206B01EB8701084420F0FC
:104B90000707780707D0502080F31188BFF34F8FA5
:104BA000BFF36F8FFEE72218315C82F83410315C5E
:104BB00011B1401C1028F6D3002684F84360382D2C
:104BC00000D33725E562C4E91356201D00F07CFBB5
:104BD00004F1180000F078FB2461C5F1380064622C
:104BE000A061666584F858604A465146384600F030
:104BF00099FA2060B8F1000F01D0C8F80040BDE874
:104C0000F0872DE9F0471E46DDE9089417460D00B0
:104C100080460ED0002C14D0FFF7AAFEC4F8008006
:104C2000C4E90657C4E90869201DBDE8F04700F053
:104C30004BBB502080F31188BFF34F8FBFF36F8FB2
:104C4000FEE7BDE8F087000030B5114900E01146ED
:104C50000A688242FBD34B685C18844203D14068E7
:104C600018444860084643681C18944209D1084C0F
:104C7000103C2468A24209D052681A4442600A6873
:104C800012680260814200D0086030BD0460F9E71C
:104C90000001002070B5002441600B4D006191427D
:104CA00006D8D11A8269914206D2011D686807E0D0
:104CB0009A4203D2994201D3012403E0011D2868DE
:104CC00000F005FB204670BDD800002010B504465A
:104CD00000F022FBA06B28B15FF0000400F03CFB69
:104CE000204610BD0124F9E773B500260098846CB6
:104CF0005CB1A26BE06B82420FD3502080F311882D
:104D0000BFF34F8FBFF36F8FFEE7502080F3118802
:104D1000BFF34F8FBFF36F8FFEE7A26B82420CD2BF
:104D200094F945500A4669462046FFF760FE06465C
:104D3000681C04D06D1C84F8455030467CBD606A08
:104D40000028FAD004F1240001F04AF90028F4D038
:104D50000126F2E730B589B0304D55E004980028BF
:104D600006DADDE90601059A9047049800284BDB36
:104D7000069C606910B1201D00F070FA02A800F0D6
:104D8000B9F8024604980A283ED2DFE800F005058B
:104D9000053D263705053D260598A16903460144D2
:104DA0002046FFF777FF00B3616A20468847E06935
:104DB000012829D1002000900598A16900234218FC
:104DC0001946204601F0F0F978B9502080F3118897
:104DD000BFF34F8FBFF36F8FFEE70598A06128B137
:104DE000811813462046FFF755FF0DE0502080F351
:104DF0001188BFF34F8FBFF36F8FFEE794F82C003D
:104E000010B9204600F0BCFA002204A9A86800F0FE
:104E1000F7FE0028A2D109B030BD0000D800002064
:104E20002DE9FC410F46054600F0F6FB01A800F015
:104E300061F80446019818B101F00AF9BDE8FC8157
:104E4000224EAFB170680068A8B30027291B3A460C
:104E5000B06800F013FB01F0FBF80028EED11C490C
:104E60004FF080500860BFF34F8FBFF36F8FE5E7BF
:104E7000A542EBD801F0ECF830682746C068C4685A
:104E8000201D00F0EBF9E069012810D1A0692B4644
:104E900041193A462046FFF7FDFE40B10020034687
:104EA000014600902A46204601F07EF920B1616A51
:104EB00020468847C2E707E0502080F31188BFF3FF
:104EC0004F8FBFF36F8FFEE70127BFE7D8000020A9
:104ED00004ED00E006484168096829B14168C968E5
:104EE000C9684968016370474FF0FF31FAE7000075
:104EF0009C00002070B5054600F0C8FF064E044631
:104F00003069844203D200F009F8012000E000205B
:104F100028602046346170BDD8000020F8B5194DD6
:104F20001FE0C068C4680668201D00F097F9616A38
:104F300020468847E069012813D1A0693044B04277
:104F400006D924616060211D286800F0C0F908E0DE
:104F500000200346014600903246204601F024F925
:104F600038B1286801680029DBD16968C5E90010FB
:104F7000F8BD502080F31188BFF34F8FBFF36F8FC0
:104F8000FEE70000D800002008484068401C4FF0B1
:104F9000500080F3118804D0BFF34F8FBFF36F8FA1
:104FA000FEE7BFF34F8FBFF36F8FFEE708010020CE
:104FB000074C2068016841B1C0680021D0F80000AA
:104FC000FFF72EFFFFF7C6FEF3E701210020F7E70A
:104FD000D80000202DE9F041044600F09DF994F935
:104FE000455004F1240610E0A06C20B100212046B9
:104FF000FFF77AFE04E0606A48B1304600F0F0FF47
:1050000008B100F08BFA6D1E6DB2002DECDC4FF094
:10501000FF3684F8456000F09FF900F07DF994F9BF
:10502000445004F1100709E0206948B1384600F007
:10503000D7FF08B100F072FA6D1E6DB2002DF3DCDF
:1050400084F84460BDE8F04100F086B92DE9F041F4
:105050000546002700F0E0FA314E306808B9FFF746
:1050600017FDF06805424BD1C5B3083568070ED06F
:1050700005F00700C0F108000544680707D050207C
:1050800080F31188BFF34F8FBFF36F8FFEE72DB30F
:105090007068854234D82248103001460C6801E01F
:1050A00020460C466168A94202D221680029F7D146
:1050B00031688C4224D00768216801606068083735
:1050C000411B10290FD96019420708D0502080F3E6
:1050D0001188BFF34F8FBFF36F8FFEE710E0416081
:1050E0006560FFF7B1FD61687068401A7060B26872
:1050F000904200D2B060F06801430020C4E9000192
:1051000000F0A6FF780707D0502080F31188BFF386
:105110004F8FBFF36F8FFEE73846BDE8F081000088
:10512000F000002010B5031F4FF080741C601B1F9F
:1051300021F001011960191F024B0B60143940382E
:105140000A6010BD894F000801210148FBF79ABF92
:10515000000C014002210148FBF794BF000C014004
:105160001FB5FDF7E3FA02A8FDF74FFD02A8FDF712
:1051700009FA1C4FDFF870801C4E04460D464FF0B4
:10518000FF3902A8FDF741FD02A8FDF7FBF9224611
:105190002B46FBF7EDF900223B46CDE90001FBF77A
:1051A00001FB4FF0000205D8DDE900014346FBF7A3
:1051B0003EF90BE0DDE900010D4BFBF70BFB07D2DD
:1051C000DDE9000100224346FBF7D2F9CDE90001F9
:1051D00000234A466946306800F05CFB142000F06A
:1051E0006FF9CEE7008066C0008076402000002086
:1051F0000080664010B5074C00224FF480512046D5
:10520000FBF745FF20460122BDE810405103FBF7A4
:105210003EBF0000000C014010B5064C01221103F6
:105220002046FBF734FF002261142046BDE8104001
:10523000FBF72DBF000C014010B5074C00224FF4C6
:1052400080512046FBF723FF002261142046BDE871
:105250001040FBF71CBF0000000C0140D0E90132F8
:1052600001699A60D0E901235A604A68824201D1FB
:1052700082684A60002202610868401E086008686F
:1052800070470000034B036003F15C00086080205E
:1052900010607047540A0020044B036003F15C0067
:1052A00008604FF48070106070470000B00C002060
:1052B000704700F108014FF0FF32C0E90112C160F0
:1052C000016100210160704700210161704730B524
:1052D0000B685A1C02D000F1080202E0026904E0E7
:1052E0002246546825689D42FAD953684B609960FC
:1052F0008A60516008610168491C016030BD4268E4
:105300004A6093688B609368596091600861016896
:10531000491C016070470000502080F31188BFF3E2
:105320004F8FBFF36F8F0A494868401C48600128BF
:105330000CD10848006810F0FF0F07D0502080F310
:105340001188BFF34F8FBFF36F8FFEE770470000E8
:105350000801002004ED00E00849486828B1401E1B
:10536000486001D180F311887047502080F3118884
:10537000BFF34F8FBFF36F8FFEE7000008010020DF
:1053800070B5002827D0144DA0F108046168E868C2
:10539000014207D1502080F31188BFF34F8FBFF334
:1053A0006F8FFEE722683AB1502080F31188BFF377
:1053B0004F8FBFF36F8FFEE78143616000F02CF9E0
:1053C00060686968084468602046FFF73DFCBDE8F6
:1053D000704000F03DBE70BDF00000204FF0E020B6
:1053E00000210161816105494FF47A720968B1FBBE
:1053F000F2F1491E41610721016170473800002028
:1054000010B5FAF7C5FE114910280ED300F1E020BF
:1054100090F8F0030A78904207D2502080F3118868
:10542000BFF34F8FBFF36F8FFEE7094800688968AD
:1054300000F4E060884207D9502080F31188BFF360
:105440004F8FBFF36F8FFEE710BD000008010020F3
:105450000CED00E010B5084B002200BF53F83240BD
:105460001CB1521C082AF9D310BD43F8321003EBCB
:10547000C201486010BD00003404002070B515461C
:105480000E460446FFF748FF94F944100020491CDB
:1054900001D184F8440094F94510491C01D184F8E5
:1054A0004500FFF759FFA06B28B92A46314604F1A1
:1054B000240000F051F82046BDE87040FFF78ABD97
:1054C00010B5020014D00F48806B38B1502080F323
:1054D0001188BFF34F8FBFF36F8FFEE700F09CF88A
:1054E00000211046FFF7AEF900F0B2FD002807D109
:1054F00005494FF080500860BFF34F8FBFF36F8FA7
:1055000010BD00009C00002004ED00E002498A6A02
:1055100002604969416070479C00002001490120F8
:10552000486270479C00002010B50C4650B10949F4
:1055300009681831FFF7CBFE2046BDE81040012175
:10554000FFF780B9502080F31188BFF34F8FBFF36E
:105550006F8FFEE79C00002070B514460D4668B1C1
:105560000A4909681831FFF7CAFE0CB14FF0FF3540
:1055700021462846BDE87040FFF764B9502080F30B
:105580001188BFF34F8FBFF36F8FFEE79C000020A1
:1055900030B587B00024039405AA04A903A8049495
:1055A000FFF770FEDDE903010094CDE9011000234F
:1055B00015A11748059A00F030FC164D00286863C5
:1055C0001FD000F0C1FD012809D0401C19D1502086
:1055D00080F31188BFF34F8FBFF36F8FFEE750202A
:1055E00080F31188BFF34F8FBFF36F8F4FF0FF3001
:1055F00028630120E8616C6107B0BDE8304000F02D
:1056000045B807B030BD000049444C4500000000DB
:10561000DD4A00089C0000200248816B491C816320
:10562000704700009C000020164810B5816B11B136
:105630000121416210BD002141628169124A01E0ED
:10564000B9B1491E01EB810352F82330002BF7D08A
:1056500001EB810302EB830202F1080453685B68EB
:105660005360A34201D15B685360DA6802608161D4
:1056700010BD502080F31188BFF34F8FBFF36F8FA1
:10568000FEE700009C000020740400201CB52649A1
:1056900008780190FF20087008788DF800009DF8C8
:1056A00000009DF8002000F0F000904207D050204C
:1056B00080F31188BFF34F8FBFF36F8FFEE79DF824
:1056C00000001A4B00F0500018700720986005E0A9
:1056D0009DF8002052008DF80020401E9DF800200B
:1056E0001206F5D49860032807D0502080F3118863
:1056F000BFF34F8FBFF36F8FFEE74FF4407098609A
:10570000019808700A48016841F47001016001685D
:1057100041F070410160FFF761FE00205860FAF728
:1057200001FD00201CBD000000E400E00801002095
:1057300020ED00E070B50D460446FFF7EDFDA06CCE
:1057400008B9A06B08B1002401E0A5640124FFF7AB
:1057500003FE204670BD00220421AFF30080F8B59F
:1057600017460E46050014D0DEB105FB06F0543096
:10577000FFF76CFC04000AD0002084F8460004F116
:1057800054023B46314628460094FFF7D9F920469B
:10579000F8BD502080F31188BFF34F8FBFF36F8F98
:1057A000FEE70020E3E738B5049D18B153B1CAB154
:1057B00081B120E0502080F31188BFF34F8FBFF3F9
:1057C0006F8FFEE7502080F31188BFF34F8FBFF338
:1057D0006F8FFEE7502080F31188BFF34F8FBFF328
:1057E0006F8FFEE739B1502080F31188BFF34F8FE0
:1057F000BFF36F8FFEE754241C46012384F8463024
:105800002B460094FFF79CF9204638BD70B50D4635
:10581000040025D0FFF780FDD4E90F20216802FBAA
:10582000001161600021A1632168A1600A46D4E9EA
:105830000F01401E00FB0121E16021464FF0FF30C7
:1058400001F8440F487004F110008DB1FFF731FDED
:1058500004F12400FFF72DFDFFF77EFD012070BD50
:10586000502080F31188BFF34F8FBFF36F8FFEE797
:1058700021690029F0D000F0B3FB0028ECD00449E6
:105880004FF080500860BFF34F8FBFF36F8FE3E797
:1058900004ED00E02DE9FF4782B01D468A464FF037
:1058A0000008040003D0BAF1000F08D011E0502026
:1058B00080F31188BFF34F8FBFF36F8FFEE7206C2B
:1058C00038B1502080F31188BFF34F8FBFF36F8F33
:1058D000FEE7022D0AD1E06B012807D0502080F3AB
:1058E0001188BFF34F8FBFF36F8FFEE700F0C0FA50
:1058F000424F4FF000094FF0805648B9049838B134
:10590000502080F31188BFF34F8FBFF36F8FFEE7F6
:10591000FFF702FDA06BE16B884207D3022D05D093
:10592000049808B3B8F1000F21D025E02A4651466B
:105930002046FFF75CF8A16C21B129462046FFF70D
:10594000D3F905E0616A19B104F1240000F048FBC5
:1059500020B13E60BFF34F8FBFF36F8FFFF7FCFCAA
:10596000012006B0BDE8F087FFF7F6FC22E06846AC
:10597000FFF7CCFD4FF00108FFF7EEFCFFF74CFE00
:10598000FFF7CAFC94F94400401C01D184F844900C
:1059900094F94500401C01D184F84590FFF7DCFCE8
:1059A00004A9684600F0D2F930B12046FFF712FB97
:1059B00000F04EFB0020D4E7FFF7AEFCA06BE16BDC
:1059C000884213D1FFF7C8FC04F110000499FFF7D7
:1059D000ABFD2046FFF7FEFA00F03AFB002897D116
:1059E0003E60BFF34F8FBFF36F8F91E7FFF7B4FCBB
:1059F0002046FFF7EFFA00F02BFB89E704ED00E00B
:105A00002DE9F047984617468946040003D0B9F1BE
:105A1000000F08D011E0502080F31188BFF34F8FA2
:105A2000BFF36F8FFEE7206C38B1502080F31188F0
:105A3000BFF34F8FBFF36F8FFEE7B8F1020F0AD1AC
:105A4000E06B012807D0502080F31188BFF34F8FFF
:105A5000BFF36F8FFEE7FFF7D3FC5020EFF3118603
:105A600080F31188BFF34F8FBFF36F8FA06BE16B93
:105A7000884207D3B8F1020F04D0002086F31188C2
:105A8000BDE8F08794F94550424649462046FEF766
:105A9000AEFF681C04D06D1C84F845500120EDE772
:105AA000A06C012520B141462046FFF71DF906E014
:105AB000606A0028F2D004F1240000F091FA002876
:105AC000ECD0002FEAD03D60E8E700002DE9F74375
:105AD000002582B08946040003D0B9F1000F08D038
