:020000040800F2
:10000000E01E0020990100081F1C0008D3140008FE
:100010001D1C000829020008212100080000000022
:1000200000000000000000000000000001010008C6
:100030002B0200080000000045010008E51E000832
:10004000B3010008B3010008B3010008B3010008C0
:10005000B3010008B3010008B3010008B3010008B0
:10006000B3010008B3010008B3010008B3010008A0
:10007000B3010008B3010008B3010008B301000890
:10008000B3010008B3010008B3010008B301000880
:10009000B3010008B3010008B3010008B301000870
:1000A000B3010008B3010008B3010008B301000860
:1000B000B3010008651F0008B3010008B301000880
:1000C000B3010008B3010008B3010008B301000840
:1000D000B3010008B3010008B3010008B301000830
:1000E000B3010008B3010008B3010008DFF80CD029
:1000F00000F088F80048004799210008E01E002021
:10010000224B19680868B0E8F00F80F30988BFF344
:100110006F8F4FF0000080F311884EF00D0E704786
:100120000000000006480068006880F3088862B696
:1001300061B6BFF34F8FBFF36F8F00DF00BF00BF0B
:1001400008ED00E0EFF30980BFF36F8F0F4B1A68E3
:1001500020E9F00F106008B54FF0500080F31188CF
:10016000BFF34F8FBFF36F8F02F0D8FE4FF0000048
:1001700080F31188BDE8084019680868B0E8F00FFE
:1001800080F30988BFF36F8F704700BF1400002011
:10019000EFF3058070470000064880470648004797
:1001A000FEE7FEE7FEE7FEE7FEE7FEE7FEE7FEE727
:1001B000FEE7FEE7611F0008ED00000840EA0103CA
:1001C0009B0703D009E008C9121F08C0042AFAD20D
:1001D00003E011F8013B00F8013B521EF9D27047D1
:1001E000D2B201E000F8012B491EFBD27047002279
:1001F000F6E710B513460A4604461946FFF7F0FF26
:10020000204610BD064C074D06E0E06840F00103B3
:1002100094E8070098471034AC42F6D3FFF76AFF22
:100220005841000878410008FEE7704772B6FEE7C3
:100230002DE9F84FDFF8B8910024A9F1040B23460B
:100240000F2709F1040AABF1040EC9E00125A5400E
:100250002A40AA427DD1674ED1F804C0ACEB060813
:10026000B44532D014DCBCF1030F3AD009DCBCF148
:10027000000F2AD0BCF1010F1CD0BCF1020F31D10C
:100280001DE0BCF1110F17D0BCF1120F2AD119E0FB
:10029000B8F5881F19D006DCB8F5803F15D0B8F541
:1002A000801F1FD111E0B8F5001F0ED0B8F5041F54
:1002B00018D10AE0CB6815E0CB681B1D12E0CB68B3
:1002C00008330FE0CB680C330CE08B682BB1012BAB
:1002D0004FF0080303D0456104E0042302E0056108
:1002E00000E00023FF2A01D8064601E000F10406E1
:1002F0004FEA840501D9A5F12005D6F8008007FA58
:1003000005FC28EA0C0803FA05F548EA0508C6F8D2
:1003100000804D68ED0062D5374DAE6946F00106AC
:10032000AE61AD6924F0030605F001050095334D7B
:1003300006EB050CDCF80850A607360F07FA06F89E
:1003400025EA0805DFF8B880404503D14FF00008E2
:1003500017E044E0DFF8AC80404502D14FF00108DF
:100360000FE0DFF8A480404502D14FF0020808E01A
:10037000DFF89880404502D14FF0030801E04FF0CC
:10038000040808FA06F848EA0508CCF808804D6821
:10039000D9F80060ED024D4601D5164300E09643C2
:1003A0002E604D68DAF80060AD02554601D516435F
:1003B00000E096432E604D68DBF80060AD035D46BB
:1003C00001D5164300E096432E604D68DEF80060CC
:1003D000ED03754601D5164300E096432E60641C7C
:1003E0000D682A46E5407FF431AFBDE8F88F000084
:1003F00008040140000011100010024000000140FC
:1004000000080140000C01400010014000140140B0
:100410008068084000D0012070470AB10161704730
:100420000904FBE7014880687047000004000020D1
:1004300070B5040025D094F83D00002520B984F85B
:100440003C50204600F0E6F9242084F83D00206866
:10045000016821F0010101602068016841F4004158
:1004600001602068016821F40041016000F08AFB0E
:100470004D4A6168914201D84C4900E04C4988429C
:1004800001D2012070BD4B492368B0FBF1F15E68D9
:1004900026F03F060E435E606368934206D94FF430
:1004A000967359434FF47A73B1FBF3F12368491CF7
:1004B0001E6A26F03F06314319626168914210D8E6
:1004C0004900401EB0FBF1F2521CC2F30B02042A99
:1004D00001D2042022E0B0FBF1F0401CC0F30B007D
:1004E0001CE0A268F2B301EBC10303EB0116431E4B
:1004F000B3FBF6F35B1C43F480431B0549D092B376
:1005000001EBC10202EB0111401EB0FBF1F0401CF7
:10051000C0F30B0040F4804040F400402168CA69F9
:100520004CF6FF739A431043C861D4E907100143A6
:100530002068026822F0C00211430160D4E903017F
:1005400001432068826848F2FF339A431143816077
:10055000D4E9050108432168CA6822F0FF0210436C
:10056000C86001E00EE016E02068016841F001017A
:1005700001602564202084F83D00256384F83E5006
:10058000002070BD01EB4106431EB3FBF6F35B1C7C
:10059000B3E70120C2E701EB4101401EB0FBF1F0DF
:1005A000401CC0F30B00B7E7A086010080841E004A
:1005B00000093D0040420F002DE9F84F1F469046CC
:1005C0008A460446DDF82890FFF72CFF054694F88C
:1005D0003D0020287FD11923012240492046009563
:1005E00001F0C0F8002876D194F83C00012872D0C0
:1005F000012084F83C0020680168C90703D1016824
:1006000041F0010101602068016821F4006101608E
:10061000212084F83D00102084F83E000026266446
:10062000C4F824806785608D20852D48E0622B46C4
:100630004A465146204600F083FF90B92068416940
:100640008069009036E02A464946204601F030F99C
:1006500050B1206C042804D12068016841F4007175
:1006600001600120BDE8F88F606A216800780861A8
:10067000606A401C6062618D491E6185218D491E42
:1006800089B2218522685369DB435B070BD451B1E2
:1006900000781061606A401C6062608D401E608559
:1006A000208D401E20852A464946204601F02EF81E
:1006B0000028CED1208D0028C5D154F83D0B01680B
:1006C00041F400710160202004F81E09E677667786
:1006D0000020C7E7FFE70220C4E700000200100087
:1006E0000000FFFF2DE9FF4F83B09A46DDE9119727
:1006F00093460446DDF84080FFF794FE054694F8E3
:100700003D0020287FD11923012240492046009531
:1007100001F028F8002876D194F83C00012872D026
:10072000012084F83C0020680168C90703D10168F2
:1007300041F0010101602068016821F4006101605D
:10074000212084F83D00402084F83E0000262664E5
:10075000C4F82480A4F82A90608D20852C48E0629B
:10076000CDE9007553465A462046049900F036FFFD
:1007700070B930E02A463946204601F099F858B160
:10078000206C042804D12068016841F400710160E4
:10079000012007B0BDE8F08F606A21680078086129
:1007A000606A401C6062218D491E89B22185628D7C
:1007B000521E628522685369DB435B070BD469B123
:1007C00000781061606A401C6062208D401E2085A8
:1007D000608D401E6085208D0028CBD12A46394689
:1007E000204600F093FF0028CAD154F83D0B016861
:1007F00041F400710160202004F81E09E677667755
:100800000020C6E7FFE70220C3E700000200100057
:100810000000FFFF10B586B0002100910191029108
:10082000039100681349884222D1134CA06940F01B
:100830000800A061A069694600F0080004904FF428
:100840004070009012200190032003900B48FFF7A6
:10085000EFFC0B48416841F0E06141F0020141606A
:10086000E06940F40010E061E06900F400100490D9
:1008700006B010BD0054004000100240000C0140C2
:10088000000001400248816802781144816070478D
:1008900004000020074810B5016841F01001016014
:1008A000032000F0A7F80F2000F006F800F050F841
:1008B000002010BD0020024030B505461F4887B01B
:1008C000C16941F00201C161C06906A900F00200DE
:1008D000009001A800F036F90498B0B100F052F988
:1008E00040001749174AB0FBF1F11748491E026052
:1008F000416040F2E7320021C0E90321816081615B
:1009000000F066FB040003D015E000F03BF9E8E7D7
:100910000D4800F08BFB04000DD11D2000F03CF8C9
:10092000102D07D2002229461D2000F043F8074869
:10093000056000E0012407B0204630BD00100240F1
:1009400040420F0000040040C001002008000020C9
:100950000F4808B5816941F001018161816901F0A9
:1009600001010091C16941F08051C161C06900225B
:1009700000F0805000900F21901E00F01BF80548F9
:10098000416821F0E06141F00071416008BD000064
:100990000010024000000140002809DB00F01F02A7
:1009A000012191404009800000F1E020C0F80011D1
:1009B00070470000F0B40E4B1B680C46C3F30223D3
:1009C000C3F10705042D00D90425191D072901D2FB
:1009D000002300E0DB1E012606FA05F1491E214036
:1009E00099409E40761E16403143F0BC01F099BB01
:1009F0000CED00E0064900F0070208684FF6FF031F
:100A0000184040EA0220034A104308607047000083
:100A10000CED00E00000FA052DE9F0470F46050057
:100A200061D0434E306800F00700B84209D2306808
:100A300020F0070038433060306800F00700B8420B
:100A400051D128683B4C810712D5400703D5606817
:100A500040F4E06060602878000703D5606840F4E7
:100A6000605060606068A96820F0F0000843606032
:100A70002878C00728D06868012810D0216802288B
:100A800010D0890700292EDA616821F003010143A3
:100A90006160FFF7C7FC804641F288390DE02168AC
:100AA0008903EFE78901EDE7FFF7BCFCA0EB080144
:100AB000494502D90320BDE8F0876068696800F005
:100AC0000C00B0EB810FEFD1306800F00700B842A6
:100AD0000BD9306820F0070038433060306800F0F0
:100AE0000700B84201D00120E5E72878400705D586
:100AF0006068E96820F4E0600843606028780007D7
:100B000006D56068296920F4605040EAC100606041
:100B100000F048F86168084AC1F30311515CC8400D
:100B20000649086006480068FFF7C6FE0020C2E7D5
:100B3000002002400010024032390008100000205E
:100B4000080000200F2202600C4A536803F00303E0
:100B50004360536803F0F0038360536803F4E06379
:100B6000C36052684FF4E06303EAD20202610448B2
:100B7000006800F0070008607047000000100240A5
:100B8000002002400448054900684968044AC1F34E
:100B90000221515CC8407047100000200010024044
:100BA000423900080E4A51680E4801F00C03042B2C
:100BB00011D0082B0FD10C48C1F38343C903C05C8B
:100BC0000AD55168084AC1F34041921E515C054A5A
:100BD0005043B0FBF1F070470449484370470000B0
:100BE0000010024000127A002239000800093D007E
:100BF0002DE9F84F040070D02078C04DC00749D0CF
:100C00006868C0F38100012807D06868C0F38100DC
:100C1000022809D16868C00306D52868800339D541
:100C200060680028E7D035E06068B0F5803F0BD001
:100C300010B1B0F5A02F11D0286820F480302860C2
:100C4000286820F4802002E0286840F48030286082
:100C5000606890B1FFF7E6FB06460AE0286840F4BA
:100C600080202860F0E700BFFFF7DCFB801B6428D2
:100C700073D828688003F7D50CE0FFF7D3FB06464E
:100C800005E000BFFFF7CEFB801B6428F0D8286882
:100C90008003F7D420789A4E80074FF001094FF077
:100CA000000839D5686810F00C0F07D06868C0F3E9
:100CB0008100022809D16868C00306D4286880072B
:100CC00014D52069012808D110E02069B0B1C6F818
:100CD0000090FFF7A7FB074605E00AE1FFF7A2FB3C
:100CE000C01B0228C4D828688007F7D52868616926
:100CF00020F0F80040EAC10028600DE0C6F800804E
:100D0000FFF790FB074604E0FFF78CFBC01B0228AF
:100D100023D828688007F7D4207800072CD5794895
:100D2000A169D9B1C0F80090FFF77CFB074604E049
:100D3000FFF778FBC01B02280FD8686A8007F7D539
:100D400071484FF4FA510068B0FBF1F0009000BF19
:100D50000098411E0091FAD20EE080E0C0F80080B9
:100D6000FFF760FB074604E0FFF75CFBC01B0228AF
:100D700075D8686A8007F7D42078400760D5E8699D
:100D80000027C00008D4E86940F08050E861E869B5
:100D9000012700F0805000905C480168C90513D419
:100DA0000168834641F480710160FFF73BFB824696
:100DB00006E000BFFFF736FBA0EB0A0064284ED820
:100DC000DBF80000C005F5D5E06801280AD008B1BD
:100DD000052813D0286A20F001002862286A20F034
:100DE000040002E0286A40F001002862E06841F255
:100DF000883B98B1FFF716FB82460BE0286A40F06B
:100E000004002862EEE700BFFFF70CFBA0EB0A012D
:100E100059455AD8286A8007F6D50CE0FFF702FB3F
:100E2000824605E0FFF7FEFAA0EB0A0159454CD8CF
:100E3000286A8007F6D41FB1E86920F08050E86185
:100E4000E06988B36968C1F38101022944D00228AE
:100E5000C6F8608004D0FFF7E5FA044638E034E0D5
:100E6000FFF7E0FA074604E0FFF7DCFAC01B0228B0
:100E70002BD828688001F7D4206AB0F5803F05D1CF
:100E80006868A16820F4003008436860D4E908016C
:100E90000843696821F4741108436860C6F86090DB
:100EA000FFF7C0FA044606E025E000BFFFF7BAFAF4
:100EB000001B022809D828688001F7D51BE000BF75
:100EC000FFF7B0FA001B022802D90320BDE8F88F13
:100ED00028688001F4D40EE00128F7D06868226AFF
:100EE00000F48031914204D1616A00F470108842AC
:100EF00001D00120EAE70020E8E7000000100240EE
:100F00000000424280044242100000200070004075
:100F10007047704710B590F83C20012A22D001227A
:100F200080F83C20CA688C6822F4407222434C68E6
:100F300022F4806222430C6822F4006222430C698E
:100F400022F4805222434C6922F400522243C969A0
:100F5000002322F480420A4301684A6480F83C304E
:100F6000002010BD022010BD70B590F83C20012A71
:100F700026D0012480F83C40022280F83D200368FE
:100F80005A689D6822F070060A6832435A600D4B19
:100F900002689A4208D0B2F1804F05D00A4B9A42BB
:100FA00002D00A4B9A4204D1496825F080031943C4
:100FB000916080F83D40002180F83C10084670BDEB
:100FC000022070BD002C01400004004000080040D9
:100FD00010B5040003D094F83D0010B107E00120E3
:100FE00010BD002084F83C00204600F01EF80220CE
:100FF00084F83D00211D206800F0BAFF012084F82C
:10100000460084F83E0084F83F0084F8400084F8ED
:10101000410084F8420084F8430084F8440084F8D6
:10102000450084F83D00002010BD704790F83D1049
:10103000012901D001207047022180F83D1001688C
:10104000CA6842F00102CA6000680B49884208D0B1
:10105000B0F1804F05D00949884202D00849884242
:1010600004D1816801F00701062903D0016841F02D
:101070000101016000207047002C01400004004085
:10108000000800402DE9F0410D46040003D094F81B
:101090003D0018B108E00120BDE8F081002084F88F
:1010A0003C00204600F040F8022084F83D00206813
:1010B000816844F2070291438160211D206800F09D
:1010C00057FF226890689169166A2B68AF690343DD
:1010D00040F20330814341EA0721A868EF690843E1
:1010E0004FF6FC418843E96840EA0720014328693C
:1010F0002F6A000140EA0730084369686D6926F0ED
:10110000220646EA0515294393602268906154F847
:10111000460B0162012004F81F09E0752076E07695
:101120002077A0750020B7E700B585B000210091B9
:1011300001910291039101681A48B1F1804F1BD0CF
:10114000194A914216D1C16941F00401C161C169D6
:1011500001F004010491816941F008018161806915
:10116000694600F008000490C02000900F4800BFBE
:10117000FFF75EF805B000BDC16941F00101C16132
:10118000C16901F001010491816941F004018161AB
:101190008069694600F00400049003200090044830
:1011A000E6E700000010024000080040000C01408B
:1011B00000080140704770B50446006801694FF0AF
:1011C0000005C943890715D4C168C943890711D4EB
:1011D000E91E016101202077206880698007204690
:1011E00002D0FFF7E7FF04E000F0BEF8204600F071
:1011F00063F9257720680169C943490717D4C16895
:10120000C943490713D46FF004010161022020771C
:101210002068806910F4407F204602D0FFF7CAFFA3
:1012200004E000F0A1F8204600F046F92577206898
:101230000169C943090716D4C168C943090712D413
:101240006FF008010161042020772068C0698007E1
:10125000204602D0FFF7AEFF04E000F085F82046FC
:1012600000F02AF9257720680169C943C90617D417
:10127000C168C943C90613D46FF010010161082089
:1012800020772068C06910F4407F204602D0FFF725
:1012900091FF04E000F068F8204600F00DF9257792
:1012A00020680169C943C90708D1C168C943C90792
:1012B00004D1891E0161204600F000F9206801690F
:1012C000C943090609D4C168C943090605D46FF0AA
:1012D000800101612046FFF71BFE20680169C943B8
:1012E000490609D4C168C943490605D46FF04001D5
:1012F0000161204600F0ECF820680169C9438906C5
:101300000BD4C168C943890607D46FF0200101617D
:101310002046BDE87040FFF7FCBD70BD00B585B04C
:101320000021009101910291039100680B498842CC
:1013300012D10B48816941F00401816180696946DD
:1013400000F0040004904FF410600090022001901F
:1013500003900448FEF76CFF05B000BD002C01406F
:101360000010024000080140704770B5044690F834
:101370003C0000260D4601280FD0012084F83C00D7
:101380006AB1042A1DD0082A2FD00C2A3FD001268A
:10139000002084F83C00304670BD022070BD2068FB
:1013A00000F01CFE2068816941F00801816120681D
:1013B000816921F004018161206881692A691143F2
:1013C00011E0206800F032FE2068816941F400617C
:1013D00081612068816921F480618161206881696F
:1013E0002A6941EA02218161D2E7206800F04AFEC1
:1013F0002068C16941F00801C1612068C16921F01C
:101400000401C1612068C1692A69114311E02068A3
:1014100000F064FE2068C16941F40061C161206888
:10142000C16921F48061C1612068C1692A6941EA0A
:101430000221C161ACE710B5040003D094F83D006F
:1014400010B107E0012010BD002084F83C002046C8
:1014500000F01EF8022084F83D00211D206800F0F5
:1014600087FD012084F8460084F83E0084F83F00A0
:1014700084F8400084F8410084F8420084F8430076
:1014800084F8440084F8450084F83D00002010BD35
:1014900008B500680649884208D10648816941F4C8
:1014A00000618161806900F40060009008BD000067
:1014B000002C014000100240704700000068034902
:1014C000884201D1FFF7DEB97047000000040040F8
:1014D0007047FEE7FF20401EFDD2704710B50B4C51
:1014E000002210212046FEF798FF01220821204605
:1014F000FEF793FFFFF7EEFF012210212046FEF7D3
:101500008CFFBDE81040FFF7E5BF0000000C014074
:1015100001684A69D24352050FD46FF480624A6170
:10152000002140F8301F202242738173026942F08B
:10153000040202610173012070470020704700001F
:10154000F8B50446C06A1E460D461746082807D05F
:10155000012805D010F5803F02D0206B122804D15D
:101560002068016841F480710160134600224FF049
:1015700001112046009600F0F5F840B1206800689F
:10158000C00502D54FF4007020640320F8BD206927
:10159000B0F5804F0ED00620216800EAD51040F04B
:1015A000F000086133463A460B49204600F022F924
:1015B00078B902E005F0FE0000E0E8B221680861B9
:1015C000054933463A46891F204600F013F90028A2
:1015D000DCD00120F8BD0000080001002DE9F8432F
:1015E000044600680D46DDE90897016898461646EE
:1015F00041F4807101604B4600224FF001112046FA
:10160000009700F0AFF848B120680068C00502D527
:101610004FF4007020640320BDE8F883216805F0D2
:10162000FE0008613B464A461549204600F0E2F8B4
:1016300088B920684169806900903A464946204649
:1016400000F036F948B1206C042804D12068016804
:1016500041F4007101600120DEE7F5B2B8F1010F3D
:1016600009D02168300A08613A464946204600F010
:101670001FF90028E7D1206805610020CCE70000B1
:101680000200010070B5114E05460024280601D560
:10169000012200E0002210213046FEF7BEFEFFF7D7
:1016A00019FF012208213046FEF7B7FEFFF712FFAF
:1016B000002208213046FEF7B0FE6806050E641CC5
:1016C000082CE3DBBDE8704000F01EB9000C0140BF
:1016D00010B50D4C012210212046FEF79EFE01227E
:1016E00008212046FEF799FEFFF7F4FE00221021A4
:1016F0002046FEF792FEFFF7EDFE20460022BDE8F1
:1017000010400821FEF789BE000C014070B5164656
:101710000D4604461EE02046FFF7FAFE08B1012000
:1017200070BD681C16D0FEF77DFE801BA84200D855
:1017300085B920684069C04340070BD5002044F8B4
:10174000300F20216173A073216941F020012161D4
:101750002073E4E720684069C0434007DBD40020E1
:1017600070BD00002DE9F047984617460D46044627
:10177000C1F30746DDF820902AE000BFB8F1FF3F33
:1017800026D0FEF74FFEA0EB0901414502D8B8F183
:10179000000F1DD12068012E16D0806925EA0000B7
:1017A0000004000C12D00020B84211D1002044F8EF
:1017B000300F20216173A073216941F02001216164
:1017C00020730120BDE8F0874069E7E70120EBE7DF
:1017D0002068012E0AD0806925EA00000004000C70
:1017E00006D00020B842C9D00020EBE74069F3E7FB
:1017F0000120F7E72DE9F047984616460D460446C6
:101800004FF000094FF0200AC1F3074723E020689A
:101810004069C043400515D42068016841F4007157
:10182000016021686FF480604861C4F8309084F8EA
:101830003DA084F83E90216C41F00401216484F8BD
:101840003C9021E0701C06D0FEF7ECFDA0EB0800F8
:10185000B04203D816B1012F1FD021E02068012F1C
:1018600015D0806925EA00000004000C18D000BFE4
:1018700044F8309F84F80DA084F80E90216941F05F
:101880002001216184F80C900120BDE8F0874069B7
:1018900025EA00000004000CEAD12068406901E05C
:1018A0002068806925EA00000004000CAFD1ECE755
:1018B00070B516460D4604461EE02046FFF728FE8A
:1018C00008B1012070BD681C16D0FEF7ABFD801B6F
:1018D000A84200D885B920684069C04300060BD5EE
:1018E000002044F8300F20216173A073216941F07A
:1018F000200121612073E4E720684069C0430006AD
:10190000DBD4002070BD000070B50D4D0122102108
:101910002846FEF782FDFFF7DDFD0122082128465B
:10192000FEF77BFDFFF7D6FD10212846FEF770FD80
:101930000446002208212846FEF76FFD204670BDB0
:10194000000C014010B57021002000F0B5FA2021F4
:10195000012000F0B1FA0021BDE81040022000F0A3
:10196000ABBA00001CB500F070F900F059F9FFF7B0
:10197000E9FF094A0021094800F07AFC08494FF4C0
:101980009672086000211820CDE900010B4605A1E0
:10199000074801F0A5FD1CBDFC380008DD1E00084D
:1019A000000000206C63645F7465737400000000C5
:1019B000612100082DE9F04186B0002424480094FC
:1019C000019402940394816941F01001816181695D
:1019D00001F010010491816941F020018161816968
:1019E00001F020010491816941F004018161816964
:1019F00001F004010491816941F00801816180696D
:101A0000012200F00800134F550304902946384680
:101A1000FEF703FDDFF84080002218214046FEF764
:101A2000FCFC0095022601250396CDE90154694688
:101A30003846FEF7FDFB1820CDE90005CDE902464A
:101A400069464046FEF7F4FB06B0BDE8F0810000B1
:101A50000010024000100140000C01400D4810B57C
:101A60000B4901600C49416000214FF480428160C4
:101A7000C0E9031241618161C1610162FEF7D8FCD6
:101A8000002803D0BDE81040FEF7D0BB10BD000019
:101A90000054004094000020A086010010B592B0D0
:101AA00000240F941C2168461094FEF7A0FB20210F
:101AB00007A8FEF79CFB24482249C0E900144FF612
:101AC000FF71C0E90241046144618461FFF7B3FC26
:101AD00008B1FEF7ABFB0F940FA91B481094FFF75A
:101AE00043FA08B1FEF7A2FB6020CDE9000402949E
:101AF0000394049405940022694613480694FFF762
:101B000034FC08B1FEF792FB0C2269460E48FFF741
:101B10002CFC08B1FEF78AFB0794089409944FF453
:101B200000500A94CDE90B4007A907480E94FFF72F
:101B3000F1F908B1FEF77AFB0348FFF7EFFB12B0AB
:101B400010BD0000002C0140E800002010B58CB052
:101B500024216846FEF74BFB0024154809944FF0FA
:101B600080410A94C0E900144FF6FF71C0E90241B8
:101B7000046184610120CDE90004CDE902040494EC
:101B8000CDE905400794694609480894FFF77AFAB9
:101B900008B1FEF74BFB099409A905480A94FFF721
:101BA000E3F9002801D0FEF741FB0CB010BD0000A6
:101BB0003001002010B58CB024216846FEF717FBD9
:101BC00000241548099413490A94C0E900144FF6FB
:101BD000FF71C0E90241046184610120CDE9000484
:101BE000CDE902040494CDE90540079469460A480A
:101BF0000894FFF747FA08B1FEF718FB099409A902
:101C000005480A94FFF7B0F9002801D0FEF70EFB53
:101C10000CB010BD0008004078010020FEE7FEE790
:101C200010B5A0B0002480216846FEF7E0FA00213C
:101C3000204600F013F98021684600F02DF9641C5D
:101C4000E4B2082CF3D320B010BD10B5022000F090
:101C5000D7F83F2000F0E6F8002000F0BDF80020A3
:101C600000F0C7F8A12000F003F9C82000F000F947
:101C70000021084600F07EF87F2000F091F8A420B3
:101C800000F0F6F8A62000F0F3F80821002000F09C
:101C900091F8012000F046F80021012000F06AF8D8
:101CA000BDE81040AF2000F0E3B82DE9F041174641
:101CB0000E46044600250BE03146204600F00EF8A3
:101CC000641CE4B20F2C02D90024B61CF6B26D1CC1
:101CD0007A5D002AF0D12846BDE8F08170B516463D
:101CE000C206150E0C46072918D80F2816D8294603
:101CF000204600F0B3F80A48082100EB061006461B
:101D000000F0CAF8641CE0B2294600F0A7F806F11A
:101D10000800BDE87040082100F0BEB870BD0000AA
:101D20004A39000810B5040001D0012C0AD18D20D9
:101D300000F09EF8102000EB8400BDE81040C0B217
:101D400000F096B810BD000010B5044608480078B1
:101D500002280CD17F2C0AD804F00F0000F088F87C
:101D6000102000EB1410BDE8104000F081B810BD49
:101D70008C00002070B50C46050001D0012D0ED15D
:101D80000CB1012C0BD1DA2000F072F8280100EB25
:101D90004410BDE87040801CC0B200F069B870BD4E
:101DA00010B50446812000F063F82046BDE81040DD
:101DB00000F05EB870B50C4605460F280BD80F2C06
:101DC00009D8D52000F054F805EB0410BDE87040A8
:101DD000C0B200F04DB870BD10B504463F2807D81A
:101DE000D32000F045F82046BDE8104000F040B890
:101DF00010BD3F2803D84030C0B200F039B870475A
:101E000010B5040003D0012C01D0022C07D12020F2
:101E100000F02EF8204600F02BF80148047010BDA9
:101E20008C00002010B504460F38312807D2A820B6
:101E300000F01EF82046BDE8104000F019B810BDB3
:101E400005490978022905D1072803D8B030C0B266
:101E500000F00EB8704700008C00002010B50C4652
:101E6000FFF7EEFF2046BDE81040FFF76DBF000012
:101E70001CB500218DF804108DF805004FF4FA70A0
:101E800000900448022301AA78214068FEF794FBE1
:101E90001CBD00008C0000200EB54FF4FA728DE8D6
:101EA000070004480123402278214068FEF71AFC0D
:101EB0000EBD00008C00002070B50D460446FFF7F3
:101EC00007FC3C20FFF7DEFB2046FFF7DBFB284644
:101ED000FFF7D8FBBDE87040FFF700BB012000F022
:101EE00071F9FBE710B5502080F31188BFF34F8FD5
:101EF000BFF36F8F01F060FB18B104494FF08050C1
:101F00000860002080F3118810BD000004ED00E09F
:101F100010B590B028216846FEF769F914210AA887
:101F2000FEF765F9022000900120049010200024A3
:101F3000059007946846FEF75BFE08B172B6FEE7AF
:101F40000F20CDE90A040C940D9400210AA80E94E8
:101F5000FEF762FD002801D072B6FEE710B010BD9A
:101F6000704700000148FFF726B90000C0010020BB
:101F7000F0B50268164B174C174D4FF0804798424A
:101F800005D0B84203D0A04201D0A84203D122F02C
:101F900070064A683243984205D0B84203D0A04246
:101FA00001D0A84203D122F44074CA6822434C698C
:101FB00022F08002224302608A68C2620A6882625A
:101FC000984201D10969016301214161F0BD00001E
:101FD000002C0140000400400008004030B5036AB6
:101FE000026A22F0010202624268846924F07305E9
:101FF0000C682C4323F002058B682B430A4DA84242
:102000000BD123F00805CB6822F440722B434D69B5
:1020100023F0040315438A692A43426084614968B6
:102020004163036230BD0000002C014030B5026AFC
:10203000036A23F010030362436884690D6824F483
:10204000E64444EA05248D6822F0200242EA0512A3
:102050000B4DA8420ED1CD6822F0800242EA051253
:102060004D6923F4406343EA85038D6922F0400201
:1020700043EA85034360846149688163026230BD3D
:10208000002C014030B5036A026A22F480720262B9
:102090004268C46923F4007324F073050C682C4370
:1020A0008D6843EA05230C4DA8420ED1CD6823F478
:1020B000006343EA05234D6922F4405242EA0512C7
:1020C0008D6923F4806342EA05124260C461496865
:1020D000C163036230BD0000002C014030B5046ACA
:1020E000026A22F4805202624268C3690D6823F4D6
:1020F000E64343EA05238D6824F4005444EA05349A
:10210000064DA84204D14D6922F4804242EA85126C
:102110004260C36149680164046230BD002C014023
:10212000FEE70907090E002804DB00F1E02080F833
:102130000014704700F00F0000F1E02080F8141D3B
:10214000704702E008C8121F08C1002AFAD1704780
:102150007047002001E001C1121F002AFBD1704727
:10216000002141220846FFF7B9FD59220021012034
:10217000FFF7B4FD04A202210020FFF796FD0A201C
:1021800000F020F8ECE7000048656C6C6F20576F9A
:10219000726C642100000000FEF77CFBFFF7B8FEC4
:1021A000FFF708FCFFF75AFCFFF778FCFFF7CEFCBF
:1021B000FFF700FD00F020F8FFF7D4FB00F038F83F
:1021C000FEE7000010B5EFF3058149B9EFF3108188
:1021D00031B908490968022905D1EFF3118111B11C
:1021E0006FF0050403E0002408B100F0E3FD204691
:1021F00010BD000064000020EFF3058058B9EFF334
:10220000108040B909490868022801D030B109E0BE
:10221000EFF3118030B16FF00500704701200860C6
:10222000002070474FF0FF3070470000640000202E
:1022300010B5EFF3058060B9EFF3108048B90B4992
:102240000868022802D0012806D00BE0EFF31180C5
:1022500040B16FF0050010BD0220086000F012FED2
:10226000002010BD4FF0FF3010BD000064000020C2
:10227000F0B585B00B464FF00004EFF305810394F1
:10228000A1BBEFF3108189BB21490968022902D162
:10229000EFF3118151BB48B3802618218DF810400F
:1022A00004AD42B3176807B13D4697691FB139467F
:1022B0007F1E382F02D21779FF0702D0002005B009
:1022C000F0BD576907B1BE08D2F808C0BCF1000FD5
:1022D0000DD0D4685C2C18D312693AB137B18DE8AF
:1022E00006103246294601F028F903900DE0D76820
:1022F0005FB912694AB903AACDE90012B2B2294600
:1023000001F0EEF8012800D003940398D7E700000D
:10231000640000202DE9F041134C0F460546666924
:102320002068001D00F016FC681C07D137B1216839
:10233000BDE8F0410D48091D00F05CBC2068354443
:10234000B5424560216805D2A068BDE8F041091D8D
:1023500000F038BC6068091D00F034FC206B854239
:1023600000D22563BDE8F08114000020F8060020AB
:102370002DE9F041054600F049FC2D4C2069401C38
:10238000206120682B4F10B1E06930B32BE025604D
:102390002069012827D1002606EB860007EB800084
:1023A00000F002FC761C382EF6D3234800F0FCFB2C
:1023B0002148143000F0F8FB1F48283000F0F4FBEF
:1023C0001D483C3000F0F0FB1B48503000F0ECFBA7
:1023D000194860601430A06005E02068E96AC06AAE
:1023E000884200D82560E06A401CE0626864E86AC0
:1023F000A169884200D9A06100EB800007EB800052
:10240000291D00F0F7FB00F021FCE06900280CD04A
:102410002068E96AC06A884207D208494FF08050B4
:102420000860BFF34F8FBFF36F8FBDE8F0810000EE
:102430001400002048020020A806002004ED00E05F
:1024400038B500F0E3FB104CA068C8B90F4800F0A5
:10245000ABFB0E48143000F0A7FB0C482060143092
:1024600060600A4B00202833009003F150021021D5
:102470000A2000F0D9FDA06010B105A100F064FCB5
:10248000BDE8384000F0E2BB500000200C070020FF
:10249000546D72510000000030B4026C0B46002AEB
:1024A0000BD0C1681144C1604468A14201D30168E6
:1024B000C16030BC1846FDF781BE30BC70472DE9C5
:1024C000F041856B174604460026026C82B1C7B105
:1024D000E068FDF773FEE168206C091AE16022688C
:1024E000914202D26168081AE060022F16D017E00C
:1024F0002068A8B9606801F0C3F806460020606053
:102500000EE0A068FDF75AFE216CA0680844A060A8
:102510006168884204D32068A06001E005B16D1EA7
:102520006D1CA5633046BDE8F08110B5044690F8F7
:10253000590058B101280CD002280FD0502080F348
:102540001188BFF34F8FBFF36F8FFEE7206B00F052
:1025500091FB2046BDE8104000F08CBB10BD000090
:1025600010484FF44061420706D0C01D0D4920F0CD
:102570000700411AC1F540610B4A00230144C2E93A
:1025800000030839103A21F0070111604B600B601D
:102590000B1AC0E9001393604FF000405360D06005
:1025A00070470000DC0E002078000020144E154C0F
:1025B000A6F29C474FF08058DFF84C9012E000BF25
:1025C00000F024FBF068C568281D00F0C3FA2069FC
:1025D000401E2061E068401EE06000F037FB2846A6
:1025E000FFF7A3FFE0680028EAD138680128F9D98D
:1025F000C9F80080BFF34F8FBFF36F8FF2E7000081
:10260000E40600201400002004ED00E070B51D4633
:10261000049C51B1C4F80020C4E90F0101212046F7
:1026200000F036FD84F84C5070BD2460F4E72DE9CD
:10263000F0470E46DDE90984174682469100994627
:10264000089DA522206BFDF7CBFD6FF00301206BE9
:1026500001EB8701084420F00707780707D05020D6
:1026600080F31188BFF34F8FBFF36F8FFEE72218FF
:10267000315C82F83410315C11B1401C1028F6D363
:10268000002684F84360382D00D33725E562C4E97D
:102690001356201D00F093FA04F1180000F08FFA91
:1026A0002461C5F138006462A061666584F85860F1
:1026B0004A465146384600F03BFA2060B8F1000F18
:1026C00001D0C8F80040BDE8F087000030B51149DE
:1026D00000E011460A688242FBD34B685C188442D2
:1026E00003D1406818444860084643681C18944267
:1026F00009D1084C103C2468A24209D052681A44FF
:1027000042600A6812680260814200D0086030BDF1
:102710000460F9E77800002070B5002441600B4D9B
:102720000061914206D8D11A8269914206D2011DF8
:10273000686807E09A4203D2994201D3012403E07A
:10274000011D286800F03EFA204670BD50000020B0
:1027500010B5044600F05AFAA06B28B15FF00004EF
:1027600000F074FA204610BD0124F9E730B589B0B5
:10277000304D55E00498002806DADDE90601059A97
:102780009047049800284BDB069C606910B1201D1F
:1027900000F0E0F902A800F0B9F8024604980A280F
:1027A0003ED2DFE800F00505053D263705053D264C
:1027B0000598A169034601442046FFF7ADFF00B329
:1027C000616A20468847E069012829D100200090ED
:1027D0000598A169002342181946204601F05AF8CD
:1027E00078B9502080F31188BFF34F8FBFF36F8FFC
:1027F000FEE70598A06128B1811813462046FFF72F
:102800008BFF0DE0502080F31188BFF34F8FBFF393
:102810006F8FFEE794F82C0010B9204600F02AFADA
:10282000002204A9A86800F085FD0028A2D109B003
:1028300030BD0000500000202DE9FC410F46054648
:1028400000F064FB01A800F061F80446019818B19B
:1028500000F08EFFBDE8FC81224EAFB170680068C9
:10286000A8B30027291B3A46B06800F081FA00F0AF
:102870007FFF0028EED11C494FF080500860BFF365
:102880004F8FBFF36F8FE5E7A542EBD800F070FFE5
:1028900030682746C068C468201D00F05BF9E06915
:1028A000012810D1A0692B4641193A462046FFF76E
:1028B00033FF40B100200346014600902A462046DF
:1028C00000F0E8FF20B1616A20468847C2E707E0D0
:1028D000502080F31188BFF34F8FBFF36F8FFEE757
:1028E0000127BFE75000002004ED00E006484168E2
:1028F000096829B14168C968C968496801637047B6
:102900004FF0FF31FAE700001400002070B50546D3
:1029100000F04CFE064E04463069844203D200F0BB
:1029200009F8012000E0002028602046346170BDD5
:1029300050000020F8B5194D1FE0C068C468066853
:10294000201D00F007F9616A20468847E0690128E8
:1029500013D1A0693044B04206D924616060211DC2
:10296000286800F02FF908E0002003460146009097
:102970003246204600F08EFF38B1286801680029F1
:10298000DBD16968C5E90010F8BD502080F31188DB
:10299000BFF34F8FBFF36F8FFEE7000050000020A2
:1029A00008484068401C4FF0500080F3118804D064
:1029B000BFF34F8FBFF36F8FFEE7BFF34F8FBFF3B0
:1029C0006F8FFEE780000020074C2068016841B14E
:1029D000C0680021D0F80000FFF72EFFFFF7C6FE09
:1029E000F3E701210020F7E7500000202DE9F04136
:1029F000044600F00BF994F9455004F1240609E06F
:102A0000606A48B1304600F07BFE08B100F000FA81
:102A10006D1E6DB2002DF3DC4FF0FF3684F845607B
:102A200000F014F900F0F2F894F9445004F11007A2
:102A300009E0206948B1384600F062FE08B100F0B4
:102A4000E7F96D1E6DB2002DF3DC84F84460BDE83B
:102A5000F04100F0FBB800002DE9F04105460027E9
:102A600000F054FA314E306808B9FFF779FDF0688C
:102A700005424BD1C5B3083568070ED005F00700F5
:102A8000C0F108000544680707D0502080F3118882
:102A9000BFF34F8FBFF36F8FFEE72DB37068854292
:102AA00034D82248103001460C6801E020460C461C
:102AB0006168A94202D221680029F7D131688C42AD
:102AC00024D007682168016060680837411B10291D
:102AD0000FD96019420708D0502080F31188BFF346
:102AE0004F8FBFF36F8FFEE710E041606560FFF727
:102AF000EDFD61687068401A7060B268904200D263
:102B0000B060F06801430020C4E9000100F030FE2D
:102B1000780707D0502080F31188BFF34F8FBFF3A1
:102B20006F8FFEE73846BDE8F081000068000020A6
:102B300010B5031F4FF080741C601B1F21F00101B2
:102B40001960191F024B0B60143940380A6010BD20
:102B5000A1290008D0E9013201699A60D0E9012376
:102B60005A604A68824201D182684A60002202614A
:102B70000868401E0860086870470000034B036047
:102B800003F15C000860802010607047240800207A
:102B9000044B036003F15C0008604FF48070106028
:102BA00070470000800A002000F108014FF0FF325A
:102BB000C0E90112C160016100210160704700217C
:102BC0000161704730B50B685A1C02D000F1080251
:102BD00002E0026904E02246546825689D42FAD961
:102BE00053684B6099608A60516008610168491CB4
:102BF000016030BD42684A6093688B609368596099
:102C0000916008610168491C01607047502080F3A1
:102C10001188BFF34F8FBFF36F8F0A494868401C7C
:102C2000486001280CD10848006810F0FF0F07D059
:102C3000502080F31188BFF34F8FBFF36F8FFEE7F3
:102C4000704700008000002004ED00E0084948685B
:102C500028B1401E486001D180F311887047502090
:102C600080F31188BFF34F8FBFF36F8FFEE7000033
:102C70008000002070B5002827D0144DA0F1080472
:102C80006168E868014207D1502080F31188BFF3E2
:102C90004F8FBFF36F8FFEE722683AB1502080F369
:102CA0001188BFF34F8FBFF36F8FFEE781436160E1
:102CB00000F02CF960686968084468602046FFF7F6
:102CC00005FDBDE8704000F053BD70BD68000020F8
:102CD0004FF0E02000210161816105494FF47A72D3
:102CE0000968B1FBF2F1491E41610721016170479A
:102CF0001000002010B5FDF74BFA114910280ED333
:102D000000F1E02090F8F0030A78904207D25020BA
:102D100080F31188BFF34F8FBFF36F8FFEE7094831
:102D20000068896800F4E060884207D9502080F389
:102D30001188BFF34F8FBFF36F8FFEE710BD000008
:102D4000800000200CED00E010B5084B002200BF11
:102D500053F832401CB1521C082AF9D310BD43F875
:102D6000321003EBC201486010BD000008020020D1
:102D700070B515460E460446FFF748FF94F9441017
:102D80000020491C01D184F8440094F94510491CE5
:102D900001D184F84500FFF759FFA06B28B92A46F6
:102DA000314604F1240000F051F82046BDE870409F
:102DB000FFF71CBE10B5020014D00F48806B38B16D
:102DC000502080F31188BFF34F8FBFF36F8FFEE762
:102DD00000F09CF800211046FFF79CFA00F0C8FCB8
:102DE000002807D105494FF080500860BFF34F8F8E
:102DF000BFF36F8F10BD00001400002004ED00E051
:102E000002498A6A026049694160704714000020E3
:102E100001490120486270471400002010B50C469B
:102E200050B1094909681831FFF7CCFE2046BDE8CA
:102E300010400121FFF76EBA502080F31188BFF3D4
:102E40004F8FBFF36F8FFEE71400002070B514465C
:102E50000D4668B10A4909681831FFF7CBFE0CB17D
:102E60004FF0FF3521462846BDE87040FFF752BAC3
:102E7000502080F31188BFF34F8FBFF36F8FFEE7B1
:102E80001400002030B587B00024039405AA04A9DB
:102E900003A80494FFF772FEDDE903010094CDE975
:102EA0000110002315A11748059A00F046FB164DA6
:102EB000002868631FD000F0BDFC012809D0401C29
:102EC00019D1502080F31188BFF34F8FBFF36F8F5C
:102ED000FEE7502080F31188BFF34F8FBFF36F8F51
:102EE0004FF0FF3028630120E8616C6107B0BDE856
:102EF000304000F045B807B030BD000049444C45B3
:102F000000000000AD250008140000200248816B7D
:102F1000491C81637047000014000020164810B55A
:102F2000816B11B10121416210BD002141628169B3
:102F3000124A01E0B9B1491E01EB810352F8233076
:102F4000002BF7D001EB810302EB830202F10804AE
:102F500053685B685360A34201D15B685360DA68D1
:102F60000260816110BD502080F31188BFF34F8F44
:102F7000BFF36F8FFEE7000014000020480200201E
:102F80001CB5264908780190FF20087008788DF854
:102F900000009DF800009DF8002000F0F000904235
:102FA00007D0502080F31188BFF34F8FBFF36F8F8E
:102FB000FEE79DF800001A4B00F050001870072043
:102FC000986005E09DF8002052008DF80020401E1A
:102FD0009DF800201206F5D49860032807D05020F1
:102FE00080F31188BFF34F8FBFF36F8FFEE74FF46D
:102FF00040709860019808700A48016841F47001B7
:103000000160016841F070410160FFF761FE00203E
:103010005860FDF787F800201CBD000000E400E0C8
:103020008000002020ED00E038B5049D18B153B1B8
:10303000CAB181B120E0502080F31188BFF34F8FD7
:10304000BFF36F8FFEE7502080F31188BFF34F8FDF
:10305000BFF36F8FFEE7502080F31188BFF34F8FCF
:10306000BFF36F8FFEE739B1502080F31188BFF3B3
:103070004F8FBFF36F8FFEE750241C46012384F867
:1030800046302B460094FFF7C1FA204638BD0000B9
:1030900070B50D46040025D0FFF7B8FDD4E90F2028
:1030A000216802FB001161600021A1632168A16019
:1030B0000A46D4E90F01401E00FB0121E1602146D0
:1030C0004FF0FF3001F8440F487004F110008DB14B
:1030D000FFF76AFD04F12400FFF766FDFFF7B6FD78
:1030E000012070BD502080F31188BFF34F8FBFF3D4
:1030F0006F8FFEE721690029F0D000F001FB002866
:10310000ECD004494FF080500860BFF34F8FBFF3FD
:103110006F8FE3E704ED00E02DE9FF4782B01D4625
:103120008A464FF00008040003D0BAF1000F08D01F
:1031300011E0502080F31188BFF34F8FBFF36F8FE2
:10314000FEE7206C38B1502080F31188BFF34F8F19
:10315000BFF36F8FFEE7022D0AD1E06B012807D085
:10316000502080F31188BFF34F8FBFF36F8FFEE7BE
:1031700000F00EFA3F4F4FF000094FF0805648B96B
:10318000049838B1502080F31188BFF34F8FBFF3FC
:103190006F8FFEE7FFF73AFDA06BE16B884207D324
:1031A000022D05D00498D0B1B8F1000F1AD01EE05E
:1031B0002A4651462046FFF782F9616A19B104F1A7
:1031C000240000F09DFA20B13E60BFF34F8FBFF3A3
:1031D0006F8FFFF73BFD012006B0BDE8F087FFF7DA
:1031E00035FD22E06846FFF70BFE4FF00108FFF7C0
:1031F0002DFDFFF78BFEFFF709FD94F94400401CFD
:1032000001D184F8449094F94500401C01D184F820
:103210004590FFF71BFD04A9684600F027F930B17F
:103220002046FFF7E3FB00F0A3FA0020D4E7FFF706
:10323000EDFCA06BE16B884213D1FFF707FD04F1B1
:1032400010000499FFF7EAFD2046FFF7CFFB00F0DE
:103250008FFA00289ED13E60BFF34F8FBFF36F8F70
:1032600098E7FFF7F3FC2046FFF7C0FB00F080FA79
:1032700090E7000004ED00E02DE9F0471F4690467E
:103280008946040003D0B9F1000F08D011E05020A6
:1032900080F31188BFF34F8FBFF36F8FFEE7206C71
:1032A00038B1502080F31188BFF34F8FBFF36F8F79
:1032B000FEE7022F0AD1E06B012807D0502080F3EF
:1032C0001188BFF34F8FBFF36F8FFEE7FFF712FD3B
:1032D0005020EFF3118680F31188BFF34F8FBFF3B7
:1032E0006F8FA06BE16B884206D3022F04D00020C1
:1032F00086F31188BDE8F08794F945503A4649466F
:103300002046FFF7DCF8681C04D06D1C84F845509B
:103310000120EDE7606A0028FAD004F1240000F0F3
:10332000EFF90028F4D0B8F1000FF1D00121C8F86E
:103330000010EDE72DE9F747002683B08A46040028
:1033400003D0BAF1000F08D011E0502080F31188AB
:10335000BFF34F8FBFF36F8FFEE7206C38B1502063
:1033600080F31188BFF34F8FBFF36F8FFEE700F03C
:103370000FF9DFF8F4804FF000094FF0805748B99B
:10338000059838B1502080F31188BFF34F8FBFF3F9
:103390006F8FFEE7FFF73AFCA56BC5B1514620469B
:1033A000FFF77AF86D1EA563206950B104F1100093
:1033B00000F0A6F928B1C8F80070BFF34F8FBFF333
:1033C0006F8FFFF743FC012006B0BDE8F08705983A
:1033D00008B11EB106E0FFF739FC27E06846FFF7A9
:1033E0000FFD0126FFF732FCFFF790FDFFF70EFC03
:1033F00094F94400401C01D184F8449094F94500AC
:10340000401C01D184F84590FFF720FC05A96846CF
:1034100000F02CF8002820460AD0FFF7E7FA00F069
:10342000A7F92046FFF794F90028B3D00020CBE796
:10343000FFF78EF990B104F124000599FFF7EEFC37
:103440002046FFF7D3FA00F093F90028A2D1C8F87C
:103450000070BFF34F8FBFF36F8F9BE72046FFF7DE
:10346000C5FA00F085F995E704ED00E02DE9F0419B
:103470000C46050011D0C4B1FFF7C8FB174B5A69C1
:103480006E682068911B471C17D02F689B6A9F426B
:1034900019D0964217D8012410E0502080F31188EB
:1034A000BFF34F8FBFF36F8FFEE7502080F311887B
:1034B000BFF34F8FBFF36F8FFEE70024FFF7C6FB0C
:1034C0002046BDE8F081884205D9401A2060284690
:1034D000FFF796FCF1E700202060DCE714000020F5
:1034E0002DE9FF5F8346DDE90E87994616468A4639
:1034F0009000FFF7B1FA05001CD05C20FFF7ACFA92
:10350000040014D00020256384F85900CDE902405E
:10351000CDE900874B46324651465846FFF787F8BB
:103520002046FEF725FF012004B0BDE8F09F2846A5
:10353000FFF7A0FB4FF0FF30F6E7F0B585B0DDE90F
:103540000B640A9DA6B1DCB15C27009726630226B6
:1035500084F85960002604AFCDE90246CDE9005752
:10356000FFF765F82046FEF703FF049805B0F0BDAD
:10357000502080F31188BFF34F8FBFF36F8FFEE7AA
:10358000502080F31188BFF34F8FBFF36F8FFEE79A
:103590000548C16919B1806B18B10020704701203E
:1035A0007047022070470000140000200148406965
:1035B00070470000140000202DE9F0412E4C002738
:1035C000A06B40B1206A401C2062606A00B10127F4
:1035D0003846BDE8F0816669761C666113D1606883
:1035E000006838B1502080F31188BFF34F8FBFF3CC
:1035F0006F8FFEE76068A1686160A060A06A401CF0
:10360000A062FFF773F9206BDFF87080864209D360
:103610006068006880B16068C068C5686868864294
:103620000DD220632068C06A00EB800158F82100A9
:103630000128CAD90127C8E74FF0FF30F1E7281D5C
:10364000FFF788FAA86A18B105F11800FFF782FAA7
:10365000E86AA169884200D9A06100EB800108EB0B
:103660008100291DFFF7C6FAE86A2168C96A884205
:10367000CED30127CCE70000140000204802002030
:1036800070B504004FF0000133D01B4D2868844210
:1036900007D0502080F31188BFF34F8FBFF36F8F97
:1036A000FEE7206D38B1401E2065E36CE26A9A4265
:1036B0001FD040B11DE0502080F31188BFF34F8F21
:1036C000BFF36F8FFEE7201DFFF744FAE06CE06266
:1036D000C0F13800A061E06AA969884200D9A861F8
:1036E000064900EB800001EB8000211DFFF782FA04
:1036F0000121084670BD000014000020480200208F
:1037000070B5C068C46854B104F118000646FFF7EC
:1037100021FA144DA86B50B13146134815E05020E2
:1037200080F31188BFF34F8FBFF36F8FFEE7201D2B
:10373000FFF710FAE06AA969884200D9A8610B492D
:1037400000EB800001EB8000211DFFF753FAE06AD7
:103750002968C96A884202D90120686270BD0020C8
:1037600070BD000014000020D00600204802002098
:103770002DE9F0472C4D00242746A86B38B1FFF700
:1037800045FAA86B401EA863A86B40B146E05020E4
:1037900080F31188BFF34F8FBFF36F8FFEE7296966
:1037A000224E0120D1B3A6F5916980463068E0B180
:1037B000F068C46804F11800FFF7CCF9201DFFF78A
:1037C000C9F9E06AA969884200D9A86100EB8001C3
:1037D00009EB8100211DFFF70DFAE06A2968C96A2B
:1037E0008842E3D3C5F82480E0E70CB1FFF77EF808
:1037F0002C6A4CB14FEA0806FFF7DEFE00B16E629C
:10380000641EF9D100202862686A38B1084901278E
:1038100038070860BFF34F8FBFF36F8FFFF716FABB
:103820003846BDE8F087000014000020D0060020D4
:1038300004ED00E010B586B0FEF702FE114CA06862
:10384000B8B100200390049005AA04A903A8FFF7CB
:103850009FF9DDE9032102208DE8070000230AA17A
:103860000B48059AFFF769FEE06010B106B0012031
:1038700010BD502080F31188BFF34F8FBFF36F8FBF
:10388000FEE7000050000020546D72205376630064
:10389000C92900082DE9FF411E46134602000A9D72
:1038A0004FF0000016D0144CA768002F0FD0CDE9C0
:1038B00000130292062917DAFFF76AFE02284FF07A
:1038C00000030FD000226946A068FFF725FC04B072
:1038D000BDE8F081502080F31188BFF34F8FBFF314
:1038E0006F8FFEE72A46EEE70023324669463846E8
:1038F000FFF7C2FCEBE70000500000204C4100083D
:1039000000000000000000000000000000000000B7
:10391000000200001800000000000000000000008D
:10392000010202030405060708090A0B0C0D0E0F1D
:103930001010000000000000000001020304060750
:10394000080900000000010203040000000000005C
:103950000000000000000000000000FE0202020261
:103960000202003F20202020202000000000000054
:103970000000000000000000000000FE0202020241
:103980000202003F20202020202000FE020202022E
:103990000202003F20202020202000FE020202021E
:1039A0000202003F20202020202000FE020202020E
:1039B0000202003F20202020202000FE02020202FE
:1039C0000202003F20202020202000FE02020202EE
:1039D0000202003F202020202020000000000000E4
:1039E00000000000000000000000000000000000D7
:1039F00000000000000000000000000000000000C7
:103A00000000000000000000000000FE02020202B0
:103A10000202003F20202020202000FE020202029D
:103A20000202003F20202020202000FE020202028D
:103A30000202003F20202020202000FE020202027D
:103A40000202003F20202020202000FE020202026D
:103A50000202003F20202020202000FE020202025D
:103A60000202003F20202020202000FE020202024D
:103A70000202003F20202020202000FE020202023D
:103A80000202003F20202020202000FE020202022D
:103A90000202003F20202020202000FE020202021D
:103AA0000202003F20202020202000FE020202020D
:103AB0000202003F20202020202000FE02020202FD
:103AC0000202003F20202020202000FE02020202ED
:103AD0000202003F20202020202000FE02020202DD
:103AE0000202003F20202020202000FE02020202CD
:103AF0000202003F20202020202000FE02020202BD
:103B00000202003F202020202020000000000000B2
:103B100000000000000000000000000000000000A5
:103B20000000000000000000000000000000000095
:103B30000000000000000000000000000000000085
:103B40000000000000000000000000000000000075
:103B500000000000000000000000000000F800006D
:103B60000000000000330000000000100C02100CE8
:103B7000020000000000000000000040C07840C0CB
:103B8000780000043F04043F040000708888FC08AB
:103B9000300000182020FF211E00F008F08060187F
:103BA000000000310C031E211E0000F00888700088
:103BB00000001E21232C1927211000120E000000E6
:103BC00000000000000000000000000000E01804F9
:103BD0000200000000071820400000020418E00066
:103BE00000000040201807000000404080F08040A6
:103BF00040000202010F0102020000000000E0008C
:103C00000000000101010F0101010000000000009F
:103C100000000090700000000000000000000000A4
:103C2000000000010101010101000000000000008E
:103C30000000003030000000000000000000C0382C
:103C40000400006018070000000000E010080810E1
:103C5000E000000F102020100F0000001010F800EE
:103C60000000000020203F20200000700808080805
:103C7000F000003028242221300000300808088895
:103C800070000018202121221C000000804030F824
:103C9000000000060524243F242400F888888808B2
:103CA00008000019202020110E0000E010888890E4
:103CB0000000000F112020201F000018080888684D
:103CC00018000000003E010000000070880808880D
:103CD0007000001C222121221C0000F0080808109E
:103CE000E0000001122222110F00000000C0C000FD
:103CF00000000000003030000000000000800000E4
:103D00000000000000E000000000000080402010E3
:103D1000080000010204081020000040404040401C
:103D2000400000020202020202000008102040804F
:103D300000000020100804020100007048080888F4
:103D400070000000003037000000C030C828E810C4
:103D5000E000071827282F2817000000C038E000CF
:103D60000000203C23020227382008F88888887049
:103D70000000203F202020110E00C0300808080855
:103D80003800071820202010080008F8080808103C
:103D9000E000203F202020100F0008F88888E80865
:103DA0001000203F20202320180008F88888E80809
:103DB0001000203F200003000000C0300808083831
:103DC000000007182020221E020008F80800000842
:103DD000F808203F210101213F20000808F80808C9
:103DE00000000020203F2020000000000808F80804
:103DF0000800C08080807F00000008F888C0281874
:103E00000800203F20012638200008F808000000A4
:103E10000000203F20202020300008F8F800F8F8AB
:103E20000800203F013E013F200008F830C0000894
:103E3000F808203F200007183F00E010080808108D
:103E4000E0000F10202020100F0008F808080808D4
:103E5000F000203F210101010000E01008080810D7
:103E6000E0000F10282830504F0008F88888888814
:103E70007000203F2000030C3020007088080808E4
:103E800038000038202121221C00180808F80808F2
:103E900018000000203F2000000008F8080000087B
:103EA000F808001F202020201F000878880000C884
:103EB0003808000007380E01000008F800F800F884
:103EC000080000033E013E03000008186880806877
:103ED000180820302C03032C30200838C800C838BC
:103EE00008000000203F2000000010080808C83823
:103EF00008002038262120201800000000FE0202C1
:103F000002000000007F40404000000438C0000074
:103F10000000000000010638C00000020202FE009E
:103F20000000004040407F00000000000402020446
:103F30000000000000000000000000000000000081
:103F40000000808080808080808000020204000069
:103F500000000000000000000000000080808000E1
:103F6000000000192424123F200010F0008080007F
:103F70000000003F112020110E0000000080808012
:103F80000000000E11202020110000008080809091
:103F9000F000001F202020103F2000008080808043
:103FA0000000001F242424241700008080E090904B
:103FB00020000020203F2020000000008080808022
:103FC0008000006B94949493600010F000808080D7
:103FD0000000203F210000203F2000809898000032
:103FE00000000020203F2020000000000080989862
:103FF000000000C08080807F000010F00000808002
:104000008000203F240629302000001010F8000016
:1040100000000020203F20200000808080808080E1
:104020008000203F20003F20003F80800080808073
:104030000000203F210000203F2000008080808081
:104040000000001F202020201F00808000808000B2
:10405000000080FF912020110E00000000808000F1
:104060008000000E11202091FF80808080008080E1
:10407000800020203F2120000100000080808080FF
:1040800080000033242424241900008080E08080F4
:1040900000000000001F2020100080800000008031
:1040A0008000001F202020103F2080808000808022
:1040B000800000030C300C03000080800080800032
:1040C0008080010E300C073806010080808000805F
:1040D00080000020310E2E31200080808000008082
:1040E00080800081867818060100008080808080B2
:1040F00080000021302C222130000000000000FC54
:10410000020200000000013E404000000000FF00ED
:10411000000000000000FF0000000202FC000000A0
:10412000000040403E0100000000000201020204C5
:10413000020000000000000000000000000000007D
:1041400000000000000000000000000064656661DF
:10415000756C745461736B00784100080000002096
:1041600094000000422100080C4200089400002046
:104170004C1E000052210008000000000100000059
:1041800010000000000000000024F4000000000007
:10419000000000000000000000000000000000001F
:1041A000000000000000000000000000000000000F
:1041B00000000000000000000000000000000000FF
:1041C00000000000000000000000000000000000EF
:1041D00000000000000000000000000000000000DF
:1041E00000000000000000000000000000000000CF
:1041F000000000000000000000000000AAAAAAAA17
:0C420000000000000200000094000020FC
:04000005080000ED02
:00000001FF
