:020000040800F2
:100000003830002099010008B93000087725000831
:10001000152C000851090008FD36000800000000FA
:1000200000000000000000000000000001010008C6
:100030009509000800000000450100087132000821
:10004000B3010008B3010008B3010008B3010008C0
:10005000B3010008B3010008B3010008B3010008B0
:10006000B3010008B3010008B3010008B3010008A0
:10007000B3010008B3010008B3010008B301000890
:10008000B3010008B3010008B3010008B301000880
:10009000B3010008B3010008B3010008B301000870
:1000A000B3010008B3010008B3010008B301000860
:1000B000B3010008F1320008B3010008B3010008E1
:1000C000B3010008B3010008B3010008B301000840
:1000D000B3010008D9360008E5360008F1360008FB
:1000E000B3010008B3010008B3010008DFF80CD029
:1000F00000F0E0FB00480047394400083830002099
:10010000224B19680868B0E8F00F80F30988BFF344
:100110006F8F4FF0000080F311884EF00D0E704786
:100120000000000006480068006880F3088862B696
:1001300061B6BFF34F8FBFF36F8F00DF00BF00BF0B
:1001400008ED00E0EFF30980BFF36F8F0F4B1A68E3
:1001500020E9F00F106008B54FF0500080F31188CF
:10016000BFF34F8FBFF36F8F06F0FCFA4FF0000024
:1001700080F31188BDE8084019680868B0E8F00FFE
:1001800080F30988BFF36F8F704700BF2000002005
:10019000EFF3058070470000064880470648004797
:1001A000FEE7FEE7FEE7FEE7FEE7FEE7FEE7FEE727
:1001B000FEE7FEE7ED320008ED0000082DE9F05FF4
:1001C0000546002092469B468846064681464024C6
:1001D0001BE0284641464746224600F020F8534699
:1001E0005A46C01A914110D311461846224600F0D3
:1001F0007BFA2D1A67EB01084F46224601200021A9
:1002000000F072FA17EB00094E41201EA4F1010420
:10021000DFDC484631462A464346BDE8F09F202AA7
:1002200004DB203A21FA02F00021704721FA02F3A0
:10023000D040C2F12002914008431946704740EA7D
:1002400001039B0703D009E008C9121F08C0042A54
:10025000FAD203E011F8013B00F8013B521EF9D23B
:100260007047D2B201E000F8012B491EFBD2704763
:100270000022F6E710B513460A4604461946FFF772
:10028000F0FF204610BD421C10F8011B0029FBD1D5
:10029000801A704780EA010210B502F00043400066
:1002A00022D04A001FD0010E01EB1261C0F35600AC
:1002B000C2F3560240F4000042F40002A0FB022008
:1002C00000047F39140400D0401C50EA124001D4CD
:1002D0004000491EC2B20C0604EBD010401C40087E
:1002E000802A02D003E0002010BD20F00100002988
:1002F00000DA0020184310BD30B480EA010202F099
:10030000004530F0004221F0004013D090B1C30D01
:10031000D40DC2F31601C0F31600E41A41F4000133
:1003200040F400027D34914201D3641C00E0490096
:10033000002C02DA30BC002070474FF4000000238C
:10034000914201D3891A034340084FEA4101F7D192
:1003500051B1914202D14FF0004105E002D24FF07D
:10036000010101E06FF0010103EBC450284430BCEF
:1003700000F0DBB92DE9FE4F804681EA0300C00F93
:100380000C46009021F0004123F00045B8EB02003C
:10039000A94105D24046214690461C460B460246DE
:1003A00023F00040104347D0270DC7F30A00C3F3E2
:1003B0000A510290401A019040286BDAC3F31300EF
:1003C00040F4801B0098924620B10023D2EB030A30
:1003D00063EB0B0B01985946C0F14002504600F008
:1003E00083F906460D4650465946019A00F08BF9AE
:1003F00010EB08006141002487EA115284EAE77398
:100400001A4340D0009A62B3019A012A4FEA075278
:1004100015DC001B61EB02014FF0004202EA0752BB
:10042000CDE90042001C41F5801132462B4600F018
:10043000C2F903B0BDE8F08F40462146F9E7001B42
:1004400061EB0201001C41F5801300185B4120188C
:10045000A2F5001747EB030140EAD570B6196D41CC
:1004600011E06D084FEA360645EAC0754FEA0752BB
:10047000001B61EB0201001C41F5801149084FEAA5
:1004800030000019514132462B4603B0BDE8F04F11
:1004900000F082B90098012240000023D0EB020254
:1004A00063EBE073009821464FEAE074B8EB00007C
:1004B00061EB0401E9E783F000435BE781F0004171
:1004C00058E72DE9FE4F81EA030404F0004421F0CF
:1004D000004100944FF0000B23F0004350EA010468
:1004E0005ED052EA03045BD0C3F30A54C1F30A5549
:1004F0002C44A4F2F3340194A0FB0254C1F3130181
:1005000041F48011C3F3130343F4801301FB02444D
:1005100000FB034E840A970A44EA815447EA835752
:10052000A4FB076802958D0A05FB07854FEA932C0B
:1005300004FB0C542705029D4FEA065847EA16377C
:10054000B5EB08056EEB070C870E920E47EA811794
:1005500042EA8312A7FB0201B6EB0B0164EB000435
:100560002B0D43EA0C335E1844EB1C50DA4651461F
:10057000E7FB0201C5F313044FEA0B3343EA1453BC
:100580004FEA0432019C43EA0603A4F10C040294EE
:10059000009CCDE900B400F00EF903B0BDE8F08F87
:1005A00000200146F9E72DE9F04D81EA030404F04B
:1005B000004B21F0004514464FF0000A23F00041A3
:1005C00050EA050220D054EA01021DD0C5F30A57B3
:1005D0000246C5F31303C1F31300C1F30A5640F4F6
:1005E000801543F48013A7EB0608101BD64608F2CB
:1005F000FD3873EB050002D308F1010801E0921801
:100600005B41B8F1000F03DA00200146BDE8F08D30
:1006100000204FF48011064684460EE0171B73EB52
:10062000050705D3121B63EB050306434CEA010CD7
:1006300049084FEA300092185B4150EA0107EDD1BA
:1006400052EA030012D082EA040083EA050108435B
:1006500005D0101BAB4106D20122002306E0002288
:100660004FF0004302E06FF0010253101AEB060056
:100670004CEB085110EB0A0041EB0B01BDE8F04DCB
:1006800000F08AB8C10F80EAE0700844CA079623D8
:10069000002100F053B800F0004230F000400AD0D2
:1006A000C10D01F56071C0F3160042EA0151C208A4
:1006B00040071143704700200146704730B50B4694
:1006C000014600202022012409E021FA02F59D4282
:1006D00005D303FA02F5491B04FA02F52844151E56
:1006E000A2F10102F1DC30BD202A04DB203A00FA3D
:1006F00002F1002070479140C2F1200320FA03F379
:10070000194390407047202A06DBCB17203A41FA64
:1007100002F043EAE07306E041FA02F3D040C2F18E
:10072000200291400843194670470029A8BF70472E
:10073000401C490008BF20F00100704710B4B0FA17
:1007400080FC00FA0CF050EA010404BF10BC7047B2
:1007500049B1CCF1200421FA04F411FA0CF118BFCC
:10076000012121430843A3EB0C01CB1D4FEA00619B
:100770004FEA102042BF002010BC704700EBC3506E
:1007800010440029A4BF10BC7047401C490008BF9A
:1007900020F0010010BC704710B5141E73F1000466
:1007A00008DA401C41F1000192185B411A4301D163
:1007B00020F0010010BD2DE9F04D92469B4611B18D
:1007C000B1FA81F202E0B0FA80F220329046FFF7EF
:1007D0008BFF04460F4640EA0A0041EA0B015346EC
:1007E0005A46084313D0114653EA010019D0C8F104
:1007F00040025046FFF713FD05460E465046594647
:100800004246FFF771FF084305D0012004E020466F
:100810003946BDE8F08D0020054346EAE0762C43DA
:1008200037430A986305E40AA0EB08000022FD0A9A
:1008300044EA47540A3002D500200146E9E70105A1
:1008400010196941DDE9084500196941BDE8F04D1D
:10085000A2E7C1F30A52C1F3130140F2FF3341F49E
:1008600080119A4202DA00200146704740F2334379
:100870009A42A2F2334202DC5242FFF7D0BCFFF7A9
:1008800033BF000030B5041E71F1000404DB4FF0EB
:100890000044404264EB0101141E73F1000405DBC7
:1008A0001C464FF00043524263EB0403994208BFD9
:1008B000904230BD064C074D06E0E06840F0010371
:1008C00094E8070098471034AC42F6D3FFF712FCC7
:1008D000E07E0008007F0008086000204861C1E950
:1008E000022303B19960D06848B1106908611069AA
:1008F000416111611079401C1071087170470961E4
:10090000D16001201161F7E708600020C86008612C
:10091000704700000949084888611C31084888610F
:100920001C3108488861703107488861A1F58C71D5
:100930000648886170470000B13100085827002040
:10094000BD30000801370008550900084D31000886
:10095000FEE7000010B508A32D226421074804F02B
:1009600049FD064804F06CFD05A002F0D1FEBDE88B
:100970001040002005F020BE4F4E00001C23002038
:10098000436172206973207265616479212121219C
:100990000A000000704700002DE9FF4F81B00024DD
:1009A0000E98144F92468B46264625464FFA83F9F9
:1009B0004FFA80F8641CE4B273B24A462146B87814
:1009C00001F03DFF86B26BB242462146B87801F095
:1009D00036FF85B23346524659460095019800F0DD
:1009E0000BF8019804F02CFDB8788442E2D305B0EE
:1009F000BDE8F08F9C0000202DE9F843154C81469E
:100A00008846E0781E4680F0010117464846089D5A
:100A100004F01FFD33463A4641464846009504F02F
:100A200004FBE178484604F014FDAD1EA8B2009026
:100A300008F10100B61E7F1C81B2B3B2BAB24846BB
:100A400004F091FAE07880F001014846BDE8F843EF
:100A500004F0FFBC9C0000202DE9FF4F83B08346CB
:100A6000984689460026109D1868FFF70CFC00EB9D
:100A700040014FF0040A0AEB4100C7B24B4804F0B2
:100A800007FD4B49494804F0ECFCD8F80C000C2158
:100A9000484CC368AB4206D1454504D0E171002003
:100AA0002072607220702A7998F80400101A627A15
:100AB00050EA020C4FF0010201D0AB4202D1217288
:100AC00062721AE000280CDD237A00EB400003EB91
:100AD000800040B2207230280FDD2270302020725A
:100AE0000BE00AD5237A00EB400003EB800040B214
:100AF00020720C2801DA22702172D9E903025061B8
:100B0000D9E903020261294804F024FA761CF6B2FE
:100B1000E178264804F09DFC4020002200908023CC
:100B20001146224804F01FFAE07880F001011F48C6
:100B300004F08FFC2A464146304600F03DF800950F
:100B4000434649465846059A00F072F80221174874
:100B500004F07FFCE07994F9082043B231466078D4
:100B600001F06DFEE0712868FFF78DFB00EB40019E
:100B70000AEB410042B27BB23146607801F05FFE81
:100B80000C21CDE9001AC7B2E0793B46401E82B283
:100B90000BF10101054804F038FB044804F050FC57
:100BA00060788642AFD307B0BDE8F08F1C230020E9
:100BB0000E7200089C0000202DE9F84380469068E2
:100BC000402711790079491EB7FBF0F0164C4843D5
:100BD000164660713B4602227A21144804F012FC4A
:100BE00000250AE0B7FBF0F06843801C82B20623C0
:100BF00077210E4804F095FA6D1CB0680079A84280
:100C0000F0D82079414643B2607942B2607801F071
:100C100016FEC2B2227104200090082376210348F8
:100C200004F0A1F9BDE8F8839C0000201C230020FB
:100C30002DE9F0470D46CE68D96881460898C96805
:100C40002A4C9046814203D1984201D00921A171DA
:100C5000027926481B7900270178A2EB030C28793A
:100C6000BCF1000F01DD012905D0BCF1000F20D53A
:100C700001290FD01DE0011F27708C4507DDC0F151
:100C80000400A17900EB400001EB800010E0A079A6
:100C90000C380DE09A1A011F27708A4206DDA179EF
:100CA00000EB400001EB8000303801E0A0790C300F
:100CB000A07101270EE000BF94F9061007FB081091
:100CC000092805D982B249460948336804F092FBE5
:100CD00076697F1C2879B842EED249462B68BDE878
:100CE000F0470922024804F085BB00009C00002068
:100CF0001C23002010B501F0CBFE01F0FDFE002109
:100D0000084800F0E3FF0421064800F0DFFF00215F
:100D1000054800F0DBFFBDE810400421024800F068
:100D2000D5BF0000BC0100207401002072B6FEE7B0
:100D300010B50068406A00B2FFF7A4FC0349FFF752
:100D4000A9FABDE810400249FFF7D6BA0000B44343
:100D50000000524710B50168486A002200B24A629A
:100D600041F270714843FFF78DFCBDE81040014926
:100D7000FFF7C2BA0000524710B590F821100022C8
:100D8000022905D00421816380F82020012010BDB4
:100D900001680B6823F00E030B6001680B6823F0F9
:100DA00001030B6090F84030C46B012101FA03F39A
:100DB000636080F8211080F82020104610BD0000EC
:100DC00010B590F821100024022903D0042181637A
:100DD00001243DE001680A6822F00E020A60016801
:100DE0000A6822F001020A601A4A0168914201D1A0
:100DF000012121E0174A1432914201D110211BE058
:100E0000144A2832914201D1891515E0114A3C3229
:100E1000914201D189140FE00E4A5032914202D121
:100E20004FF4803108E00B4A6432914202D14FF412
:100E3000801101E04FF08071064A083A51600121AB
:100E400080F82110002180F82010416B01B1884703
:100E5000204610BD080002402DE9F84FDFF8B89198
:100E60000024A9F1040B23460F2709F1040AABF172
:100E7000040EC9E00125A5402A40AA427DD1674E53
:100E8000D1F804C0ACEB0608B44532D014DCBCF198
:100E9000030F3AD009DCBCF1000F2AD0BCF1010FDE
:100EA0001CD0BCF1020F31D11DE0BCF1110F17D0E5
:100EB000BCF1120F2AD119E0B8F5881F19D006DC51
:100EC000B8F5803F15D0B8F5801F1FD111E0B8F5F7
:100ED000001F0ED0B8F5041F18D10AE0CB6815E04A
:100EE000CB681B1D12E0CB6808330FE0CB680C33D6
:100EF0000CE08B682BB1012B4FF0080303D0456148
:100F000004E0042302E0056100E00023FF2A01D889
:100F1000064601E000F104064FEA840501D9A5F177
:100F20002005D6F8008007FA05FC28EA0C0803FA29
:100F300005F548EA0508C6F800804D68ED0062D561
:100F4000374DAE6946F00106AE61AD6924F0030687
:100F500005F001050095334D06EB050CDCF8085053
:100F6000A607360F07FA06F825EA0805DFF8B88065
:100F7000404503D14FF0000817E044E0DFF8AC80B3
:100F8000404502D14FF001080FE0DFF8A480404552
:100F900002D14FF0020808E0DFF89880404502D106
:100FA0004FF0030801E04FF0040808FA06F848EA99
:100FB0000508CCF808804D68D9F80060ED024D4670
:100FC00001D5164300E096432E604D68DAF80060C4
:100FD000AD02554601D5164300E096432E604D689C
:100FE000DBF80060AD035D4601D5164300E0964393
:100FF0002E604D68DEF80060ED03754601D516439E
:1010000000E096432E60641C0D682A46E5407FF49C
:1010100031AFBDE8F88F0000080401400000111056
:10102000001002400000014000080140000C014097
:1010300000100140001401408068084000D00120E9
:1010400070470AB1016170470904FBE701488068F5
:10105000704700001000002070B5040025D094F8FF
:101060003D00002520B984F83C50204600F04EF9A0
:10107000242084F83D002068016821F0010101600E
:101080002068016841F4004101602068016821F492
:101090000041016000F0F2FA4D4A6168914201D8C6
:1010A0004C4900E04C49884201D2012070BD4B49B7
:1010B0002368B0FBF1F15E6826F03F060E435E60E8
:1010C0006368934206D94FF4967359434FF47A7389
:1010D000B1FBF3F12368491C1E6A26F03F06314339
:1010E00019626168914210D84900401EB0FBF1F2CC
:1010F000521CC2F30B02042A01D2042022E0B0FBEE
:10110000F1F0401CC0F30B001CE0A268F2B301EB4D
:10111000C10303EB0116431EB3FBF6F35B1C43F460
:1011200080431B0549D092B301EBC10202EB0111D0
:10113000401EB0FBF1F0401CC0F30B0040F48040B7
:1011400040F400402168CA694CF6FF739A4310438B
:10115000C861D4E9071001432068026822F0C00288
:1011600011430160D4E9030101432068826848F219
:10117000FF339A4311438160D4E905010843216894
:10118000CA6822F0FF021043C86001E00EE016E0DA
:101190002068016841F0010101602564202084F885
:1011A0003D00256384F83E50002070BD01EB4106F0
:1011B000431EB3FBF6F35B1CB3E70120C2E701EB70
:1011C0004101401EB0FBF1F0401CC0F30B00B7E73B
:1011D000A086010080841E0000093D0040420F00EF
:1011E0002DE9F84F1F4690468A460446DDF82890C0
:1011F000FFF72CFF054694F83D0020287FD11923E6
:10120000012240492046009501F048FA002876D195
:1012100094F83C00012872D0012084F83C0020683A
:101220000168C90703D1016841F00101016020682C
:10123000016821F400610160212084F83D00102044
:1012400084F83E0000262664C4F824806785608DFB
:1012500020852D48E0622B464A465146204601F043
:10126000A3F990B9206841698069009036E02A4668
:101270004946204601F0B8FA50B1206C042804D148
:101280002068016841F4007101600120BDE8F88F19
:10129000606A216800780861606A401C6062618D44
:1012A000491E6185218D491E89B2218522685369B5
:1012B000DB435B070BD451B100781061606A401CBE
:1012C0006062608D401E6085208D401E20852A460C
:1012D0004946204601F0B6F90028CED1208D0028DD
:1012E000C5D154F83D0B016841F400710160202024
:1012F00004F81E09E67766770020C7E7FFE70220BB
:10130000C4E70000020010000000FFFF10B586B027
:1013100000210091019102910391006813498842D4
:1013200022D1134CA06940F00800A061A069694671
:1013300000F0080004904FF44070009012200190DB
:10134000032003900B48FFF787FD0B48416841F0ED
:10135000E06141F002014160E06940F40010E061A9
:10136000E06900F40010049006B010BD0054004085
:1013700000100240000C014000000140024881685A
:10138000027811448160704710000020074810B5B2
:10139000016841F010010160032000F0A7F80F2060
:1013A00000F006F800F050F8002010BD00200240C8
:1013B00030B505461F4887B0C16941F00201C161DF
:1013C000C06906A900F00200009001A800F036F9FB
:1013D0000498B0B100F052F940001749174AB0FB29
:1013E000F1F11748491E0260416040F2E7320021E6
:1013F000C0E903218160816100F076FB040003D025
:1014000015E000F03BF9E8E70D4800F09BFB040015
:101410000DD11D2000F03CF8102D07D200222946E6
:101420001D2000F043F80748056000E0012407B0E4
:10143000204630BD0010024040420F000004004032
:10144000DC020020140000200F4808B5816941F03B
:1014500001018161816901F001010091C16941F0DF
:101460008051C161C069002200F0805000900F21BE
:10147000901E00F01BF80548416821F0E06141F042
:101480000071416008BD00000010024000000140F2
:10149000002809DB00F01F02012191404009800073
:1014A00000F1E020C0F8001170470000F0B40E4BCE
:1014B0001B680C46C3F30223C3F10705042D00D9B2
:1014C0000425191D072901D2002300E0DB1E012697
:1014D00006FA05F1491E214099409E40761E1640AD
:1014E0003143F0BC02F038B90CED00E0064900F0E1
:1014F000070208684FF6FF03184040EA0220034A3B
:1015000010430860704700000CED00E00000FA0591
:101510002DE9F0470F46050061D0434E306800F0DA
:101520000700B84209D2306820F007003843306025
:10153000306800F00700B84251D128683B4C810761
:1015400012D5400703D5606840F4E06060602878F9
:10155000000703D5606840F4605060606068A96867
:1015600020F0F000084360602878C00728D0686841
:10157000012810D02168022810D0890700292EDA0E
:10158000616821F0030101436160FFF75FFD804660
:1015900041F288390DE021688903EFE78901EDE721
:1015A000FFF754FDA0EB0801494502D90320BDE82F
:1015B000F0876068696800F00C00B0EB810FEFD134
:1015C000306800F00700B8420BD9306820F00700FF
:1015D00038433060306800F00700B84201D0012085
:1015E000E5E72878400705D56068E96820F4E06001
:1015F000084360602878000706D56068296920F4F0
:10160000605040EAC100606000F058F86168084A24
:10161000C1F30311515CC8400649086006480068E0
:10162000FFF7C6FE0020C2E7002002400010024083
:10163000F67100081C000020140000200F22026038
:101640000C4A536803F003034360536803F0F0034C
:101650008360536803F4E063C36052684FF4E0634F
:1016600003EAD20202610448006800F00700086043
:101670007047000000100240002002400448054965
:1016800000684968044AC1F30221515CC8407047B0
:101690001C000020001002400672000804480549A2
:1016A00000684968044AC1F3C221515CC8407047D0
:1016B0001C00002000100240067200080E4A51680B
:1016C0000E4801F00C03042B11D0082B0FD10C484D
:1016D000C1F38343C903C05C0AD55168084AC1F30A
:1016E0004041921E515C054A5043B0FBF1F07047F7
:1016F00004494843704700000010024000127A007D
:10170000E671000800093D002DE9F84F040070D093
:101710002078C04DC00749D06868C0F38100012817
:1017200007D06868C0F38100022809D16868C00347
:1017300006D52868800339D560680028E7D035E0F1
:101740006068B0F5803F0BD010B1B0F5A02F11D07C
:10175000286820F480302860286820F4802002E087
:10176000286840F480302860606890B1FFF76EFC14
:1017700006460AE0286840F480202860F0E700BFB1
:10178000FFF764FC801B642873D828688003F7D5B2
:101790000CE0FFF75BFC064605E000BFFFF756FCD8
:1017A000801B6428F0D828688003F7D420789A4EEC
:1017B00080074FF001094FF0000839D5686810F034
:1017C0000C0F07D06868C0F38100022809D168684F
:1017D000C00306D42868800714D52069012808D1E1
:1017E00010E02069B0B1C6F80090FFF72FFC074663
:1017F00005E00AE1FFF72AFCC01B0228C4D82868CC
:101800008007F7D52868616920F0F80040EAC10038
:1018100028600DE0C6F80080FFF718FC074604E0DA
:10182000FFF714FCC01B022823D828688007F7D4D0
:10183000207800072CD57948A169D9B1C0F800906B
:10184000FFF704FC074604E0FFF700FCC01B02287A
:101850000FD8686A8007F7D571484FF4FA510068CD
:10186000B0FBF1F0009000BF0098411E0091FAD249
:101870000EE080E0C0F80080FFF7E8FB074604E0D8
:10188000FFF7E4FBC01B022875D8686A8007F7D40D
:101890002078400760D5E8690027C00008D4E869CF
:1018A00040F08050E861E869012700F08050009026
:1018B0005C480168C90513D40168834641F480710E
:1018C0000160FFF7C3FB824606E000BFFFF7BEFBE7
:1018D000A0EB0A0064284ED8DBF80000C005F5D55F
:1018E000E06801280AD008B1052813D0286A20F042
:1018F00001002862286A20F0040002E0286A40F013
:1019000001002862E06841F2883B98B1FFF79EFB36
:1019100082460BE0286A40F004002862EEE700BF30
:10192000FFF794FBA0EB0A0159455AD8286A8007B3
:10193000F6D50CE0FFF78AFB824605E0FFF786FB51
:10194000A0EB0A0159454CD8286A8007F6D41FB18C
:10195000E86920F08050E861E06988B36968C1F304
:101960008101022944D00228C6F8608004D0FFF724
:101970006DFB044638E034E0FFF768FB074604E0FF
:10198000FFF764FBC01B02282BD828688001F7D41E
:10199000206AB0F5803F05D16868A16820F4003066
:1019A00008436860D4E908010843696821F47411A8
:1019B00008436860C6F86090FFF748FB044606E0FD
:1019C00025E000BFFFF742FB001B022809D828686A
:1019D0008001F7D51BE000BFFFF738FB001B022892
:1019E00002D90320BDE8F88F28688001F4D40EE006
:1019F0000128F7D06868226A00F48031914204D14E
:101A0000616A00F47010884201D00120EAE70020EA
:101A1000E8E7000000100240000042428004424219
:101A20001C000020007000407047704710B590F80F
:101A30003C20012A22D0012280F83C20CA688C6810
:101A400022F4407222434C6822F4806222430C68E4
:101A500022F4006222430C6922F4805222434C6932
:101A600022F400522243C969002322F480420A432F
:101A700001684A6480F83C30002010BD022010BD8F
:101A800070B590F83C20012A26D0012480F83C4013
:101A9000022280F83D2003685A689D6822F0700693
:101AA0000A6832435A600D4B02689A4208D0B2F17C
:101AB000804F05D00A4B9A4202D00A4B9A4204D179
:101AC000496825F080031943916080F83D4000216A
:101AD00080F83C10084670BD022070BD002C01400B
:101AE000000400400008004010B5040003D094F842
:101AF0003D0010B107E0012010BD002084F83C003B
:101B0000204600F01EF8022084F83D00211D2068C8
:101B100001F0F4FB012084F8460084F83E0084F8CC
:101B20003F0084F8400084F8410084F8420084F8C3
:101B3000430084F8440084F8450084F83D00002008
:101B400010BD704790F83D10012901D00120704769
:101B5000022180F83D100168CA6842F00102CA60A3
:101B600000680B49884208D0B0F1804F05D0094980
:101B7000884202D00849884204D1816801F00701F7
:101B8000062903D0016841F001010160002070477F
:101B9000002C014000040040000800402DE9F04105
:101BA0000D46040003D094F83D0018B108E0012070
:101BB000BDE8F081002084F83C00204600F040F8A9
:101BC000022084F83D002068816844F207029143B6
:101BD0008160211D206801F091FB22689068916965
:101BE000166A2B68AF69034340F20330814341EA30
:101BF0000721A868EF6908434FF6FC418843E9686C
:101C000040EA0720014328692F6A000140EA0730B3
:101C1000084369686D6926F0220646EA05152943DE
:101C200093602268906154F8460B0162012004F829
:101C30001F09E0752076E0762077A0750020B7E7D1
:101C400000B585B0002100910191029103910168D6
:101C50001A48B1F1804F1BD0194A914216D1C1697F
:101C600041F00401C161C16901F00401049181697D
:101C700041F0080181618069694600F00800049024
:101C8000C02000900F4800BFFFF7E6F805B000BD88
:101C9000C16941F00101C161C16901F00101049113
:101CA000816941F0040181618069694600F00400A6
:101CB0000490032000900448E6E700000010024072
:101CC00000080040000C01400008014070B590F889
:101CD0003E60044690F83F5090F8423090F8432020
:101CE000022021B104290ED0012E1BD114E0012EB7
:101CF00018D1012B16D184F83E0084F8420001224D
:101D00000021206820E0012D0CD1012A0AD184F89D
:101D10003F0084F8430014E0012D03D1012B01D1D1
:101D2000012A01D0012070BD84F83E0084F83F00F4
:101D300084F8420084F8430001220021206801F069
:101D400013FB01220421206801F00EFB20680168CA
:101D500041F001010160002070BD704770B504467C
:101D6000006801694FF00005C943890715D4C168AF
:101D7000C943890711D4E91E016101202077206839
:101D800080698007204602D0FFF7E7FF04E000F0FB
:101D9000BFF8204600F064F9257720680169C9433F
:101DA000490717D4C168C943490713D46FF0040128
:101DB0000161022020772068806910F4407F20466E
:101DC00002D0FFF7CAFF04E000F0A2F8204600F0BE
:101DD00047F9257720680169C943090716D4C16806
:101DE000C943090712D46FF008010161042020776C
:101DF0002068C0698007204602D0FFF7AEFF04E0EC
:101E000000F086F8204600F02BF92577206801695C
:101E1000C943C90617D4C168C943C90613D46FF0B2
:101E200010010161082020772068C06910F4407F0C
:101E3000204602D0FFF791FF04E000F069F8204649
:101E400000F00EF9257720680169C943C90708D158
:101E5000C168C943C90704D1891E0161204600F049
:101E60004FF920680169C943090609D4C168C9430B
:101E7000090605D46FF0800101612046FFF7D4FD0B
:101E800020680169C943490609D4C168C9434906A4
:101E900005D46FF040010161204600F03BF9206855
:101EA0000169C94389060BD4C168C943890607D4AF
:101EB0006FF0200101612046BDE87040FFF7B5BD1D
:101EC00070BD000000B585B0002100910191029124
:101ED000039100680B49884212D10B48816941F097
:101EE000040181618069694600F0040004904FF4A8
:101EF000106000900220019003900448FEF7ACFFB0
:101F000005B000BD002C0140001002400008014057
:101F1000704770B5044690F83C0000260D46012835
:101F20000FD0012084F83C006AB1042A1DD0082A91
:101F30002FD00C2A3FD00126002084F83C003046E8
:101F400070BD022070BD206801F01CFA2068816914
:101F500041F0080181612068816921F004018161FB
:101F6000206881692A69114311E0206801F032FA82
:101F70002068816941F4006181612068816921F4F0
:101F800080618161206881692A6941EA0221816159
:101F9000D2E7206801F04AFA2068C16941F00801DF
:101FA000C1612068C16921F00401C1612068C16973
:101FB0002A69114311E0206801F064FA2068C169C0
:101FC00041F40061C1612068C16921F48061C1618F
:101FD0002068C1692A6941EA0221C161ACE710B5F4
:101FE000040003D094F83D0010B107E0012010BDBB
:101FF000002084F83C00204600F01EF8022084F8FF
:102000003D00211D206801F079F9012084F8460087
:1020100084F83E0084F83F0084F8400084F84100D2
:1020200084F8420084F8430084F8440084F84500B2
:1020300084F83D00002010BD08B5006806498842BC
:1020400008D10648816941F400618161806900F42A
:102050000060009008BD0000002C0140001002400C
:102060007047000010B50446022249B104290ED081
:10207000082913D094F84100012816D0012010BD82
:1020800094F83E000128F9D184F83E200FE094F83E
:102090003F000128F2D184F83F2008E094F8400086
:1020A0000128EBD184F8402001E084F8412001228E
:1020B000206801F059F90F492068884203D1426C29
:1020C00042F4004242642068884208D0B0F1804F58
:1020D00005D00949884202D00849884204D1816864
:1020E00001F00701062903D0016841F001010160F8
:1020F000002010BD002C01400004004000080040FA
:1021000000680349884201D1FFF738B970470000E1
:10211000000400407047704770470000F8B5016840
:1021200004460868CA684B6910F00F0F4FF00005AD
:102130005AD003F0010602F49077374365D0C10707
:1021400005D0D10503D5616C41F0010161644107FF
:1021500005D5D90703D0616C41F0020161648107A4
:1021600005D5D90703D0616C41F004016164010712
:1021700007D502F02001314303D0616C41F0080122
:102180006164616C00293BD0800604D5900602D5BD
:10219000204601F0C8F920684069616CC0F38010E6
:1021A00001F00801014320462BD001F095F9206889
:1021B0004069400621D52068143050E8001F21F006
:1021C000400140E80012002AF5D1E06BA8B16D494A
:1021D0004163E06BFEF7F4FD002811D0E06B416B2A
:1021E00001B0BDE8F040084783060ED593060CD534
:1021F0002046BDE8F84001F096B92046FFF78CFF75
:10220000F8BDFFF789FF6564F8BD266B2023012E1A
:102210007CD1C6067AD5D60678D50868486800907D
:1022200048694FF00206400640D5E16B08684068F7
:102230000004000CE8D0A28D8242E5D9E0858869CF
:1022400020282DD020680C3050E8001F21F4807128
:1022500040E80012002AF5D12168143151E8000F3E
:1022600020F0010041E80002002AF5D12068143076
:1022700050E8001F21F0400140E80012002AF5D18B
:1022800084F84230256320680C3050E8001F21F0AC
:10229000100140E80012002AF5D1E06BFEF76CFD5A
:1022A0006663A08DE18D401A81B22AE0A08DE18D98
:1022B000401A81B2E08D0028A6D00029A4D022685F
:1022C0000C3252E8000F20F4907042E80007002F13
:1022D000F5D12068143050E8002F22F0010240E8C8
:1022E0000027002FF5D184F84230256320680C3098
:1022F00050E8002F22F0100240E80023002BF5D117
:1023000066632046FFF707FFF8BDFFE705062BD5FC
:10231000150629D594F841002128F5D1A068B0F51B
:10232000805F01D12069B0B1206A411C216221681F
:1023300000784860E08C401E0004000CE084E3D18B
:102340002068C16821F08001C1602068C16841F047
:102350004001C160D8E7206A0088C0F308004860E7
:10236000206A801C2062E5E74006CDD55006CBD51B
:10237000CA68204622F04002CA6084F8413000F06A
:10238000F9F8C1E7C934000870B5040004D094F826
:102390004100002510B106E0012070BD84F84050D6
:1023A000204600F023F8242084F841002068C1680A
:1023B00021F40051C160204601F016F9206801693E
:1023C00021F4904101612068416921F02A014161B5
:1023D0002068C16841F40051C1606564202084F820
:1023E000410084F842006563002070BDF0B585B0FF
:1023F000002400940194029403940368424F022045
:1024000042490322424D4602BB4225D18B6943F427
:1024100080438B618B6903F4804304938B6943F0A1
:1024200004038B618969039201F0040104910102A4
:10243000CDE9001069462846FEF70EFDCDE900649F
:10244000694628460294FEF707FD00220521252053
:10245000FFF72CF8252028E02E4FBB4229D1CB696D
:1024600043F40033CB61CB6903F4003304938B69ED
:1024700043F004038B618969039201F00401049124
:102480000421CDE9001069462846FEF7E5FC082046
:10249000CDE90004694628460294FEF7DDFC0022DF
:1024A00005212620FFF702F82620FEF7F1FF05B0F0
:1024B000F0BD194DAB42FAD1CB6943F48023CB6117
:1024C000CB6903F4802304938B6943F008038B6189
:1024D0008969124D01F00801CDE90321CDE90060C1
:1024E00069462846FEF7B8FCE814CDE900046946C1
:1024F00028460294FEF7B0FC002205212720FEF7B3
:10250000D5FF2720D1E7000000380140001002402D
:10251000000801400044004000480040000C014019
:1025200090F84230202B01D00220704721B11AB11F
:102530000023036301F0B4B80120704710B50068B0
:10254000084988420DD0084988420AD1012107482C
:1025500002F06AF8BDE81040012204490448FFF780
:10256000DFBF10BD00380140004400400C000020D7
:102570004C0200207047FEE701684A69D2435205C9
:102580000FD46FF480624A61002140F8301F20228E
:1025900042738173026942F00402026101730120F7
:1025A0007047002070470000F8B50446C06A1E4618
:1025B0000D461746082807D0012805D010F5803FA2
:1025C00002D0206B122804D12068016841F4807188
:1025D0000160134600224FF001112046009600F0E2
:1025E0005DF840B120680068C00502D54FF4007066
:1025F00020640320F8BD2069B0F5804F0ED006207E
:10260000216800EAD51040F0F000086133463A46F0
:102610000B49204600F08AF878B902E005F0FE0088
:1026200000E0E8B221680861054933463A46891F4F
:10263000204600F07BF80028DCD00120F8BD000027
:102640000800010070B516460D4604461EE02046FF
:10265000FFF792FF08B1012070BD681C16D0FEF78D
:10266000F5FC801BA84200D885B920684069C043AA
:1026700040070BD5002044F8300F20216173A07370
:10268000216941F0200121612073E4E7206840695D
:10269000C0434007DBD4002070BD00002DE9F047A7
:1026A000984617460D460446C1F30746DDF82090CC
:1026B0002AE000BFB8F1FF3F26D0FEF7C7FCA0EB31
:1026C0000901414502D8B8F1000F1DD12068012E43
:1026D00016D0806925EA00000004000C12D000200A
:1026E000B84211D1002044F8300F20216173A0734B
:1026F000216941F02001216120730120BDE8F087AC
:102700004069E7E70120EBE72068012E0AD08069E5
:1027100025EA00000004000C06D00020B842C9D011
:102720000020EBE74069F3E70120F7E72DE9F047E8
:10273000984616460D4604464FF000094FF0200A11
:10274000C1F3074723E020684069C043400515D422
:102750002068016841F40071016021686FF48060B5
:102760004861C4F8309084F83DA084F83E90216C14
:1027700041F00401216484F83C9021E0701C06D0F3
:10278000FEF764FCA0EB0800B04203D816B1012F9D
:102790001FD021E02068012F15D0806925EA0000B4
:1027A0000004000C18D000BF44F8309F84F80DA03E
:1027B00084F80E90216941F02001216184F80C9089
:1027C0000120BDE8F087406925EA00000004000C04
:1027D000EAD12068406901E02068806925EA0000AC
:1027E0000004000CAFD1ECE770B516460D46044668
:1027F0001EE02046FFF7C0FE08B1012070BD681C36
:1028000016D0FEF723FC801BA84200D885B92068AB
:102810004069C04300060BD5002044F8300F20214A
:102820006173A073216941F0200121612073E4E705
:1028300020684069C0430006DBD4002070BDD21A76
:102840004A4392FBF0F0184440B270471CB5174859
:102850000090002301220A2115A004F033FC174C3C
:10286000002210212060012004F002F86060144A68
:102870000021144801F086FEA06000241820CDE954
:1028800000042346322210A1124804F071FA1920E4
:10289000CDE90004002364220FA1124804F068FA75
:1028A00000F0BAF9BDE81C4000F0E6B98D4400081C
:1028B0006D6F746F725F74696D6572000000002047
:1028C000C0710008613200086C63645F74657374E2
:1028D00000000000194400086B65795F7461736B38
:1028E00000000000B14300082DE9F04385B000244A
:1028F00028480094019402940394816941F01001E6
:102900008161816901F010010491816941F0200128
:102910008161816901F020010491816941F0040124
:102920008161816901F004010491816941F008012C
:1029300081618069012200F00800DFF85C805503A6
:10294000049029464046FEF77CFBDFF850904FF29A
:102950001807002239464846FEF773FB0095022609
:1029600001250396CDE9015469464046FEF774FA05
:1029700003208DE8310069464846FEF76DFA00975E
:102980000396CDE9015469464846FEF765FA05B05D
:10299000BDE8F0830010024000100140000C01402F
:1029A0000D4810B50B4901600C49416000214FF4FE
:1029B00080428160C0E9031241618161C1610162AD
:1029C000FEF74AFB002803D0BDE81040FEF7AEB981
:1029D00010BD000000540040D8000020A086010077
:1029E00010B592B000240F941C2168461094FDF796
:1029F0003FFC202107A8FDF73BFC24482249C0E901
:102A0000001441F61F41C0E9024104614461846140
:102A1000FFF7E5FA08B1FEF789F90F940FA91B48F3
:102A20001094FFF72DF808B1FEF780F96020CDE98A
:102A30000004029403940494059400226946134808
:102A40000694FFF766FA08B1FEF770F90C226946A2
:102A50000E48FFF75EFA08B1FEF768F9079408948C
:102A600009944FF400500A94CDE90B4007A9074898
:102A70000E94FEF7DBFF08B1FEF758F90348FFF7A5
:102A800021FA12B010BD0000002C01402C010020E2
:102A900010B58CB024216846FDF7EAFB00241548E8
:102AA00009944FF080410A94C0E900144FF6FF7179
:102AB000C0E90241046184610120CDE90004CDE94F
:102AC0000204CDE90404CDE90604089069460948EA
:102AD000FFF764F808B1FEF729F9099409A9054838
:102AE0000A94FEF7CDFF002801D0FEF71FF90CB0C5
:102AF00010BD00007401002010B58CB02421684680
:102B0000FDF7B6FB00241548099413490A94C0E95F
:102B100000144FF6FF71C0E9024104618461012095
:102B2000CDE90004CDE90204CDE90404CDE90604B1
:102B3000089069460948FFF731F808B1FEF7F6F842
:102B4000099409A905480A94FEF79AFF002801D0C4
:102B5000FEF7ECF80CB010BD00080040BC010020EE
:102B60000C4810B50A4901604FF4E1314160002181
:102B700081600C22C160C0E904128161C161FFF76C
:102B800003FC002803D0BDE81040FEF7CFB810BD0D
:102B900000380140040200200E4810B50C490160C5
:102BA0004FF4E1314160002181600C22C160C0E935
:102BB00004128161C161FFF7E7FB08B1FEF7B6F8C7
:102BC000BDE81040012204490248FFF7A9BC0000FB
:102BD000004400404C0200200C0000200C4810B5BE
:102BE0000A4901604FF4E1314160002181600C220B
:102BF000C160C0E904128161C161FFF7C5FB002813
:102C000003D0BDE81040FEF791B810BD0048004069
:102C100094020020FEE7000008B5094802F080F9A0
:102C200000F044F8074800900346A0F1B4010C22DC
:102C30000020FDF711FFBDE80840FDF76BBE000066
:102C40001C230020642400200A4C08B508480025F5
:102C50002062E07A0128FCD1606A8047E572236A2D
:102C600000930C2200209968FDF7F6FEE572F0E76C
:102C7000642400209C0000201CB507491820CDE9E1
:102C800000010023802205A1074804F071F8012803
:102C900000D000201CBD0000C40000204D656E75F2
:102CA0005F5461736B000000492C0008A649A748D7
:102CB00000B501F1B402C0E9061200208860A4A0AA
:102CC000FDF722FEA04BA04A143302F1B401A3A0E9
:102CD000FDF702FE9C4B9C4A283302F1D001A3A0D1
:102CE000FDF7FAFD984B984A3C3302F1EC01A1A0A4
:102CF000FDF7F2FD944B944A503302F584719FA086
:102D0000FDF7EAFD904B904A643302F592719EA064
:102D1000FDF7E2FD8C4B8C4A643302F5A0719CA058
:102D2000FDF7DAFD884B884A643302F5AE719AA04C
:102D3000FDF7D2FD84499AA01431FDF7E5FD824BE1
:102D40009BA07833A3F1640202F5B271FDF7C4FDD4
:102D50007D4B9AA08C33A3F1780202F5C071FDF788
:102D6000BBFD794B97A0A033A3F18C0202F5CE7185
:102D7000FDF7B2FD744B96A003F1140202F5DC716D
:102D8000FDF7AAFD704995A07831FDF7BDFD6E4AAB
:102D90000023783202F54C7193A0FDF79DFD6A4A3D
:102DA0000023783202F5537192A0FDF795FD664A33
:102DB0000023783202F55A7190A0FDF78DFD624B29
:102DC00083A0143303F1640202F56171FDF784FD01
:102DD0005D498CA08C31FDF797FD5B4A00238C3256
:102DE00002F5637189A0FDF777FD574A00238C3205
:102DF00002F56A7188A0FDF76FFD534A00238C32FB
:102E000002F5717188A0FDF767FD4F4B70A0143378
:102E100003F1780202F57871FDF75EFD4A4984A05E
:102E20002831FDF771FD484A0023283202F5E07190
:102E300081A0FDF751FD444A0023283202F5EE71CE
:102E40007DA0FDF749FD404A0023283202F5FC71C0
:102E500079A0FDF741FD3C4B5DA003F1280202F58E
:102E60000571FDF739FD384977A03C31FDF74CFD80
:102E7000354A00233C3202F507716FA0FDF72CFDA7
:102E8000314A00233C3202F50E716BA0FDF724FDA0
:102E90002D4A00233C3202F5157167A0FDF71CFD99
:102EA000294B4BA003F13C0202F51C71FDF714FD08
:102EB000254967A05031FDF727FD234A00235032F2
:102EC00002F51E7165A0FDF707FD1F4A0023503271
:102ED00002F5257165A0FDF7FFFC1B4A0023503267
:102EE00002F52C7165A0FDF7F7FC174B38A003F134
:102EF000500202F53371FDF7EFFC134963A0643112
:102F0000FDF702FD104A0023643202F5357161A01D
:102F1000FDF7E2FC0C4A0023643202F53C7160A02C
:102F2000FDF7DAFC084A0023643202F543715FA022
:102F3000FDF7D2FC044B26A003F1640202F54A71AE
:102F40005DF804EBFDF7C8BCB02300209C00002016
:102F50005B4D61696E506167655D0000202D4170B9
:102F6000706C69636174696F6E000000202D4669A2
:102F70006C657300202D496D61676500202D5265D9
:102F800073657420416C6C00202D41626F75740074
:102F9000202D746573743100202D746573743200B4
:102FA0005B4170706C69636174696F6E5D000000F5
:102FB000202D53797374656D00000000202D47614A
:102FC0006D657300202D416C7469756D0000000003
:102FD000202D52657475726E000000005B5379738A
:102FE00074656D5D00000000202D4D505536303564
:102FF00030000000202D537065656400202D4D6F5A
:10300000646500005B47616D65735D00202D446958
:103010006E6F2047616D6500202D416972506C61B3
:103020006E652047616D6500202D4D79436172000A
:103030005B46696C65735D00202D4E65772050728C
:103040006F6A6563740000005B496D6167655D00D0
:103050005B526573657420416C6C5D00202D526578
:10306000736574204E616D6500000000202D52656F
:103070007365742054696D6500000000202D526551
:103080007365742053657474696E67005B41626F89
:1030900075745D00202D476974687562000000003A
:1030A000202D42696C6962696C690000202D5265AF
:1030B00061644D4500000000FEE700001CB52027BC
:1030C00078230C2204211C480097FDF765FC1B4C5B
:1030D0004FF0030904F10A080626607888F800001A
:1030E00045467F230C22002113480097FDF784FCFE
:1030F00011482A7812A10C3800F01AFB0E4B192245
:103100000C3B08210C4802F075F9CDE900696078A4
:103110004D4600EB40031E220821074802F075F8D7
:10312000CDE900655A231E220821034802F0E0F889
:10313000014802F085F9D0E71C2300209C00002004
:103140005370656564203D202564000008B520208B
:1031500000900CA410A57D230C2202211348FDF73A
:103160001BFC234619220821104802F043F92B4684
:10317000252208210D4802F03DF90C4802F060F9C3
:10318000EFE7000068747470733A2F2F67697468F2
:1031900075622E636F6D2F004A46656E672D5A2F3C
:1031A0004D595F4755492E67697400001C23002064
:1031B00090B03E2000906423022201211A48FDF7BE
:1031C000EBFB1A4CE068FDF766FA02460B4618A1C5
:1031D00001A800F0ADFA2069FDF75DFA02460B4642
:1031E00017A106A800F0A4FA6069FDF754FA024698
:1031F0000B4617A10BA800F09BFA01AB0E220C2185
:10320000094802F0F7F806AB24220C21064802F028
:10321000F1F80BAB3A220C21034802F0EBF802481C
:1032200002F00EF9CEE700001C2300209C000020D5
:103230005069746368203D20252E3266000000002E
:10324000526F6C6C20203D20252E3266000000005D
:103250005961772020203D20252E32660000000095
:10326000002003F0A9F9012001F036F9FBE7000086
:1032700010B5502080F31188BFF34F8FBFF36F8FCD
:1032800003F0E2FD18B104494FF0805008600020BF
:1032900080F3118810BD000004ED00E010B590B07F
:1032A00028216846FCF7E4FF14210AA8FCF7E0FF98
:1032B0000220009001200490102000240590079423
:1032C0006846FEF721FA08B172B6FEE70F20CDE995
:1032D0000A040C940D9400210AA80E94FEF718F924
:1032E000002801D072B6FEE710B010BD7047000094
:1032F0000148FEF733BD0000DC020020F0B5026893
:10330000164B174C174D4FF08047984205D0B842E6
:1033100003D0A04201D0A84203D122F070064A682F
:103320003243984205D0B84203D0A04201D0A8420F
:1033300003D122F44074CA6822434C6922F080020F
:10334000224302608A68C2620A688262984201D19E
:103350000969016301214161F0BD0000002C0140B9
:10336000000400400008004010B501F01F030121D7
:10337000046A99408C430462016A9A4011430162D5
:1033800010BD000030B5036A026A22F00102026239
:103390004268846924F073050C682C4323F002050D
:1033A0008B682B430A4DA8420BD123F00805CB684C
:1033B00022F440722B434D6923F0040315438A69BC
:1033C0002A434260846149684163036230BD000062
:1033D000002C014030B5026A036A23F01003036237
:1033E000436884690D6824F4E64444EA05248D6842
:1033F00022F0200242EA05120B4DA8420ED1CD6800
:1034000022F0800242EA05124D6923F4406343EA48
:1034100085038D6922F0400243EA8503436084619D
:1034200049688163026230BD002C014030B5036AF7
:10343000026A22F4807202624268C46923F4007353
:1034400024F073050C682C438D6843EA05230C4D6A
:10345000A8420ED1CD6823F4006343EA05234D69E9
:1034600022F4405242EA05128D6923F4806342EA55
:1034700005124260C4614968C163036230BD000047
:10348000002C014030B5046A026A22F480520262C4
:103490004268C3690D6823F4E64343EA05238D6857
:1034A00024F4005444EA0534064DA84204D14D6981
:1034B00022F4804242EA85124260C3614968016495
:1034C000046230BD002C014010B5406A0021C18566
:1034D000C184FEF721FE10BD01680C3151E8002FB8
:1034E00022F4907241E80023002BF5D101681431D9
:1034F00051E8002F22F0010241E80023002BF5D112
:10350000016B012909D101680C3151E8002F22F02B
:10351000100241E80023002BF5D1202180F8421051
:1035200000210163704708B590F84210222901D0AC
:10353000022008BD82684FF480539A4201D101698C
:1035400021B1816A9A421BD04AB10AE00268816ABD
:103550005268C2F308020A80816A891C08E0026985
:1035600072B10268526802F07F020A70816A491CD7
:103570008162C18D491E0904090CC18503D01BE07D
:1035800002685268F1E70168CA6822F02002CA6046
:103590000168CA6822F48072CA6001684A6922F030
:1035A00001024A61202180F8421000214163026B30
:1035B000012A03D0FEF7C2FF002008BD01630168A5
:1035C0000C3151E8002F22F0100241E80023002BBB
:1035D000F5D101680A68D20602D50A6849680091E7
:1035E000818DFEF798FDE7E770B504460068016934
:1035F000E26821F44051114301612169A068084348
:10360000616908432168CA6841F20C639A43024326
:10361000CA6020684169A26921F440711143416187
:103620001E492068884202D1FEF738F801E0FEF713
:1036300025F800EBC00101EB0012606864218000F6
:10364000B2FBF0F3B3FBF1F36FF018067343B2FB78
:10365000F0F5B2FBF0F605EB8305322303EB05151D
:10366000B5FBF1F5B6FBF1F605F0F00505EB061537
:10367000B2FBF0F6B2FBF0F0B0FBF1F06FF0180225
:10368000504306EB800003EB0010B0FBF1F0216823
:1036900000F00F002844886070BD00000038014031
:1036A00081628285C28500214164222180F8421016
:1036B000016921B10168CA6842F48072CA60016878
:1036C0004A6942F001024A610068C16841F0200184
:1036D000C1600020704700000148FEF71FBD0000D8
:1036E000040200200148FEF719BD00004C02002032
:1036F0000148FEF713BD000094020020FEE7000021
:103700000248C17881F00101C17070479C0000201F
:103710000FB4054B10B503A9044A029800F0EEF867
:1037200010BC5DF814FB000099430008D400002091
:103730000FB4084B10B504A902AA039800F0DEF8F4
:10374000044602A9002000F070FC204610BC5DF881
:1037500014FB00002B4000080907090E002804DBB9
:1037600000F1E02080F80014704700F00F0000F135
:10377000E02080F8141D704702E008C8121F08C13D
:10378000002AFAD170477047002001E001C1121FE2
:10379000002AFBD1704700002DE9FF5FDDE9022020
:1037A000010DDDF838B0024318D044F61050A1F2F4
:1037B000FF3141430D140F98012820D0A5EB0B00D9
:1037C000401C5FEA000A4FF00004474EDFF81C91EE
:1037D000A046504616D5CAF1000728E00F980124EC
:1037E00043A2012808D0002100980F9BC0E90021C6
:1037F000C0E90243BDE8FF9F6FEA0B01F4E7CBF19C
:103800000000DEE7074612E0F80707D022463346FD
:1038100040464946FCF755FE8046894622463346D7
:1038200010461946FCF74DFE04460E467F10002F49
:10383000EAD1DDE90201BAF1000F42464B4602DA55
:10384000FCF73FFE01E0FCF7AEFE04460E46002208
:10385000284BFDF717F803D84FF0FF30014607E07B
:103860000022254B20463146FCF784FDFCF7F1FF92
:10387000102409E0002C0ADB0A220023FCF79EFC3E
:10388000019B30321A55641E50EA0102F2D1641CC9
:10389000019AC4F1110314440F9A012A03D00122A2
:1038A00008430DD10AE0084304D000204FF0110B6B
:1038B0000F9080E7A3EB0B056D1E0DE05B4504DD6B
:1038C0004FF0000205F1010504E003DA4FF00002B9
:1038D000A5F10105002AECD000980F99C0E902314A
:1038E000C0E9004586E70000000024400000F03FEA
:1038F000300000000000F0430000E03F2DE9FF4FE2
:1039000095B09B468946064600250FE2252877D1CB
:1039100000242746F84A0121059400E0044316F8E4
:10392000013F203B01FA03F01042F7D130782A28FA
:1039300011D06FF02F033078A0F13002092A16D889
:10394000059A44F0020402EB820203EB42021044A7
:10395000761C0590EFE759F8042B0592002A03DA4C
:10396000504244F40054059044F00204761C307830
:103970002E2816D116F8010F44F004042A280DD081
:103980006FF02F023078A0F13003092B09D807EB34
:10399000870302EB4303C718761CF3E759F8047B4F
:1039A000761C30786C280FD006DC4C2817D068289D
:1039B0000DD06A2814D104E0742810D07A280FD1D1
:1039C0000DE044F400140AE044F4801401E044F4EF
:1039D00040147278824202D104F58014761C761C61
:1039E000307866280BD013DC582877D009DC002803
:1039F00075D04528F6D04628F4D047281AD19DE145
:103A000018E0632835D0642879D0652812D195E173
:103A1000702873D008DC6728F1D069286FD06E2831
:103A20000DD06F2806D1B5E073282CD0752875D03D
:103A3000782874D05A46179990476D1C75E1C4F3E5
:103A40000250022809D003280DD0D9F8001004280C
:103A50000DD00D6009F1040967E1D9F80010EA17EB
:103A6000C1E90052F6E7D9F800100D80F2E70D70B9
:103A7000F0E719F8041B8DF8001000208DF8010004
:103A8000EA46012003E059F804AB4FF0FF3061072C
:103A90004FF0000102D40DE008F101018846B9425F
:103AA0000FDA8045F8DB1AF808100029F4D108E095
:103AB00008F1010188468142FADB1AF80810002952
:103AC000F6D105985B46A0EB080721463846179AC1
:103AD00000F094FA284400EB080507E04DE029E1E6
:103AE0000DE01AF8010B5A4617999047B8F10108F2
:103AF000F7D25B4621463846179A13E142E00A2284
:103B00000092C4F302524FF0000A022A08D059F87A
:103B100004CB032A4FEAEC710AD00DE029E02AE039
:103B200009F1070121F00702F2E802C1914609E01C
:103B30000FFA8CFC4FEAEC71042A03D14FFA8CFC8B
:103B40004FEAEC71002907DA0A460021DCF1000C8B
:103B500061EB02012D2202E0220504D52B228DF813
:103B60000420012203E0E20701D02022F7E790467B
:103B700059E00A2102E010220DE010214FF0000A66
:103B800000910BE010224FF0000A44F004040827D3
:103B9000009203E008224FF0000A0092C4F30252A0
:103BA000022A05D059F804CB0021032A08D009E0E5
:103BB00009F1070121F00702F2E802C1914605E090
:103BC0001FFA8CFC042A01D10CF0FF0C4FF0000806
:103BD000220728D5702806D0009B83F0100353EAF3
:103BE0000A0305D00EE040228DF80420012208E0EF
:103BF0005CEA010206D030228DF804208DF8050021
:103C000002229046009B83F0080353EA0A030AD17C
:103C10005CEA010201D1620705D530228DF804204B
:103C20004FF001087F1E582804D034A003900EA83E
:103C300002900DE036A0F9E753466046009AFCF783
:103C4000BDFA84460398825C0298401E029002707E
:103C50005CEA0100F0D1029806A9081A00F1200AD6
:103C6000600702D524F4803400E00127574502DDC7
:103C7000A7EB0A0000E0002000EB0A010090059885
:103C80004144401A0590E00306D45B462146179A4A
:103C9000059800F0B3F90544002706E001A85A464C
:103CA000C05D179990476D1C7F1C4745F6DBE0030C
:103CB0000CD55B462146179A059800F09FF90544FC
:103CC00004E030205A46179990476D1C0099481E11
:103CD00000900029F5DC08E0029802995A46007825
:103CE000491C0291179990476D1CBAF10001AAF185
:103CF000010AF1DC65E100000928010030313233AE
:103D00003435363738396162636465660000000017
:103D10003031323334353637383941424344454601
:103D20000000000000F058F90544761C30780028A7
:103D30007FF4ECAD19B02846BDE8F08F620700D4DF
:103D4000062709F1070222F0070CFCE80223E146EE
:103D500003F000485FEA080C02D00FF2702C0DE06F
:103D60005FEA045C02D50FF2682C07E05FEAC47CCE
:103D700002D00FF2602C01E0AFF2700C4FF0FF3870
:103D800023F00043CDF850C065280CD006DC452850
:103D900009D046281DD047283DD13DE0662818D0DF
:103DA00067287ED138E00021112F01DB112000E0CF
:103DB000781CCDE9000106A90EA8FFF7EDFCDDE9AE
:103DC0000F010E9A03910021009207F1010A04915C
:103DD0004DE04FF000400097CDE9011006A90EA874
:103DE000FFF7DAFCDDE90F0203920E9B1199002226
:103DF000DDF80CA00093049211B9791C00EB010AC4
:103E0000B7EB0A0004D4C0F1FF3007F1010A0490B7
:103E1000AAEB0700019044E0012F00DA01270021FE
:103E2000112F01DD112000E03846CDE9000106A97F
:103E30000EA8FFF7B1FCDDE90F010E9A03910021F6
:103E400004910092BA4621070CD40399514500DA37
:103E50008A46BAF1010F05DD009AAAF10101515C11
:103E6000302908D0B84202DA10F1040F06DA012135
:103E7000CDE9011015E0AAF10101E9E7002805DC10
:103E8000049901440491AAEB000102E0411C514550
:103E900000DD8A460499401A401C01904FF0004012
:103EA0000290200704D40198504501DBCDF804802E
:103EB00000208DF84F0002980DF14F07B0F1004F30
:103EC00025D02B200E9002984FF0020800280CDA23
:103ED000404202902D200E9007E00A210298FCF744
:103EE000EDFB3031029007F8011DB8F10001A8F197
:103EF0000108F2DC02980028EFD1791E0E980870B4
:103F0000307800F0200040F0450007F8020D12A8BC
:103F1000C01B00F107081498007800B1012000EBE5
:103F20000A01019801EBE07105984144401A401ED6
:103F30000590E00306D45B462146179A059800F0E9
:103F40005DF805441498007818B15A4617999047BF
:103F50006D1CE00324D55B462146179A059800F0B6
:103F60004DF805441CE00498002807DBDDE9030157
:103F7000884203DD0098405C179901E017993020D2
:103F80005A469047049805F10105401C0490019899
:103F9000401E019004D12E205A46179990476D1C5F
:103FA000BAF10001AAF1010ADDDC05E017F8010B06
:103FB0005A46179990476D1CB8F10001A8F1010805
:103FC000F4DC5B462146179A0598ABE62D0000000D
:103FD0002B000000200000002DE9F04104460025E0
:103FE0001E461746880404D405E039462020B04711
:103FF0006D1C641EF9D52846BDE8F0812DE9F0411D
:10400000044600251E469046C80301D5302700E02F
:104010002027880404D505E041463846B0476D1C8A
:10402000641EF9D52846BDE8F0810A68531C0B6070
:104030001070704780780009072814D2DFE800F07C
:104040000406080A0C0E100007A00AE00BA008E006
:104050000FA006E014A004E019A002E01EA000E0FA
:1040600024A0FFF755BB70474B45593120505245AE
:1040700053535F444F574E21200A00004B4559319E
:104080002050524553535F555021200A0000000034
:104090004B4559312050524553535F52455045418D
:1040A0005421200A000000004B4559312053494E4D
:1040B000474C455F434C49434B21200A0000000018
:1040C0004B45593120444F55424C455F434C494381
:1040D0004B21200A000000004B455931204C4F4E27
:1040E000475F50524553535F535441525421200A65
:1040F000000000004B455931204C4F4E475F505255
:104100004553535F484F4C4421200A0080780009F2
:1041100008D0012808D0022808D0032808D105A01B
:10412000FFF7F6BA09A0FBE70DA0F9E711A0F7E742
:10413000704700004B4559312053494E474C455F6D
:10414000434C49434B21200A000000004B455931A4
:104150002050524553535F444F574E21200A0000D0
:104160004B4559312050524553535F555021200A39
:10417000000000004B4559312050524553535F52C7
:10418000455045415421200A0000000070B5044606
:10419000406880470146E078420702D02288521CDE
:1041A0002280B1EBD01F0CD04FF0005202EBB010C8
:1041B0004FEAB060C0F3C202E070032A04D361F397
:1041C000C71020F03800E070C0B200F007010025F1
:1041D00006291ED2DFE801F0031E407A1D91C0F3CC
:1041E0008011B1EBD01FA07820F0F0000FD1A070AB
:1041F000A16809B1204688472580A07820F00F00EB
:10420000401CA070E07820F00700401C11E08030D6
:10421000A07070BDC0F38011B1EBD01F0BD0A0789F
:1042200020F0F0001030A070E168A1B3204688476C
:104230005DE0E07070BD20886428FBD9A07820F094
:10424000F0005030A070E16909B120468847E0785D
:1042500020F00700401DECE7C0F38011B1EBD01F48
:104260001AD1A07820F0F000A070A16809B1204612
:104270008847A0784FF0805101EB30104FEA307042
:10428000A070216909B1204688472580E07820F098
:104290000700C01CCDE72AE020882828CAD9A078CA
:1042A00000F00F01012902D0022906D03AE020F0E7
:1042B000F0003030A070616904E020F0F000403080
:1042C000A070A16971B3204688472BE0C0F380112C
:1042D000B1EBD01FAED0A07820F0F0001030A0706D
:1042E000E16809B120468847208828281AD225800D
:1042F000E07820F00700801C9BE7C0F38011B1EB51
:10430000D01FA07820F0F00008D16030A070216AA2
:1043100000298FD02046BDE8704008471030A070BB
:10432000E168CFE7E07820F0070082E770B50D463E
:10433000164604462821FBF79BFFA07820F0F000EA
:104340008030A0706560A8470146E07861F3C7102F
:1043500066F38610E07070BD074A11680B4605E0F1
:10436000814202D14FF0FF307047496A0029F7D1EE
:104370004362106000207047C8000020054810B557
:10438000046803E02046FFF701FF646A002CF9D1BE
:1043900010BD0000C800002004490A685206FCD580
:1043A000024AC1B2121D1160704700000044004073
:1043B00096B000220F496846FFF7B8FF00220E4969
:1043C0000AA8FFF7B3FF0D4805900D480F90684607
:1043D000FFF7C2FF0AA8FFF7BFFF0AA0FFF798F98F
:1043E000FFF7CCFF02F02AFD1490052114A802F07B
:1043F0009DF8F5E7094F0008154F00083540000803
:104400000D4100084B4559312050524553535F44EC
:104410004F574E21200A000003A0FFF779F96420CE
:1044200000F05AF8FBE7000068656C6C6F776F72FC
:104430006C640D0A00000000FCF7A8FFFEF72EFFD9
:10444000FEF752FAFEF7ACFAFEF78AFBFEF7A4FB82
:10445000FEF7C4FBFCF74EFC00F008F800F056F83D
:10446000FEF7F4F900F06EF8FEE7000010B5FEF775
:10447000B7FA00210448FDF7F5FDBDE810400C2116
:104480000148FDF7EFBD00002C01002000B585B00C
:10449000002004900D48FCF74BFC02900C48FCF700
:1044A00047FC03900948FCF755FC80F00040009061
:1044B0000748FCF74FFC01900648022304AA69460E
:1044C000406802F021FB05B000BD0000740100202F
:1044D000BC0100200000002010B5EFF3058149B9B0
:1044E000EFF3108131B908490968022905D1EFF3CA
:1044F000118111B16FF0050403E0002408B101F04F
:10450000EFFF204610BD000070000020EFF3058093
:1045100058B9EFF3108040B909490868022801D062
:1045200030B109E0EFF3118030B16FF00500704752
:1045300001200860002070474FF0FF3070470000F6
:104540007000002010B5EFF3058060B9EFF3108024
:1045500048B90B490868022802D0012806D00BE0B0
:10456000EFF3118040B16FF0050010BD022008602C
:1045700002F0ACF8002010BD4FF0FF3010BD00007D
:1045800070000020F0B585B00B464FF00004EFF34B
:1045900005810394A1BBEFF3108189BB2149096810
:1045A000022902D1EFF3118151BB48B380261821B3
:1045B0008DF8104004AD42B3176807B13D469769C6
:1045C0001FB139467F1E382F02D21779FF0702D05C
:1045D000002005B0F0BD576907B1BE08D2F808C089
:1045E000BCF1000F0DD0D4685C2C18D312693AB11D
:1045F00037B18DE806103246294602F0E6FB0390FB
:104600000DE0D7685FB912694AB903AACDE9001273
:10461000B2B2294602F0ACFB012800D00394039803
:10462000D7E70000700000202DE9F041DFF84C8052
:10463000054640460C46B8F80610C38800680A19BB
:10464000D8F800701844802A0AD9C1F180018EB2CE
:1046500032462946FBF7F3FDA21BA919384601E0B3
:1046600022462946FBF7EBFD98F80610214401F09D
:104670007F01A8F80610BDE8F081000004220020A8
:104680002DE9F041134C0F46054666692068001D70
:1046900001F0F5FD681C07D137B12168BDE8F04194
:1046A0000D48091D01F03BBE20683544B542456008
:1046B000216805D2A068BDE8F041091D01F017BED0
:1046C0006068091D01F013FE206B854200D225634E
:1046D000BDE8F08120000020140800202DE9F04101
:1046E000054601F029FE2D4C2069401C2061206800
:1046F0002B4F10B1E06930B32BE025602069012811
:1047000027D1002606EB860007EB800001F0E1FDD3
:10471000761C382EF6D3234801F0DBFD21481430F7
:1047200001F0D7FD1F48283001F0D3FD1D483C3073
:1047300001F0CFFD1B48503001F0CBFD19486060FF
:104740001430A06005E02068E96AC06A884200D899
:104750002560E06A401CE0626864E86AA1698842FA
:1047600000D9A06100EB800007EB8000291D01F05B
:10477000D6FD01F001FEE06900280CD02068E96A4E
:10478000C06A884207D208494FF080500860BFF3E2
:104790004F8FBFF36F8FBDE8F08100002000002035
:1047A00064030020C407002004ED00E038B501F0E8
:1047B000C3FD104CA068C8B90F4801F08AFD0E482F
:1047C000143001F086FD0C482060143060600A4B04
:1047D00000202833009003F1500210210A2002F03B
:1047E0006BF8A06010B105A101F044FEBDE83840AF
:1047F00001F0C2BD5C00002028080020546D7251F9
:104800000000000030B4026C0B46002A0BD0C168D7
:104810001144C1604468A14201D30168C16030BC49
:104820001846FBF70CBD30BC70472DE9F041856B95
:10483000174604460026026C82B1C7B1E068FBF758
:10484000FEFCE168206C091AE1602268914202D204
:104850006168081AE060022F16D017E02068A8B936
:10486000606802F055FB0646002060600EE0A0681C
:10487000FBF7E5FC216CA0680844A06061688842F1
:1048800004D32068A06001E005B16D1E6D1CA56316
:104890003046BDE8F08110B5044690F8590058B193
:1048A00001280CD002280FD0502080F31188BFF3CC
:1048B0004F8FBFF36F8FFEE7206B01F071FD204635
:1048C000BDE8104001F06CBD10BD000010484FF471
:1048D0009051420706D0C01D0D4920F00700411A33
:1048E000C1F590510B4A00230144C2E90003083985
:1048F000103A21F0070111604B600B600B1AC0E900
:10490000001393604FF000405360D0607047000088
:10491000F80F002084000020154E164CA6F29C478C
:104920004FF08058DFF8509012E000BF01F004FD16
:10493000F068C568281D01F0A2FC2069401E2061B6
:10494000E068401EE06001F017FD2846FFF7A3FF76
:10495000E0680028EAD13868012805D9C9F8008044
:10496000BFF34F8FBFF36F8F01F0B2FCF0E7000091
:10497000000800202000002004ED00E070B51D4676
:10498000049C51B1C4F80020C4E90F010121204664
:1049900001F0C6FF84F84C5070BD2460F4E72DE9A7
:1049A000F0470E46DDE90984174682469100994694
:1049B000089DA522206BFBF754FC6FF00301206BD0
:1049C00001EB8701084420F00707780707D0502043
:1049D00080F31188BFF34F8FBFF36F8FFEE722186C
:1049E000315C82F83410315C11B1401C1028F6D3D0
:1049F000002684F84360382D00D33725E562C4E9EA
:104A00001356201D01F070FC04F1180001F06CFC3D
:104A10002461C5F138006462A061666584F858605D
:104A20004A465146384600F05DFA2060B8F1000F62
:104A300001D0C8F80040BDE8F0872DE9F0471E46D8
:104A4000DDE9089417460D0080460ED0002C14D0E6
:104A5000FFF7ACFEC4F80080C4E90657C4E9086952
:104A6000201DBDE8F04701F03FBC502080F31188C5
:104A7000BFF34F8FBFF36F8FFEE7BDE8F0870000F5
:104A800030B5114900E011460A688242FBD34B68F9
:104A90005C18844203D14068184448600846436863
:104AA0001C18944209D1084C103C2468A24209D039
:104AB00052681A4442600A6812680260814200D05B
:104AC000086030BD0460F9E78400002070B5002460
:104AD00041600B4D0061914206D8D11A8269914222
:104AE00006D2011D686807E09A4203D2994201D3B9
:104AF000012403E0011D286801F0F9FB204670BD88
:104B00005C00002010B5044601F016FCA06B28B133
:104B10005FF0000401F030FC204610BD0124F9E7ED
:104B200030B589B0304D55E00498002806DADDE94B
:104B30000601059A9047049800284BDB069C6069A3
:104B400010B1201D01F09BFB02A800F0B9F802464D
:104B500004980A283ED2DFE800F00505053D263717
:104B600005053D260598A169034601442046FFF747
:104B7000ADFF00B3616A20468847E069012829D16A
:104B8000002000900598A16900234218194620468C
:104B900002F0E2FA78B9502080F31188BFF34F8F0A
:104BA000BFF36F8FFEE70598A06128B18118134607
:104BB0002046FFF78BFF0DE0502080F31188BFF3F4
:104BC0004F8FBFF36F8FFEE794F82C0010B920468B
:104BD00001F0E6FB002204A9A86801F0F3FF002819
:104BE000A2D109B030BD00005C0000202DE9FC41DD
:104BF0000F46054601F0AEFD01A800F061F804463D
:104C0000019818B102F0FCF9BDE8FC81224EAFB169
:104C100070680068A8B30027291B3A46B06801F005
:104C20003DFC02F0EDF90028EED11C494FF0805018
:104C30000860BFF34F8FBFF36F8FE5E7A542EBD856
:104C400002F0DEF930682746C068C468201D01F014
:104C500016FBE069012810D1A0692B4641193A469C
:104C60002046FFF733FF40B1002003460146009085
:104C70002A46204602F070FA20B1616A2046884731
:104C8000C2E707E0502080F31188BFF34F8FBFF3D6
:104C90006F8FFEE70127BFE75C00002004ED00E016
:104CA00006484168096829B14168C968C968496806
:104CB000016370474FF0FF31FAE700002000002049
:104CC00070B5054602F0BAF8064E044630698442D3
:104CD00003D200F009F8012000E0002028602046FF
:104CE000346170BD5C000020F8B5194D1FE0C0684C
:104CF000C4680668201D01F0C2FA616A2046884730
:104D0000E069012813D1A0693044B04206D924617A
:104D10006060211D286801F0EAFA08E000200346DF
:104D2000014600903246204602F016FA38B1286853
:104D300001680029DBD16968C5E90010F8BD502081
:104D400080F31188BFF34F8FBFF36F8FFEE7000032
:104D50005C00002008484068401C4FF0500080F381
:104D6000118804D0BFF34F8FBFF36F8FFEE7BFF3FF
:104D70004F8FBFF36F8FFEE78C000020074C206839
:104D8000016841B1C0680021D0F80000FFF72EFF94
:104D9000FFF7C6FEF3E701210020F7E75C000020E3
:104DA0002DE9F041044601F0C7FA94F9455004F1A9
:104DB000240609E0606A48B1304602F0E9F808B11B
:104DC00001F04AFC6D1E6DB2002DF3DC4FF0FF3692
:104DD00084F8456001F0D0FA01F0AEFA94F944503D
:104DE00004F1100709E0206948B1384602F0D0F814
:104DF00008B101F031FC6D1E6DB2002DF3DC84F8BA
:104E00004460BDE8F04101F0B7BA00002DE9F0417F
:104E10000546002701F09EFC314E306808B9FFF7C7
:104E200055FDF06805424BD1C5B3083568070ED073
:104E300005F00700C0F108000544680707D05020BE
:104E400080F31188BFF34F8FBFF36F8FFEE72DB351
:104E50007068854234D82248103001460C6801E061
:104E600020460C466168A94202D221680029F7D188
:104E700031688C4224D00768216801606068083777
:104E8000411B10290FD96019420708D0502080F328
:104E90001188BFF34F8FBFF36F8FFEE710E04160C3
:104EA0006560FFF7EDFD61687068401A7060B26878
:104EB000904200D2B060F06801430020C4E90001D4
:104EC00002F09EF8780707D0502080F31188BFF3D6
:104ED0004F8FBFF36F8FFEE73846BDE8F0810000CB
:104EE0007400002010B5031F4FF080741C601B1F5E
:104EF00021F001011960191F024B0B601439403871
:104F00000A6010BD554D000801210148FCF794B816
:104F1000000C014002210148FCF78EB8000C014052
:104F200010B50446084B094A094900F0E3FA204647
:104F300000F05BFF0021204600F067FF2046BDE83F
:104F4000104000F007B80000FD610008AD5E0008E9
:104F5000707D000801680A7C90F83810406B51435E
:104F6000C900FBF785B92DE9F8438146089C1E4628
:104F7000101980B20090881983B2154688464846B9
:104F800000F046FA00280ED00027002C0BD0334644
:104F90002A4641464846009700F0CAF86D1C641E38
:104FA000ADB2A4B2F1E7BDE8F8832DE9F8431C46A1
:104FB00080461019401C80B200900819401C83B232
:104FC0001546101B82B20E46081B81B2089F404650
:104FD00000F01EFA002806D023462A4631464046F5
:104FE000009700F03DFBBDE8F8832DE9F8431C462F
:104FF00080461019401C80B200900819401C83B2F2
:105000001546101B82B20E46081B81B2089F40460F
:1050100000F0FEF9002806D023462A4631464046D5
:10502000009700F0AFFBBDE8F8832DE9F84F834609
:105030000A9E9A46901980B201EB0A040090154628
:105040000F46A3B2584600F0E3F900282FD04FF0E6
:10505000000953462A4639465846CDF8009000F0DC
:1050600067F8022E23D3B61E360405F10105360C6F
:10507000ADB214D04FF0010833462A46394658469F
:10508000CDF8008000F054F8641EA1B233462A46E1
:105090005846CDF8008000F04BF8A81985B2534669
:1050A0002A4639465846CDF8009000F041F8BDE850
:1050B000F88F2DE9F041044690F870001F46154620
:1050C0000E4630B1012809D002280CD0032815D192
:1050D0000FE0E16D20468847284408E0E16D204656
:1050E0008847301A09E0E16D20468847281A85B2C2
:1050F00004E0E16D20468847304486B22846A4F893
:105100006460A4F8660039460025204600F016FDCC
:10511000010003D0204600F041FC85B22846BDE8DE
:10512000F08138B50024009400F002F838BD00008A
:105130003FB581B0044690F88C00089900283AD019
:10514000BDF81000002836D0012811D9022902D05C
:10515000032907D00CE0BDF80820101A401CADF858
:10516000080005E0BDF80C20101A401CADF80C003A
:1051700011F0010521D0B4F84810BDF808008142B3
:1051800019D8B4F84A10814215D9B4F84E30B4F8A1
:105190004C2004A90DF10C0000F044FA00280AD0BC
:1051A0000095206BBDF81030BDF80C208568BDF867
:1051B00008102046A84705B030BDB4F84C10BDF823
:1051C0000C008142F7D8B4F84E108142F3D9B4F8FC
:1051D0004A30B4F8482004A902A8DDE708B5B0F8C1
:1051E0004C30934210D8B0F84E3093420CD9B0F8FE
:1051F00048308B4208D8B0F84A308B4204D900239B
:1052000000930123FFF794FF08BD2DE9FF4F83B002
:105210001F46DDE910A402EB0A06B0B2CD190090DA
:1052200090468946ABB2039800F0F2F800285CD0B3
:1052300009EB04001FFA80FB08EB040081B2281B75
:10524000401E85B2301B401E80B2CDE90101022014
:105250000A460090234659460398FFF7C6FE0120F0
:105260000090DDE9022023462946FFF7BEFE042018
:10527000009023465946019A0398FFF7B6FE08208E
:10528000009023462946019A0398FFF7AEFE0BF1E2
:1052900001011FFA81FB0299381B491C001B80B2D7
:1052A00089B20291032811D3801E86B2601C85B298
:1052B00033464246594600950398FFF754FE33465D
:1052C00000955946019A0398FFF74DFEAAEB04009A
:1052D000001B80B2032808D3801E80B20090DDE955
:1052E00002203B464946FFF73EFE07B0BDE8F08F7F
:1052F0002DE9FF4F83B01C46DDE9106502EB060A7D
:105300001FFA8AF001EB04090090174688461FFA3D
:1053100089F3039800F07CF8002867D008EB0500BB
:105320001FFA80FB781981B2A9EB0500401E80B2FC
:10533000CDE90110AAEB0500401E1FFA80F90220FA
:105340000A4600902B4659460398FFF72EFE01208F
:105350000090DDE902102B46019AFFF726FE04209B
:1053600000902B464A4659460398FFF71EFE082038
:105370000090DDE902102B464A46FFF716FE601B3F
:10538000711B401B491B8DB20BF101011FFA81FA01
:10539000019980B2491C1FFA81FB032810D3801E9B
:1053A00080B2814603463A465146761E0398FFF77F
:1053B000B8FEB81982B24B4651460398FFF7B1FECA
:1053C000032D13D3AD1EADB22B465A464146641E83
:1053D000039800F017F808EB040081B2039807B0B7
:1053E0002B465A46BDE8F04F00F00CB807B0BDE8B8
:1053F000F08F000030B4024C446030BC00F06CBA56
:10540000715E000838B501240094FFF791FE38BDA5
:1054100070B50D461E460446B0F84E10B0F84C006C
:10542000049B00F0E8FB002809D0B4F84A10B4F857
:10543000480033462A46BDE8704000F0DCBB70BD32
:1054400010B5044600F065FC2046BDE8104000F0B1
:10545000D4BC80F89210032902D3012180F8921065
:10546000704710B50446806D884209D004F174007D
:10547000A16500F019FC2046BDE8104000F056B8C8
:1054800010BD00000149C165704700004F59000878
:105490000021A0F85010A0F854104FF6FF71A0F8AA
:1054A0005210A0F85610016B4968084770B50446C1
:1054B00000250498A565E362616384F8382084F8C8
:1054C000395084F86D5084F8915084F88D50012142
:1054D00084F8921084F8931020630168204688476E
:1054E0002046FFF7D5FF2046FFF7CCFF84F8705029
:1054F00070BD00007CB50C46009313460546084A73
:10550000084900F08AFC01A800F0C8FB0146064BE0
:1055100000949DF804202846FFF7C8FF7CBD0000DA
:10552000CD5F0008F56000080F5C000810B5816DC4
:1055300000291AD090F9813080F88E3090F98220BD
:1055400080F88F2090F88D1000290ED001290DD001
:1055500090F97E4090F980100C449C4201DD80F867
:105560008E408A4201DD80F88F1010BD90F98310C3
:105570008B4201DA80F88E1090F98410F1E72BB19C
:10558000012B05D0022B06D0104402E0084400E0B5
:10559000801A80B27047401AFBE72BB1012B05D06F
:1055A000022B06D0401A02E0104400E0084480B20A
:1055B0007047801AFBE738B50446B0F856000090F3
:1055C000B4F85230B4F85420B4F850102046FFF725
:1055D0001FFF18B3012084F88C00B4F84810B4F809
:1055E0005000814201D2A4F84800B4F84A10B4F83F
:1055F0005200814201D9A4F84A00B4F84C10B4F822
:105600005400814201D2A4F84C00B4F84E10B4F812
:105610005600814201D9A4F84E0038BD002084F81C
:105620008C0038BD30B504880D882544ADB2AC423D
:1056300005D99C4202D25D1EADB200E014469C42E8
:1056400001D2954201D8002030BD944200D21446C8
:105650009D4200D91D460480281B0880012030BDD2
:105660002DE9FF4FC3F1010083B006B258429146C5
:10567000DDF840A040008B4601271C46CDE9009A8A
:1056800000250FFA80F85B462246294615E0002ED9
:1056900008DB08F102000FFA80F8641E06EB080030
:1056A000A4B206B26D1CBF1C3FB2CDE9009AADB2E8
:1056B000F01906B25B4622462946039800F005F829
:1056C000A542E4D307B0BDE8F08F2DE9FF4F83B0CA
:1056D0000E46DDE9108703EB060002901546A8EBA5
:1056E0000600019003EB05001C46F907A8EB050B2B
:1056F00000900DD002981FFA8BF281B20398FFF749
:105700006DFD019882B2009881B20398FFF766FDA3
:10571000B907A4EB060AA4EB05090DD51FFA8BF215
:105720001FFA8AF10398FFF759FD01981FFA89F1D2
:1057300082B20398FFF752FD08EB0504390708EB26
:1057400006050BD50298A2B281B20398FFF746FD79
:105750000098AAB281B20398FFF740FD78070ED5F2
:10576000A2B21FFA8AF10398FFF738FD039807B039
:10577000AAB21FFA89F1BDE8F04FFFF72FBD07B0BD
:10578000BDE8F08F2DE9FF4FC3F1010083B006B2F1
:1057900058429146DDF840A040008B4601271C4648
:1057A000CDE9009A00250FFA80F85B46224629468B
:1057B00015E0002E08DB08F102000FFA80F8641EE5
:1057C00006EB0800A4B206B26D1CBF1C3FB2CDE9C7
:1057D000009AADB2F01906B25B46224629460398FC
:1057E00000F005F8A542E4D307B0BDE8F08F2DE93D
:1057F000FF4F83B0164610980F46A0EB060B03EB45
:10580000070001901098DDF84490A0EB070098463F
:105810005FEAC97103EB060A02F1010507F1010411
:1058200000900FD00198ABB281B21FFA8BF20398AF
:10583000FFF7E8FD0098A3B282B21FFA8AF103983D
:10584000FFF7E0FD5FEA8971A8EB0707A8EB060602
:105850000DD5ABB21FFA8BF2B9B20398FFF7D2FDA8
:105860000098A3B282B2B1B20398FFF7CBFD5FEA12
:1058700009700DD50198ABB281B2109A0398FFF769
:10588000C1FDA3B21FFA8AF1109A0398FFF7BAFD7F
:105890005FEA49700ED5ABB2B9B2109A0398FFF720
:1058A000B1FD109A039807B0A3B2B1B2BDE8F04FB2
:1058B000FFF7A8BD07B0BDE8F08F38B5C58F049CD1
:1058C0000094521BC46A92B2A04738BD38B5049CFC
:1058D0000094FFF7F2FF38BD2DE9F0471C469146D2
:1058E0008846064600F0C7FC00254FF6FF77726831
:1058F0002178304690470346B84225D0641CA3F572
:105900007F40FE38F3D04A4641463046FFF7D1FB90
:1059100096F8701031B1012907D0022908D0032967
:105920000FD10AE008EB000104E009EB000106E0FA
:10593000A8EB00011FFA81F803E0A9EB00011FFAB0
:1059400081F9284485B2D2E72846BDE8F0870020D7
:10595000704710B50C4600F006F80122641EA24004
:10596000801A40B210BD30B50568047B2A78E24049
:105970006318DBB2082B09D36D1C05602D78C4F1C8
:105980000804A5401543083BEAB2DBB201248C4071
:10599000641E14400373204630BD00002DE9F84317
:1059A000054600F1600400F00CF915F96B6F204614
:1059B000E97BFFF7CEFF8146297C2046FFF7C9FF30
:1059C0000746697C20466B3DFFF7C3FF804694F98C
:1059D0000A00002857DDF019404247B2237CA08816
:1059E0003A464946FFF7CBFDA080237C3A46E08843
:1059F0004946FFF7D2FDE080A188277C02460B468E
:105A000037B1012F0AD0022F40D0032F0FD146E02B
:105A100094F90A7030443B449BB207E0891B491C4F
:105A200094F90A705B1C89B29BB2384480B2009032
:105A30002846FFF7EDFC30B30020207284F80900FF
:105A400095F876102046FFF78EFF814695F877107F
:105A50002046FFF788FF074600224946284600F007
:105A600027F801223946284600F022F80121204675
:105A7000FFF779FF0028EFD194F90900B042DFDB8E
:105A8000A07B85F892004046BDE8F88394F90A703F
:105A90005B1CC91B491C89B29BB2921B04E094F9A0
:105AA0000A7033449BB2D21B521C92B2401CBDE719
:105AB0002DE9F74F84B00D46049C94F8687094F873
:105AC00069806034A07AC01BC6B20196B54200D28C
:105AD00001954FFA88F279B2A088B4F806B0237C19
