:020000040800F2
:100000000820002099010008931D00080719000826
:10001000911D000885030008092600080000000063
:1000200000000000000000000000000001010008C6
:100030008703000800000000450100087D2100083A
:10004000B3010008B3010008B3010008B3010008C0
:10005000B3010008B3010008B3010008B3010008B0
:10006000B3010008B3010008B3010008B3010008A0
:10007000B3010008B3010008B3010008B301000890
:10008000B3010008B3010008B3010008B301000880
:10009000B3010008B3010008B3010008B301000870
:1000A000B3010008B3010008B3010008B301000860
:1000B000B3010008FD210008B3010008B3010008E6
:1000C000B3010008B3010008B3010008B301000840
:1000D000B3010008E5250008F1250008FD2500080A
:1000E000B3010008B3010008B3010008DFF80CD029
:1000F00000F036F900480047D92700080820002002
:10010000224B19680868B0E8F00F80F30988BFF344
:100110006F8F4FF0000080F311884EF00D0E704786
:100120000000000006480068006880F3088862B696
:1001300061B6BFF34F8FBFF36F8F00DF00BF00BF0B
:1001400008ED00E0EFF30980BFF36F8F0F4B1A68E3
:1001500020E9F00F106008B54FF0500080F31188CF
:10016000BFF34F8FBFF36F8F03F0BAFA4FF0000069
:1001700080F31188BDE8084019680868B0E8F00FFE
:1001800080F30988BFF36F8F704700BF2000002005
:10019000EFF3058070470000064880470648004797
:1001A000FEE7FEE7FEE7FEE7FEE7FEE7FEE7FEE727
:1001B000FEE7FEE7F9210008ED00000840EA010330
:1001C0009B0703D009E008C9121F08C0042AFAD20D
:1001D00003E011F8013B00F8013B521EF9D27047D1
:1001E000D2B201E000F8012B491EFBD27047002279
:1001F000F6E710B513460A4604461946FFF7F0FF26
:10020000204610BD30B480EA010202F0004530F013
:10021000004221F0004013D090B1C30DD40DC2F3C1
:100220001601C0F31600E41A41F4000140F4000284
:100230007D34914201D3641C00E04900002C02DAB5
:1002400030BC002070474FF400000023914201D3DE
:10025000891A034340084FEA4101F7D151B1914255
:1002600002D14FF0004105E002D24FF0010101E060
:100270006FF0010103EBC450284430BC00F038B8E3
:10028000C10F80EAE0700844CA079623002100F0FD
:1002900038B800F0004220F00040C10DC0F3160055
:1002A00040F400007F2901DA00207047962903DC22
:1002B000C1F19601C84001E096398840002AF4D087
:1002C0004042704730B50B460146002020220124F1
:1002D00009E021FA02F59D4205D303FA02F5491B14
:1002E00004FA02F52844151EA2F10102F1DC30BD2A
:1002F0000029A8BF7047401C490008BF20F001003A
:10030000704710B4B0FA80FC00FA0CF050EA010417
:1003100004BF10BC704749B1CCF1200421FA04F4A9
:1003200011FA0CF118BF012121430843A3EB0C0182
:10033000CB1D4FEA00614FEA102042BF002010BCE5
:10034000704700EBC35010440029A4BF10BC704795
:10035000401C490008BF20F0010010BC704700009D
:10036000064C074D06E0E06840F0010394E8070002
:1003700098471034AC42F6D3FFF7BCFE9841000812
:10038000B8410008FEE7704710B501F03DFC01F0F0
:100390006FFC0021084800F061FE0421064800F0CF
:1003A0005DFE0021054800F059FEBDE81040042123
:1003B000024800F053BE000030010020E800002099
:1003C00072B6FEE710B50168486A04B200204862C0
:1003D000214607A002F01AF941F2707104FB01F006
:1003E000FFF74EFFBDE810400649FFF70BBF0000C6
:1003F0006361725F73706565643A2025642C0D0A31
:10040000000000000000524710B590F821100022B3
:10041000022905D00421816380F82020012010BD2D
:1004200001680B6823F00E030B6001680B6823F072
:1004300001030B6090F84030C46B012101FA03F313
:10044000636080F8211080F82020104610BD000065
:1004500010B590F821100024022903D004218163F3
:1004600001243DE001680A6822F00E020A6001687A
:100470000A6822F001020A601A4A0168914201D119
:10048000012121E0174A1432914201D110211BE0D1
:10049000144A2832914201D1891515E0114A3C32A3
:1004A000914201D189140FE00E4A5032914202D19B
:1004B0004FF4803108E00B4A6432914202D14FF48C
:1004C000801101E04FF08071064A083A5160012125
:1004D00080F82110002180F82010416B01B188477D
:1004E000204610BD0800024070B5044600F008F92F
:1004F0000546601C02D004480078044400F000F96E
:10050000401BA042FAD370BD100000202DE9F84F27
:10051000DFF8B8910024A9F1040B23460F2709F155
:10052000040AABF1040EC9E00125A5402A40AA4205
:100530007DD1674ED1F804C0ACEB0608B44532D08B
:1005400014DCBCF1030F3AD009DCBCF1000F2AD057
:10055000BCF1010F1CD0BCF1020F31D11DE0BCF188
:10056000110F17D0BCF1120F2AD119E0B8F5881F6E
:1005700019D006DCB8F5803F15D0B8F5801F1FD123
:1005800011E0B8F5001F0ED0B8F5041F18D10AE02D
:10059000CB6815E0CB681B1D12E0CB6808330FE079
:1005A000CB680C330CE08B682BB1012B4FF00803A8
:1005B00003D0456104E0042302E0056100E000236C
:1005C000FF2A01D8064601E000F104064FEA84053F
:1005D00001D9A5F12005D6F8008007FA05FC28EA24
:1005E0000C0803FA05F548EA0508C6F800804D68CE
:1005F000ED0062D5374DAE6946F00106AE61AD69DA
:1006000024F0030605F001050095334D06EB050CBB
:10061000DCF80850A607360F07FA06F825EA0805A1
:10062000DFF8B880404503D14FF0000817E044E000
:10063000DFF8AC80404502D14FF001080FE0DFF851
:10064000A480404502D14FF0020808E0DFF898800E
:10065000404502D14FF0030801E04FF0040808FACA
:1006600006F848EA0508CCF808804D68D9F800601B
:10067000ED024D4601D5164300E096432E604D68CD
:10068000DAF80060AD02554601D5164300E0964306
:100690002E604D68DBF80060AD035D4601D5164362
:1006A00000E096432E604D68DEF80060ED0375466D
:1006B00001D5164300E096432E60641C0D682A465F
:1006C000E5407FF431AFBDE8F88F00000804014039
:1006D000000011100010024000000140000801401D
:1006E000000C0140001001400014014080680840E7
:1006F00000D0012070470AB1016170470904FBE78F
:10070000014880687047000010000020024881689E
:10071000027811448160704710000020074810B52E
:10072000016841F010010160032000F0A7F80F20DC
:1007300000F006F800F050F8002010BD0020024044
:1007400030B505461F4887B0C16941F00201C1615B
:10075000C06906A900F00200009001A800F036F977
:100760000498B0B100F052F940001749174AB0FBA5
:10077000F1F11748491E0260416040F2E732002162
:10078000C0E903218160816100F076FB040003D0A1
:1007900015E000F03BF9E8E70D4800F09BFB040092
:1007A0000DD11D2000F03CF8102D07D20022294663
:1007B0001D2000F043F80748056000E0012407B061
:1007C000204630BD0010024040420F0000040040AF
:1007D00050020020140000200F4808B5816941F044
:1007E00001018161816901F001010091C16941F05C
:1007F0008051C161C069002200F0805000900F213B
:10080000901E00F01BF80548416821F0E06141F0BE
:100810000071416008BD000000100240000001406E
:10082000002809DB00F01F020121914040098000EF
:1008300000F1E020C0F8001170470000F0B40E4B4A
:100840001B680C46C3F30223C3F10705042D00D92E
:100850000425191D072901D2002300E0DB1E012613
:1008600006FA05F1491E214099409E40761E164029
:100870003143F0BC01F0DABE0CED00E0064900F0B7
:10088000070208684FF6FF03184040EA0220034AB7
:1008900010430860704700000CED00E00000FA050E
:1008A0002DE9F0470F46050061D0434E306800F057
:1008B0000700B84209D2306820F0070038433060A2
:1008C000306800F00700B84251D128683B4C8107DE
:1008D00012D5400703D5606840F4E0606060287876
:1008E000000703D5606840F4605060606068A968E4
:1008F00020F0F000084360602878C00728D06868BE
:10090000012810D02168022810D0890700292EDA8A
:10091000616821F0030101436160FFF7F1FE804649
:1009200041F288390DE021688903EFE78901EDE79D
:10093000FFF7E6FEA0EB0801494502D90320BDE818
:10094000F0876068696800F00C00B0EB810FEFD1B0
:10095000306800F00700B8420BD9306820F007007B
:1009600038433060306800F00700B84201D0012001
:10097000E5E72878400705D56068E96820F4E0607D
:10098000084360602878000706D56068296920F46C
:10099000605040EAC100606000F058F86168084AA1
:1009A000C1F30311515CC84006490860064800685D
:1009B000FFF7C6FE0020C2E7002002400010024000
:1009C000724100081C000020140000200F22026069
:1009D0000C4A536803F003034360536803F0F003C9
:1009E0008360536803F4E063C36052684FF4E063CC
:1009F00003EAD20202610448006800F007000860C0
:100A000070470000001002400020024004480549E1
:100A100000684968044AC1F30221515CC84070472C
:100A20001C000020001002408241000804480549D3
:100A300000684968044AC1F3C221515CC84070474C
:100A40001C00002000100240824100080E4A51683C
:100A50000E4801F00C03042B11D0082B0FD10C48C9
:100A6000C1F38343C903C05C0AD55168084AC1F386
:100A70004041921E515C054A5043B0FBF1F0704773
:100A800004494843704700000010024000127A00F9
:100A90006241000800093D002DE9F84F040070D0C4
:100AA0002078C04DC00749D06868C0F38100012894
:100AB00007D06868C0F38100022809D16868C003C4
:100AC00006D52868800339D560680028E7D035E06E
:100AD0006068B0F5803F0BD010B1B0F5A02F11D0F9
:100AE000286820F480302860286820F4802002E004
:100AF000286840F480302860606890B1FFF700FEFD
:100B000006460AE0286840F480202860F0E700BF2D
:100B1000FFF7F6FD801B642873D828688003F7D59B
:100B20000CE0FFF7EDFD064605E000BFFFF7E8FD2E
:100B3000801B6428F0D828688003F7D420789A4E68
:100B400080074FF001094FF0000839D5686810F0B0
:100B50000C0F07D06868C0F38100022809D16868CB
:100B6000C00306D42868800714D52069012808D15D
:100B700010E02069B0B1C6F80090FFF7C1FD07464C
:100B800005E00AE1FFF7BCFDC01B0228C4D82868B5
:100B90008007F7D52868616920F0F80040EAC100B5
:100BA00028600DE0C6F80080FFF7AAFD074604E0C4
:100BB000FFF7A6FDC01B022823D828688007F7D4BA
:100BC000207800072CD57948A169D9B1C0F80090E8
:100BD000FFF796FD074604E0FFF792FDC01B0228D1
:100BE0000FD8686A8007F7D571484FF4FA5100684A
:100BF000B0FBF1F0009000BF0098411E0091FAD2C6
:100C00000EE080E0C0F80080FFF77AFD074604E0C0
:100C1000FFF776FDC01B022875D8686A8007F7D4F5
:100C20002078400760D5E8690027C00008D4E8694B
:100C300040F08050E861E869012700F080500090A2
:100C40005C480168C90513D40168834641F480718A
:100C50000160FFF755FD824606E000BFFFF750FD3B
:100C6000A0EB0A0064284ED8DBF80000C005F5D5DB
:100C7000E06801280AD008B1052813D0286A20F0BE
:100C800001002862286A20F0040002E0286A40F08F
:100C900001002862E06841F2883B98B1FFF730FD1F
:100CA00082460BE0286A40F004002862EEE700BFAD
:100CB000FFF726FDA0EB0A0159455AD8286A80079C
:100CC000F6D50CE0FFF71CFD824605E0FFF718FDA6
:100CD000A0EB0A0159454CD8286A8007F6D41FB109
:100CE000E86920F08050E861E06988B36968C1F381
:100CF0008101022944D00228C6F8608004D0FFF7A1
:100D0000FFFC044638E034E0FFF7FAFC074604E055
:100D1000FFF7F6FCC01B02282BD828688001F7D407
:100D2000206AB0F5803F05D16868A16820F40030E2
:100D300008436860D4E908010843696821F4741124
:100D400008436860C6F86090FFF7DAFC044606E0E6
:100D500025E000BFFFF7D4FC001B022809D8286853
:100D60008001F7D51BE000BFFFF7CAFC001B02287B
:100D700002D90320BDE8F88F28688001F4D40EE082
:100D80000128F7D06868226A00F48031914204D1CA
:100D9000616A00F47010884201D00120EAE7002067
:100DA000E8E7000000100240000042428004424296
:100DB0001C000020007000407047704710B590F88C
:100DC0003C20012A22D0012280F83C20CA688C688D
:100DD00022F4407222434C6822F4806222430C6861
:100DE00022F4006222430C6922F4805222434C69AF
:100DF00022F400522243C969002322F480420A43AC
:100E000001684A6480F83C30002010BD022010BD0B
:100E100070B590F83C20012A26D0012480F83C408F
:100E2000022280F83D2003685A689D6822F070060F
:100E30000A6832435A600D4B02689A4208D0B2F1F8
:100E4000804F05D00A4B9A4202D00A4B9A4204D1F5
:100E5000496825F080031943916080F83D400021E6
:100E600080F83C10084670BD022070BD002C014087
:100E7000000400400008004010B5040003D094F8BE
:100E80003D0010B107E0012010BD002084F83C00B7
:100E9000204600F01EF8022084F83D00211D206845
:100EA00001F0B2F9012084F8460084F83E0084F88D
:100EB0003F0084F8400084F8410084F8420084F840
:100EC000430084F8440084F8450084F83D00002085
:100ED00010BD704790F83D10012901D001207047E6
:100EE000022180F83D100168CA6842F00102CA6020
:100EF00000680B49884208D0B0F1804F05D00949FD
:100F0000884202D00849884204D1816801F0070173
:100F1000062903D0016841F00101016000207047FB
:100F2000002C014000040040000800402DE9F04181
:100F30000D46040003D094F83D0018B108E00120EC
:100F4000BDE8F081002084F83C00204600F040F825
:100F5000022084F83D002068816844F20702914332
:100F60008160211D206801F04FF922689068916925
:100F7000166A2B68AF69034340F20330814341EAAC
:100F80000721A868EF6908434FF6FC418843E968E8
:100F900040EA0720014328692F6A000140EA073030
:100FA000084369686D6926F0220646EA051529435B
:100FB00093602268906154F8460B0162012004F8A6
:100FC0001F09E0752076E0762077A0750020B7E74E
:100FD00000B585B000210091019102910391016853
:100FE0001A48B1F1804F1BD0194A914216D1C169FC
:100FF00041F00401C161C16901F0040104918169FA
:1010000041F0080181618069694600F008000490A0
:10101000C02000900F4800BFFFF778FA05B000BD70
:10102000C16941F00101C161C16901F0010104918F
:10103000816941F0040181618069694600F0040022
:101040000490032000900448E6E7000000100240EE
:1010500000080040000C01400008014070B590F805
:101060003E60044690F83F5090F8423090F843209C
:10107000022021B104290ED0012E1BD114E0012E33
:1010800018D1012B16D184F83E0084F842000122C9
:101090000021206820E0012D0CD1012A0AD184F81A
:1010A0003F0084F8430014E0012D03D1012B01D14E
:1010B000012A01D0012070BD84F83E0084F83F0071
:1010C00084F8420084F8430001220021206801F0E6
:1010D000D1F801220421206801F0CCF820680168D1
:1010E00041F001010160002070BD704770B50446F9
:1010F000006801694FF00005C943890715D4C1682C
:10110000C943890711D4E91E0161012020772068B5
:1011100080698007204602D0FFF7E7FF04E000F077
:10112000BFF8204600F064F9257720680169C943BB
:10113000490717D4C168C943490713D46FF00401A4
:101140000161022020772068806910F4407F2046EA
:1011500002D0FFF7CAFF04E000F0A2F8204600F03A
:1011600047F9257720680169C943090716D4C16882
:10117000C943090712D46FF00801016104202077E8
:101180002068C0698007204602D0FFF7AEFF04E068
:1011900000F086F8204600F02BF9257720680169D9
:1011A000C943C90617D4C168C943C90613D46FF02F
:1011B00010010161082020772068C06910F4407F89
:1011C000204602D0FFF791FF04E000F069F82046C6
:1011D00000F00EF9257720680169C943C90708D1D5
:1011E000C168C943C90704D1891E0161204600F0C6
:1011F0004FF920680169C943090609D4C168C94388
:10120000090605D46FF0800101612046FFF7D4FD87
:1012100020680169C943490609D4C168C943490620
:1012200005D46FF040010161204600F03BF92068D1
:101230000169C94389060BD4C168C943890607D42B
:101240006FF0200101612046BDE87040FFF7B5BD99
:1012500070BD000000B585B00021009101910291A0
:10126000039100680B49884212D10B48816941F013
:10127000040181618069694600F0040004904FF424
:10128000106000900220019003900448FFF73EF99F
:1012900005B000BD002C01400010024000080140D4
:1012A000704770B5044690F83C0000260D460128B2
:1012B0000FD0012084F83C006AB1042A1DD0082A0E
:1012C0002FD00C2A3FD00126002084F83C00304665
:1012D00070BD022070BD206800F0DAFF20688169CF
:1012E00041F0080181612068816921F00401816178
:1012F000206881692A69114311E0206800F0F0FF3D
:101300002068816941F4006181612068816921F46C
:1013100080618161206881692A6941EA02218161D5
:10132000D2E7206801F008F82068C16941F008019F
:10133000C1612068C16921F00401C1612068C169EF
:101340002A69114311E0206801F022F82068C16980
:1013500041F40061C1612068C16921F48061C1610B
:101360002068C1692A6941EA0221C161ACE710B570
:10137000040003D094F83D0010B107E0012010BD37
:10138000002084F83C00204600F01EF8022084F87B
:101390003D00211D206800F037FF012084F8460041
:1013A00084F83E0084F83F0084F8400084F841004F
:1013B00084F8420084F8430084F8440084F845002F
:1013C00084F83D00002010BD08B500680649884239
:1013D00008D10648816941F400618161806900F4A7
:1013E0000060009008BD0000002C01400010024089
:1013F0007047000010B50446022249B104290ED0FE
:10140000082913D094F84100012816D0012010BDFE
:1014100094F83E000128F9D184F83E200FE094F8BA
:101420003F000128F2D184F83F2008E094F8400002
:101430000128EBD184F8402001E084F8412001220A
:10144000206800F017FF0F492068884203D1426CE2
:1014500042F4004242642068884208D0B0F1804FD4
:1014600005D00949884202D00849884204D18168E0
:1014700001F00701062903D0016841F00101016074
:10148000002010BD002C0140000400400008004076
:1014900000680349884201D1FFF738B9704700005E
:1014A000000400407047704770470000F8B50168BD
:1014B00004460868CA684B6910F00F0F4FF000052A
:1014C0005AD003F0010602F49077374365D0C10784
:1014D00005D0D10503D5616C41F00101616441077C
:1014E00005D5D90703D0616C41F002016164810721
:1014F00005D5D90703D0616C41F00401616401078F
:1015000007D502F02001314303D0616C41F008019E
:101510006164616C00293BD0800604D5900602D539
:10152000204600F086FF20684069616CC0F380109F
:1015300001F00801014320462BD000F053FF206842
:101540004069400621D52068143050E8001F21F082
:10155000400140E80012002AF5D1E06BA8B16D49C6
:101560004163E06BFEF774FF002811D0E06B416B24
:1015700001B0BDE8F040084783060ED593060CD5B0
:101580002046BDE8F84000F054BF2046FFF78CFF2E
:10159000F8BDFFF789FF6564F8BD266B2023012E97
:1015A0007CD1C6067AD5D60678D5086848680090FA
:1015B00048694FF00206400640D5E16B0868406874
:1015C0000004000CE8D0A28D8242E5D9E08588694C
:1015D00020282DD020680C3050E8001F21F48071A5
:1015E00040E80012002AF5D12168143151E8000FBB
:1015F00020F0010041E80002002AF5D120681430F3
:1016000050E8001F21F0400140E80012002AF5D107
:1016100084F84230256320680C3050E8001F21F028
:10162000100140E80012002AF5D1E06BFEF7ECFE55
:101630006663A08DE18D401A81B22AE0A08DE18D14
:10164000401A81B2E08D0028A6D00029A4D02268DB
:101650000C3252E8000F20F4907042E80007002F8F
:10166000F5D12068143050E8002F22F0010240E844
:101670000027002FF5D184F84230256320680C3014
:1016800050E8002F22F0100240E80023002BF5D193
:1016900066632046FFF707FFF8BDFFE705062BD579
:1016A000150629D594F841002128F5D1A068B0F598
:1016B000805F01D12069B0B1206A411C216221689C
:1016C00000784860E08C401E0004000CE084E3D108
:1016D0002068C16821F08001C1602068C16841F0C4
:1016E0004001C160D8E7206A0088C0F30800486064
:1016F000206A801C2062E5E74006CDD55006CBD598
:10170000CA68204622F04002CA6084F8413000F0E6
:10171000F9F8C1E7D523000870B5040004D094F8A7
:101720004100002510B106E0012070BD84F8405052
:10173000204600F023F8242084F841002068C16886
:1017400021F40051C160204600F0D4FE20680169F8
:1017500021F4904101612068416921F02A01416131
:101760002068C16841F40051C1606564202084F89C
:10177000410084F842006563002070BDF0B585B07B
:10178000002400940194029403940368424F0220C1
:1017900042490322424D4602BB4225D18B6943F4A4
:1017A00080438B618B6903F4804304938B6943F01E
:1017B00004038B618969039201F004010491010221
:1017C000CDE9001069462846FEF7A0FECDE9006489
:1017D000694628460294FEF799FE0022052125203D
:1017E000FFF72CF8252028E02E4FBB4229D1CB69EA
:1017F00043F40033CB61CB6903F4003304938B696A
:1018000043F004038B618969039201F004010491A0
:101810000421CDE9001069462846FEF777FE08202E
:10182000CDE90004694628460294FEF76FFE0022C7
:1018300005212620FFF702F82620FEF7F1FF05B06C
:10184000F0BD194DAB42FAD1CB6943F48023CB6193
:10185000CB6903F4802304938B6943F008038B6105
:101860008969124D01F00801CDE90321CDE900603D
:1018700069462846FEF74AFEE814CDE900046946A9
:1018800028460294FEF742FE002205212720FEF79B
:10189000D5FF2720D1E700000038014000100240AA
:1018A000000801400044004000480040000C014096
:1018B00090F84230202B01D00220704721B11AB19C
:1018C0000023036300F072BE0120704710B500686A
:1018D000084988420DD0084988420AD101210748A9
:1018E00001F060F8BDE81040012204490448FFF708
:1018F000DFBF10BD00380140004400400C00002054
:10190000C00100207047FEE710B5094C00221021ED
:101910002046FEF7F0FE012208212046FEF7EBFEEE
:1019200020460122BDE810401021FEF7E4BE000071
:10193000000C014070B50F4E05460024280601D565
:10194000012200E0002210213046FEF7D4FE0122E1
:1019500008213046FEF7CFFE002208213046FEF770
:10196000CAFE6806050E641C082CE7DBBDE8704063
:1019700000F01CB8000C014010B50B4C01221021E6
:101980002046FEF7B8FE012208212046FEF7B3FEEE
:10199000002210212046FEF7AEFE20460022BDE8C0
:1019A00010400821FEF7A7BE000C014070B50B4D9A
:1019B000012210212846FEF79EFE0122082128461A
:1019C000FEF799FE10212846FEF790FE04460022FD
:1019D00008212846FEF78FFE204670BD000C01400E
:1019E00010B57021002000F0AFFB2021012000F095
:1019F000ABFB0021BDE81040022000F0A5BB0000B9
:101A000038B500F033FA00F0C5F9FFF7E9FF1A48DE
:101A10000090002301220A2118A002F011FB1A4CA9
:101A2000002210212060012001F0E0FE6060174AD2
:101A30000021174800F064FF1649A06040F6C4106A
:101A4000086014490C310860134D01224FF4204105
:101A50002846FEF750FE00224FF4A0412846FEF72C
:101A60004AFE02F0A9F90246002003460090012137
:101A7000206802F02FFB38BD292800086D6F746FB5
:101A8000725F74696D657200000000203C410008BF
:101A90006D210008342C0140000C01402DE9F04379
:101AA00085B000242948009401940294039481692C
:101AB00041F010018161816901F010010491816997
:101AC00041F020018161816901F020010491816967
:101AD00041F004018161816901F00401049181698F
:101AE00041F0080181618069012200F00800DFF8FF
:101AF00060805503049029464046FEF7FCFDDFF860
:101B000054904FF21807002239464846FEF7F3FD7D
:101B10000095022601250396CDE901546946404609
:101B2000FEF7F4FC0320CDE9000469464846029420
:101B3000FEF7ECFC00970396CDE901546946484650
:101B4000FEF7E4FC05B0BDE8F083000000100240A1
:101B500000100140000C014010B592B000240F9419
:101B60001C2168461094FEF742FB202107A8FEF7CF
:101B70003EFB24482249C0E9001441F61F41C0E958
:101B80000241046144618461FFF7F1FB08B1FEF793
:101B900017FC0F940FA91B481094FFF739F908B1EF
:101BA000FEF70EFC6020CDE9000402940394049437
:101BB00005940022694613480694FFF772FB08B1AA
:101BC000FEF7FEFB0C2269460E48FFF76AFB08B1E0
:101BD000FEF7F6FB0794089409944FF400500A941A
:101BE000CDE90B4007A907480E94FFF7E7F808B1C5
:101BF000FEF7E6FB0348FFF72DFB12B010BD000017
:101C0000002C0140A000002010B58CB024216846B3
:101C1000FEF7EDFA0024154809944FF080410A942C
:101C2000C0E900144FF6FF71C0E90241046184610C
:101C30000220CDE900040120CDE902040494CDE99D
:101C400005400794694609480894FFF76FF908B101
:101C5000FEF7B6FB099409A904480A94FFF7D8F8DF
:101C6000002801D0FEF7ACFB0CB010BDE80000204E
:101C700010B58CB024216846FEF7B9FA0024164846
:101C8000099414490A94C0E900144FF6FF71C0E9A1
:101C90000241046184610220CDE900040120CDE904
:101CA00002040494CDE90540079469460A48089463
:101CB000FFF73CF908B1FEF783FB099409A9064830
:101CC0000A94FFF7A5F8002801D0FEF779FB0CB0C5
:101CD00010BD000000080040300100200C4810B585
:101CE0000A4901604FF4E1314160002181600C221A
:101CF000C160C0E904128161C161FFF70DFD0028D8
:101D000003D0BDE81040FEF75BBB10BD00380140BA
:101D1000780100200E4810B50C4901604FF4E13104
:101D20004160002181600C22C160C0E90412816120
:101D3000C161FFF7F1FC08B1FEF742FBBDE81040BE
:101D4000012204490248FFF7B3BD000000440040EF
:101D5000C00100200C0000200C4810B50A490160A9
:101D60004FF4E1314160002181600C22C160C0E983
:101D700004128161C161FFF7CFFC002803D0BDE8E8
:101D80001040FEF71DBB10BD0048004008020020B7
:101D9000FEE7FEE710B5A0B0002480216846FEF7FC
:101DA00026FA0021204600F063F98021684600F001
:101DB0007FF9641CE4B2082CF3D320B010BD0000FE
:101DC00070B501220B4D140221462846FEF793FC04
:101DD0000122560231462846FEF78DFC002231468C
:101DE0002846FEF788FC21462846BDE870400022C0
:101DF000FEF781BC000C014070B501220E4D1402AB
:101E000021462846FEF777FC660000223146284628
:101E1000FEF771FC012221462846FEF76CFC0122E8
:101E200031462846FEF767FC21462846BDE870404B
:101E30000122FEF760BC0000000C014070B50A4CA6
:101E400000224FF400712046FEF755FC01221502D6
:101E500029462046FEF74FFC29462046BDE8704043
:101E60000022FEF748BC0000000C014010B586B00F
:101E7000002002902E48816941F00801816181694A
:101E800001F008010491816941F0080181618069D4
:101E9000284C00F0080004904FF44070009001209E
:101EA00001900220039069462046FEF72FFB694609
:101EB0002046FEF72BFB012211022046FEF71BFCF9
:101EC000012251022046FEF716FC6420FEF70CFBAF
:101ED000022000F09FF83F2000F0AEF8002000F054
:101EE00085F8002000F08FF8A12000F0CAF8C82083
:101EF00000F0C7F80021084600F046F87F2000F007
:101F000059F8A42000F0BDF8A62000F0BAF8082186
:101F1000002000F059F8012000F00EF80021012007
:101F200000F032F8AF2000F0ACF806B010BD0000B1
:101F300000100240000C014010B5040001D0012C3B
:101F40000AD18D2000F09DF8102000EB8400BDE840
:101F50001040C0B200F095B810BD000010B50446A6
:101F60000848007802280CD17F2C0AD804F00F0012
:101F700000F087F8102000EB1410BDE8104000F0CE
:101F800080B810BD9800002070B50C46050001D047
:101F9000012D0ED10CB1012C0BD1DA2000F071F81B
:101FA000280100EB4410BDE87040801CC0B200F076
:101FB00068B870BD10B50446812000F062F8204674
:101FC000BDE8104000F05DB870B50C4605460F281E
:101FD0000BD80F2C09D8D52000F053F805EB0410CE
:101FE000BDE87040C0B200F04CB870BD10B50446FA
:101FF0003F2807D8D32000F044F82046BDE8104021
:1020000000F03FB810BD3F2803D84030C0B200F008
:1020100038B8704710B5040003D0012C01D0022C51
:1020200007D1202000F02DF8204600F02AF80148C2
:10203000047010BD9800002010B504460F383128F8
:1020400007D2A82000F01DF82046BDE8104000F09F
:1020500018B810BD05490978022905D1072803D809
:10206000B030C0B200F00DB87047000098000020FA
:1020700010B50C46FFF7EEFF2046BDE81040FFF715
:102080006DBF10B50446FFF79BFE782000F02EF8D8
:10209000FFF7D4FE002000F029F8FFF7CFFE20461E
:1020A00000F024F8FFF7CAFEFFF7A6FE002010BDDF
:1020B00070B50D460646FFF783FE782000F016F84F
:1020C000FFF7BCFE402000F011F8FFF7B7FE002438
:1020D00005E0305D00F00AF8FFF7B0FE641CAC428A
:1020E000F7DBFFF789FE002070BD00002DE9F0410D
:1020F000144F04464FF48076002231463846FEF7EE
:10210000FAFA00254FF4007804F08000802816D0F9
:10211000002241463846FEF7EEFA6006040E012220
:1021200031463846FEF7E7FA002231463846FEF7D8
:10213000E2FA6D1CEDB2082DE6D3BDE8F081012274
:10214000E7E70000000C014070B50D460446FFF7BC
:1021500013FC3C20FFF7EEFB2046FFF7EBFB284685
:10216000FFF7E8FBBDE87040FFF7CEBB002001F0B1
:10217000E1F9012000F06EFBFBE7000010B55020F4
:1021800080F31188BFF34F8FBFF36F8F01F01AFEFA
:1021900018B104494FF080500860002080F3118886
:1021A00010BD000004ED00E010B590B02821684695
:1021B000FEF71DF814210AA8FEF719F80220009076
:1021C0000120049010200024059007946846FEF733
:1021D00063FC08B172B6FEE70F20CDE90A040C9447
:1021E0000D9400210AA80E94FEF75AFB002801D096
:1021F00072B6FEE710B010BD704700000148FEF750
:1022000075BF000050020020F0B50268164B174C55
:10221000174D4FF08047984205D0B84203D0A042F6
:1022200001D0A84203D122F070064A683243984296
:1022300005D0B84203D0A04201D0A84203D122F475
:102240004074CA6822434C6922F080022243026033
:102250008A68C2620A688262984201D10969016390
:1022600001214161F0BD0000002C0140000400404C
:102270000008004010B501F01F030121046A9940D5
:102280008C430462016A9A401143016210BD000050
:1022900030B5036A026A22F0010202624268846970
:1022A00024F073050C682C4323F002058B682B4344
:1022B0000A4DA8420BD123F00805CB6822F44072E6
:1022C0002B434D6923F0040315438A692A43426076
:1022D000846149684163036230BD0000002C014005
:1022E00030B5026A036A23F010030362436884690D
:1022F0000D6824F4E64444EA05248D6822F02002A7
:1023000042EA05120B4DA8420ED1CD6822F08002A0
:1023100042EA05124D6923F4406343EA85038D695F
:1023200022F0400243EA8503436084614968816387
:10233000026230BD002C014030B5036A026A22F40B
:10234000807202624268C46923F4007324F073054A
:102350000C682C438D6843EA05230C4DA8420ED12E
:10236000CD6823F4006343EA05234D6922F440520B
:1023700042EA05128D6923F4806342EA0512426045
:10238000C4614968C163036230BD0000002C014094
:1023900030B5046A026A22F4805202624268C3695C
:1023A0000D6823F4E64343EA05238D6824F40054C2
:1023B00044EA0534064DA84204D14D6922F4804216
:1023C00042EA85124260C36149680164046230BD1B
:1023D000002C014010B5406A0021C185C184FFF77F
:1023E00063F810BD01680C3151E8002F22F490729F
:1023F00041E80023002BF5D10168143151E8002F8A
:1024000022F0010241E80023002BF5D1016B0129E4
:1024100009D101680C3151E8002F22F0100241E887
:102420000023002BF5D1202180F842100021016308
:10243000704708B590F84210222901D0022008BD4B
:1024400082684FF480539A4201D1016921B1816AB7
:102450009A421BD04AB10AE00268816A5268C2F30C
:1024600008020A80816A891C08E0026972B1026868
:10247000526802F07F020A70816A491C8162C18D34
:10248000491E0904090CC18503D01BE0026852688B
:10249000F1E70168CA6822F02002CA600168CA68D0
:1024A00022F48072CA6001684A6922F001024A611E
:1024B000202180F8421000214163026B012A03D0E1
:1024C000FFF704FA002008BD016301680C3151E8F0
:1024D000002F22F0100241E80023002BF5D1016803
:1024E0000A68D20602D50A6849680091818DFEF714
:1024F000DAFFE7E770B5044600680169E26821F495
:102500004051114301612169A06808436169084392
:102510002168CA6841F20C639A430243CA6020688A
:102520004169A26921F44071114341611E4920684B
:10253000884202D1FEF77AFA01E0FEF767FA00EB73
:10254000C00101EB0012606864218000B2FBF0F36F
:10255000B3FBF1F36FF018067343B2FBF0F5B2FB77
:10256000F0F605EB8305322303EB0515B5FBF1F51A
:10257000B6FBF1F605F0F00505EB0615B2FBF0F63B
:10258000B2FBF0F0B0FBF1F06FF01802504306EB35
:10259000800003EB0010B0FBF1F0216800F00F00A9
:1025A0002844886070BD0000003801408162828547
:1025B000C28500214164222180F84210016921B1C5
:1025C0000168CA6842F48072CA6001684A6942F0D0
:1025D00001024A610068C16841F02001C160002029
:1025E000704700000148FEF761BF0000780100203D
:1025F0000148FEF75BBF0000C00100200148FEF764
:1026000055BF000008020020FEE700000FB4054B94
:1026100010B503A9044A029800F028F810BC5DF830
:1026200014FB0000C12700089C0000200907090EC8
:10263000002804DB00F1E02080F80014704700F06F
:102640000F0000F1E02080F8141D704702E008C878
:10265000121F08C1002AFAD170477047002001E01C
:1026600001C1121F002AFBD1704700002DE9FF4F66
:1026700089B09B460446002506E025280BD05A4623
:102680000B999047641C6D1C20780028F5D10DB083
:102690002846BDE8F08F0027B8460122474900E0F0
:1026A000074314F8013F203B02FA03F00842F7D138
:1026B00020782E2819D114F8010F47F004072A2892
:1026C0000ED06FF02F022078A0F1300109290CD82C
:1026D00008EB880102EB410100EB0108641CF2E702
:1026E0000A98641C50F8048B0A9020780028CED0F9
:1026F000642808D0692806D075281ED05A460B9940
:1027000090476D1C58E00A994FF00A0901C90A91D7
:10271000002802DA40422D2102E0390504D52B21A0
:102720008DF82010012103E0F90704D02021F7E7FC
:102730008A4608AE0DE00021FAE70A994FF00A092F
:1027400001C90A91F7E74946FDF7BCFD303106F8AB
:10275000011D0028F7D1ADEB060000F12009780734
:1027600001D44FF00108C84502DDA8EB090000E0E4
:1027700000208046002706E008A85A46C05D0B9955
:1027800090476D1C7F1C5745F6DB04E030205A460D
:102790000B9990476D1CB8F10001A8F10108F5DC18
:1027A00005E016F8010B5A460B9990476D1CB9F1DC
:1027B0000001A9F10109F4DC641C65E709280100A6
:1027C00004490A685206FCD5024AC1B2121D1160C2
:1027D0007047000000440040FDF7A0FFFFF7E4FC55
:1027E000FFF75CF9FFF77AFAFFF794FAFFF7B4FA0C
:1027F000FDF7CAFD00F008F800F046F8FFF700F911
:1028000000F05EF8FEE7000010B5FFF7A5F9002123
:102810000448FEF7EFFDBDE810400C210148FEF72B
:10282000E9BD0000A000002000B585B000200490A4
:102830000648FDF7C7FD01900548022304AA694632
:10284000406801F01FF905B000BD00003001002014
:102850000000002010B5EFF3058149B9EFF31081B6
:1028600031B908490968022905D1EFF3118111B185
:102870006FF0050403E0002408B100F035FE2046A7
:1028800010BD000070000020EFF3058058B9EFF391
:10289000108040B909490868022801D030B109E028
:1028A000EFF3118030B16FF0050070470120086030
:1028B000002070474FF0FF3070470000700000208C
:1028C00010B5EFF3058060B9EFF3108048B90B49FC
:1028D0000868022802D0012806D00BE0EFF311802F
:1028E00040B16FF0050010BD0220086000F0ACFEA2
:1028F000002010BD4FF0FF3010BD00007000002020
:10290000F0B585B00B464FF00004EFF3058103945A
:10291000A1BBEFF3108189BB21490968022902D1CB
:10292000EFF3118151BB48B3802618218DF8104078
:1029300004AD42B3176807B13D4697691FB13946E8
:102940007F1E382F02D21779FF0702D0002005B072
:10295000F0BD576907B1BE08D2F808C0BCF1000F3E
:102960000DD0D4685C2C18D312693AB137B18DE818
:1029700006103246294601F0E6F903900DE0D768CB
:102980005FB912694AB903AACDE90012B2B2294669
:1029900001F0ACF9012800D003940398D7E70000B8
:1029A000700000202DE9F041DFF84C8005464046DC
:1029B0000C46B8F80610C38800680A19D8F80070E9
:1029C0001844802A0AD9C1F180018EB232462946C4
:1029D000FDF7F4FBA21BA919384601E0224629465F
:1029E000FDF7ECFB98F80610214401F07F01A8F8F0
:1029F0000610BDE8F0810000781B00202DE9F041B1
:102A0000134C0F46054666692068001D00F03AFC2D
:102A1000681C07D137B12168BDE8F0410D48091D98
:102A200000F081BC20683544B5424560216805D27C
:102A3000A068BDE8F041091D00F05DBC6068091D9B
:102A400000F059FC206B854200D22563BDE8F0817F
:102A500020000020880700202DE9F041054600F005
:102A60006FFC2D4C2069401C206120682B4F10B159
:102A7000E06930B32BE025602069012827D10026CA
:102A800006EB860007EB800000F027FC761C382E52
:102A9000F6D3234800F021FC2148143000F01DFC3F
:102AA0001F48283000F019FC1D483C3000F015FC90
:102AB0001B48503000F011FC194860601430A060D1
:102AC00005E02068E96AC06A884200D82560E06AAB
:102AD000401CE0626864E86AA169884200D9A0618C
:102AE00000EB800007EB8000291D00F01CFC00F0CB
:102AF00047FCE06900280CD02068E96AC06A884277
:102B000007D208494FF080500860BFF34F8FBFF3E2
:102B10006F8FBDE8F081000020000020D802002067
:102B20003807002004ED00E038B500F009FC104C37
:102B3000A068C8B90F4800F0D0FB0E48143000F070
:102B4000CCFB0C482060143060600A4B0020283316
:102B5000009003F1500210210A2000F06BFEA060EB
:102B600010B105A100F08AFCBDE8384000F008BCB7
:102B70005C0000209C070020546D72510000000092
:102B800030B4026C0B46002A0BD0C1681144C160FE
:102B90004468A14201D30168C16030BC1846FDF70A
:102BA0000DBB30BC70472DE9F041856B17460446DC
:102BB0000026026C82B1C7B1E068FDF7FFFAE16858
:102BC000206C091AE1602268914202D26168081AF9
:102BD000E060022F16D017E02068A8B9606801F005
:102BE00055F90646002060600EE0A068FDF7E6FAA1
:102BF000216CA0680844A0606168884204D3206802
:102C0000A06001E005B16D1E6D1CA5633046BDE8F6
:102C1000F08110B5044690F8590058B101280CD045
:102C200002280FD0502080F31188BFF34F8FBFF3DD
:102C30006F8FFEE7206B00F0B7FB2046BDE8104029
:102C400000F0B2BB10BD000010484FF440614207D5
:102C500006D0C01D0D4920F00700411AC1F54061A2
:102C60000B4A00230144C2E900030839103A21F05D
:102C7000070111604B600B600B1AC0E900139360F1
:102C80004FF000405360D060704700006C0F002090
:102C900084000020154E164CA6F29C474FF0805839
:102CA000DFF8509012E000BF00F04AFBF068C56802
:102CB000281D00F0E7FA2069401E2061E068401EF0
:102CC000E06000F05DFB2846FFF7A3FFE068002806
:102CD000EAD13868012805D9C9F80080BFF34F8FC1
:102CE000BFF36F8F00F0F8FAF0E7000074070020E0
:102CF0002000002004ED00E070B51D46049C51B199
:102D0000C4F80020C4E90F010121204600F0C6FDEF
:102D100084F84C5070BD2460F4E72DE9F0470E466E
:102D2000DDE909841746824691009946089DA5224F
:102D3000206BFDF755FA6FF00301206B01EB870163
:102D4000084420F00707780707D0502080F3118847
:102D5000BFF34F8FBFF36F8FFEE72218315C82F80D
:102D60003410315C11B1401C1028F6D3002684F8D1
:102D70004360382D00D33725E562C4E91356201D82
:102D800000F0B6FA04F1180000F0B2FA2461C5F1BF
:102D900038006462A061666584F858604A4651460E
:102DA000384600F05DFA2060B8F1000F01D0C8F895
:102DB0000040BDE8F0872DE9F0471E46DDE90894A4
:102DC00017460D0080460ED0002C14D0FFF7ACFE45
:102DD000C4F80080C4E90657C4E90869201DBDE8AD
:102DE000F04700F085BA502080F31188BFF34F8F71
:102DF000BFF36F8FFEE7BDE8F087000030B51149E3
:102E000000E011460A688242FBD34B685C1884429A
:102E100003D1406818444860084643681C1894422F
:102E200009D1084C103C2468A24209D052681A44C7
:102E300042600A6812680260814200D0086030BDBA
:102E40000460F9E78400002070B5002441600B4D58
:102E50000061914206D8D11A8269914206D2011DC1
:102E6000686807E09A4203D2994201D3012403E043
:102E7000011D286800F03FFA204670BD5C0000206C
:102E800010B5044600F05CFAA06B28B15FF00004B6
:102E900000F076FA204610BD0124F9E730B589B07C
:102EA000304D55E00498002806DADDE90601059A60
:102EB0009047049800284BDB069C606910B1201DE8
:102EC00000F0E0F902A800F0B9F8024604980A28D8
:102ED0003ED2DFE800F00505053D263705053D2615
:102EE0000598A169034601442046FFF7ADFF00B3F2
:102EF000616A20468847E069012829D100200090B6
:102F00000598A169002342181946204601F0E2F80D
:102F100078B9502080F31188BFF34F8FBFF36F8FC4
:102F2000FEE70598A06128B1811813462046FFF7F7
:102F30008BFF0DE0502080F31188BFF34F8FBFF35C
:102F40006F8FFEE794F82C0010B9204600F02CFAA1
:102F5000002204A9A86800F0F3FD0028A2D109B05E
:102F600030BD00005C0000202DE9FC410F46054605
:102F700000F0AEFB01A800F061F80446019818B11A
:102F800000F0FCFFBDE8FC81224EAFB17068006824
:102F9000A8B30027291B3A46B06800F083FA00F076
:102FA000EDFF0028EED11C494FF080500860BFF3C0
:102FB0004F8FBFF36F8FE5E7A542EBD800F0DEFF40
:102FC00030682746C068C468201D00F05BF9E069DE
:102FD000012810D1A0692B4641193A462046FFF737
:102FE00033FF40B100200346014600902A462046A8
:102FF00001F070F820B1616A20468847C2E707E017
:10300000502080F31188BFF34F8FBFF36F8FFEE71F
:103010000127BFE75C00002004ED00E0064841689E
:10302000096829B14168C968C9684968016370477E
:103030004FF0FF31FAE700002000002070B5054690
:1030400000F0BAFE064E04463069844203D200F016
:1030500009F8012000E0002028602046346170BD9E
:103060005C000020F8B5194D1FE0C068C468066810
:10307000201D00F007F9616A20468847E0690128B1
:1030800013D1A0693044B04206D924616060211D8B
:10309000286800F030F908E000200346014600905F
:1030A0003246204601F016F838B128680168002938
:1030B000DBD16968C5E90010F8BD502080F31188A4
:1030C000BFF34F8FBFF36F8FFEE700005C0000205F
:1030D00008484068401C4FF0500080F3118804D02D
:1030E000BFF34F8FBFF36F8FFEE7BFF34F8FBFF379
:1030F0006F8FFEE78C000020074C2068016841B10B
:10310000C0680021D0F80000FFF72EFFFFF7C6FED1
:10311000F3E701210020F7E75C0000202DE9F041F2
:10312000044600F00DF994F9455004F1240609E035
:10313000606A48B1304600F0E9FE08B100F04AFA92
:103140006D1E6DB2002DF3DC4FF0FF3684F8456044
:1031500000F016F900F0F4F894F9445004F1100767
:1031600009E0206948B1384600F0D0FE08B100F00F
:1031700031FA6D1E6DB2002DF3DC84F84460BDE8B9
:10318000F04100F0FDB800002DE9F04105460027B0
:1031900000F09EFA314E306808B9FFF755FDF0682F
:1031A00005424BD1C5B3083568070ED005F00700BE
:1031B000C0F108000544680707D0502080F311884B
:1031C000BFF34F8FBFF36F8FFEE72DB3706885425B
:1031D00034D82248103001460C6801E020460C46E5
:1031E0006168A94202D221680029F7D131688C4276
:1031F00024D007682168016060680837411B1029E6
:103200000FD96019420708D0502080F31188BFF30E
:103210004F8FBFF36F8FFEE710E041606560FFF7EF
:10322000EDFD61687068401A7060B268904200D22B
:10323000B060F06801430020C4E9000100F09EFE88
:10324000780707D0502080F31188BFF34F8FBFF36A
:103250006F8FFEE73846BDE8F08100007400002063
:1032600010B5031F4FF080741C601B1F21F001017B
:103270001960191F024B0B60143940380A6010BDE9
:10328000D1300008D0E9013201699A60D0E9012308
:103290005A604A68824201D182684A600022026113
:1032A0000868401E0860086870470000034B036010
:1032B00003F15C000860802010607047B4080020B3
:1032C000044B036003F15C0008604FF480701060F1
:1032D00070470000100B0020704700F108014FF00C
:1032E000FF32C0E90112C160016100210160704735
:1032F00000210161704730B50B685A1C02D000F103
:10330000080202E0026904E02246546825689D42F2
:10331000FAD953684B6099608A605160086101680E
:10332000491C016030BD42684A6093688B609368B5
:103330005960916008610168491C01607047000094
:10334000502080F31188BFF34F8FBFF36F8F0A496E
:103350004868401C486001280CD10848006810F0FB
:10336000FF0F07D0502080F31188BFF34F8FBFF3BA
:103370006F8FFEE7704700008C00002004ED00E036
:103380000849486828B1401E486001D180F311887F
:103390007047502080F31188BFF34F8FBFF36F8FBA
:1033A000FEE700008C00002070B5002827D0144DE7
:1033B000A0F108046168E868014207D1502080F359
:1033C0001188BFF34F8FBFF36F8FFEE722683AB1CA
:1033D000502080F31188BFF34F8FBFF36F8FFEE74C
:1033E0008143616000F074F960686968084468604E
:1033F0002046FFF703FDBDE8704000F0BFBD70BD83
:10340000740000204FF0E020002101618161054936
:103410004FF47A720968B1FBF2F1491E416107214C
:10342000016170471C00002010B5FCF7B1FE114986
:1034300010280ED300F1E02090F8F0030A789042B3
:1034400007D2502080F31188BFF34F8FBFF36F8FE7
:10345000FEE709480068896800F4E060884207D9FF
:10346000502080F31188BFF34F8FBFF36F8FFEE7BB
:1034700010BD00008C0000200CED00E010B5084BE2
:10348000002200BF53F832401CB1521C082AF9D365
:1034900010BD43F8321003EBC201486010BD0000BC
:1034A0009802002070B515460E460446FFF748FF07
:1034B00094F944100020491C01D184F8440094F987
:1034C0004510491C01D184F84500FFF759FFA06B56
:1034D00028B92A46314604F1240000F099F8204624
:1034E000BDE87040FFF71ABE10B5020014D00F48B7
:1034F000806B38B1502080F31188BFF34F8FBFF33A
:103500006F8FFEE700F0E4F800211046FFF776FA2F
:1035100000F034FD002807D105494FF080500860C5
:10352000BFF34F8FBFF36F8F10BD0000200000204E
:1035300004ED00E070B50546FFF702FF1E4C05B92B
:103540002568281DFFF79EFEA86A18B105F118002E
:10355000FFF798FEE06A401CE0622068854207D1D0
:10356000291D1648FFF7DFFEE068401CE06007E019
:103570002069401E20612846FFF74BFBFFF74EFDF8
:10358000FFF7FEFEE069002814D02068854211D1C3
:10359000A06B38B1502080F31188BFF34F8FBFF379
:1035A0006F8FFEE706494FF080500860BFF34F8FE2
:1035B000BFF36F8F70BD0000200000207407002053
:1035C00004ED00E002498A6A02604969416070477F
:1035D000200000200149012048627047200000209F
:1035E00010B50C4650B1094909681831FFF783FE40
:1035F0002046BDE810400121FFF700BA502080F3BB
:103600001188BFF34F8FBFF36F8FFEE720000020BC
:1036100070B514460D4668B10A4909681831FFF7BC
:1036200082FE0CB14FF0FF3521462846BDE87040C0
:10363000FFF7E4B9502080F31188BFF34F8FBFF339
:103640006F8FFEE72000002030B587B00024039480
:1036500005AA04A903A80494FFF728FEDDE90301E5
:103660000094CDE90110002315A11748059A00F038
:103670006AFB164D002868631FD000F0FBFC012890
:1036800009D0401C19D1502080F31188BFF34F8F0F
:10369000BFF36F8FFEE7502080F31188BFF34F8F89
:1036A000BFF36F8F4FF0FF3028630120E8616C613A
:1036B00007B0BDE8304000F045B807B030BD0000AD
:1036C00049444C4500000000952C000820000020D3
:1036D0000248816B491C8163704700002000002074
:1036E000164810B5816B11B10121416210BD002156
:1036F00041628169124A01E0B9B1491E01EB8103BF
:1037000052F82330002BF7D001EB810302EB830248
:1037100002F1080453685B685360A34201D15B68FF
:103720005360DA680260816110BD502080F3118817
:10373000BFF34F8FBFF36F8FFEE700002000002024
:10374000D80200201CB5264908780190FF20087097
:1037500008788DF800009DF800009DF8002000F02A
:10376000F000904207D0502080F31188BFF34F8FB4
:10377000BFF36F8FFEE79DF800001A4B00F050007A
:1037800018700720986005E09DF8002052008DF821
:103790000020401E9DF800201206F5D498600328F2
:1037A00007D0502080F31188BFF34F8FBFF36F8F86
:1037B000FEE74FF440709860019808700A4801686D
:1037C00041F470010160016841F070410160FFF750
:1037D00019FE00205860FCF7A5FC00201CBD00006D
:1037E00000E400E08C00002020ED00E0F8B5174672
:1037F0000E46050014D0DEB105FB06F05030FFF791
:10380000C3FC04000AD0002084F8460004F15002F2
:103810003B46314628460094FFF76EFA2046F8BD35
:10382000502080F31188BFF34F8FBFF36F8FFEE7F7
:103830000020E3E738B5049D18B153B1CAB181B196
:1038400020E0502080F31188BFF34F8FBFF36F8FBC
:10385000FEE7502080F31188BFF34F8FBFF36F8FC7
:10386000FEE7502080F31188BFF34F8FBFF36F8FB7
:10387000FEE739B1502080F31188BFF34F8FBFF3BB
:103880006F8FFEE750241C46012384F846302B46F8
:103890000094FFF731FA204638BD000070B50D46A0
:1038A000040025D0FFF74CFDD4E90F20216802FB6E
:1038B000001161600021A1632168A1600A46D4E97A
:1038C0000F01401E00FB0121E16021464FF0FF3057
:1038D00001F8440F487004F110008DB1FFF7FDFCB2
:1038E00004F12400FFF7F9FCFFF74AFD012070BD49
:1038F000502080F31188BFF34F8FBFF36F8FFEE727
:1039000021690029F0D000F001FB0028ECD0044927
:103910004FF080500860BFF34F8FBFF36F8FE3E726
:1039200004ED00E02DE9FF4782B01D468A464FF0C6
:103930000008040003D0BAF1000F08D011E05020B5
:1039400080F31188BFF34F8FBFF36F8FFEE7206CBA
:1039500038B1502080F31188BFF34F8FBFF36F8FC2
:10396000FEE7022D0AD1E06B012807D0502080F33A
:103970001188BFF34F8FBFF36F8FFEE700F00EFA91
:103980003F4F4FF000094FF0805648B9049838B1C6
:10399000502080F31188BFF34F8FBFF36F8FFEE786
:1039A000FFF7CEFCA06BE16B884207D3022D05D058
:1039B0000498D0B1B8F1000F1AD01EE02A46514643
:1039C0002046FFF7F0F8616A19B104F1240000F015
:1039D0009DFA20B13E60BFF34F8FBFF36F8FFFF7AB
:1039E000CFFC012006B0BDE8F087FFF7C9FC22E05C
:1039F0006846FFF7E7FD4FF00108FFF7C1FCFFF74E
:103A000067FEFFF79DFC94F94400401C01D184F847
:103A1000449094F94500401C01D184F84590FFF78B
:103A2000AFFC04A9684600F027F930B12046FFF743
:103A300075FB00F0A3FA0020D4E7FFF781FCA06B30
:103A4000E16B884213D1FFF79BFC04F1100004994D
:103A5000FFF7C6FD2046FFF761FB00F08FFA002854
:103A60009ED13E60BFF34F8FBFF36F8F98E7FFF794
:103A700087FC2046FFF752FB00F080FA90E7000039
:103A800004ED00E02DE9F0471F469046894604000A
:103A900003D0B9F1000F08D011E0502080F3118855
:103AA000BFF34F8FBFF36F8FFEE7206C38B150200C
:103AB00080F31188BFF34F8FBFF36F8FFEE7022FA4
:103AC0000AD1E06B012807D0502080F31188BFF3A2
:103AD0004F8FBFF36F8FFEE7FFF7A6FC5020EFF389
:103AE000118680F31188BFF34F8FBFF36F8FA06BE8
:103AF000E16B884206D3022F04D0002086F31188A0
:103B0000BDE8F08794F945503A4649462046FFF70C
:103B10004AF8681C04D06D1C84F845500120EDE77C
:103B2000606A0028FAD004F1240000F0EFF90028C0
:103B3000F4D0B8F1000FF1D00121C8F80010EDE782
:103B40002DE9F747002683B08A46040003D0BAF176
:103B5000000F08D011E0502080F31188BFF34F8F81
:103B6000BFF36F8FFEE7206C38B1502080F31188CF
:103B7000BFF34F8FBFF36F8FFEE700F00FF9DFF851
:103B8000F4804FF000094FF0805748B9059838B1DC
:103B9000502080F31188BFF34F8FBFF36F8FFEE784
:103BA000FFF7CEFBA56BC5B151462046FEF7E8FFF7
:103BB0006D1EA563206950B104F1100000F0A6F954
:103BC00028B1C8F80070BFF34F8FBFF36F8FFFF7B6
:103BD000D7FB012006B0BDE8F087059808B11EB1FB
:103BE00006E0FFF7CDFB27E06846FFF7EBFC012678
:103BF000FFF7C6FBFFF76CFDFFF7A2FB94F944004B
:103C0000401C01D184F8449094F94500401C01D136
:103C100084F84590FFF7B4FB05A9684600F02CF83E
:103C2000002820460AD0FFF779FA00F0A7F92046CD
:103C3000FFF726F90028B3D00020CBE7FFF720F9E3
:103C400090B104F124000599FFF7CAFC2046FFF764
:103C500065FA00F093F90028A2D1C8F80070BFF30C
:103C60004F8FBFF36F8F9BE72046FFF757FA00F0A7
:103C700085F995E704ED00E02DE9F0410C460500DB
:103C800011D0C4B1FFF75CFB174B5A696E6820680E
:103C9000911B471C17D02F689B6A9F4219D09642F0
:103CA00017D8012410E0502080F31188BFF34F8F04
:103CB000BFF36F8FFEE7502080F31188BFF34F8F63
:103CC000BFF36F8FFEE70024FFF75AFB2046BDE8E5
:103CD000F081884205D9401A20602846FFF772FC1F
:103CE000F1E700202060DCE7200000202DE9FF5FE5
:103CF0008346DDE90E87994616468A469000FFF70F
:103D000043FA05001CD05C20FFF73EFA040014D0F3
:103D10000020256384F85900CDE90240CDE90087F1
:103D20004B46324651465846FEF7F7FF2046FEF70F
:103D300093FE012004B0BDE8F09F2846FFF734FB56
:103D40004FF0FF30F6E7F0B585B0DDE90B640A9D72
:103D5000A6B1DCB15C2700972663022684F859607F
:103D6000002604AFCDE90246CDE90057FEF7D5FFA6
:103D70002046FEF771FE049805B0F0BD502080F398
:103D80001188BFF34F8FBFF36F8FFEE7502080F392
:103D90001188BFF34F8FBFF36F8FFEE70548C169EE
:103DA00019B1806B18B100207047012070470220C4
:103DB0007047000020000020014840697047000063
:103DC000200000202DE9F0412E4C0027A06B40B1CF
:103DD000206A401C2062606A00B101273846BDE8B5
:103DE000F0816669761C666113D16068006838B13D
:103DF000502080F31188BFF34F8FBFF36F8FFEE722
:103E00006068A1686160A060A06A401CA062FFF7C2
:103E100005F9206BDFF87080864209D3606800687E
:103E200080B16068C068C568686886420DD220634A
:103E30002068C06A00EB800158F821000128CAD927
:103E40000127C8E74FF0FF30F1E7281DFFF71AFA06
:103E5000A86A18B105F11800FFF714FAE86AA16919
:103E6000884200D9A06100EB800108EB8100291D88
:103E7000FFF759FAE86A2168C96A8842CED3012758
:103E8000CCE7000020000020D802002070B504001C
:103E90004FF0000133D01B4D2868844207D05020DA
:103EA00080F31188BFF34F8FBFF36F8FFEE7206D54
:103EB00038B1401E2065E36CE26A9A421FD040B1DF
:103EC0001DE0502080F31188BFF34F8FBFF36F8F39
:103ED000FEE7201DFFF7D6F9E06CE062C0F1380084
:103EE000A061E06AA969884200D9A861064900EB8F
:103EF000800001EB8000211DFFF715FA0121084623
:103F000070BD000020000020D802002070B5C068FD
:103F1000C46854B104F118000646FFF7B3F9144D14
:103F2000A86B50B13146134815E0502080F311883A
:103F3000BFF34F8FBFF36F8FFEE7201DFFF7A2F98E
:103F4000E06AA969884200D9A8610B4900EB8000AA
:103F500001EB8000211DFFF7E6F9E06A2968C96AD4
:103F6000884202D90120686270BD002070BD000047
:103F70002000002060070020D80200202DE9F04733
:103F80002C4D00242746A86B38B1FFF7D9F9A86B50
:103F9000401EA863A86B40B146E0502080F3118812
:103FA000BFF34F8FBFF36F8FFEE72969224E0120C9
:103FB000D1B3A6F5916980463068E0B1F068C46875
:103FC00004F11800FFF75EF9201DFFF75BF9E06AC6
:103FD000A969884200D9A86100EB800109EB810042
:103FE000211DFFF7A0F9E06A2968C96A8842E3D376
:103FF000C5F82480E0E70CB1FFF710F82C6A4CB14B
:104000004FEA0806FFF7DEFE00B16E62641EF9D1CA
:1040100000202862686A38B108490127380708601B
:10402000BFF34F8FBFF36F8FFFF7AAF93846BDE894
:10403000F0870000200000206007002004ED00E071
:104040002DE9FC4781461E461746884630200A9DCA
:10405000FFF79AF804000AD0CDE9005433463A46F7
:1040600041464846FEF7A7FE002084F82C00204673
:10407000BDE8FC8710B586B0FEF756FD114CA06870
:10408000B8B100200390049005AA04A903A8FFF783
:1040900017F9DDE9032137208DE8070000230AA185
:1040A0000B48059AFFF74FFEE06010B106B0012003
:1040B00010BD502080F31188BFF34F8FBFF36F8F77
:1040C000FEE700005C000020546D72205376630010
:1040D000F93000082DE9FF411E46134602000A9DF3
:1040E0004FF0000016D0144CA768002F0FD0CDE978
:1040F00000130292062917DAFFF750FE02284FF04C
:1041000000030FD000226946A068FFF70BFC04B043
:10411000BDE8F081502080F31188BFF34F8FBFF3CB
:104120006F8FFEE72A46EEE700233246694638469F
:10413000FFF7A8FCEBE700005C0000208C410008C2
:10414000000000000000000000000000000000006F
:10415000F000000018000000000000000000000057
:10416000010202030405060708090A0B0C0D0E0FD5
:104170001010000000000000000001020304060708
:104180000809000000000102030400006465666184
:10419000756C745461736B00B84100080000002016
:1041A000A00000004C26000858420008A000002093
:1041B000681F00005C2600080000000000000000EE
:1041C00000000000000000000100000010000000DE
:1041D000000000000024F4000000000000000000C7
:1041E00000000000000000000000000000000000CF
:1041F00000000000000000000000000000000000BF
:1042000000000000000000000000000000000000AE
:10421000000000000000000000000000000000009E
:10422000000000000000000000000000000000008E
:10423000000000000000000000000000000000007E
:104240000000000000000000AAAAAAAA00000000C6
:08425000020000000000000064
:04000005080000ED02
:00000001FF
